{
	"contracts/3_Ballot.sol": {
		"ToDoList": {
			"abi": [
				{
					"inputs": [],
					"stateMutability": "nonpayable",
					"type": "constructor"
				},
				{
					"anonymous": false,
					"inputs": [
						{
							"indexed": true,
							"internalType": "address",
							"name": "assignee",
							"type": "address"
						},
						{
							"indexed": true,
							"internalType": "uint256",
							"name": "taskId",
							"type": "uint256"
						}
					],
					"name": "TaskAdded",
					"type": "event"
				},
				{
					"anonymous": false,
					"inputs": [
						{
							"indexed": true,
							"internalType": "address",
							"name": "assignee",
							"type": "address"
						},
						{
							"indexed": true,
							"internalType": "uint256",
							"name": "taskId",
							"type": "uint256"
						}
					],
					"name": "TaskCompleted",
					"type": "event"
				},
				{
					"anonymous": false,
					"inputs": [
						{
							"indexed": true,
							"internalType": "address",
							"name": "assignee",
							"type": "address"
						},
						{
							"indexed": true,
							"internalType": "uint256",
							"name": "taskId",
							"type": "uint256"
						}
					],
					"name": "TaskDeleted",
					"type": "event"
				},
				{
					"anonymous": false,
					"inputs": [
						{
							"indexed": true,
							"internalType": "address",
							"name": "assignee",
							"type": "address"
						},
						{
							"indexed": true,
							"internalType": "uint256",
							"name": "taskId",
							"type": "uint256"
						}
					],
					"name": "TaskOverdue",
					"type": "event"
				},
				{
					"inputs": [
						{
							"internalType": "string",
							"name": "_title",
							"type": "string"
						},
						{
							"internalType": "string",
							"name": "_task",
							"type": "string"
						},
						{
							"internalType": "uint256",
							"name": "_deadline",
							"type": "uint256"
						}
					],
					"name": "addTask",
					"outputs": [],
					"stateMutability": "nonpayable",
					"type": "function"
				},
				{
					"inputs": [
						{
							"internalType": "address",
							"name": "",
							"type": "address"
						}
					],
					"name": "addressToTaskCount",
					"outputs": [
						{
							"internalType": "uint256",
							"name": "",
							"type": "uint256"
						}
					],
					"stateMutability": "view",
					"type": "function"
				},
				{
					"inputs": [
						{
							"internalType": "uint256",
							"name": "_taskId",
							"type": "uint256"
						}
					],
					"name": "completeTask",
					"outputs": [],
					"stateMutability": "nonpayable",
					"type": "function"
				},
				{
					"inputs": [
						{
							"internalType": "uint256",
							"name": "_taskId",
							"type": "uint256"
						}
					],
					"name": "deleteTask",
					"outputs": [],
					"stateMutability": "nonpayable",
					"type": "function"
				},
				{
					"inputs": [],
					"name": "getTaskCount",
					"outputs": [
						{
							"internalType": "uint256",
							"name": "",
							"type": "uint256"
						}
					],
					"stateMutability": "view",
					"type": "function"
				},
				{
					"inputs": [],
					"name": "getTasks",
					"outputs": [
						{
							"components": [
								{
									"internalType": "string",
									"name": "title",
									"type": "string"
								},
								{
									"internalType": "string",
									"name": "task",
									"type": "string"
								},
								{
									"internalType": "uint256",
									"name": "createdAt",
									"type": "uint256"
								},
								{
									"internalType": "uint256",
									"name": "deadline",
									"type": "uint256"
								},
								{
									"internalType": "enum ToDoList.STATUS",
									"name": "status",
									"type": "uint8"
								}
							],
							"internalType": "struct ToDoList.Task[]",
							"name": "",
							"type": "tuple[]"
						}
					],
					"stateMutability": "view",
					"type": "function"
				},
				{
					"inputs": [
						{
							"internalType": "uint256",
							"name": "_taskId",
							"type": "uint256"
						}
					],
					"name": "setOverdueTask",
					"outputs": [],
					"stateMutability": "nonpayable",
					"type": "function"
				}
			],
			"devdoc": {
				"kind": "dev",
				"methods": {},
				"version": 1
			},
			"evm": {
				"assembly": "    /* \"contracts/3_Ballot.sol\":70:3530  contract ToDoList {... */\n  mstore(0x40, 0x80)\n    /* \"contracts/3_Ballot.sol\":195:291  constructor() {... */\n  callvalue\n  dup1\n  iszero\n  tag_1\n  jumpi\n  revert(0x00, 0x00)\ntag_1:\n  pop\n    /* \"contracts/3_Ballot.sol\":230:240  msg.sender */\n  caller\n    /* \"contracts/3_Ballot.sol\":219:227  assigner */\n  0x00\n  0x00\n    /* \"contracts/3_Ballot.sol\":219:240  assigner = msg.sender */\n  0x0100\n  exp\n  dup2\n  sload\n  dup2\n  0xffffffffffffffffffffffffffffffffffffffff\n  mul\n  not\n  and\n  swap1\n  dup4\n  0xffffffffffffffffffffffffffffffffffffffff\n  and\n  mul\n  or\n  swap1\n  sstore\n  pop\n    /* \"contracts/3_Ballot.sol\":283:284  1 */\n  0x01\n    /* \"contracts/3_Ballot.sol\":250:268  addressToTaskCount */\n  dup1\n    /* \"contracts/3_Ballot.sol\":250:280  addressToTaskCount[msg.sender] */\n  0x00\n    /* \"contracts/3_Ballot.sol\":269:279  msg.sender */\n  caller\n    /* \"contracts/3_Ballot.sol\":250:280  addressToTaskCount[msg.sender] */\n  0xffffffffffffffffffffffffffffffffffffffff\n  and\n  0xffffffffffffffffffffffffffffffffffffffff\n  and\n  dup2\n  mstore\n  0x20\n  add\n  swap1\n  dup2\n  mstore\n  0x20\n  add\n  0x00\n  keccak256\n    /* \"contracts/3_Ballot.sol\":250:284  addressToTaskCount[msg.sender] = 1 */\n  dup2\n  swap1\n  sstore\n  pop\n    /* \"contracts/3_Ballot.sol\":70:3530  contract ToDoList {... */\n  dataSize(sub_0)\n  dup1\n  dataOffset(sub_0)\n  0x00\n  codecopy\n  0x00\n  return\nstop\n\nsub_0: assembly {\n        /* \"contracts/3_Ballot.sol\":70:3530  contract ToDoList {... */\n      mstore(0x40, 0x80)\n      callvalue\n      dup1\n      iszero\n      tag_1\n      jumpi\n      revert(0x00, 0x00)\n    tag_1:\n      pop\n      jumpi(tag_2, lt(calldatasize, 0x04))\n      shr(0xe0, calldataload(0x00))\n      dup1\n      0x7cbc9ae9\n      gt\n      tag_10\n      jumpi\n      dup1\n      0x7cbc9ae9\n      eq\n      tag_6\n      jumpi\n      dup1\n      0xc0282a23\n      eq\n      tag_7\n      jumpi\n      dup1\n      0xc17a340e\n      eq\n      tag_8\n      jumpi\n      dup1\n      0xe1e29558\n      eq\n      tag_9\n      jumpi\n      jump(tag_2)\n    tag_10:\n      dup1\n      0x04a87e38\n      eq\n      tag_3\n      jumpi\n      dup1\n      0x18688290\n      eq\n      tag_4\n      jumpi\n      dup1\n      0x560f3192\n      eq\n      tag_5\n      jumpi\n    tag_2:\n      revert(0x00, 0x00)\n        /* \"contracts/3_Ballot.sol\":2888:2985  function getTasks() public view returns (Task[] memory) {... */\n    tag_3:\n      tag_11\n      tag_12\n      jump\t// in\n    tag_11:\n      mload(0x40)\n      tag_13\n      swap2\n      swap1\n      tag_14\n      jump\t// in\n    tag_13:\n      mload(0x40)\n      dup1\n      swap2\n      sub\n      swap1\n      return\n        /* \"contracts/3_Ballot.sol\":2169:2539  function setOverdueTask(uint256 _taskId) external validTaskId(_taskId) {... */\n    tag_4:\n      tag_15\n      0x04\n      dup1\n      calldatasize\n      sub\n      dup2\n      add\n      swap1\n      tag_16\n      swap2\n      swap1\n      tag_17\n      jump\t// in\n    tag_16:\n      tag_18\n      jump\t// in\n    tag_15:\n      stop\n        /* \"contracts/3_Ballot.sol\":2546:2882  function deleteTask(uint256 _taskId) external validTaskId(_taskId) {... */\n    tag_5:\n      tag_19\n      0x04\n      dup1\n      calldatasize\n      sub\n      dup2\n      add\n      swap1\n      tag_20\n      swap2\n      swap1\n      tag_17\n      jump\t// in\n    tag_20:\n      tag_21\n      jump\t// in\n    tag_19:\n      stop\n        /* \"contracts/3_Ballot.sol\":916:1476  function addTask(string calldata _title, string calldata _task, uint256 _deadline) external {... */\n    tag_6:\n      tag_22\n      0x04\n      dup1\n      calldatasize\n      sub\n      dup2\n      add\n      swap1\n      tag_23\n      swap2\n      swap1\n      tag_24\n      jump\t// in\n    tag_23:\n      tag_25\n      jump\t// in\n    tag_22:\n      stop\n        /* \"contracts/3_Ballot.sol\":137:188  mapping (address => uint) public addressToTaskCount */\n    tag_7:\n      tag_26\n      0x04\n      dup1\n      calldatasize\n      sub\n      dup2\n      add\n      swap1\n      tag_27\n      swap2\n      swap1\n      tag_28\n      jump\t// in\n    tag_27:\n      tag_29\n      jump\t// in\n    tag_26:\n      mload(0x40)\n      tag_30\n      swap2\n      swap1\n      tag_31\n      jump\t// in\n    tag_30:\n      mload(0x40)\n      dup1\n      swap2\n      sub\n      swap1\n      return\n        /* \"contracts/3_Ballot.sol\":3073:3172  function getTaskCount() public view returns (uint) {... */\n    tag_8:\n      tag_32\n      tag_33\n      jump\t// in\n    tag_32:\n      mload(0x40)\n      tag_34\n      swap2\n      swap1\n      tag_31\n      jump\t// in\n    tag_34:\n      mload(0x40)\n      dup1\n      swap2\n      sub\n      swap1\n      return\n        /* \"contracts/3_Ballot.sol\":1482:1937  function completeTask(uint256 _taskId) external validTaskId(_taskId) {... */\n    tag_9:\n      tag_35\n      0x04\n      dup1\n      calldatasize\n      sub\n      dup2\n      add\n      swap1\n      tag_36\n      swap2\n      swap1\n      tag_17\n      jump\t// in\n    tag_36:\n      tag_37\n      jump\t// in\n    tag_35:\n      stop\n        /* \"contracts/3_Ballot.sol\":2888:2985  function getTasks() public view returns (Task[] memory) {... */\n    tag_12:\n        /* \"contracts/3_Ballot.sol\":2929:2942  Task[] memory */\n      0x60\n        /* \"contracts/3_Ballot.sol\":2961:2966  tasks */\n      0x02\n        /* \"contracts/3_Ballot.sol\":2961:2978  tasks[msg.sender] */\n      0x00\n        /* \"contracts/3_Ballot.sol\":2967:2977  msg.sender */\n      caller\n        /* \"contracts/3_Ballot.sol\":2961:2978  tasks[msg.sender] */\n      0xffffffffffffffffffffffffffffffffffffffff\n      and\n      0xffffffffffffffffffffffffffffffffffffffff\n      and\n      dup2\n      mstore\n      0x20\n      add\n      swap1\n      dup2\n      mstore\n      0x20\n      add\n      0x00\n      keccak256\n        /* \"contracts/3_Ballot.sol\":2954:2978  return tasks[msg.sender] */\n      dup1\n      sload\n      dup1\n      0x20\n      mul\n      0x20\n      add\n      mload(0x40)\n      swap1\n      dup2\n      add\n      0x40\n      mstore\n      dup1\n      swap3\n      swap2\n      swap1\n      dup2\n      dup2\n      mstore\n      0x20\n      add\n      0x00\n      swap1\n    tag_39:\n      dup3\n      dup3\n      lt\n      iszero\n      tag_40\n      jumpi\n      dup4\n      dup3\n      swap1\n      0x00\n      mstore\n      keccak256(0x00, 0x20)\n      swap1\n      0x05\n      mul\n      add\n      mload(0x40)\n      dup1\n      0xa0\n      add\n      0x40\n      mstore\n      swap1\n      dup2\n      0x00\n      dup3\n      add\n      dup1\n      sload\n      tag_42\n      swap1\n      tag_43\n      jump\t// in\n    tag_42:\n      dup1\n      0x1f\n      add\n      0x20\n      dup1\n      swap2\n      div\n      mul\n      0x20\n      add\n      mload(0x40)\n      swap1\n      dup2\n      add\n      0x40\n      mstore\n      dup1\n      swap3\n      swap2\n      swap1\n      dup2\n      dup2\n      mstore\n      0x20\n      add\n      dup3\n      dup1\n      sload\n      tag_44\n      swap1\n      tag_43\n      jump\t// in\n    tag_44:\n      dup1\n      iszero\n      tag_45\n      jumpi\n      dup1\n      0x1f\n      lt\n      tag_46\n      jumpi\n      0x0100\n      dup1\n      dup4\n      sload\n      div\n      mul\n      dup4\n      mstore\n      swap2\n      0x20\n      add\n      swap2\n      jump(tag_45)\n    tag_46:\n      dup3\n      add\n      swap2\n      swap1\n      0x00\n      mstore\n      keccak256(0x00, 0x20)\n      swap1\n    tag_47:\n      dup2\n      sload\n      dup2\n      mstore\n      swap1\n      0x01\n      add\n      swap1\n      0x20\n      add\n      dup1\n      dup4\n      gt\n      tag_47\n      jumpi\n      dup3\n      swap1\n      sub\n      0x1f\n      and\n      dup3\n      add\n      swap2\n    tag_45:\n      pop\n      pop\n      pop\n      pop\n      pop\n      dup2\n      mstore\n      0x20\n      add\n      0x01\n      dup3\n      add\n      dup1\n      sload\n      tag_48\n      swap1\n      tag_43\n      jump\t// in\n    tag_48:\n      dup1\n      0x1f\n      add\n      0x20\n      dup1\n      swap2\n      div\n      mul\n      0x20\n      add\n      mload(0x40)\n      swap1\n      dup2\n      add\n      0x40\n      mstore\n      dup1\n      swap3\n      swap2\n      swap1\n      dup2\n      dup2\n      mstore\n      0x20\n      add\n      dup3\n      dup1\n      sload\n      tag_49\n      swap1\n      tag_43\n      jump\t// in\n    tag_49:\n      dup1\n      iszero\n      tag_50\n      jumpi\n      dup1\n      0x1f\n      lt\n      tag_51\n      jumpi\n      0x0100\n      dup1\n      dup4\n      sload\n      div\n      mul\n      dup4\n      mstore\n      swap2\n      0x20\n      add\n      swap2\n      jump(tag_50)\n    tag_51:\n      dup3\n      add\n      swap2\n      swap1\n      0x00\n      mstore\n      keccak256(0x00, 0x20)\n      swap1\n    tag_52:\n      dup2\n      sload\n      dup2\n      mstore\n      swap1\n      0x01\n      add\n      swap1\n      0x20\n      add\n      dup1\n      dup4\n      gt\n      tag_52\n      jumpi\n      dup3\n      swap1\n      sub\n      0x1f\n      and\n      dup3\n      add\n      swap2\n    tag_50:\n      pop\n      pop\n      pop\n      pop\n      pop\n      dup2\n      mstore\n      0x20\n      add\n      0x02\n      dup3\n      add\n      sload\n      dup2\n      mstore\n      0x20\n      add\n      0x03\n      dup3\n      add\n      sload\n      dup2\n      mstore\n      0x20\n      add\n      0x04\n      dup3\n      add\n      0x00\n      swap1\n      sload\n      swap1\n      0x0100\n      exp\n      swap1\n      div\n      0xff\n      and\n      0x02\n      dup2\n      gt\n      iszero\n      tag_53\n      jumpi\n      tag_54\n      tag_55\n      jump\t// in\n    tag_54:\n    tag_53:\n      0x02\n      dup2\n      gt\n      iszero\n      tag_56\n      jumpi\n      tag_57\n      tag_55\n      jump\t// in\n    tag_57:\n    tag_56:\n      dup2\n      mstore\n      pop\n      pop\n      dup2\n      mstore\n      0x20\n      add\n      swap1\n      0x01\n      add\n      swap1\n      jump(tag_39)\n    tag_40:\n      pop\n      pop\n      pop\n      pop\n      swap1\n      pop\n        /* \"contracts/3_Ballot.sol\":2888:2985  function getTasks() public view returns (Task[] memory) {... */\n      swap1\n      jump\t// out\n        /* \"contracts/3_Ballot.sol\":2169:2539  function setOverdueTask(uint256 _taskId) external validTaskId(_taskId) {... */\n    tag_18:\n        /* \"contracts/3_Ballot.sol\":2231:2238  _taskId */\n      dup1\n        /* \"contracts/3_Ballot.sol\":3465:3470  tasks */\n      0x02\n        /* \"contracts/3_Ballot.sol\":3465:3482  tasks[msg.sender] */\n      0x00\n        /* \"contracts/3_Ballot.sol\":3471:3481  msg.sender */\n      caller\n        /* \"contracts/3_Ballot.sol\":3465:3482  tasks[msg.sender] */\n      0xffffffffffffffffffffffffffffffffffffffff\n      and\n      0xffffffffffffffffffffffffffffffffffffffff\n      and\n      dup2\n      mstore\n      0x20\n      add\n      swap1\n      dup2\n      mstore\n      0x20\n      add\n      0x00\n      keccak256\n        /* \"contracts/3_Ballot.sol\":3465:3489  tasks[msg.sender].length */\n      dup1\n      sload\n      swap1\n      pop\n        /* \"contracts/3_Ballot.sol\":3455:3462  _taskId */\n      dup2\n        /* \"contracts/3_Ballot.sol\":3455:3489  _taskId < tasks[msg.sender].length */\n      lt\n        /* \"contracts/3_Ballot.sol\":3447:3510  require(_taskId < tasks[msg.sender].length, \"Invalide task ID\") */\n      tag_59\n      jumpi\n      mload(0x40)\n      0x08c379a000000000000000000000000000000000000000000000000000000000\n      dup2\n      mstore\n      0x04\n      add\n      tag_60\n      swap1\n      tag_61\n      jump\t// in\n    tag_60:\n      mload(0x40)\n      dup1\n      swap2\n      sub\n      swap1\n      revert\n    tag_59:\n        /* \"contracts/3_Ballot.sol\":2250:2267  Task storage task */\n      0x00\n        /* \"contracts/3_Ballot.sol\":2270:2275  tasks */\n      0x02\n        /* \"contracts/3_Ballot.sol\":2270:2287  tasks[msg.sender] */\n      0x00\n        /* \"contracts/3_Ballot.sol\":2276:2286  msg.sender */\n      caller\n        /* \"contracts/3_Ballot.sol\":2270:2287  tasks[msg.sender] */\n      0xffffffffffffffffffffffffffffffffffffffff\n      and\n      0xffffffffffffffffffffffffffffffffffffffff\n      and\n      dup2\n      mstore\n      0x20\n      add\n      swap1\n      dup2\n      mstore\n      0x20\n      add\n      0x00\n      keccak256\n        /* \"contracts/3_Ballot.sol\":2288:2295  _taskId */\n      dup4\n        /* \"contracts/3_Ballot.sol\":2270:2296  tasks[msg.sender][_taskId] */\n      dup2\n      sload\n      dup2\n      lt\n      tag_63\n      jumpi\n      tag_64\n      tag_65\n      jump\t// in\n    tag_64:\n    tag_63:\n      swap1\n      0x00\n      mstore\n      keccak256(0x00, 0x20)\n      swap1\n      0x05\n      mul\n      add\n        /* \"contracts/3_Ballot.sol\":2250:2296  Task storage task = tasks[msg.sender][_taskId] */\n      swap1\n      pop\n        /* \"contracts/3_Ballot.sol\":2330:2344  STATUS.PENDING */\n      0x00\n        /* \"contracts/3_Ballot.sol\":2315:2344  task.status == STATUS.PENDING */\n      0x02\n      dup2\n      gt\n      iszero\n      tag_67\n      jumpi\n      tag_68\n      tag_55\n      jump\t// in\n    tag_68:\n    tag_67:\n        /* \"contracts/3_Ballot.sol\":2315:2319  task */\n      dup2\n        /* \"contracts/3_Ballot.sol\":2315:2326  task.status */\n      0x04\n      add\n      0x00\n      swap1\n      sload\n      swap1\n      0x0100\n      exp\n      swap1\n      div\n      0xff\n      and\n        /* \"contracts/3_Ballot.sol\":2315:2344  task.status == STATUS.PENDING */\n      0x02\n      dup2\n      gt\n      iszero\n      tag_69\n      jumpi\n      tag_70\n      tag_55\n      jump\t// in\n    tag_70:\n    tag_69:\n      eq\n        /* \"contracts/3_Ballot.sol\":2307:2369  require(task.status == STATUS.PENDING, \"Task must be Pending\") */\n      tag_71\n      jumpi\n      mload(0x40)\n      0x08c379a000000000000000000000000000000000000000000000000000000000\n      dup2\n      mstore\n      0x04\n      add\n      tag_72\n      swap1\n      tag_73\n      jump\t// in\n    tag_72:\n      mload(0x40)\n      dup1\n      swap2\n      sub\n      swap1\n      revert\n    tag_71:\n        /* \"contracts/3_Ballot.sol\":2403:2418  block.timestamp */\n      timestamp\n        /* \"contracts/3_Ballot.sol\":2387:2391  task */\n      dup2\n        /* \"contracts/3_Ballot.sol\":2387:2400  task.deadline */\n      0x03\n      add\n      sload\n        /* \"contracts/3_Ballot.sol\":2387:2418  task.deadline < block.timestamp */\n      lt\n        /* \"contracts/3_Ballot.sol\":2379:2446  require(task.deadline < block.timestamp, \"Task is not overdue yet\") */\n      tag_74\n      jumpi\n      mload(0x40)\n      0x08c379a000000000000000000000000000000000000000000000000000000000\n      dup2\n      mstore\n      0x04\n      add\n      tag_75\n      swap1\n      tag_76\n      jump\t// in\n    tag_75:\n      mload(0x40)\n      dup1\n      swap2\n      sub\n      swap1\n      revert\n    tag_74:\n        /* \"contracts/3_Ballot.sol\":2471:2485  STATUS.OVERDUE */\n      0x02\n        /* \"contracts/3_Ballot.sol\":2457:2461  task */\n      dup2\n        /* \"contracts/3_Ballot.sol\":2457:2468  task.status */\n      0x04\n      add\n      0x00\n        /* \"contracts/3_Ballot.sol\":2457:2485  task.status = STATUS.OVERDUE */\n      0x0100\n      exp\n      dup2\n      sload\n      dup2\n      0xff\n      mul\n      not\n      and\n      swap1\n      dup4\n      0x02\n      dup2\n      gt\n      iszero\n      tag_77\n      jumpi\n      tag_78\n      tag_55\n      jump\t// in\n    tag_78:\n    tag_77:\n      mul\n      or\n      swap1\n      sstore\n      pop\n        /* \"contracts/3_Ballot.sol\":2524:2531  _taskId */\n      dup3\n        /* \"contracts/3_Ballot.sol\":2512:2522  msg.sender */\n      caller\n        /* \"contracts/3_Ballot.sol\":2500:2532  TaskOverdue(msg.sender, _taskId) */\n      0xffffffffffffffffffffffffffffffffffffffff\n      and\n      0xc5c09e6ef32e79ce08770ecea60cd5e7915b242a238f0ac57fc39c0b3ba58d19\n      mload(0x40)\n      mload(0x40)\n      dup1\n      swap2\n      sub\n      swap1\n      log3\n        /* \"contracts/3_Ballot.sol\":2240:2539  {... */\n      pop\n        /* \"contracts/3_Ballot.sol\":2169:2539  function setOverdueTask(uint256 _taskId) external validTaskId(_taskId) {... */\n      pop\n      pop\n      jump\t// out\n        /* \"contracts/3_Ballot.sol\":2546:2882  function deleteTask(uint256 _taskId) external validTaskId(_taskId) {... */\n    tag_21:\n        /* \"contracts/3_Ballot.sol\":2604:2611  _taskId */\n      dup1\n        /* \"contracts/3_Ballot.sol\":3465:3470  tasks */\n      0x02\n        /* \"contracts/3_Ballot.sol\":3465:3482  tasks[msg.sender] */\n      0x00\n        /* \"contracts/3_Ballot.sol\":3471:3481  msg.sender */\n      caller\n        /* \"contracts/3_Ballot.sol\":3465:3482  tasks[msg.sender] */\n      0xffffffffffffffffffffffffffffffffffffffff\n      and\n      0xffffffffffffffffffffffffffffffffffffffff\n      and\n      dup2\n      mstore\n      0x20\n      add\n      swap1\n      dup2\n      mstore\n      0x20\n      add\n      0x00\n      keccak256\n        /* \"contracts/3_Ballot.sol\":3465:3489  tasks[msg.sender].length */\n      dup1\n      sload\n      swap1\n      pop\n        /* \"contracts/3_Ballot.sol\":3455:3462  _taskId */\n      dup2\n        /* \"contracts/3_Ballot.sol\":3455:3489  _taskId < tasks[msg.sender].length */\n      lt\n        /* \"contracts/3_Ballot.sol\":3447:3510  require(_taskId < tasks[msg.sender].length, \"Invalide task ID\") */\n      tag_80\n      jumpi\n      mload(0x40)\n      0x08c379a000000000000000000000000000000000000000000000000000000000\n      dup2\n      mstore\n      0x04\n      add\n      tag_81\n      swap1\n      tag_61\n      jump\t// in\n    tag_81:\n      mload(0x40)\n      dup1\n      swap2\n      sub\n      swap1\n      revert\n    tag_80:\n        /* \"contracts/3_Ballot.sol\":2623:2640  uint256 taskCount */\n      0x00\n        /* \"contracts/3_Ballot.sol\":2643:2648  tasks */\n      0x02\n        /* \"contracts/3_Ballot.sol\":2643:2660  tasks[msg.sender] */\n      0x00\n        /* \"contracts/3_Ballot.sol\":2649:2659  msg.sender */\n      caller\n        /* \"contracts/3_Ballot.sol\":2643:2660  tasks[msg.sender] */\n      0xffffffffffffffffffffffffffffffffffffffff\n      and\n      0xffffffffffffffffffffffffffffffffffffffff\n      and\n      dup2\n      mstore\n      0x20\n      add\n      swap1\n      dup2\n      mstore\n      0x20\n      add\n      0x00\n      keccak256\n        /* \"contracts/3_Ballot.sol\":2643:2667  tasks[msg.sender].length */\n      dup1\n      sload\n      swap1\n      pop\n        /* \"contracts/3_Ballot.sol\":2623:2667  uint256 taskCount = tasks[msg.sender].length */\n      swap1\n      pop\n        /* \"contracts/3_Ballot.sol\":2705:2706  1 */\n      0x01\n        /* \"contracts/3_Ballot.sol\":2693:2702  taskCount */\n      dup2\n        /* \"contracts/3_Ballot.sol\":2693:2706  taskCount - 1 */\n      tag_83\n      swap2\n      swap1\n      tag_84\n      jump\t// in\n    tag_83:\n        /* \"contracts/3_Ballot.sol\":2682:2689  _taskId */\n      dup4\n        /* \"contracts/3_Ballot.sol\":2682:2706  _taskId != taskCount - 1 */\n      eq\n        /* \"contracts/3_Ballot.sol\":2678:2794  if (_taskId != taskCount - 1) {... */\n      tag_85\n      jumpi\n        /* \"contracts/3_Ballot.sol\":2751:2756  tasks */\n      0x02\n        /* \"contracts/3_Ballot.sol\":2751:2768  tasks[msg.sender] */\n      0x00\n        /* \"contracts/3_Ballot.sol\":2757:2767  msg.sender */\n      caller\n        /* \"contracts/3_Ballot.sol\":2751:2768  tasks[msg.sender] */\n      0xffffffffffffffffffffffffffffffffffffffff\n      and\n      0xffffffffffffffffffffffffffffffffffffffff\n      and\n      dup2\n      mstore\n      0x20\n      add\n      swap1\n      dup2\n      mstore\n      0x20\n      add\n      0x00\n      keccak256\n        /* \"contracts/3_Ballot.sol\":2781:2782  1 */\n      0x01\n        /* \"contracts/3_Ballot.sol\":2769:2778  taskCount */\n      dup3\n        /* \"contracts/3_Ballot.sol\":2769:2782  taskCount - 1 */\n      tag_86\n      swap2\n      swap1\n      tag_84\n      jump\t// in\n    tag_86:\n        /* \"contracts/3_Ballot.sol\":2751:2783  tasks[msg.sender][taskCount - 1] */\n      dup2\n      sload\n      dup2\n      lt\n      tag_87\n      jumpi\n      tag_88\n      tag_65\n      jump\t// in\n    tag_88:\n    tag_87:\n      swap1\n      0x00\n      mstore\n      keccak256(0x00, 0x20)\n      swap1\n      0x05\n      mul\n      add\n        /* \"contracts/3_Ballot.sol\":2722:2727  tasks */\n      0x02\n        /* \"contracts/3_Ballot.sol\":2722:2739  tasks[msg.sender] */\n      0x00\n        /* \"contracts/3_Ballot.sol\":2728:2738  msg.sender */\n      caller\n        /* \"contracts/3_Ballot.sol\":2722:2739  tasks[msg.sender] */\n      0xffffffffffffffffffffffffffffffffffffffff\n      and\n      0xffffffffffffffffffffffffffffffffffffffff\n      and\n      dup2\n      mstore\n      0x20\n      add\n      swap1\n      dup2\n      mstore\n      0x20\n      add\n      0x00\n      keccak256\n        /* \"contracts/3_Ballot.sol\":2740:2747  _taskId */\n      dup5\n        /* \"contracts/3_Ballot.sol\":2722:2748  tasks[msg.sender][_taskId] */\n      dup2\n      sload\n      dup2\n      lt\n      tag_90\n      jumpi\n      tag_91\n      tag_65\n      jump\t// in\n    tag_91:\n    tag_90:\n      swap1\n      0x00\n      mstore\n      keccak256(0x00, 0x20)\n      swap1\n      0x05\n      mul\n      add\n        /* \"contracts/3_Ballot.sol\":2722:2783  tasks[msg.sender][_taskId] = tasks[msg.sender][taskCount - 1] */\n      0x00\n      dup3\n      add\n      dup2\n      0x00\n      add\n      swap1\n      dup2\n      tag_93\n      swap2\n      swap1\n      tag_94\n      jump\t// in\n    tag_93:\n      pop\n      0x01\n      dup3\n      add\n      dup2\n      0x01\n      add\n      swap1\n      dup2\n      tag_95\n      swap2\n      swap1\n      tag_94\n      jump\t// in\n    tag_95:\n      pop\n      0x02\n      dup3\n      add\n      sload\n      dup2\n      0x02\n      add\n      sstore\n      0x03\n      dup3\n      add\n      sload\n      dup2\n      0x03\n      add\n      sstore\n      0x04\n      dup3\n      add\n      0x00\n      swap1\n      sload\n      swap1\n      0x0100\n      exp\n      swap1\n      div\n      0xff\n      and\n      dup2\n      0x04\n      add\n      exp(0x0100, 0x00)\n      dup2\n      sload\n      dup2\n      0xff\n      mul\n      not\n      and\n      swap1\n      dup4\n      0x02\n      dup2\n      gt\n      iszero\n      tag_96\n      jumpi\n      tag_97\n      tag_55\n      jump\t// in\n    tag_97:\n    tag_96:\n      mul\n      or\n      swap1\n      sstore\n      pop\n      swap1\n      pop\n      pop\n        /* \"contracts/3_Ballot.sol\":2678:2794  if (_taskId != taskCount - 1) {... */\n    tag_85:\n        /* \"contracts/3_Ballot.sol\":2804:2809  tasks */\n      0x02\n        /* \"contracts/3_Ballot.sol\":2804:2821  tasks[msg.sender] */\n      0x00\n        /* \"contracts/3_Ballot.sol\":2810:2820  msg.sender */\n      caller\n        /* \"contracts/3_Ballot.sol\":2804:2821  tasks[msg.sender] */\n      0xffffffffffffffffffffffffffffffffffffffff\n      and\n      0xffffffffffffffffffffffffffffffffffffffff\n      and\n      dup2\n      mstore\n      0x20\n      add\n      swap1\n      dup2\n      mstore\n      0x20\n      add\n      0x00\n      keccak256\n        /* \"contracts/3_Ballot.sol\":2804:2827  tasks[msg.sender].pop() */\n      dup1\n      sload\n      dup1\n      tag_98\n      jumpi\n      tag_99\n      tag_100\n      jump\t// in\n    tag_99:\n    tag_98:\n      0x01\n      swap1\n      sub\n      dup2\n      dup2\n      swap1\n      0x00\n      mstore\n      keccak256(0x00, 0x20)\n      swap1\n      0x05\n      mul\n      add\n      0x00\n      0x00\n      dup3\n      add\n      0x00\n      tag_102\n      swap2\n      swap1\n      tag_103\n      jump\t// in\n    tag_102:\n      0x01\n      dup3\n      add\n      0x00\n      tag_104\n      swap2\n      swap1\n      tag_103\n      jump\t// in\n    tag_104:\n      0x02\n      dup3\n      add\n      0x00\n      swap1\n      sstore\n      0x03\n      dup3\n      add\n      0x00\n      swap1\n      sstore\n      0x04\n      dup3\n      add\n      exp(0x0100, 0x00)\n      dup2\n      sload\n      swap1\n      0xff\n      mul\n      not\n      and\n      swap1\n      sstore\n      pop\n      pop\n      swap1\n      sstore\n        /* \"contracts/3_Ballot.sol\":2867:2874  _taskId */\n      dup3\n        /* \"contracts/3_Ballot.sol\":2855:2865  msg.sender */\n      caller\n        /* \"contracts/3_Ballot.sol\":2843:2875  TaskDeleted(msg.sender, _taskId) */\n      0xffffffffffffffffffffffffffffffffffffffff\n      and\n      0xd1bc87501afcaa22b7f6481dac99ed45fbe02321873ca9b55c1f41b9d78b8fb3\n      mload(0x40)\n      mload(0x40)\n      dup1\n      swap2\n      sub\n      swap1\n      log3\n        /* \"contracts/3_Ballot.sol\":2613:2882  {... */\n      pop\n        /* \"contracts/3_Ballot.sol\":2546:2882  function deleteTask(uint256 _taskId) external validTaskId(_taskId) {... */\n      pop\n      pop\n      jump\t// out\n        /* \"contracts/3_Ballot.sol\":916:1476  function addTask(string calldata _title, string calldata _task, uint256 _deadline) external {... */\n    tag_25:\n        /* \"contracts/3_Ballot.sol\":1049:1050  0 */\n      0x00\n        /* \"contracts/3_Ballot.sol\":1032:1038  _title */\n      dup6\n      dup6\n        /* \"contracts/3_Ballot.sol\":1026:1046  bytes(_title).length */\n      swap1\n      pop\n        /* \"contracts/3_Ballot.sol\":1026:1050  bytes(_title).length > 0 */\n      gt\n        /* \"contracts/3_Ballot.sol\":1018:1077  require(bytes(_title).length > 0, \"Title must be provided\") */\n      tag_106\n      jumpi\n      mload(0x40)\n      0x08c379a000000000000000000000000000000000000000000000000000000000\n      dup2\n      mstore\n      0x04\n      add\n      tag_107\n      swap1\n      tag_108\n      jump\t// in\n    tag_107:\n      mload(0x40)\n      dup1\n      swap2\n      sub\n      swap1\n      revert\n    tag_106:\n        /* \"contracts/3_Ballot.sol\":1107:1122  block.timestamp */\n      timestamp\n        /* \"contracts/3_Ballot.sol\":1095:1104  _deadline */\n      dup2\n        /* \"contracts/3_Ballot.sol\":1095:1122  _deadline > block.timestamp */\n      gt\n        /* \"contracts/3_Ballot.sol\":1087:1157  require(_deadline > block.timestamp, \"Deadline must be in the future\") */\n      tag_109\n      jumpi\n      mload(0x40)\n      0x08c379a000000000000000000000000000000000000000000000000000000000\n      dup2\n      mstore\n      0x04\n      add\n      tag_110\n      swap1\n      tag_111\n      jump\t// in\n    tag_110:\n      mload(0x40)\n      dup1\n      swap2\n      sub\n      swap1\n      revert\n    tag_109:\n        /* \"contracts/3_Ballot.sol\":1168:1173  tasks */\n      0x02\n        /* \"contracts/3_Ballot.sol\":1168:1185  tasks[msg.sender] */\n      0x00\n        /* \"contracts/3_Ballot.sol\":1174:1184  msg.sender */\n      caller\n        /* \"contracts/3_Ballot.sol\":1168:1185  tasks[msg.sender] */\n      0xffffffffffffffffffffffffffffffffffffffff\n      and\n      0xffffffffffffffffffffffffffffffffffffffff\n      and\n      dup2\n      mstore\n      0x20\n      add\n      swap1\n      dup2\n      mstore\n      0x20\n      add\n      0x00\n      keccak256\n        /* \"contracts/3_Ballot.sol\":1191:1368  Task({... */\n      mload(0x40)\n      dup1\n      0xa0\n      add\n      0x40\n      mstore\n      dup1\n        /* \"contracts/3_Ballot.sol\":1217:1223  _title */\n      dup8\n      dup8\n        /* \"contracts/3_Ballot.sol\":1191:1368  Task({... */\n      dup1\n      dup1\n      0x1f\n      add\n      0x20\n      dup1\n      swap2\n      div\n      mul\n      0x20\n      add\n      mload(0x40)\n      swap1\n      dup2\n      add\n      0x40\n      mstore\n      dup1\n      swap4\n      swap3\n      swap2\n      swap1\n      dup2\n      dup2\n      mstore\n      0x20\n      add\n      dup4\n      dup4\n      dup1\n      dup3\n      dup5\n      calldatacopy\n      0x00\n      dup2\n      dup5\n      add\n      mstore\n      not(0x1f)\n      0x1f\n      dup3\n      add\n      and\n      swap1\n      pop\n      dup1\n      dup4\n      add\n      swap3\n      pop\n      pop\n      pop\n      pop\n      pop\n      pop\n      pop\n      dup2\n      mstore\n      0x20\n      add\n        /* \"contracts/3_Ballot.sol\":1243:1248  _task */\n      dup6\n      dup6\n        /* \"contracts/3_Ballot.sol\":1191:1368  Task({... */\n      dup1\n      dup1\n      0x1f\n      add\n      0x20\n      dup1\n      swap2\n      div\n      mul\n      0x20\n      add\n      mload(0x40)\n      swap1\n      dup2\n      add\n      0x40\n      mstore\n      dup1\n      swap4\n      swap3\n      swap2\n      swap1\n      dup2\n      dup2\n      mstore\n      0x20\n      add\n      dup4\n      dup4\n      dup1\n      dup3\n      dup5\n      calldatacopy\n      0x00\n      dup2\n      dup5\n      add\n      mstore\n      not(0x1f)\n      0x1f\n      dup3\n      add\n      and\n      swap1\n      pop\n      dup1\n      dup4\n      add\n      swap3\n      pop\n      pop\n      pop\n      pop\n      pop\n      pop\n      pop\n      dup2\n      mstore\n      0x20\n      add\n        /* \"contracts/3_Ballot.sol\":1273:1288  block.timestamp */\n      timestamp\n        /* \"contracts/3_Ballot.sol\":1191:1368  Task({... */\n      dup2\n      mstore\n      0x20\n      add\n        /* \"contracts/3_Ballot.sol\":1312:1321  _deadline */\n      dup4\n        /* \"contracts/3_Ballot.sol\":1191:1368  Task({... */\n      dup2\n      mstore\n      0x20\n      add\n        /* \"contracts/3_Ballot.sol\":1343:1357  STATUS.PENDING */\n      0x00\n        /* \"contracts/3_Ballot.sol\":1191:1368  Task({... */\n      0x02\n      dup2\n      gt\n      iszero\n      tag_112\n      jumpi\n      tag_113\n      tag_55\n      jump\t// in\n    tag_113:\n    tag_112:\n      dup2\n      mstore\n      pop\n        /* \"contracts/3_Ballot.sol\":1168:1369  tasks[msg.sender].push(Task({... */\n      swap1\n      dup1\n      0x01\n      dup2\n      sload\n      add\n      dup1\n      dup3\n      sstore\n      dup1\n      swap2\n      pop\n      pop\n      0x01\n      swap1\n      sub\n      swap1\n      0x00\n      mstore\n      keccak256(0x00, 0x20)\n      swap1\n      0x05\n      mul\n      add\n      0x00\n      swap1\n      swap2\n      swap1\n      swap2\n      swap1\n      swap2\n      pop\n      0x00\n      dup3\n      add\n      mload\n      dup2\n      0x00\n      add\n      swap1\n      dup2\n      tag_115\n      swap2\n      swap1\n      tag_116\n      jump\t// in\n    tag_115:\n      pop\n      0x20\n      dup3\n      add\n      mload\n      dup2\n      0x01\n      add\n      swap1\n      dup2\n      tag_117\n      swap2\n      swap1\n      tag_116\n      jump\t// in\n    tag_117:\n      pop\n      0x40\n      dup3\n      add\n      mload\n      dup2\n      0x02\n      add\n      sstore\n      0x60\n      dup3\n      add\n      mload\n      dup2\n      0x03\n      add\n      sstore\n      0x80\n      dup3\n      add\n      mload\n      dup2\n      0x04\n      add\n      exp(0x0100, 0x00)\n      dup2\n      sload\n      dup2\n      0xff\n      mul\n      not\n      and\n      swap1\n      dup4\n      0x02\n      dup2\n      gt\n      iszero\n      tag_118\n      jumpi\n      tag_119\n      tag_55\n      jump\t// in\n    tag_119:\n    tag_118:\n      mul\n      or\n      swap1\n      sstore\n      pop\n      pop\n      pop\n        /* \"contracts/3_Ballot.sol\":1380:1394  uint256 taskId */\n      0x00\n        /* \"contracts/3_Ballot.sol\":1424:1425  1 */\n      0x01\n        /* \"contracts/3_Ballot.sol\":1397:1402  tasks */\n      0x02\n        /* \"contracts/3_Ballot.sol\":1397:1414  tasks[msg.sender] */\n      0x00\n        /* \"contracts/3_Ballot.sol\":1403:1413  msg.sender */\n      caller\n        /* \"contracts/3_Ballot.sol\":1397:1414  tasks[msg.sender] */\n      0xffffffffffffffffffffffffffffffffffffffff\n      and\n      0xffffffffffffffffffffffffffffffffffffffff\n      and\n      dup2\n      mstore\n      0x20\n      add\n      swap1\n      dup2\n      mstore\n      0x20\n      add\n      0x00\n      keccak256\n        /* \"contracts/3_Ballot.sol\":1397:1421  tasks[msg.sender].length */\n      dup1\n      sload\n      swap1\n      pop\n        /* \"contracts/3_Ballot.sol\":1397:1425  tasks[msg.sender].length - 1 */\n      tag_120\n      swap2\n      swap1\n      tag_84\n      jump\t// in\n    tag_120:\n        /* \"contracts/3_Ballot.sol\":1380:1425  uint256 taskId = tasks[msg.sender].length - 1 */\n      swap1\n      pop\n        /* \"contracts/3_Ballot.sol\":1462:1468  taskId */\n      dup1\n        /* \"contracts/3_Ballot.sol\":1450:1460  msg.sender */\n      caller\n        /* \"contracts/3_Ballot.sol\":1440:1469  TaskAdded(msg.sender, taskId) */\n      0xffffffffffffffffffffffffffffffffffffffff\n      and\n      0xf2ba834cb120f28cac9129d80d6990b8d99d9a0a71487cec7d88bd8a2ba45cb9\n      mload(0x40)\n      mload(0x40)\n      dup1\n      swap2\n      sub\n      swap1\n      log3\n        /* \"contracts/3_Ballot.sol\":1008:1476  {... */\n      pop\n        /* \"contracts/3_Ballot.sol\":916:1476  function addTask(string calldata _title, string calldata _task, uint256 _deadline) external {... */\n      pop\n      pop\n      pop\n      pop\n      pop\n      jump\t// out\n        /* \"contracts/3_Ballot.sol\":137:188  mapping (address => uint) public addressToTaskCount */\n    tag_29:\n      mstore(0x20, 0x01)\n      dup1\n      0x00\n      mstore\n      keccak256(0x00, 0x40)\n      0x00\n      swap2\n      pop\n      swap1\n      pop\n      sload\n      dup2\n      jump\t// out\n        /* \"contracts/3_Ballot.sol\":3073:3172  function getTaskCount() public view returns (uint) {... */\n    tag_33:\n        /* \"contracts/3_Ballot.sol\":3118:3122  uint */\n      0x00\n        /* \"contracts/3_Ballot.sol\":3141:3146  tasks */\n      0x02\n        /* \"contracts/3_Ballot.sol\":3141:3158  tasks[msg.sender] */\n      0x00\n        /* \"contracts/3_Ballot.sol\":3147:3157  msg.sender */\n      caller\n        /* \"contracts/3_Ballot.sol\":3141:3158  tasks[msg.sender] */\n      0xffffffffffffffffffffffffffffffffffffffff\n      and\n      0xffffffffffffffffffffffffffffffffffffffff\n      and\n      dup2\n      mstore\n      0x20\n      add\n      swap1\n      dup2\n      mstore\n      0x20\n      add\n      0x00\n      keccak256\n        /* \"contracts/3_Ballot.sol\":3141:3165  tasks[msg.sender].length */\n      dup1\n      sload\n      swap1\n      pop\n        /* \"contracts/3_Ballot.sol\":3134:3165  return tasks[msg.sender].length */\n      swap1\n      pop\n        /* \"contracts/3_Ballot.sol\":3073:3172  function getTaskCount() public view returns (uint) {... */\n      swap1\n      jump\t// out\n        /* \"contracts/3_Ballot.sol\":1482:1937  function completeTask(uint256 _taskId) external validTaskId(_taskId) {... */\n    tag_37:\n        /* \"contracts/3_Ballot.sol\":1542:1549  _taskId */\n      dup1\n        /* \"contracts/3_Ballot.sol\":3465:3470  tasks */\n      0x02\n        /* \"contracts/3_Ballot.sol\":3465:3482  tasks[msg.sender] */\n      0x00\n        /* \"contracts/3_Ballot.sol\":3471:3481  msg.sender */\n      caller\n        /* \"contracts/3_Ballot.sol\":3465:3482  tasks[msg.sender] */\n      0xffffffffffffffffffffffffffffffffffffffff\n      and\n      0xffffffffffffffffffffffffffffffffffffffff\n      and\n      dup2\n      mstore\n      0x20\n      add\n      swap1\n      dup2\n      mstore\n      0x20\n      add\n      0x00\n      keccak256\n        /* \"contracts/3_Ballot.sol\":3465:3489  tasks[msg.sender].length */\n      dup1\n      sload\n      swap1\n      pop\n        /* \"contracts/3_Ballot.sol\":3455:3462  _taskId */\n      dup2\n        /* \"contracts/3_Ballot.sol\":3455:3489  _taskId < tasks[msg.sender].length */\n      lt\n        /* \"contracts/3_Ballot.sol\":3447:3510  require(_taskId < tasks[msg.sender].length, \"Invalide task ID\") */\n      tag_123\n      jumpi\n      mload(0x40)\n      0x08c379a000000000000000000000000000000000000000000000000000000000\n      dup2\n      mstore\n      0x04\n      add\n      tag_124\n      swap1\n      tag_61\n      jump\t// in\n    tag_124:\n      mload(0x40)\n      dup1\n      swap2\n      sub\n      swap1\n      revert\n    tag_123:\n        /* \"contracts/3_Ballot.sol\":1562:1579  Task storage task */\n      0x00\n        /* \"contracts/3_Ballot.sol\":1582:1587  tasks */\n      0x02\n        /* \"contracts/3_Ballot.sol\":1582:1599  tasks[msg.sender] */\n      0x00\n        /* \"contracts/3_Ballot.sol\":1588:1598  msg.sender */\n      caller\n        /* \"contracts/3_Ballot.sol\":1582:1599  tasks[msg.sender] */\n      0xffffffffffffffffffffffffffffffffffffffff\n      and\n      0xffffffffffffffffffffffffffffffffffffffff\n      and\n      dup2\n      mstore\n      0x20\n      add\n      swap1\n      dup2\n      mstore\n      0x20\n      add\n      0x00\n      keccak256\n        /* \"contracts/3_Ballot.sol\":1600:1607  _taskId */\n      dup4\n        /* \"contracts/3_Ballot.sol\":1582:1608  tasks[msg.sender][_taskId] */\n      dup2\n      sload\n      dup2\n      lt\n      tag_126\n      jumpi\n      tag_127\n      tag_65\n      jump\t// in\n    tag_127:\n    tag_126:\n      swap1\n      0x00\n      mstore\n      keccak256(0x00, 0x20)\n      swap1\n      0x05\n      mul\n      add\n        /* \"contracts/3_Ballot.sol\":1562:1608  Task storage task = tasks[msg.sender][_taskId] */\n      swap1\n      pop\n        /* \"contracts/3_Ballot.sol\":1642:1656  STATUS.PENDING */\n      0x00\n        /* \"contracts/3_Ballot.sol\":1627:1656  task.status == STATUS.PENDING */\n      0x02\n      dup2\n      gt\n      iszero\n      tag_129\n      jumpi\n      tag_130\n      tag_55\n      jump\t// in\n    tag_130:\n    tag_129:\n        /* \"contracts/3_Ballot.sol\":1627:1631  task */\n      dup2\n        /* \"contracts/3_Ballot.sol\":1627:1638  task.status */\n      0x04\n      add\n      0x00\n      swap1\n      sload\n      swap1\n      0x0100\n      exp\n      swap1\n      div\n      0xff\n      and\n        /* \"contracts/3_Ballot.sol\":1627:1656  task.status == STATUS.PENDING */\n      0x02\n      dup2\n      gt\n      iszero\n      tag_131\n      jumpi\n      tag_132\n      tag_55\n      jump\t// in\n    tag_132:\n    tag_131:\n      eq\n        /* \"contracts/3_Ballot.sol\":1619:1681  require(task.status == STATUS.PENDING, \"Task must be Pending\") */\n      tag_133\n      jumpi\n      mload(0x40)\n      0x08c379a000000000000000000000000000000000000000000000000000000000\n      dup2\n      mstore\n      0x04\n      add\n      tag_134\n      swap1\n      tag_73\n      jump\t// in\n    tag_134:\n      mload(0x40)\n      dup1\n      swap2\n      sub\n      swap1\n      revert\n    tag_133:\n        /* \"contracts/3_Ballot.sol\":1722:1726  task */\n      dup1\n        /* \"contracts/3_Ballot.sol\":1722:1735  task.deadline */\n      0x03\n      add\n      sload\n        /* \"contracts/3_Ballot.sol\":1704:1719  block.timestamp */\n      timestamp\n        /* \"contracts/3_Ballot.sol\":1704:1735  block.timestamp > task.deadline */\n      gt\n        /* \"contracts/3_Ballot.sol\":1700:1841  if (block.timestamp > task.deadline) {... */\n      iszero\n      tag_135\n      jumpi\n        /* \"contracts/3_Ballot.sol\":1765:1779  STATUS.OVERDUE */\n      0x02\n        /* \"contracts/3_Ballot.sol\":1751:1755  task */\n      dup2\n        /* \"contracts/3_Ballot.sol\":1751:1762  task.status */\n      0x04\n      add\n      0x00\n        /* \"contracts/3_Ballot.sol\":1751:1779  task.status = STATUS.OVERDUE */\n      0x0100\n      exp\n      dup2\n      sload\n      dup2\n      0xff\n      mul\n      not\n      and\n      swap1\n      dup4\n      0x02\n      dup2\n      gt\n      iszero\n      tag_136\n      jumpi\n      tag_137\n      tag_55\n      jump\t// in\n    tag_137:\n    tag_136:\n      mul\n      or\n      swap1\n      sstore\n      pop\n        /* \"contracts/3_Ballot.sol\":1822:1829  _taskId */\n      dup3\n        /* \"contracts/3_Ballot.sol\":1810:1820  msg.sender */\n      caller\n        /* \"contracts/3_Ballot.sol\":1798:1830  TaskOverdue(msg.sender, _taskId) */\n      0xffffffffffffffffffffffffffffffffffffffff\n      and\n      0xc5c09e6ef32e79ce08770ecea60cd5e7915b242a238f0ac57fc39c0b3ba58d19\n      mload(0x40)\n      mload(0x40)\n      dup1\n      swap2\n      sub\n      swap1\n      log3\n        /* \"contracts/3_Ballot.sol\":1700:1841  if (block.timestamp > task.deadline) {... */\n    tag_135:\n        /* \"contracts/3_Ballot.sol\":1865:1881  STATUS.COMPLETED */\n      0x01\n        /* \"contracts/3_Ballot.sol\":1851:1855  task */\n      dup2\n        /* \"contracts/3_Ballot.sol\":1851:1862  task.status */\n      0x04\n      add\n      0x00\n        /* \"contracts/3_Ballot.sol\":1851:1881  task.status = STATUS.COMPLETED */\n      0x0100\n      exp\n      dup2\n      sload\n      dup2\n      0xff\n      mul\n      not\n      and\n      swap1\n      dup4\n      0x02\n      dup2\n      gt\n      iszero\n      tag_138\n      jumpi\n      tag_139\n      tag_55\n      jump\t// in\n    tag_139:\n    tag_138:\n      mul\n      or\n      swap1\n      sstore\n      pop\n        /* \"contracts/3_Ballot.sol\":1922:1929  _taskId */\n      dup3\n        /* \"contracts/3_Ballot.sol\":1910:1920  msg.sender */\n      caller\n        /* \"contracts/3_Ballot.sol\":1896:1930  TaskCompleted(msg.sender, _taskId) */\n      0xffffffffffffffffffffffffffffffffffffffff\n      and\n      0xf684d89bb0f42287bf32838774e4b7f8a60c11804b3c6d1791fa55f306792643\n      mload(0x40)\n      mload(0x40)\n      dup1\n      swap2\n      sub\n      swap1\n      log3\n        /* \"contracts/3_Ballot.sol\":1551:1937  {... */\n      pop\n        /* \"contracts/3_Ballot.sol\":1482:1937  function completeTask(uint256 _taskId) external validTaskId(_taskId) {... */\n      pop\n      pop\n      jump\t// out\n    tag_103:\n      pop\n      dup1\n      sload\n      tag_140\n      swap1\n      tag_43\n      jump\t// in\n    tag_140:\n      0x00\n      dup3\n      sstore\n      dup1\n      0x1f\n      lt\n      tag_142\n      jumpi\n      pop\n      jump(tag_141)\n    tag_142:\n      0x1f\n      add\n      0x20\n      swap1\n      div\n      swap1\n      0x00\n      mstore\n      keccak256(0x00, 0x20)\n      swap1\n      dup2\n      add\n      swap1\n      tag_143\n      swap2\n      swap1\n      tag_144\n      jump\t// in\n    tag_143:\n    tag_141:\n      pop\n      jump\t// out\n    tag_144:\n    tag_145:\n      dup1\n      dup3\n      gt\n      iszero\n      tag_146\n      jumpi\n      0x00\n      dup2\n      0x00\n      swap1\n      sstore\n      pop\n      0x01\n      add\n      jump(tag_145)\n    tag_146:\n      pop\n      swap1\n      jump\t// out\n        /* \"#utility.yul\":7:141   */\n    tag_147:\n        /* \"#utility.yul\":94:100   */\n      0x00\n        /* \"#utility.yul\":128:133   */\n      dup2\n        /* \"#utility.yul\":122:134   */\n      mload\n        /* \"#utility.yul\":112:134   */\n      swap1\n      pop\n        /* \"#utility.yul\":7:141   */\n      swap2\n      swap1\n      pop\n      jump\t// out\n        /* \"#utility.yul\":147:351   */\n    tag_148:\n        /* \"#utility.yul\":266:277   */\n      0x00\n        /* \"#utility.yul\":300:306   */\n      dup3\n        /* \"#utility.yul\":295:298   */\n      dup3\n        /* \"#utility.yul\":288:307   */\n      mstore\n        /* \"#utility.yul\":340:344   */\n      0x20\n        /* \"#utility.yul\":335:338   */\n      dup3\n        /* \"#utility.yul\":331:345   */\n      add\n        /* \"#utility.yul\":316:345   */\n      swap1\n      pop\n        /* \"#utility.yul\":147:351   */\n      swap3\n      swap2\n      pop\n      pop\n      jump\t// out\n        /* \"#utility.yul\":357:509   */\n    tag_149:\n        /* \"#utility.yul\":444:448   */\n      0x00\n        /* \"#utility.yul\":467:470   */\n      dup2\n        /* \"#utility.yul\":459:470   */\n      swap1\n      pop\n        /* \"#utility.yul\":497:501   */\n      0x20\n        /* \"#utility.yul\":492:495   */\n      dup3\n        /* \"#utility.yul\":488:502   */\n      add\n        /* \"#utility.yul\":480:502   */\n      swap1\n      pop\n        /* \"#utility.yul\":357:509   */\n      swap2\n      swap1\n      pop\n      jump\t// out\n        /* \"#utility.yul\":515:614   */\n    tag_150:\n        /* \"#utility.yul\":567:573   */\n      0x00\n        /* \"#utility.yul\":601:606   */\n      dup2\n        /* \"#utility.yul\":595:607   */\n      mload\n        /* \"#utility.yul\":585:607   */\n      swap1\n      pop\n        /* \"#utility.yul\":515:614   */\n      swap2\n      swap1\n      pop\n      jump\t// out\n        /* \"#utility.yul\":620:779   */\n    tag_151:\n        /* \"#utility.yul\":694:705   */\n      0x00\n        /* \"#utility.yul\":728:734   */\n      dup3\n        /* \"#utility.yul\":723:726   */\n      dup3\n        /* \"#utility.yul\":716:735   */\n      mstore\n        /* \"#utility.yul\":768:772   */\n      0x20\n        /* \"#utility.yul\":763:766   */\n      dup3\n        /* \"#utility.yul\":759:773   */\n      add\n        /* \"#utility.yul\":744:773   */\n      swap1\n      pop\n        /* \"#utility.yul\":620:779   */\n      swap3\n      swap2\n      pop\n      pop\n      jump\t// out\n        /* \"#utility.yul\":785:924   */\n    tag_152:\n        /* \"#utility.yul\":874:880   */\n      dup3\n        /* \"#utility.yul\":869:872   */\n      dup2\n        /* \"#utility.yul\":864:867   */\n      dup4\n        /* \"#utility.yul\":858:881   */\n      mcopy\n        /* \"#utility.yul\":915:916   */\n      0x00\n        /* \"#utility.yul\":906:912   */\n      dup4\n        /* \"#utility.yul\":901:904   */\n      dup4\n        /* \"#utility.yul\":897:913   */\n      add\n        /* \"#utility.yul\":890:917   */\n      mstore\n        /* \"#utility.yul\":785:924   */\n      pop\n      pop\n      pop\n      jump\t// out\n        /* \"#utility.yul\":930:1032   */\n    tag_153:\n        /* \"#utility.yul\":971:977   */\n      0x00\n        /* \"#utility.yul\":1022:1024   */\n      0x1f\n        /* \"#utility.yul\":1018:1025   */\n      not\n        /* \"#utility.yul\":1013:1015   */\n      0x1f\n        /* \"#utility.yul\":1006:1011   */\n      dup4\n        /* \"#utility.yul\":1002:1016   */\n      add\n        /* \"#utility.yul\":998:1026   */\n      and\n        /* \"#utility.yul\":988:1026   */\n      swap1\n      pop\n        /* \"#utility.yul\":930:1032   */\n      swap2\n      swap1\n      pop\n      jump\t// out\n        /* \"#utility.yul\":1038:1395   */\n    tag_154:\n        /* \"#utility.yul\":1116:1119   */\n      0x00\n        /* \"#utility.yul\":1144:1183   */\n      tag_218\n        /* \"#utility.yul\":1177:1182   */\n      dup3\n        /* \"#utility.yul\":1144:1183   */\n      tag_150\n      jump\t// in\n    tag_218:\n        /* \"#utility.yul\":1199:1260   */\n      tag_219\n        /* \"#utility.yul\":1253:1259   */\n      dup2\n        /* \"#utility.yul\":1248:1251   */\n      dup6\n        /* \"#utility.yul\":1199:1260   */\n      tag_151\n      jump\t// in\n    tag_219:\n        /* \"#utility.yul\":1192:1260   */\n      swap4\n      pop\n        /* \"#utility.yul\":1269:1334   */\n      tag_220\n        /* \"#utility.yul\":1327:1333   */\n      dup2\n        /* \"#utility.yul\":1322:1325   */\n      dup6\n        /* \"#utility.yul\":1315:1319   */\n      0x20\n        /* \"#utility.yul\":1308:1313   */\n      dup7\n        /* \"#utility.yul\":1304:1320   */\n      add\n        /* \"#utility.yul\":1269:1334   */\n      tag_152\n      jump\t// in\n    tag_220:\n        /* \"#utility.yul\":1359:1388   */\n      tag_221\n        /* \"#utility.yul\":1381:1387   */\n      dup2\n        /* \"#utility.yul\":1359:1388   */\n      tag_153\n      jump\t// in\n    tag_221:\n        /* \"#utility.yul\":1354:1357   */\n      dup5\n        /* \"#utility.yul\":1350:1389   */\n      add\n        /* \"#utility.yul\":1343:1389   */\n      swap2\n      pop\n        /* \"#utility.yul\":1120:1395   */\n      pop\n        /* \"#utility.yul\":1038:1395   */\n      swap3\n      swap2\n      pop\n      pop\n      jump\t// out\n        /* \"#utility.yul\":1401:1478   */\n    tag_155:\n        /* \"#utility.yul\":1438:1445   */\n      0x00\n        /* \"#utility.yul\":1467:1472   */\n      dup2\n        /* \"#utility.yul\":1456:1472   */\n      swap1\n      pop\n        /* \"#utility.yul\":1401:1478   */\n      swap2\n      swap1\n      pop\n      jump\t// out\n        /* \"#utility.yul\":1484:1592   */\n    tag_156:\n        /* \"#utility.yul\":1561:1585   */\n      tag_224\n        /* \"#utility.yul\":1579:1584   */\n      dup2\n        /* \"#utility.yul\":1561:1585   */\n      tag_155\n      jump\t// in\n    tag_224:\n        /* \"#utility.yul\":1556:1559   */\n      dup3\n        /* \"#utility.yul\":1549:1586   */\n      mstore\n        /* \"#utility.yul\":1484:1592   */\n      pop\n      pop\n      jump\t// out\n        /* \"#utility.yul\":1598:1778   */\n    tag_55:\n        /* \"#utility.yul\":1646:1723   */\n      0x4e487b7100000000000000000000000000000000000000000000000000000000\n        /* \"#utility.yul\":1643:1644   */\n      0x00\n        /* \"#utility.yul\":1636:1724   */\n      mstore\n        /* \"#utility.yul\":1743:1747   */\n      0x21\n        /* \"#utility.yul\":1740:1741   */\n      0x04\n        /* \"#utility.yul\":1733:1748   */\n      mstore\n        /* \"#utility.yul\":1767:1771   */\n      0x24\n        /* \"#utility.yul\":1764:1765   */\n      0x00\n        /* \"#utility.yul\":1757:1772   */\n      revert\n        /* \"#utility.yul\":1784:1898   */\n    tag_157:\n        /* \"#utility.yul\":1866:1867   */\n      0x03\n        /* \"#utility.yul\":1859:1864   */\n      dup2\n        /* \"#utility.yul\":1856:1868   */\n      lt\n        /* \"#utility.yul\":1846:1892   */\n      tag_227\n      jumpi\n        /* \"#utility.yul\":1872:1890   */\n      tag_228\n      tag_55\n      jump\t// in\n    tag_228:\n        /* \"#utility.yul\":1846:1892   */\n    tag_227:\n        /* \"#utility.yul\":1784:1898   */\n      pop\n      jump\t// out\n        /* \"#utility.yul\":1904:2033   */\n    tag_158:\n        /* \"#utility.yul\":1950:1957   */\n      0x00\n        /* \"#utility.yul\":1979:1984   */\n      dup2\n        /* \"#utility.yul\":1968:1984   */\n      swap1\n      pop\n        /* \"#utility.yul\":1985:2027   */\n      tag_230\n        /* \"#utility.yul\":2021:2026   */\n      dup3\n        /* \"#utility.yul\":1985:2027   */\n      tag_157\n      jump\t// in\n    tag_230:\n        /* \"#utility.yul\":1904:2033   */\n      swap2\n      swap1\n      pop\n      jump\t// out\n        /* \"#utility.yul\":2039:2168   */\n    tag_159:\n        /* \"#utility.yul\":2096:2105   */\n      0x00\n        /* \"#utility.yul\":2129:2162   */\n      tag_232\n        /* \"#utility.yul\":2156:2161   */\n      dup3\n        /* \"#utility.yul\":2129:2162   */\n      tag_158\n      jump\t// in\n    tag_232:\n        /* \"#utility.yul\":2116:2162   */\n      swap1\n      pop\n        /* \"#utility.yul\":2039:2168   */\n      swap2\n      swap1\n      pop\n      jump\t// out\n        /* \"#utility.yul\":2174:2309   */\n    tag_160:\n        /* \"#utility.yul\":2258:2302   */\n      tag_234\n        /* \"#utility.yul\":2296:2301   */\n      dup2\n        /* \"#utility.yul\":2258:2302   */\n      tag_159\n      jump\t// in\n    tag_234:\n        /* \"#utility.yul\":2253:2256   */\n      dup3\n        /* \"#utility.yul\":2246:2303   */\n      mstore\n        /* \"#utility.yul\":2174:2309   */\n      pop\n      pop\n      jump\t// out\n        /* \"#utility.yul\":2367:3565   */\n    tag_161:\n        /* \"#utility.yul\":2466:2469   */\n      0x00\n        /* \"#utility.yul\":2502:2506   */\n      0xa0\n        /* \"#utility.yul\":2497:2500   */\n      dup4\n        /* \"#utility.yul\":2493:2507   */\n      add\n        /* \"#utility.yul\":2590:2594   */\n      0x00\n        /* \"#utility.yul\":2583:2588   */\n      dup4\n        /* \"#utility.yul\":2579:2595   */\n      add\n        /* \"#utility.yul\":2573:2596   */\n      mload\n        /* \"#utility.yul\":2643:2646   */\n      dup5\n        /* \"#utility.yul\":2637:2641   */\n      dup3\n        /* \"#utility.yul\":2633:2647   */\n      sub\n        /* \"#utility.yul\":2626:2630   */\n      0x00\n        /* \"#utility.yul\":2621:2624   */\n      dup7\n        /* \"#utility.yul\":2617:2631   */\n      add\n        /* \"#utility.yul\":2610:2648   */\n      mstore\n        /* \"#utility.yul\":2669:2742   */\n      tag_236\n        /* \"#utility.yul\":2737:2741   */\n      dup3\n        /* \"#utility.yul\":2723:2735   */\n      dup3\n        /* \"#utility.yul\":2669:2742   */\n      tag_154\n      jump\t// in\n    tag_236:\n        /* \"#utility.yul\":2661:2742   */\n      swap2\n      pop\n        /* \"#utility.yul\":2517:2753   */\n      pop\n        /* \"#utility.yul\":2835:2839   */\n      0x20\n        /* \"#utility.yul\":2828:2833   */\n      dup4\n        /* \"#utility.yul\":2824:2840   */\n      add\n        /* \"#utility.yul\":2818:2841   */\n      mload\n        /* \"#utility.yul\":2888:2891   */\n      dup5\n        /* \"#utility.yul\":2882:2886   */\n      dup3\n        /* \"#utility.yul\":2878:2892   */\n      sub\n        /* \"#utility.yul\":2871:2875   */\n      0x20\n        /* \"#utility.yul\":2866:2869   */\n      dup7\n        /* \"#utility.yul\":2862:2876   */\n      add\n        /* \"#utility.yul\":2855:2893   */\n      mstore\n        /* \"#utility.yul\":2914:2987   */\n      tag_237\n        /* \"#utility.yul\":2982:2986   */\n      dup3\n        /* \"#utility.yul\":2968:2980   */\n      dup3\n        /* \"#utility.yul\":2914:2987   */\n      tag_154\n      jump\t// in\n    tag_237:\n        /* \"#utility.yul\":2906:2987   */\n      swap2\n      pop\n        /* \"#utility.yul\":2763:2998   */\n      pop\n        /* \"#utility.yul\":3085:3089   */\n      0x40\n        /* \"#utility.yul\":3078:3083   */\n      dup4\n        /* \"#utility.yul\":3074:3090   */\n      add\n        /* \"#utility.yul\":3068:3091   */\n      mload\n        /* \"#utility.yul\":3104:3167   */\n      tag_238\n        /* \"#utility.yul\":3161:3165   */\n      0x40\n        /* \"#utility.yul\":3156:3159   */\n      dup7\n        /* \"#utility.yul\":3152:3166   */\n      add\n        /* \"#utility.yul\":3138:3150   */\n      dup3\n        /* \"#utility.yul\":3104:3167   */\n      tag_156\n      jump\t// in\n    tag_238:\n        /* \"#utility.yul\":3008:3177   */\n      pop\n        /* \"#utility.yul\":3263:3267   */\n      0x60\n        /* \"#utility.yul\":3256:3261   */\n      dup4\n        /* \"#utility.yul\":3252:3268   */\n      add\n        /* \"#utility.yul\":3246:3269   */\n      mload\n        /* \"#utility.yul\":3282:3345   */\n      tag_239\n        /* \"#utility.yul\":3339:3343   */\n      0x60\n        /* \"#utility.yul\":3334:3337   */\n      dup7\n        /* \"#utility.yul\":3330:3344   */\n      add\n        /* \"#utility.yul\":3316:3328   */\n      dup3\n        /* \"#utility.yul\":3282:3345   */\n      tag_156\n      jump\t// in\n    tag_239:\n        /* \"#utility.yul\":3187:3355   */\n      pop\n        /* \"#utility.yul\":3439:3443   */\n      0x80\n        /* \"#utility.yul\":3432:3437   */\n      dup4\n        /* \"#utility.yul\":3428:3444   */\n      add\n        /* \"#utility.yul\":3422:3445   */\n      mload\n        /* \"#utility.yul\":3458:3528   */\n      tag_240\n        /* \"#utility.yul\":3522:3526   */\n      0x80\n        /* \"#utility.yul\":3517:3520   */\n      dup7\n        /* \"#utility.yul\":3513:3527   */\n      add\n        /* \"#utility.yul\":3499:3511   */\n      dup3\n        /* \"#utility.yul\":3458:3528   */\n      tag_160\n      jump\t// in\n    tag_240:\n        /* \"#utility.yul\":3365:3538   */\n      pop\n        /* \"#utility.yul\":3555:3559   */\n      dup1\n        /* \"#utility.yul\":3548:3559   */\n      swap2\n      pop\n        /* \"#utility.yul\":2471:3565   */\n      pop\n        /* \"#utility.yul\":2367:3565   */\n      swap3\n      swap2\n      pop\n      pop\n      jump\t// out\n        /* \"#utility.yul\":3571:3807   */\n    tag_162:\n        /* \"#utility.yul\":3680:3690   */\n      0x00\n        /* \"#utility.yul\":3715:3801   */\n      tag_242\n        /* \"#utility.yul\":3797:3800   */\n      dup4\n        /* \"#utility.yul\":3789:3795   */\n      dup4\n        /* \"#utility.yul\":3715:3801   */\n      tag_161\n      jump\t// in\n    tag_242:\n        /* \"#utility.yul\":3701:3801   */\n      swap1\n      pop\n        /* \"#utility.yul\":3571:3807   */\n      swap3\n      swap2\n      pop\n      pop\n      jump\t// out\n        /* \"#utility.yul\":3813:3946   */\n    tag_163:\n        /* \"#utility.yul\":3903:3907   */\n      0x00\n        /* \"#utility.yul\":3935:3939   */\n      0x20\n        /* \"#utility.yul\":3930:3933   */\n      dup3\n        /* \"#utility.yul\":3926:3940   */\n      add\n        /* \"#utility.yul\":3918:3940   */\n      swap1\n      pop\n        /* \"#utility.yul\":3813:3946   */\n      swap2\n      swap1\n      pop\n      jump\t// out\n        /* \"#utility.yul\":4008:5079   */\n    tag_164:\n        /* \"#utility.yul\":4167:4170   */\n      0x00\n        /* \"#utility.yul\":4196:4270   */\n      tag_245\n        /* \"#utility.yul\":4264:4269   */\n      dup3\n        /* \"#utility.yul\":4196:4270   */\n      tag_147\n      jump\t// in\n    tag_245:\n        /* \"#utility.yul\":4286:4392   */\n      tag_246\n        /* \"#utility.yul\":4385:4391   */\n      dup2\n        /* \"#utility.yul\":4380:4383   */\n      dup6\n        /* \"#utility.yul\":4286:4392   */\n      tag_148\n      jump\t// in\n    tag_246:\n        /* \"#utility.yul\":4279:4392   */\n      swap4\n      pop\n        /* \"#utility.yul\":4418:4421   */\n      dup4\n        /* \"#utility.yul\":4463:4467   */\n      0x20\n        /* \"#utility.yul\":4455:4461   */\n      dup3\n        /* \"#utility.yul\":4451:4468   */\n      mul\n        /* \"#utility.yul\":4446:4449   */\n      dup6\n        /* \"#utility.yul\":4442:4469   */\n      add\n        /* \"#utility.yul\":4493:4569   */\n      tag_247\n        /* \"#utility.yul\":4563:4568   */\n      dup6\n        /* \"#utility.yul\":4493:4569   */\n      tag_149\n      jump\t// in\n    tag_247:\n        /* \"#utility.yul\":4592:4599   */\n      dup1\n        /* \"#utility.yul\":4623:4624   */\n      0x00\n        /* \"#utility.yul\":4608:5034   */\n    tag_248:\n        /* \"#utility.yul\":4633:4639   */\n      dup6\n        /* \"#utility.yul\":4630:4631   */\n      dup2\n        /* \"#utility.yul\":4627:4640   */\n      lt\n        /* \"#utility.yul\":4608:5034   */\n      iszero\n      tag_250\n      jumpi\n        /* \"#utility.yul\":4704:4713   */\n      dup5\n        /* \"#utility.yul\":4698:4702   */\n      dup5\n        /* \"#utility.yul\":4694:4714   */\n      sub\n        /* \"#utility.yul\":4689:4692   */\n      dup10\n        /* \"#utility.yul\":4682:4715   */\n      mstore\n        /* \"#utility.yul\":4755:4761   */\n      dup2\n        /* \"#utility.yul\":4749:4762   */\n      mload\n        /* \"#utility.yul\":4783:4887   */\n      tag_251\n        /* \"#utility.yul\":4882:4886   */\n      dup6\n        /* \"#utility.yul\":4867:4880   */\n      dup3\n        /* \"#utility.yul\":4783:4887   */\n      tag_162\n      jump\t// in\n    tag_251:\n        /* \"#utility.yul\":4775:4887   */\n      swap5\n      pop\n        /* \"#utility.yul\":4910:4990   */\n      tag_252\n        /* \"#utility.yul\":4983:4989   */\n      dup4\n        /* \"#utility.yul\":4910:4990   */\n      tag_163\n      jump\t// in\n    tag_252:\n        /* \"#utility.yul\":4900:4990   */\n      swap3\n      pop\n        /* \"#utility.yul\":5019:5023   */\n      0x20\n        /* \"#utility.yul\":5014:5017   */\n      dup11\n        /* \"#utility.yul\":5010:5024   */\n      add\n        /* \"#utility.yul\":5003:5024   */\n      swap10\n      pop\n        /* \"#utility.yul\":4668:5034   */\n      pop\n        /* \"#utility.yul\":4655:4656   */\n      0x01\n        /* \"#utility.yul\":4652:4653   */\n      dup2\n        /* \"#utility.yul\":4648:4657   */\n      add\n        /* \"#utility.yul\":4643:4657   */\n      swap1\n      pop\n        /* \"#utility.yul\":4608:5034   */\n      jump(tag_248)\n    tag_250:\n        /* \"#utility.yul\":4612:4626   */\n      pop\n        /* \"#utility.yul\":5050:5054   */\n      dup3\n        /* \"#utility.yul\":5043:5054   */\n      swap8\n      pop\n        /* \"#utility.yul\":5070:5073   */\n      dup8\n        /* \"#utility.yul\":5063:5073   */\n      swap6\n      pop\n        /* \"#utility.yul\":4172:5079   */\n      pop\n      pop\n      pop\n      pop\n      pop\n        /* \"#utility.yul\":4008:5079   */\n      swap3\n      swap2\n      pop\n      pop\n      jump\t// out\n        /* \"#utility.yul\":5085:5538   */\n    tag_14:\n        /* \"#utility.yul\":5268:5272   */\n      0x00\n        /* \"#utility.yul\":5306:5308   */\n      0x20\n        /* \"#utility.yul\":5295:5304   */\n      dup3\n        /* \"#utility.yul\":5291:5309   */\n      add\n        /* \"#utility.yul\":5283:5309   */\n      swap1\n      pop\n        /* \"#utility.yul\":5355:5364   */\n      dup2\n        /* \"#utility.yul\":5349:5353   */\n      dup2\n        /* \"#utility.yul\":5345:5365   */\n      sub\n        /* \"#utility.yul\":5341:5342   */\n      0x00\n        /* \"#utility.yul\":5330:5339   */\n      dup4\n        /* \"#utility.yul\":5326:5343   */\n      add\n        /* \"#utility.yul\":5319:5366   */\n      mstore\n        /* \"#utility.yul\":5383:5531   */\n      tag_254\n        /* \"#utility.yul\":5526:5530   */\n      dup2\n        /* \"#utility.yul\":5517:5523   */\n      dup5\n        /* \"#utility.yul\":5383:5531   */\n      tag_164\n      jump\t// in\n    tag_254:\n        /* \"#utility.yul\":5375:5531   */\n      swap1\n      pop\n        /* \"#utility.yul\":5085:5538   */\n      swap3\n      swap2\n      pop\n      pop\n      jump\t// out\n        /* \"#utility.yul\":5625:5742   */\n    tag_166:\n        /* \"#utility.yul\":5734:5735   */\n      0x00\n        /* \"#utility.yul\":5731:5732   */\n      0x00\n        /* \"#utility.yul\":5724:5736   */\n      revert\n        /* \"#utility.yul\":5748:5865   */\n    tag_167:\n        /* \"#utility.yul\":5857:5858   */\n      0x00\n        /* \"#utility.yul\":5854:5855   */\n      0x00\n        /* \"#utility.yul\":5847:5859   */\n      revert\n        /* \"#utility.yul\":5871:5993   */\n    tag_168:\n        /* \"#utility.yul\":5944:5968   */\n      tag_259\n        /* \"#utility.yul\":5962:5967   */\n      dup2\n        /* \"#utility.yul\":5944:5968   */\n      tag_155\n      jump\t// in\n    tag_259:\n        /* \"#utility.yul\":5937:5942   */\n      dup2\n        /* \"#utility.yul\":5934:5969   */\n      eq\n        /* \"#utility.yul\":5924:5987   */\n      tag_260\n      jumpi\n        /* \"#utility.yul\":5983:5984   */\n      0x00\n        /* \"#utility.yul\":5980:5981   */\n      0x00\n        /* \"#utility.yul\":5973:5985   */\n      revert\n        /* \"#utility.yul\":5924:5987   */\n    tag_260:\n        /* \"#utility.yul\":5871:5993   */\n      pop\n      jump\t// out\n        /* \"#utility.yul\":5999:6138   */\n    tag_169:\n        /* \"#utility.yul\":6045:6050   */\n      0x00\n        /* \"#utility.yul\":6083:6089   */\n      dup2\n        /* \"#utility.yul\":6070:6090   */\n      calldataload\n        /* \"#utility.yul\":6061:6090   */\n      swap1\n      pop\n        /* \"#utility.yul\":6099:6132   */\n      tag_262\n        /* \"#utility.yul\":6126:6131   */\n      dup2\n        /* \"#utility.yul\":6099:6132   */\n      tag_168\n      jump\t// in\n    tag_262:\n        /* \"#utility.yul\":5999:6138   */\n      swap3\n      swap2\n      pop\n      pop\n      jump\t// out\n        /* \"#utility.yul\":6144:6473   */\n    tag_17:\n        /* \"#utility.yul\":6203:6209   */\n      0x00\n        /* \"#utility.yul\":6252:6254   */\n      0x20\n        /* \"#utility.yul\":6240:6249   */\n      dup3\n        /* \"#utility.yul\":6231:6238   */\n      dup5\n        /* \"#utility.yul\":6227:6250   */\n      sub\n        /* \"#utility.yul\":6223:6255   */\n      slt\n        /* \"#utility.yul\":6220:6339   */\n      iszero\n      tag_264\n      jumpi\n        /* \"#utility.yul\":6258:6337   */\n      tag_265\n      tag_166\n      jump\t// in\n    tag_265:\n        /* \"#utility.yul\":6220:6339   */\n    tag_264:\n        /* \"#utility.yul\":6378:6379   */\n      0x00\n        /* \"#utility.yul\":6403:6456   */\n      tag_266\n        /* \"#utility.yul\":6448:6455   */\n      dup5\n        /* \"#utility.yul\":6439:6445   */\n      dup3\n        /* \"#utility.yul\":6428:6437   */\n      dup6\n        /* \"#utility.yul\":6424:6446   */\n      add\n        /* \"#utility.yul\":6403:6456   */\n      tag_169\n      jump\t// in\n    tag_266:\n        /* \"#utility.yul\":6393:6456   */\n      swap2\n      pop\n        /* \"#utility.yul\":6349:6466   */\n      pop\n        /* \"#utility.yul\":6144:6473   */\n      swap3\n      swap2\n      pop\n      pop\n      jump\t// out\n        /* \"#utility.yul\":6479:6596   */\n    tag_170:\n        /* \"#utility.yul\":6588:6589   */\n      0x00\n        /* \"#utility.yul\":6585:6586   */\n      0x00\n        /* \"#utility.yul\":6578:6590   */\n      revert\n        /* \"#utility.yul\":6602:6719   */\n    tag_171:\n        /* \"#utility.yul\":6711:6712   */\n      0x00\n        /* \"#utility.yul\":6708:6709   */\n      0x00\n        /* \"#utility.yul\":6701:6713   */\n      revert\n        /* \"#utility.yul\":6725:6842   */\n    tag_172:\n        /* \"#utility.yul\":6834:6835   */\n      0x00\n        /* \"#utility.yul\":6831:6832   */\n      0x00\n        /* \"#utility.yul\":6824:6836   */\n      revert\n        /* \"#utility.yul\":6862:7415   */\n    tag_173:\n        /* \"#utility.yul\":6920:6928   */\n      0x00\n        /* \"#utility.yul\":6930:6936   */\n      0x00\n        /* \"#utility.yul\":6980:6983   */\n      dup4\n        /* \"#utility.yul\":6973:6977   */\n      0x1f\n        /* \"#utility.yul\":6965:6971   */\n      dup5\n        /* \"#utility.yul\":6961:6978   */\n      add\n        /* \"#utility.yul\":6957:6984   */\n      slt\n        /* \"#utility.yul\":6947:7069   */\n      tag_271\n      jumpi\n        /* \"#utility.yul\":6988:7067   */\n      tag_272\n      tag_170\n      jump\t// in\n    tag_272:\n        /* \"#utility.yul\":6947:7069   */\n    tag_271:\n        /* \"#utility.yul\":7101:7107   */\n      dup3\n        /* \"#utility.yul\":7088:7108   */\n      calldataload\n        /* \"#utility.yul\":7078:7108   */\n      swap1\n      pop\n        /* \"#utility.yul\":7131:7149   */\n      0xffffffffffffffff\n        /* \"#utility.yul\":7123:7129   */\n      dup2\n        /* \"#utility.yul\":7120:7150   */\n      gt\n        /* \"#utility.yul\":7117:7234   */\n      iszero\n      tag_273\n      jumpi\n        /* \"#utility.yul\":7153:7232   */\n      tag_274\n      tag_171\n      jump\t// in\n    tag_274:\n        /* \"#utility.yul\":7117:7234   */\n    tag_273:\n        /* \"#utility.yul\":7267:7271   */\n      0x20\n        /* \"#utility.yul\":7259:7265   */\n      dup4\n        /* \"#utility.yul\":7255:7272   */\n      add\n        /* \"#utility.yul\":7243:7272   */\n      swap2\n      pop\n        /* \"#utility.yul\":7321:7324   */\n      dup4\n        /* \"#utility.yul\":7313:7317   */\n      0x01\n        /* \"#utility.yul\":7305:7311   */\n      dup3\n        /* \"#utility.yul\":7301:7318   */\n      mul\n        /* \"#utility.yul\":7291:7299   */\n      dup4\n        /* \"#utility.yul\":7287:7319   */\n      add\n        /* \"#utility.yul\":7284:7325   */\n      gt\n        /* \"#utility.yul\":7281:7409   */\n      iszero\n      tag_275\n      jumpi\n        /* \"#utility.yul\":7328:7407   */\n      tag_276\n      tag_172\n      jump\t// in\n    tag_276:\n        /* \"#utility.yul\":7281:7409   */\n    tag_275:\n        /* \"#utility.yul\":6862:7415   */\n      swap3\n      pop\n      swap3\n      swap1\n      pop\n      jump\t// out\n        /* \"#utility.yul\":7421:8440   */\n    tag_24:\n        /* \"#utility.yul\":7522:7528   */\n      0x00\n        /* \"#utility.yul\":7530:7536   */\n      0x00\n        /* \"#utility.yul\":7538:7544   */\n      0x00\n        /* \"#utility.yul\":7546:7552   */\n      0x00\n        /* \"#utility.yul\":7554:7560   */\n      0x00\n        /* \"#utility.yul\":7603:7605   */\n      0x60\n        /* \"#utility.yul\":7591:7600   */\n      dup7\n        /* \"#utility.yul\":7582:7589   */\n      dup9\n        /* \"#utility.yul\":7578:7601   */\n      sub\n        /* \"#utility.yul\":7574:7606   */\n      slt\n        /* \"#utility.yul\":7571:7690   */\n      iszero\n      tag_278\n      jumpi\n        /* \"#utility.yul\":7609:7688   */\n      tag_279\n      tag_166\n      jump\t// in\n    tag_279:\n        /* \"#utility.yul\":7571:7690   */\n    tag_278:\n        /* \"#utility.yul\":7757:7758   */\n      0x00\n        /* \"#utility.yul\":7746:7755   */\n      dup7\n        /* \"#utility.yul\":7742:7759   */\n      add\n        /* \"#utility.yul\":7729:7760   */\n      calldataload\n        /* \"#utility.yul\":7787:7805   */\n      0xffffffffffffffff\n        /* \"#utility.yul\":7779:7785   */\n      dup2\n        /* \"#utility.yul\":7776:7806   */\n      gt\n        /* \"#utility.yul\":7773:7890   */\n      iszero\n      tag_280\n      jumpi\n        /* \"#utility.yul\":7809:7888   */\n      tag_281\n      tag_167\n      jump\t// in\n    tag_281:\n        /* \"#utility.yul\":7773:7890   */\n    tag_280:\n        /* \"#utility.yul\":7922:7987   */\n      tag_282\n        /* \"#utility.yul\":7979:7986   */\n      dup9\n        /* \"#utility.yul\":7970:7976   */\n      dup3\n        /* \"#utility.yul\":7959:7968   */\n      dup10\n        /* \"#utility.yul\":7955:7977   */\n      add\n        /* \"#utility.yul\":7922:7987   */\n      tag_173\n      jump\t// in\n    tag_282:\n        /* \"#utility.yul\":7904:7987   */\n      swap6\n      pop\n      swap6\n      pop\n        /* \"#utility.yul\":7700:7997   */\n      pop\n        /* \"#utility.yul\":8064:8066   */\n      0x20\n        /* \"#utility.yul\":8053:8062   */\n      dup7\n        /* \"#utility.yul\":8049:8067   */\n      add\n        /* \"#utility.yul\":8036:8068   */\n      calldataload\n        /* \"#utility.yul\":8095:8113   */\n      0xffffffffffffffff\n        /* \"#utility.yul\":8087:8093   */\n      dup2\n        /* \"#utility.yul\":8084:8114   */\n      gt\n        /* \"#utility.yul\":8081:8198   */\n      iszero\n      tag_283\n      jumpi\n        /* \"#utility.yul\":8117:8196   */\n      tag_284\n      tag_167\n      jump\t// in\n    tag_284:\n        /* \"#utility.yul\":8081:8198   */\n    tag_283:\n        /* \"#utility.yul\":8230:8295   */\n      tag_285\n        /* \"#utility.yul\":8287:8294   */\n      dup9\n        /* \"#utility.yul\":8278:8284   */\n      dup3\n        /* \"#utility.yul\":8267:8276   */\n      dup10\n        /* \"#utility.yul\":8263:8285   */\n      add\n        /* \"#utility.yul\":8230:8295   */\n      tag_173\n      jump\t// in\n    tag_285:\n        /* \"#utility.yul\":8212:8295   */\n      swap4\n      pop\n      swap4\n      pop\n        /* \"#utility.yul\":8007:8305   */\n      pop\n        /* \"#utility.yul\":8344:8346   */\n      0x40\n        /* \"#utility.yul\":8370:8423   */\n      tag_286\n        /* \"#utility.yul\":8415:8422   */\n      dup9\n        /* \"#utility.yul\":8406:8412   */\n      dup3\n        /* \"#utility.yul\":8395:8404   */\n      dup10\n        /* \"#utility.yul\":8391:8413   */\n      add\n        /* \"#utility.yul\":8370:8423   */\n      tag_169\n      jump\t// in\n    tag_286:\n        /* \"#utility.yul\":8360:8423   */\n      swap2\n      pop\n        /* \"#utility.yul\":8315:8433   */\n      pop\n        /* \"#utility.yul\":7421:8440   */\n      swap3\n      swap6\n      pop\n      swap3\n      swap6\n      swap1\n      swap4\n      pop\n      jump\t// out\n        /* \"#utility.yul\":8446:8572   */\n    tag_174:\n        /* \"#utility.yul\":8483:8490   */\n      0x00\n        /* \"#utility.yul\":8523:8565   */\n      0xffffffffffffffffffffffffffffffffffffffff\n        /* \"#utility.yul\":8516:8521   */\n      dup3\n        /* \"#utility.yul\":8512:8566   */\n      and\n        /* \"#utility.yul\":8501:8566   */\n      swap1\n      pop\n        /* \"#utility.yul\":8446:8572   */\n      swap2\n      swap1\n      pop\n      jump\t// out\n        /* \"#utility.yul\":8578:8674   */\n    tag_175:\n        /* \"#utility.yul\":8615:8622   */\n      0x00\n        /* \"#utility.yul\":8644:8668   */\n      tag_289\n        /* \"#utility.yul\":8662:8667   */\n      dup3\n        /* \"#utility.yul\":8644:8668   */\n      tag_174\n      jump\t// in\n    tag_289:\n        /* \"#utility.yul\":8633:8668   */\n      swap1\n      pop\n        /* \"#utility.yul\":8578:8674   */\n      swap2\n      swap1\n      pop\n      jump\t// out\n        /* \"#utility.yul\":8680:8802   */\n    tag_176:\n        /* \"#utility.yul\":8753:8777   */\n      tag_291\n        /* \"#utility.yul\":8771:8776   */\n      dup2\n        /* \"#utility.yul\":8753:8777   */\n      tag_175\n      jump\t// in\n    tag_291:\n        /* \"#utility.yul\":8746:8751   */\n      dup2\n        /* \"#utility.yul\":8743:8778   */\n      eq\n        /* \"#utility.yul\":8733:8796   */\n      tag_292\n      jumpi\n        /* \"#utility.yul\":8792:8793   */\n      0x00\n        /* \"#utility.yul\":8789:8790   */\n      0x00\n        /* \"#utility.yul\":8782:8794   */\n      revert\n        /* \"#utility.yul\":8733:8796   */\n    tag_292:\n        /* \"#utility.yul\":8680:8802   */\n      pop\n      jump\t// out\n        /* \"#utility.yul\":8808:8947   */\n    tag_177:\n        /* \"#utility.yul\":8854:8859   */\n      0x00\n        /* \"#utility.yul\":8892:8898   */\n      dup2\n        /* \"#utility.yul\":8879:8899   */\n      calldataload\n        /* \"#utility.yul\":8870:8899   */\n      swap1\n      pop\n        /* \"#utility.yul\":8908:8941   */\n      tag_294\n        /* \"#utility.yul\":8935:8940   */\n      dup2\n        /* \"#utility.yul\":8908:8941   */\n      tag_176\n      jump\t// in\n    tag_294:\n        /* \"#utility.yul\":8808:8947   */\n      swap3\n      swap2\n      pop\n      pop\n      jump\t// out\n        /* \"#utility.yul\":8953:9282   */\n    tag_28:\n        /* \"#utility.yul\":9012:9018   */\n      0x00\n        /* \"#utility.yul\":9061:9063   */\n      0x20\n        /* \"#utility.yul\":9049:9058   */\n      dup3\n        /* \"#utility.yul\":9040:9047   */\n      dup5\n        /* \"#utility.yul\":9036:9059   */\n      sub\n        /* \"#utility.yul\":9032:9064   */\n      slt\n        /* \"#utility.yul\":9029:9148   */\n      iszero\n      tag_296\n      jumpi\n        /* \"#utility.yul\":9067:9146   */\n      tag_297\n      tag_166\n      jump\t// in\n    tag_297:\n        /* \"#utility.yul\":9029:9148   */\n    tag_296:\n        /* \"#utility.yul\":9187:9188   */\n      0x00\n        /* \"#utility.yul\":9212:9265   */\n      tag_298\n        /* \"#utility.yul\":9257:9264   */\n      dup5\n        /* \"#utility.yul\":9248:9254   */\n      dup3\n        /* \"#utility.yul\":9237:9246   */\n      dup6\n        /* \"#utility.yul\":9233:9255   */\n      add\n        /* \"#utility.yul\":9212:9265   */\n      tag_177\n      jump\t// in\n    tag_298:\n        /* \"#utility.yul\":9202:9265   */\n      swap2\n      pop\n        /* \"#utility.yul\":9158:9275   */\n      pop\n        /* \"#utility.yul\":8953:9282   */\n      swap3\n      swap2\n      pop\n      pop\n      jump\t// out\n        /* \"#utility.yul\":9288:9406   */\n    tag_178:\n        /* \"#utility.yul\":9375:9399   */\n      tag_300\n        /* \"#utility.yul\":9393:9398   */\n      dup2\n        /* \"#utility.yul\":9375:9399   */\n      tag_155\n      jump\t// in\n    tag_300:\n        /* \"#utility.yul\":9370:9373   */\n      dup3\n        /* \"#utility.yul\":9363:9400   */\n      mstore\n        /* \"#utility.yul\":9288:9406   */\n      pop\n      pop\n      jump\t// out\n        /* \"#utility.yul\":9412:9634   */\n    tag_31:\n        /* \"#utility.yul\":9505:9509   */\n      0x00\n        /* \"#utility.yul\":9543:9545   */\n      0x20\n        /* \"#utility.yul\":9532:9541   */\n      dup3\n        /* \"#utility.yul\":9528:9546   */\n      add\n        /* \"#utility.yul\":9520:9546   */\n      swap1\n      pop\n        /* \"#utility.yul\":9556:9627   */\n      tag_302\n        /* \"#utility.yul\":9624:9625   */\n      0x00\n        /* \"#utility.yul\":9613:9622   */\n      dup4\n        /* \"#utility.yul\":9609:9626   */\n      add\n        /* \"#utility.yul\":9600:9606   */\n      dup5\n        /* \"#utility.yul\":9556:9627   */\n      tag_178\n      jump\t// in\n    tag_302:\n        /* \"#utility.yul\":9412:9634   */\n      swap3\n      swap2\n      pop\n      pop\n      jump\t// out\n        /* \"#utility.yul\":9640:9820   */\n    tag_179:\n        /* \"#utility.yul\":9688:9765   */\n      0x4e487b7100000000000000000000000000000000000000000000000000000000\n        /* \"#utility.yul\":9685:9686   */\n      0x00\n        /* \"#utility.yul\":9678:9766   */\n      mstore\n        /* \"#utility.yul\":9785:9789   */\n      0x22\n        /* \"#utility.yul\":9782:9783   */\n      0x04\n        /* \"#utility.yul\":9775:9790   */\n      mstore\n        /* \"#utility.yul\":9809:9813   */\n      0x24\n        /* \"#utility.yul\":9806:9807   */\n      0x00\n        /* \"#utility.yul\":9799:9814   */\n      revert\n        /* \"#utility.yul\":9826:10146   */\n    tag_43:\n        /* \"#utility.yul\":9870:9876   */\n      0x00\n        /* \"#utility.yul\":9907:9908   */\n      0x02\n        /* \"#utility.yul\":9901:9905   */\n      dup3\n        /* \"#utility.yul\":9897:9909   */\n      div\n        /* \"#utility.yul\":9887:9909   */\n      swap1\n      pop\n        /* \"#utility.yul\":9954:9955   */\n      0x01\n        /* \"#utility.yul\":9948:9952   */\n      dup3\n        /* \"#utility.yul\":9944:9956   */\n      and\n        /* \"#utility.yul\":9975:9993   */\n      dup1\n        /* \"#utility.yul\":9965:10046   */\n      tag_305\n      jumpi\n        /* \"#utility.yul\":10031:10035   */\n      0x7f\n        /* \"#utility.yul\":10023:10029   */\n      dup3\n        /* \"#utility.yul\":10019:10036   */\n      and\n        /* \"#utility.yul\":10009:10036   */\n      swap2\n      pop\n        /* \"#utility.yul\":9965:10046   */\n    tag_305:\n        /* \"#utility.yul\":10093:10095   */\n      0x20\n        /* \"#utility.yul\":10085:10091   */\n      dup3\n        /* \"#utility.yul\":10082:10096   */\n      lt\n        /* \"#utility.yul\":10062:10080   */\n      dup2\n        /* \"#utility.yul\":10059:10097   */\n      sub\n        /* \"#utility.yul\":10056:10140   */\n      tag_306\n      jumpi\n        /* \"#utility.yul\":10112:10130   */\n      tag_307\n      tag_179\n      jump\t// in\n    tag_307:\n        /* \"#utility.yul\":10056:10140   */\n    tag_306:\n        /* \"#utility.yul\":9877:10146   */\n      pop\n        /* \"#utility.yul\":9826:10146   */\n      swap2\n      swap1\n      pop\n      jump\t// out\n        /* \"#utility.yul\":10152:10321   */\n    tag_180:\n        /* \"#utility.yul\":10236:10247   */\n      0x00\n        /* \"#utility.yul\":10270:10276   */\n      dup3\n        /* \"#utility.yul\":10265:10268   */\n      dup3\n        /* \"#utility.yul\":10258:10277   */\n      mstore\n        /* \"#utility.yul\":10310:10314   */\n      0x20\n        /* \"#utility.yul\":10305:10308   */\n      dup3\n        /* \"#utility.yul\":10301:10315   */\n      add\n        /* \"#utility.yul\":10286:10315   */\n      swap1\n      pop\n        /* \"#utility.yul\":10152:10321   */\n      swap3\n      swap2\n      pop\n      pop\n      jump\t// out\n        /* \"#utility.yul\":10327:10493   */\n    tag_181:\n        /* \"#utility.yul\":10467:10485   */\n      0x496e76616c696465207461736b20494400000000000000000000000000000000\n        /* \"#utility.yul\":10463:10464   */\n      0x00\n        /* \"#utility.yul\":10455:10461   */\n      dup3\n        /* \"#utility.yul\":10451:10465   */\n      add\n        /* \"#utility.yul\":10444:10486   */\n      mstore\n        /* \"#utility.yul\":10327:10493   */\n      pop\n      jump\t// out\n        /* \"#utility.yul\":10499:10865   */\n    tag_182:\n        /* \"#utility.yul\":10641:10644   */\n      0x00\n        /* \"#utility.yul\":10662:10729   */\n      tag_311\n        /* \"#utility.yul\":10726:10728   */\n      0x10\n        /* \"#utility.yul\":10721:10724   */\n      dup4\n        /* \"#utility.yul\":10662:10729   */\n      tag_180\n      jump\t// in\n    tag_311:\n        /* \"#utility.yul\":10655:10729   */\n      swap2\n      pop\n        /* \"#utility.yul\":10738:10831   */\n      tag_312\n        /* \"#utility.yul\":10827:10830   */\n      dup3\n        /* \"#utility.yul\":10738:10831   */\n      tag_181\n      jump\t// in\n    tag_312:\n        /* \"#utility.yul\":10856:10858   */\n      0x20\n        /* \"#utility.yul\":10851:10854   */\n      dup3\n        /* \"#utility.yul\":10847:10859   */\n      add\n        /* \"#utility.yul\":10840:10859   */\n      swap1\n      pop\n        /* \"#utility.yul\":10499:10865   */\n      swap2\n      swap1\n      pop\n      jump\t// out\n        /* \"#utility.yul\":10871:11290   */\n    tag_61:\n        /* \"#utility.yul\":11037:11041   */\n      0x00\n        /* \"#utility.yul\":11075:11077   */\n      0x20\n        /* \"#utility.yul\":11064:11073   */\n      dup3\n        /* \"#utility.yul\":11060:11078   */\n      add\n        /* \"#utility.yul\":11052:11078   */\n      swap1\n      pop\n        /* \"#utility.yul\":11124:11133   */\n      dup2\n        /* \"#utility.yul\":11118:11122   */\n      dup2\n        /* \"#utility.yul\":11114:11134   */\n      sub\n        /* \"#utility.yul\":11110:11111   */\n      0x00\n        /* \"#utility.yul\":11099:11108   */\n      dup4\n        /* \"#utility.yul\":11095:11112   */\n      add\n        /* \"#utility.yul\":11088:11135   */\n      mstore\n        /* \"#utility.yul\":11152:11283   */\n      tag_314\n        /* \"#utility.yul\":11278:11282   */\n      dup2\n        /* \"#utility.yul\":11152:11283   */\n      tag_182\n      jump\t// in\n    tag_314:\n        /* \"#utility.yul\":11144:11283   */\n      swap1\n      pop\n        /* \"#utility.yul\":10871:11290   */\n      swap2\n      swap1\n      pop\n      jump\t// out\n        /* \"#utility.yul\":11296:11476   */\n    tag_65:\n        /* \"#utility.yul\":11344:11421   */\n      0x4e487b7100000000000000000000000000000000000000000000000000000000\n        /* \"#utility.yul\":11341:11342   */\n      0x00\n        /* \"#utility.yul\":11334:11422   */\n      mstore\n        /* \"#utility.yul\":11441:11445   */\n      0x32\n        /* \"#utility.yul\":11438:11439   */\n      0x04\n        /* \"#utility.yul\":11431:11446   */\n      mstore\n        /* \"#utility.yul\":11465:11469   */\n      0x24\n        /* \"#utility.yul\":11462:11463   */\n      0x00\n        /* \"#utility.yul\":11455:11470   */\n      revert\n        /* \"#utility.yul\":11482:11652   */\n    tag_183:\n        /* \"#utility.yul\":11622:11644   */\n      0x5461736b206d7573742062652050656e64696e67000000000000000000000000\n        /* \"#utility.yul\":11618:11619   */\n      0x00\n        /* \"#utility.yul\":11610:11616   */\n      dup3\n        /* \"#utility.yul\":11606:11620   */\n      add\n        /* \"#utility.yul\":11599:11645   */\n      mstore\n        /* \"#utility.yul\":11482:11652   */\n      pop\n      jump\t// out\n        /* \"#utility.yul\":11658:12024   */\n    tag_184:\n        /* \"#utility.yul\":11800:11803   */\n      0x00\n        /* \"#utility.yul\":11821:11888   */\n      tag_318\n        /* \"#utility.yul\":11885:11887   */\n      0x14\n        /* \"#utility.yul\":11880:11883   */\n      dup4\n        /* \"#utility.yul\":11821:11888   */\n      tag_180\n      jump\t// in\n    tag_318:\n        /* \"#utility.yul\":11814:11888   */\n      swap2\n      pop\n        /* \"#utility.yul\":11897:11990   */\n      tag_319\n        /* \"#utility.yul\":11986:11989   */\n      dup3\n        /* \"#utility.yul\":11897:11990   */\n      tag_183\n      jump\t// in\n    tag_319:\n        /* \"#utility.yul\":12015:12017   */\n      0x20\n        /* \"#utility.yul\":12010:12013   */\n      dup3\n        /* \"#utility.yul\":12006:12018   */\n      add\n        /* \"#utility.yul\":11999:12018   */\n      swap1\n      pop\n        /* \"#utility.yul\":11658:12024   */\n      swap2\n      swap1\n      pop\n      jump\t// out\n        /* \"#utility.yul\":12030:12449   */\n    tag_73:\n        /* \"#utility.yul\":12196:12200   */\n      0x00\n        /* \"#utility.yul\":12234:12236   */\n      0x20\n        /* \"#utility.yul\":12223:12232   */\n      dup3\n        /* \"#utility.yul\":12219:12237   */\n      add\n        /* \"#utility.yul\":12211:12237   */\n      swap1\n      pop\n        /* \"#utility.yul\":12283:12292   */\n      dup2\n        /* \"#utility.yul\":12277:12281   */\n      dup2\n        /* \"#utility.yul\":12273:12293   */\n      sub\n        /* \"#utility.yul\":12269:12270   */\n      0x00\n        /* \"#utility.yul\":12258:12267   */\n      dup4\n        /* \"#utility.yul\":12254:12271   */\n      add\n        /* \"#utility.yul\":12247:12294   */\n      mstore\n        /* \"#utility.yul\":12311:12442   */\n      tag_321\n        /* \"#utility.yul\":12437:12441   */\n      dup2\n        /* \"#utility.yul\":12311:12442   */\n      tag_184\n      jump\t// in\n    tag_321:\n        /* \"#utility.yul\":12303:12442   */\n      swap1\n      pop\n        /* \"#utility.yul\":12030:12449   */\n      swap2\n      swap1\n      pop\n      jump\t// out\n        /* \"#utility.yul\":12455:12628   */\n    tag_185:\n        /* \"#utility.yul\":12595:12620   */\n      0x5461736b206973206e6f74206f76657264756520796574000000000000000000\n        /* \"#utility.yul\":12591:12592   */\n      0x00\n        /* \"#utility.yul\":12583:12589   */\n      dup3\n        /* \"#utility.yul\":12579:12593   */\n      add\n        /* \"#utility.yul\":12572:12621   */\n      mstore\n        /* \"#utility.yul\":12455:12628   */\n      pop\n      jump\t// out\n        /* \"#utility.yul\":12634:13000   */\n    tag_186:\n        /* \"#utility.yul\":12776:12779   */\n      0x00\n        /* \"#utility.yul\":12797:12864   */\n      tag_324\n        /* \"#utility.yul\":12861:12863   */\n      0x17\n        /* \"#utility.yul\":12856:12859   */\n      dup4\n        /* \"#utility.yul\":12797:12864   */\n      tag_180\n      jump\t// in\n    tag_324:\n        /* \"#utility.yul\":12790:12864   */\n      swap2\n      pop\n        /* \"#utility.yul\":12873:12966   */\n      tag_325\n        /* \"#utility.yul\":12962:12965   */\n      dup3\n        /* \"#utility.yul\":12873:12966   */\n      tag_185\n      jump\t// in\n    tag_325:\n        /* \"#utility.yul\":12991:12993   */\n      0x20\n        /* \"#utility.yul\":12986:12989   */\n      dup3\n        /* \"#utility.yul\":12982:12994   */\n      add\n        /* \"#utility.yul\":12975:12994   */\n      swap1\n      pop\n        /* \"#utility.yul\":12634:13000   */\n      swap2\n      swap1\n      pop\n      jump\t// out\n        /* \"#utility.yul\":13006:13425   */\n    tag_76:\n        /* \"#utility.yul\":13172:13176   */\n      0x00\n        /* \"#utility.yul\":13210:13212   */\n      0x20\n        /* \"#utility.yul\":13199:13208   */\n      dup3\n        /* \"#utility.yul\":13195:13213   */\n      add\n        /* \"#utility.yul\":13187:13213   */\n      swap1\n      pop\n        /* \"#utility.yul\":13259:13268   */\n      dup2\n        /* \"#utility.yul\":13253:13257   */\n      dup2\n        /* \"#utility.yul\":13249:13269   */\n      sub\n        /* \"#utility.yul\":13245:13246   */\n      0x00\n        /* \"#utility.yul\":13234:13243   */\n      dup4\n        /* \"#utility.yul\":13230:13247   */\n      add\n        /* \"#utility.yul\":13223:13270   */\n      mstore\n        /* \"#utility.yul\":13287:13418   */\n      tag_327\n        /* \"#utility.yul\":13413:13417   */\n      dup2\n        /* \"#utility.yul\":13287:13418   */\n      tag_186\n      jump\t// in\n    tag_327:\n        /* \"#utility.yul\":13279:13418   */\n      swap1\n      pop\n        /* \"#utility.yul\":13006:13425   */\n      swap2\n      swap1\n      pop\n      jump\t// out\n        /* \"#utility.yul\":13431:13611   */\n    tag_187:\n        /* \"#utility.yul\":13479:13556   */\n      0x4e487b7100000000000000000000000000000000000000000000000000000000\n        /* \"#utility.yul\":13476:13477   */\n      0x00\n        /* \"#utility.yul\":13469:13557   */\n      mstore\n        /* \"#utility.yul\":13576:13580   */\n      0x11\n        /* \"#utility.yul\":13573:13574   */\n      0x04\n        /* \"#utility.yul\":13566:13581   */\n      mstore\n        /* \"#utility.yul\":13600:13604   */\n      0x24\n        /* \"#utility.yul\":13597:13598   */\n      0x00\n        /* \"#utility.yul\":13590:13605   */\n      revert\n        /* \"#utility.yul\":13617:13811   */\n    tag_84:\n        /* \"#utility.yul\":13657:13661   */\n      0x00\n        /* \"#utility.yul\":13677:13697   */\n      tag_330\n        /* \"#utility.yul\":13695:13696   */\n      dup3\n        /* \"#utility.yul\":13677:13697   */\n      tag_155\n      jump\t// in\n    tag_330:\n        /* \"#utility.yul\":13672:13697   */\n      swap2\n      pop\n        /* \"#utility.yul\":13711:13731   */\n      tag_331\n        /* \"#utility.yul\":13729:13730   */\n      dup4\n        /* \"#utility.yul\":13711:13731   */\n      tag_155\n      jump\t// in\n    tag_331:\n        /* \"#utility.yul\":13706:13731   */\n      swap3\n      pop\n        /* \"#utility.yul\":13755:13756   */\n      dup3\n        /* \"#utility.yul\":13752:13753   */\n      dup3\n        /* \"#utility.yul\":13748:13757   */\n      sub\n        /* \"#utility.yul\":13740:13757   */\n      swap1\n      pop\n        /* \"#utility.yul\":13779:13780   */\n      dup2\n        /* \"#utility.yul\":13773:13777   */\n      dup2\n        /* \"#utility.yul\":13770:13781   */\n      gt\n        /* \"#utility.yul\":13767:13804   */\n      iszero\n      tag_332\n      jumpi\n        /* \"#utility.yul\":13784:13802   */\n      tag_333\n      tag_187\n      jump\t// in\n    tag_333:\n        /* \"#utility.yul\":13767:13804   */\n    tag_332:\n        /* \"#utility.yul\":13617:13811   */\n      swap3\n      swap2\n      pop\n      pop\n      jump\t// out\n        /* \"#utility.yul\":13817:13966   */\n    tag_188:\n        /* \"#utility.yul\":13866:13872   */\n      0x00\n        /* \"#utility.yul\":13900:13905   */\n      dup2\n        /* \"#utility.yul\":13894:13906   */\n      sload\n        /* \"#utility.yul\":13884:13906   */\n      swap1\n      pop\n        /* \"#utility.yul\":13926:13959   */\n      tag_335\n        /* \"#utility.yul\":13952:13958   */\n      dup2\n        /* \"#utility.yul\":13926:13959   */\n      tag_43\n      jump\t// in\n    tag_335:\n        /* \"#utility.yul\":13916:13959   */\n      swap1\n      pop\n        /* \"#utility.yul\":13817:13966   */\n      swap2\n      swap1\n      pop\n      jump\t// out\n        /* \"#utility.yul\":13972:14152   */\n    tag_189:\n        /* \"#utility.yul\":14020:14097   */\n      0x4e487b7100000000000000000000000000000000000000000000000000000000\n        /* \"#utility.yul\":14017:14018   */\n      0x00\n        /* \"#utility.yul\":14010:14098   */\n      mstore\n        /* \"#utility.yul\":14117:14121   */\n      0x41\n        /* \"#utility.yul\":14114:14115   */\n      0x04\n        /* \"#utility.yul\":14107:14122   */\n      mstore\n        /* \"#utility.yul\":14141:14145   */\n      0x24\n        /* \"#utility.yul\":14138:14139   */\n      0x00\n        /* \"#utility.yul\":14131:14146   */\n      revert\n        /* \"#utility.yul\":14158:14299   */\n    tag_190:\n        /* \"#utility.yul\":14207:14211   */\n      0x00\n        /* \"#utility.yul\":14230:14233   */\n      dup2\n        /* \"#utility.yul\":14222:14233   */\n      swap1\n      pop\n        /* \"#utility.yul\":14253:14256   */\n      dup2\n        /* \"#utility.yul\":14250:14251   */\n      0x00\n        /* \"#utility.yul\":14243:14257   */\n      mstore\n        /* \"#utility.yul\":14287:14291   */\n      0x20\n        /* \"#utility.yul\":14284:14285   */\n      0x00\n        /* \"#utility.yul\":14274:14292   */\n      keccak256\n        /* \"#utility.yul\":14266:14292   */\n      swap1\n      pop\n        /* \"#utility.yul\":14158:14299   */\n      swap2\n      swap1\n      pop\n      jump\t// out\n        /* \"#utility.yul\":14305:14398   */\n    tag_191:\n        /* \"#utility.yul\":14342:14348   */\n      0x00\n        /* \"#utility.yul\":14389:14391   */\n      0x20\n        /* \"#utility.yul\":14384:14386   */\n      0x1f\n        /* \"#utility.yul\":14377:14382   */\n      dup4\n        /* \"#utility.yul\":14373:14387   */\n      add\n        /* \"#utility.yul\":14369:14392   */\n      div\n        /* \"#utility.yul\":14359:14392   */\n      swap1\n      pop\n        /* \"#utility.yul\":14305:14398   */\n      swap2\n      swap1\n      pop\n      jump\t// out\n        /* \"#utility.yul\":14404:14511   */\n    tag_192:\n        /* \"#utility.yul\":14448:14456   */\n      0x00\n        /* \"#utility.yul\":14498:14503   */\n      dup3\n        /* \"#utility.yul\":14492:14496   */\n      dup3\n        /* \"#utility.yul\":14488:14504   */\n      shl\n        /* \"#utility.yul\":14467:14504   */\n      swap1\n      pop\n        /* \"#utility.yul\":14404:14511   */\n      swap3\n      swap2\n      pop\n      pop\n      jump\t// out\n        /* \"#utility.yul\":14517:14910   */\n    tag_193:\n        /* \"#utility.yul\":14586:14592   */\n      0x00\n        /* \"#utility.yul\":14636:14637   */\n      0x08\n        /* \"#utility.yul\":14624:14634   */\n      dup4\n        /* \"#utility.yul\":14620:14638   */\n      mul\n        /* \"#utility.yul\":14659:14756   */\n      tag_341\n        /* \"#utility.yul\":14689:14755   */\n      0xffffffffffffffffffffffffffffffffffffffffffffffffffffffffffffffff\n        /* \"#utility.yul\":14678:14687   */\n      dup3\n        /* \"#utility.yul\":14659:14756   */\n      tag_192\n      jump\t// in\n    tag_341:\n        /* \"#utility.yul\":14777:14816   */\n      tag_342\n        /* \"#utility.yul\":14807:14815   */\n      dup7\n        /* \"#utility.yul\":14796:14805   */\n      dup4\n        /* \"#utility.yul\":14777:14816   */\n      tag_192\n      jump\t// in\n    tag_342:\n        /* \"#utility.yul\":14765:14816   */\n      swap6\n      pop\n        /* \"#utility.yul\":14849:14853   */\n      dup1\n        /* \"#utility.yul\":14845:14854   */\n      not\n        /* \"#utility.yul\":14838:14843   */\n      dup5\n        /* \"#utility.yul\":14834:14855   */\n      and\n        /* \"#utility.yul\":14825:14855   */\n      swap4\n      pop\n        /* \"#utility.yul\":14898:14902   */\n      dup1\n        /* \"#utility.yul\":14888:14896   */\n      dup7\n        /* \"#utility.yul\":14884:14903   */\n      and\n        /* \"#utility.yul\":14877:14882   */\n      dup5\n        /* \"#utility.yul\":14874:14904   */\n      or\n        /* \"#utility.yul\":14864:14904   */\n      swap3\n      pop\n        /* \"#utility.yul\":14593:14910   */\n      pop\n      pop\n        /* \"#utility.yul\":14517:14910   */\n      swap4\n      swap3\n      pop\n      pop\n      pop\n      jump\t// out\n        /* \"#utility.yul\":14916:14976   */\n    tag_194:\n        /* \"#utility.yul\":14944:14947   */\n      0x00\n        /* \"#utility.yul\":14965:14970   */\n      dup2\n        /* \"#utility.yul\":14958:14970   */\n      swap1\n      pop\n        /* \"#utility.yul\":14916:14976   */\n      swap2\n      swap1\n      pop\n      jump\t// out\n        /* \"#utility.yul\":14982:15124   */\n    tag_195:\n        /* \"#utility.yul\":15032:15041   */\n      0x00\n        /* \"#utility.yul\":15065:15118   */\n      tag_345\n        /* \"#utility.yul\":15083:15117   */\n      tag_346\n        /* \"#utility.yul\":15092:15116   */\n      tag_347\n        /* \"#utility.yul\":15110:15115   */\n      dup5\n        /* \"#utility.yul\":15092:15116   */\n      tag_155\n      jump\t// in\n    tag_347:\n        /* \"#utility.yul\":15083:15117   */\n      tag_194\n      jump\t// in\n    tag_346:\n        /* \"#utility.yul\":15065:15118   */\n      tag_155\n      jump\t// in\n    tag_345:\n        /* \"#utility.yul\":15052:15118   */\n      swap1\n      pop\n        /* \"#utility.yul\":14982:15124   */\n      swap2\n      swap1\n      pop\n      jump\t// out\n        /* \"#utility.yul\":15130:15205   */\n    tag_196:\n        /* \"#utility.yul\":15173:15176   */\n      0x00\n        /* \"#utility.yul\":15194:15199   */\n      dup2\n        /* \"#utility.yul\":15187:15199   */\n      swap1\n      pop\n        /* \"#utility.yul\":15130:15205   */\n      swap2\n      swap1\n      pop\n      jump\t// out\n        /* \"#utility.yul\":15211:15480   */\n    tag_197:\n        /* \"#utility.yul\":15321:15360   */\n      tag_350\n        /* \"#utility.yul\":15352:15359   */\n      dup4\n        /* \"#utility.yul\":15321:15360   */\n      tag_195\n      jump\t// in\n    tag_350:\n        /* \"#utility.yul\":15382:15473   */\n      tag_351\n        /* \"#utility.yul\":15431:15472   */\n      tag_352\n        /* \"#utility.yul\":15455:15471   */\n      dup3\n        /* \"#utility.yul\":15431:15472   */\n      tag_196\n      jump\t// in\n    tag_352:\n        /* \"#utility.yul\":15423:15429   */\n      dup5\n        /* \"#utility.yul\":15416:15420   */\n      dup5\n        /* \"#utility.yul\":15410:15421   */\n      sload\n        /* \"#utility.yul\":15382:15473   */\n      tag_193\n      jump\t// in\n    tag_351:\n        /* \"#utility.yul\":15376:15380   */\n      dup3\n        /* \"#utility.yul\":15369:15474   */\n      sstore\n        /* \"#utility.yul\":15287:15480   */\n      pop\n        /* \"#utility.yul\":15211:15480   */\n      pop\n      pop\n      pop\n      jump\t// out\n        /* \"#utility.yul\":15486:15559   */\n    tag_198:\n        /* \"#utility.yul\":15531:15534   */\n      0x00\n        /* \"#utility.yul\":15552:15553   */\n      0x00\n        /* \"#utility.yul\":15545:15553   */\n      swap1\n      pop\n        /* \"#utility.yul\":15486:15559   */\n      swap1\n      jump\t// out\n        /* \"#utility.yul\":15565:15754   */\n    tag_199:\n        /* \"#utility.yul\":15642:15674   */\n      tag_355\n      tag_198\n      jump\t// in\n    tag_355:\n        /* \"#utility.yul\":15683:15748   */\n      tag_356\n        /* \"#utility.yul\":15741:15747   */\n      dup2\n        /* \"#utility.yul\":15733:15739   */\n      dup5\n        /* \"#utility.yul\":15727:15731   */\n      dup5\n        /* \"#utility.yul\":15683:15748   */\n      tag_197\n      jump\t// in\n    tag_356:\n        /* \"#utility.yul\":15618:15754   */\n      pop\n        /* \"#utility.yul\":15565:15754   */\n      pop\n      pop\n      jump\t// out\n        /* \"#utility.yul\":15760:15946   */\n    tag_200:\n        /* \"#utility.yul\":15820:15940   */\n    tag_358:\n        /* \"#utility.yul\":15837:15840   */\n      dup2\n        /* \"#utility.yul\":15830:15835   */\n      dup2\n        /* \"#utility.yul\":15827:15841   */\n      lt\n        /* \"#utility.yul\":15820:15940   */\n      iszero\n      tag_360\n      jumpi\n        /* \"#utility.yul\":15891:15930   */\n      tag_361\n        /* \"#utility.yul\":15928:15929   */\n      0x00\n        /* \"#utility.yul\":15921:15926   */\n      dup3\n        /* \"#utility.yul\":15891:15930   */\n      tag_199\n      jump\t// in\n    tag_361:\n        /* \"#utility.yul\":15864:15865   */\n      0x01\n        /* \"#utility.yul\":15857:15862   */\n      dup2\n        /* \"#utility.yul\":15853:15866   */\n      add\n        /* \"#utility.yul\":15844:15866   */\n      swap1\n      pop\n        /* \"#utility.yul\":15820:15940   */\n      jump(tag_358)\n    tag_360:\n        /* \"#utility.yul\":15760:15946   */\n      pop\n      pop\n      jump\t// out\n        /* \"#utility.yul\":15952:16495   */\n    tag_201:\n        /* \"#utility.yul\":16053:16055   */\n      0x1f\n        /* \"#utility.yul\":16048:16051   */\n      dup3\n        /* \"#utility.yul\":16045:16056   */\n      gt\n        /* \"#utility.yul\":16042:16488   */\n      iszero\n      tag_363\n      jumpi\n        /* \"#utility.yul\":16087:16125   */\n      tag_364\n        /* \"#utility.yul\":16119:16124   */\n      dup2\n        /* \"#utility.yul\":16087:16125   */\n      tag_190\n      jump\t// in\n    tag_364:\n        /* \"#utility.yul\":16171:16200   */\n      tag_365\n        /* \"#utility.yul\":16189:16199   */\n      dup5\n        /* \"#utility.yul\":16171:16200   */\n      tag_191\n      jump\t// in\n    tag_365:\n        /* \"#utility.yul\":16161:16169   */\n      dup2\n        /* \"#utility.yul\":16157:16201   */\n      add\n        /* \"#utility.yul\":16354:16356   */\n      0x20\n        /* \"#utility.yul\":16342:16352   */\n      dup6\n        /* \"#utility.yul\":16339:16357   */\n      lt\n        /* \"#utility.yul\":16336:16385   */\n      iszero\n      tag_366\n      jumpi\n        /* \"#utility.yul\":16375:16383   */\n      dup2\n        /* \"#utility.yul\":16360:16383   */\n      swap1\n      pop\n        /* \"#utility.yul\":16336:16385   */\n    tag_366:\n        /* \"#utility.yul\":16398:16478   */\n      tag_367\n        /* \"#utility.yul\":16454:16476   */\n      tag_368\n        /* \"#utility.yul\":16472:16475   */\n      dup6\n        /* \"#utility.yul\":16454:16476   */\n      tag_191\n      jump\t// in\n    tag_368:\n        /* \"#utility.yul\":16444:16452   */\n      dup4\n        /* \"#utility.yul\":16440:16477   */\n      add\n        /* \"#utility.yul\":16427:16438   */\n      dup3\n        /* \"#utility.yul\":16398:16478   */\n      tag_200\n      jump\t// in\n    tag_367:\n        /* \"#utility.yul\":16057:16488   */\n      pop\n      pop\n        /* \"#utility.yul\":16042:16488   */\n    tag_363:\n        /* \"#utility.yul\":15952:16495   */\n      pop\n      pop\n      pop\n      jump\t// out\n        /* \"#utility.yul\":16501:16618   */\n    tag_202:\n        /* \"#utility.yul\":16555:16563   */\n      0x00\n        /* \"#utility.yul\":16605:16610   */\n      dup3\n        /* \"#utility.yul\":16599:16603   */\n      dup3\n        /* \"#utility.yul\":16595:16611   */\n      shr\n        /* \"#utility.yul\":16574:16611   */\n      swap1\n      pop\n        /* \"#utility.yul\":16501:16618   */\n      swap3\n      swap2\n      pop\n      pop\n      jump\t// out\n        /* \"#utility.yul\":16624:16793   */\n    tag_203:\n        /* \"#utility.yul\":16668:16674   */\n      0x00\n        /* \"#utility.yul\":16701:16752   */\n      tag_371\n        /* \"#utility.yul\":16749:16750   */\n      0x00\n        /* \"#utility.yul\":16745:16751   */\n      not\n        /* \"#utility.yul\":16737:16742   */\n      dup5\n        /* \"#utility.yul\":16734:16735   */\n      0x08\n        /* \"#utility.yul\":16730:16743   */\n      mul\n        /* \"#utility.yul\":16701:16752   */\n      tag_202\n      jump\t// in\n    tag_371:\n        /* \"#utility.yul\":16697:16753   */\n      not\n        /* \"#utility.yul\":16782:16786   */\n      dup1\n        /* \"#utility.yul\":16776:16780   */\n      dup4\n        /* \"#utility.yul\":16772:16787   */\n      and\n        /* \"#utility.yul\":16762:16787   */\n      swap2\n      pop\n        /* \"#utility.yul\":16675:16793   */\n      pop\n        /* \"#utility.yul\":16624:16793   */\n      swap3\n      swap2\n      pop\n      pop\n      jump\t// out\n        /* \"#utility.yul\":16798:17093   */\n    tag_204:\n        /* \"#utility.yul\":16874:16878   */\n      0x00\n        /* \"#utility.yul\":17020:17049   */\n      tag_373\n        /* \"#utility.yul\":17045:17048   */\n      dup4\n        /* \"#utility.yul\":17039:17043   */\n      dup4\n        /* \"#utility.yul\":17020:17049   */\n      tag_203\n      jump\t// in\n    tag_373:\n        /* \"#utility.yul\":17012:17049   */\n      swap2\n      pop\n        /* \"#utility.yul\":17082:17085   */\n      dup3\n        /* \"#utility.yul\":17079:17080   */\n      0x02\n        /* \"#utility.yul\":17075:17086   */\n      mul\n        /* \"#utility.yul\":17069:17073   */\n      dup3\n        /* \"#utility.yul\":17066:17087   */\n      or\n        /* \"#utility.yul\":17058:17087   */\n      swap1\n      pop\n        /* \"#utility.yul\":16798:17093   */\n      swap3\n      swap2\n      pop\n      pop\n      jump\t// out\n        /* \"#utility.yul\":17098:18549   */\n    tag_94:\n        /* \"#utility.yul\":17209:17212   */\n      dup2\n        /* \"#utility.yul\":17203:17207   */\n      dup2\n        /* \"#utility.yul\":17200:17213   */\n      sub\n        /* \"#utility.yul\":17197:17223   */\n      tag_375\n      jumpi\n        /* \"#utility.yul\":17216:17221   */\n      pop\n      pop\n      jump(tag_374)\n        /* \"#utility.yul\":17197:17223   */\n    tag_375:\n        /* \"#utility.yul\":17247:17281   */\n      tag_376\n        /* \"#utility.yul\":17277:17280   */\n      dup3\n        /* \"#utility.yul\":17247:17281   */\n      tag_188\n      jump\t// in\n    tag_376:\n        /* \"#utility.yul\":17346:17364   */\n      0xffffffffffffffff\n        /* \"#utility.yul\":17338:17344   */\n      dup2\n        /* \"#utility.yul\":17335:17365   */\n      gt\n        /* \"#utility.yul\":17332:17388   */\n      iszero\n      tag_377\n      jumpi\n        /* \"#utility.yul\":17368:17386   */\n      tag_378\n      tag_189\n      jump\t// in\n    tag_378:\n        /* \"#utility.yul\":17332:17388   */\n    tag_377:\n        /* \"#utility.yul\":17412:17450   */\n      tag_379\n        /* \"#utility.yul\":17444:17448   */\n      dup3\n        /* \"#utility.yul\":17438:17449   */\n      sload\n        /* \"#utility.yul\":17412:17450   */\n      tag_43\n      jump\t// in\n    tag_379:\n        /* \"#utility.yul\":17497:17564   */\n      tag_380\n        /* \"#utility.yul\":17557:17563   */\n      dup3\n        /* \"#utility.yul\":17549:17555   */\n      dup3\n        /* \"#utility.yul\":17543:17547   */\n      dup6\n        /* \"#utility.yul\":17497:17564   */\n      tag_201\n      jump\t// in\n    tag_380:\n        /* \"#utility.yul\":17591:17592   */\n      0x00\n        /* \"#utility.yul\":17620:17622   */\n      0x1f\n        /* \"#utility.yul\":17612:17618   */\n      dup4\n        /* \"#utility.yul\":17609:17623   */\n      gt\n        /* \"#utility.yul\":17637:17638   */\n      0x01\n        /* \"#utility.yul\":17632:18304   */\n      dup2\n      eq\n      tag_382\n      jumpi\n        /* \"#utility.yul\":18348:18349   */\n      0x00\n        /* \"#utility.yul\":18365:18371   */\n      dup5\n        /* \"#utility.yul\":18362:18439   */\n      iszero\n      tag_383\n      jumpi\n        /* \"#utility.yul\":18414:18423   */\n      dup3\n        /* \"#utility.yul\":18409:18412   */\n      dup8\n        /* \"#utility.yul\":18405:18424   */\n      add\n        /* \"#utility.yul\":18399:18425   */\n      sload\n        /* \"#utility.yul\":18390:18425   */\n      swap1\n      pop\n        /* \"#utility.yul\":18362:18439   */\n    tag_383:\n        /* \"#utility.yul\":18465:18532   */\n      tag_384\n        /* \"#utility.yul\":18525:18531   */\n      dup6\n        /* \"#utility.yul\":18518:18523   */\n      dup3\n        /* \"#utility.yul\":18465:18532   */\n      tag_204\n      jump\t// in\n    tag_384:\n        /* \"#utility.yul\":18459:18463   */\n      dup7\n        /* \"#utility.yul\":18452:18533   */\n      sstore\n        /* \"#utility.yul\":18321:18543   */\n      pop\n        /* \"#utility.yul\":17602:18543   */\n      jump(tag_381)\n        /* \"#utility.yul\":17632:18304   */\n    tag_382:\n        /* \"#utility.yul\":17684:17688   */\n      0x1f\n        /* \"#utility.yul\":17680:17689   */\n      not\n        /* \"#utility.yul\":17672:17678   */\n      dup5\n        /* \"#utility.yul\":17668:17690   */\n      and\n        /* \"#utility.yul\":17710:17746   */\n      tag_385\n        /* \"#utility.yul\":17742:17745   */\n      dup8\n        /* \"#utility.yul\":17710:17746   */\n      tag_190\n      jump\t// in\n    tag_385:\n        /* \"#utility.yul\":17703:17746   */\n      swap7\n      pop\n        /* \"#utility.yul\":17773:17810   */\n      tag_386\n        /* \"#utility.yul\":17805:17809   */\n      dup7\n        /* \"#utility.yul\":17773:17810   */\n      tag_190\n      jump\t// in\n    tag_386:\n        /* \"#utility.yul\":17832:17833   */\n      0x00\n        /* \"#utility.yul\":17846:18053   */\n    tag_387:\n        /* \"#utility.yul\":17860:17867   */\n      dup3\n        /* \"#utility.yul\":17857:17858   */\n      dup2\n        /* \"#utility.yul\":17854:17868   */\n      lt\n        /* \"#utility.yul\":17846:18053   */\n      iszero\n      tag_389\n      jumpi\n        /* \"#utility.yul\":17939:17948   */\n      dup5\n        /* \"#utility.yul\":17934:17937   */\n      dup10\n        /* \"#utility.yul\":17930:17949   */\n      add\n        /* \"#utility.yul\":17924:17950   */\n      sload\n        /* \"#utility.yul\":17916:17922   */\n      dup3\n        /* \"#utility.yul\":17909:17951   */\n      sstore\n        /* \"#utility.yul\":17990:17991   */\n      0x01\n        /* \"#utility.yul\":17982:17988   */\n      dup3\n        /* \"#utility.yul\":17978:17992   */\n      add\n        /* \"#utility.yul\":17968:17992   */\n      swap2\n      pop\n        /* \"#utility.yul\":18037:18038   */\n      0x01\n        /* \"#utility.yul\":18026:18035   */\n      dup6\n        /* \"#utility.yul\":18022:18039   */\n      add\n        /* \"#utility.yul\":18009:18039   */\n      swap5\n      pop\n        /* \"#utility.yul\":17883:17887   */\n      0x20\n        /* \"#utility.yul\":17880:17881   */\n      dup2\n        /* \"#utility.yul\":17876:17888   */\n      add\n        /* \"#utility.yul\":17871:17888   */\n      swap1\n      pop\n        /* \"#utility.yul\":17846:18053   */\n      jump(tag_387)\n    tag_389:\n        /* \"#utility.yul\":18081:18087   */\n      dup7\n        /* \"#utility.yul\":18072:18079   */\n      dup4\n        /* \"#utility.yul\":18069:18088   */\n      lt\n        /* \"#utility.yul\":18066:18245   */\n      iszero\n      tag_390\n      jumpi\n        /* \"#utility.yul\":18139:18148   */\n      dup5\n        /* \"#utility.yul\":18134:18137   */\n      dup10\n        /* \"#utility.yul\":18130:18149   */\n      add\n        /* \"#utility.yul\":18124:18150   */\n      sload\n        /* \"#utility.yul\":18182:18230   */\n      tag_391\n        /* \"#utility.yul\":18224:18228   */\n      0x1f\n        /* \"#utility.yul\":18216:18222   */\n      dup10\n        /* \"#utility.yul\":18212:18229   */\n      and\n        /* \"#utility.yul\":18201:18210   */\n      dup3\n        /* \"#utility.yul\":18182:18230   */\n      tag_203\n      jump\t// in\n    tag_391:\n        /* \"#utility.yul\":18174:18180   */\n      dup4\n        /* \"#utility.yul\":18167:18231   */\n      sstore\n        /* \"#utility.yul\":18089:18245   */\n      pop\n        /* \"#utility.yul\":18066:18245   */\n    tag_390:\n        /* \"#utility.yul\":18291:18292   */\n      0x01\n        /* \"#utility.yul\":18287:18288   */\n      0x02\n        /* \"#utility.yul\":18279:18285   */\n      dup9\n        /* \"#utility.yul\":18275:18289   */\n      mul\n        /* \"#utility.yul\":18271:18293   */\n      add\n        /* \"#utility.yul\":18265:18269   */\n      dup9\n        /* \"#utility.yul\":18258:18294   */\n      sstore\n        /* \"#utility.yul\":17639:18304   */\n      pop\n      pop\n      pop\n        /* \"#utility.yul\":17602:18543   */\n    tag_381:\n      pop\n        /* \"#utility.yul\":17187:18549   */\n      pop\n      pop\n      pop\n        /* \"#utility.yul\":17098:18549   */\n      pop\n      pop\n    tag_374:\n      jump\t// out\n        /* \"#utility.yul\":18555:18735   */\n    tag_100:\n        /* \"#utility.yul\":18603:18680   */\n      0x4e487b7100000000000000000000000000000000000000000000000000000000\n        /* \"#utility.yul\":18600:18601   */\n      0x00\n        /* \"#utility.yul\":18593:18681   */\n      mstore\n        /* \"#utility.yul\":18700:18704   */\n      0x31\n        /* \"#utility.yul\":18697:18698   */\n      0x04\n        /* \"#utility.yul\":18690:18705   */\n      mstore\n        /* \"#utility.yul\":18724:18728   */\n      0x24\n        /* \"#utility.yul\":18721:18722   */\n      0x00\n        /* \"#utility.yul\":18714:18729   */\n      revert\n        /* \"#utility.yul\":18741:18913   */\n    tag_205:\n        /* \"#utility.yul\":18881:18905   */\n      0x5469746c65206d7573742062652070726f766964656400000000000000000000\n        /* \"#utility.yul\":18877:18878   */\n      0x00\n        /* \"#utility.yul\":18869:18875   */\n      dup3\n        /* \"#utility.yul\":18865:18879   */\n      add\n        /* \"#utility.yul\":18858:18906   */\n      mstore\n        /* \"#utility.yul\":18741:18913   */\n      pop\n      jump\t// out\n        /* \"#utility.yul\":18919:19285   */\n    tag_206:\n        /* \"#utility.yul\":19061:19064   */\n      0x00\n        /* \"#utility.yul\":19082:19149   */\n      tag_395\n        /* \"#utility.yul\":19146:19148   */\n      0x16\n        /* \"#utility.yul\":19141:19144   */\n      dup4\n        /* \"#utility.yul\":19082:19149   */\n      tag_180\n      jump\t// in\n    tag_395:\n        /* \"#utility.yul\":19075:19149   */\n      swap2\n      pop\n        /* \"#utility.yul\":19158:19251   */\n      tag_396\n        /* \"#utility.yul\":19247:19250   */\n      dup3\n        /* \"#utility.yul\":19158:19251   */\n      tag_205\n      jump\t// in\n    tag_396:\n        /* \"#utility.yul\":19276:19278   */\n      0x20\n        /* \"#utility.yul\":19271:19274   */\n      dup3\n        /* \"#utility.yul\":19267:19279   */\n      add\n        /* \"#utility.yul\":19260:19279   */\n      swap1\n      pop\n        /* \"#utility.yul\":18919:19285   */\n      swap2\n      swap1\n      pop\n      jump\t// out\n        /* \"#utility.yul\":19291:19710   */\n    tag_108:\n        /* \"#utility.yul\":19457:19461   */\n      0x00\n        /* \"#utility.yul\":19495:19497   */\n      0x20\n        /* \"#utility.yul\":19484:19493   */\n      dup3\n        /* \"#utility.yul\":19480:19498   */\n      add\n        /* \"#utility.yul\":19472:19498   */\n      swap1\n      pop\n        /* \"#utility.yul\":19544:19553   */\n      dup2\n        /* \"#utility.yul\":19538:19542   */\n      dup2\n        /* \"#utility.yul\":19534:19554   */\n      sub\n        /* \"#utility.yul\":19530:19531   */\n      0x00\n        /* \"#utility.yul\":19519:19528   */\n      dup4\n        /* \"#utility.yul\":19515:19532   */\n      add\n        /* \"#utility.yul\":19508:19555   */\n      mstore\n        /* \"#utility.yul\":19572:19703   */\n      tag_398\n        /* \"#utility.yul\":19698:19702   */\n      dup2\n        /* \"#utility.yul\":19572:19703   */\n      tag_206\n      jump\t// in\n    tag_398:\n        /* \"#utility.yul\":19564:19703   */\n      swap1\n      pop\n        /* \"#utility.yul\":19291:19710   */\n      swap2\n      swap1\n      pop\n      jump\t// out\n        /* \"#utility.yul\":19716:19896   */\n    tag_207:\n        /* \"#utility.yul\":19856:19888   */\n      0x446561646c696e65206d75737420626520696e20746865206675747572650000\n        /* \"#utility.yul\":19852:19853   */\n      0x00\n        /* \"#utility.yul\":19844:19850   */\n      dup3\n        /* \"#utility.yul\":19840:19854   */\n      add\n        /* \"#utility.yul\":19833:19889   */\n      mstore\n        /* \"#utility.yul\":19716:19896   */\n      pop\n      jump\t// out\n        /* \"#utility.yul\":19902:20268   */\n    tag_208:\n        /* \"#utility.yul\":20044:20047   */\n      0x00\n        /* \"#utility.yul\":20065:20132   */\n      tag_401\n        /* \"#utility.yul\":20129:20131   */\n      0x1e\n        /* \"#utility.yul\":20124:20127   */\n      dup4\n        /* \"#utility.yul\":20065:20132   */\n      tag_180\n      jump\t// in\n    tag_401:\n        /* \"#utility.yul\":20058:20132   */\n      swap2\n      pop\n        /* \"#utility.yul\":20141:20234   */\n      tag_402\n        /* \"#utility.yul\":20230:20233   */\n      dup3\n        /* \"#utility.yul\":20141:20234   */\n      tag_207\n      jump\t// in\n    tag_402:\n        /* \"#utility.yul\":20259:20261   */\n      0x20\n        /* \"#utility.yul\":20254:20257   */\n      dup3\n        /* \"#utility.yul\":20250:20262   */\n      add\n        /* \"#utility.yul\":20243:20262   */\n      swap1\n      pop\n        /* \"#utility.yul\":19902:20268   */\n      swap2\n      swap1\n      pop\n      jump\t// out\n        /* \"#utility.yul\":20274:20693   */\n    tag_111:\n        /* \"#utility.yul\":20440:20444   */\n      0x00\n        /* \"#utility.yul\":20478:20480   */\n      0x20\n        /* \"#utility.yul\":20467:20476   */\n      dup3\n        /* \"#utility.yul\":20463:20481   */\n      add\n        /* \"#utility.yul\":20455:20481   */\n      swap1\n      pop\n        /* \"#utility.yul\":20527:20536   */\n      dup2\n        /* \"#utility.yul\":20521:20525   */\n      dup2\n        /* \"#utility.yul\":20517:20537   */\n      sub\n        /* \"#utility.yul\":20513:20514   */\n      0x00\n        /* \"#utility.yul\":20502:20511   */\n      dup4\n        /* \"#utility.yul\":20498:20515   */\n      add\n        /* \"#utility.yul\":20491:20538   */\n      mstore\n        /* \"#utility.yul\":20555:20686   */\n      tag_404\n        /* \"#utility.yul\":20681:20685   */\n      dup2\n        /* \"#utility.yul\":20555:20686   */\n      tag_208\n      jump\t// in\n    tag_404:\n        /* \"#utility.yul\":20547:20686   */\n      swap1\n      pop\n        /* \"#utility.yul\":20274:20693   */\n      swap2\n      swap1\n      pop\n      jump\t// out\n        /* \"#utility.yul\":20699:22094   */\n    tag_116:\n        /* \"#utility.yul\":20816:20853   */\n      tag_406\n        /* \"#utility.yul\":20849:20852   */\n      dup3\n        /* \"#utility.yul\":20816:20853   */\n      tag_150\n      jump\t// in\n    tag_406:\n        /* \"#utility.yul\":20918:20936   */\n      0xffffffffffffffff\n        /* \"#utility.yul\":20910:20916   */\n      dup2\n        /* \"#utility.yul\":20907:20937   */\n      gt\n        /* \"#utility.yul\":20904:20960   */\n      iszero\n      tag_407\n      jumpi\n        /* \"#utility.yul\":20940:20958   */\n      tag_408\n      tag_189\n      jump\t// in\n    tag_408:\n        /* \"#utility.yul\":20904:20960   */\n    tag_407:\n        /* \"#utility.yul\":20984:21022   */\n      tag_409\n        /* \"#utility.yul\":21016:21020   */\n      dup3\n        /* \"#utility.yul\":21010:21021   */\n      sload\n        /* \"#utility.yul\":20984:21022   */\n      tag_43\n      jump\t// in\n    tag_409:\n        /* \"#utility.yul\":21069:21136   */\n      tag_410\n        /* \"#utility.yul\":21129:21135   */\n      dup3\n        /* \"#utility.yul\":21121:21127   */\n      dup3\n        /* \"#utility.yul\":21115:21119   */\n      dup6\n        /* \"#utility.yul\":21069:21136   */\n      tag_201\n      jump\t// in\n    tag_410:\n        /* \"#utility.yul\":21163:21164   */\n      0x00\n        /* \"#utility.yul\":21187:21191   */\n      0x20\n        /* \"#utility.yul\":21174:21191   */\n      swap1\n      pop\n        /* \"#utility.yul\":21219:21221   */\n      0x1f\n        /* \"#utility.yul\":21211:21217   */\n      dup4\n        /* \"#utility.yul\":21208:21222   */\n      gt\n        /* \"#utility.yul\":21236:21237   */\n      0x01\n        /* \"#utility.yul\":21231:21849   */\n      dup2\n      eq\n      tag_412\n      jumpi\n        /* \"#utility.yul\":21893:21894   */\n      0x00\n        /* \"#utility.yul\":21910:21916   */\n      dup5\n        /* \"#utility.yul\":21907:21984   */\n      iszero\n      tag_413\n      jumpi\n        /* \"#utility.yul\":21959:21968   */\n      dup3\n        /* \"#utility.yul\":21954:21957   */\n      dup8\n        /* \"#utility.yul\":21950:21969   */\n      add\n        /* \"#utility.yul\":21944:21970   */\n      mload\n        /* \"#utility.yul\":21935:21970   */\n      swap1\n      pop\n        /* \"#utility.yul\":21907:21984   */\n    tag_413:\n        /* \"#utility.yul\":22010:22077   */\n      tag_414\n        /* \"#utility.yul\":22070:22076   */\n      dup6\n        /* \"#utility.yul\":22063:22068   */\n      dup3\n        /* \"#utility.yul\":22010:22077   */\n      tag_204\n      jump\t// in\n    tag_414:\n        /* \"#utility.yul\":22004:22008   */\n      dup7\n        /* \"#utility.yul\":21997:22078   */\n      sstore\n        /* \"#utility.yul\":21866:22088   */\n      pop\n        /* \"#utility.yul\":21201:22088   */\n      jump(tag_411)\n        /* \"#utility.yul\":21231:21849   */\n    tag_412:\n        /* \"#utility.yul\":21283:21287   */\n      0x1f\n        /* \"#utility.yul\":21279:21288   */\n      not\n        /* \"#utility.yul\":21271:21277   */\n      dup5\n        /* \"#utility.yul\":21267:21289   */\n      and\n        /* \"#utility.yul\":21317:21354   */\n      tag_415\n        /* \"#utility.yul\":21349:21353   */\n      dup7\n        /* \"#utility.yul\":21317:21354   */\n      tag_190\n      jump\t// in\n    tag_415:\n        /* \"#utility.yul\":21376:21377   */\n      0x00\n        /* \"#utility.yul\":21390:21598   */\n    tag_416:\n        /* \"#utility.yul\":21404:21411   */\n      dup3\n        /* \"#utility.yul\":21401:21402   */\n      dup2\n        /* \"#utility.yul\":21398:21412   */\n      lt\n        /* \"#utility.yul\":21390:21598   */\n      iszero\n      tag_418\n      jumpi\n        /* \"#utility.yul\":21483:21492   */\n      dup5\n        /* \"#utility.yul\":21478:21481   */\n      dup10\n        /* \"#utility.yul\":21474:21493   */\n      add\n        /* \"#utility.yul\":21468:21494   */\n      mload\n        /* \"#utility.yul\":21460:21466   */\n      dup3\n        /* \"#utility.yul\":21453:21495   */\n      sstore\n        /* \"#utility.yul\":21534:21535   */\n      0x01\n        /* \"#utility.yul\":21526:21532   */\n      dup3\n        /* \"#utility.yul\":21522:21536   */\n      add\n        /* \"#utility.yul\":21512:21536   */\n      swap2\n      pop\n        /* \"#utility.yul\":21581:21583   */\n      0x20\n        /* \"#utility.yul\":21570:21579   */\n      dup6\n        /* \"#utility.yul\":21566:21584   */\n      add\n        /* \"#utility.yul\":21553:21584   */\n      swap5\n      pop\n        /* \"#utility.yul\":21427:21431   */\n      0x20\n        /* \"#utility.yul\":21424:21425   */\n      dup2\n        /* \"#utility.yul\":21420:21432   */\n      add\n        /* \"#utility.yul\":21415:21432   */\n      swap1\n      pop\n        /* \"#utility.yul\":21390:21598   */\n      jump(tag_416)\n    tag_418:\n        /* \"#utility.yul\":21626:21632   */\n      dup7\n        /* \"#utility.yul\":21617:21624   */\n      dup4\n        /* \"#utility.yul\":21614:21633   */\n      lt\n        /* \"#utility.yul\":21611:21790   */\n      iszero\n      tag_419\n      jumpi\n        /* \"#utility.yul\":21684:21693   */\n      dup5\n        /* \"#utility.yul\":21679:21682   */\n      dup10\n        /* \"#utility.yul\":21675:21694   */\n      add\n        /* \"#utility.yul\":21669:21695   */\n      mload\n        /* \"#utility.yul\":21727:21775   */\n      tag_420\n        /* \"#utility.yul\":21769:21773   */\n      0x1f\n        /* \"#utility.yul\":21761:21767   */\n      dup10\n        /* \"#utility.yul\":21757:21774   */\n      and\n        /* \"#utility.yul\":21746:21755   */\n      dup3\n        /* \"#utility.yul\":21727:21775   */\n      tag_203\n      jump\t// in\n    tag_420:\n        /* \"#utility.yul\":21719:21725   */\n      dup4\n        /* \"#utility.yul\":21712:21776   */\n      sstore\n        /* \"#utility.yul\":21634:21790   */\n      pop\n        /* \"#utility.yul\":21611:21790   */\n    tag_419:\n        /* \"#utility.yul\":21836:21837   */\n      0x01\n        /* \"#utility.yul\":21832:21833   */\n      0x02\n        /* \"#utility.yul\":21824:21830   */\n      dup9\n        /* \"#utility.yul\":21820:21834   */\n      mul\n        /* \"#utility.yul\":21816:21838   */\n      add\n        /* \"#utility.yul\":21810:21814   */\n      dup9\n        /* \"#utility.yul\":21803:21839   */\n      sstore\n        /* \"#utility.yul\":21238:21849   */\n      pop\n      pop\n      pop\n        /* \"#utility.yul\":21201:22088   */\n    tag_411:\n      pop\n        /* \"#utility.yul\":20791:22094   */\n      pop\n      pop\n      pop\n        /* \"#utility.yul\":20699:22094   */\n      pop\n      pop\n      jump\t// out\n\n    auxdata: 0xa264697066735822122052c07cdc5e6280b2719113574a707e65ed1044ab412f6daab63053e2ceb7cbd164736f6c634300081e0033\n}\n",
				"bytecode": {
					"linkReferences": {},
					"object": "6080604052348015600e575f5ffd5b50335f5f6101000a81548173ffffffffffffffffffffffffffffffffffffffff021916908373ffffffffffffffffffffffffffffffffffffffff1602179055506001805f3373ffffffffffffffffffffffffffffffffffffffff1673ffffffffffffffffffffffffffffffffffffffff1681526020019081526020015f208190555061196b8061009d5f395ff3fe608060405234801561000f575f5ffd5b506004361061007b575f3560e01c80637cbc9ae9116100595780637cbc9ae9146100d5578063c0282a23146100f1578063c17a340e14610121578063e1e295581461013f5761007b565b806304a87e381461007f578063186882901461009d578063560f3192146100b9575b5f5ffd5b61008761015b565b6040516100949190611054565b60405180910390f35b6100b760048036038101906100b291906110a6565b61035f565b005b6100d360048036038101906100ce91906110a6565b610571565b005b6100ef60048036038101906100ea9190611132565b610873565b005b61010b6004803603810190610106919061121d565b610b27565b6040516101189190611257565b60405180910390f35b610129610b3c565b6040516101369190611257565b60405180910390f35b610159600480360381019061015491906110a6565b610b83565b005b606060025f3373ffffffffffffffffffffffffffffffffffffffff1673ffffffffffffffffffffffffffffffffffffffff1681526020019081526020015f20805480602002602001604051908101604052809291908181526020015f905b82821015610356578382905f5260205f2090600502016040518060a00160405290815f820180546101e99061129d565b80601f01602080910402602001604051908101604052809291908181526020018280546102159061129d565b80156102605780601f1061023757610100808354040283529160200191610260565b820191905f5260205f20905b81548152906001019060200180831161024357829003601f168201915b505050505081526020016001820180546102799061129d565b80601f01602080910402602001604051908101604052809291908181526020018280546102a59061129d565b80156102f05780601f106102c7576101008083540402835291602001916102f0565b820191905f5260205f20905b8154815290600101906020018083116102d357829003601f168201915b505050505081526020016002820154815260200160038201548152602001600482015f9054906101000a900460ff16600281111561033157610330610ed5565b5b600281111561034357610342610ed5565b5b81525050815260200190600101906101b9565b50505050905090565b8060025f3373ffffffffffffffffffffffffffffffffffffffff1673ffffffffffffffffffffffffffffffffffffffff1681526020019081526020015f208054905081106103e2576040517f08c379a00000000000000000000000000000000000000000000000000000000081526004016103d990611327565b60405180910390fd5b5f60025f3373ffffffffffffffffffffffffffffffffffffffff1673ffffffffffffffffffffffffffffffffffffffff1681526020019081526020015f20838154811061043257610431611345565b5b905f5260205f20906005020190505f600281111561045357610452610ed5565b5b816004015f9054906101000a900460ff16600281111561047657610475610ed5565b5b146104b6576040517f08c379a00000000000000000000000000000000000000000000000000000000081526004016104ad906113bc565b60405180910390fd5b428160030154106104fc576040517f08c379a00000000000000000000000000000000000000000000000000000000081526004016104f390611424565b60405180910390fd5b6002816004015f6101000a81548160ff0219169083600281111561052357610522610ed5565b5b0217905550823373ffffffffffffffffffffffffffffffffffffffff167fc5c09e6ef32e79ce08770ecea60cd5e7915b242a238f0ac57fc39c0b3ba58d1960405160405180910390a3505050565b8060025f3373ffffffffffffffffffffffffffffffffffffffff1673ffffffffffffffffffffffffffffffffffffffff1681526020019081526020015f208054905081106105f4576040517f08c379a00000000000000000000000000000000000000000000000000000000081526004016105eb90611327565b60405180910390fd5b5f60025f3373ffffffffffffffffffffffffffffffffffffffff1673ffffffffffffffffffffffffffffffffffffffff1681526020019081526020015f20805490509050600181610645919061146f565b83146107885760025f3373ffffffffffffffffffffffffffffffffffffffff1673ffffffffffffffffffffffffffffffffffffffff1681526020019081526020015f20600182610695919061146f565b815481106106a6576106a5611345565b5b905f5260205f20906005020160025f3373ffffffffffffffffffffffffffffffffffffffff1673ffffffffffffffffffffffffffffffffffffffff1681526020019081526020015f20848154811061070157610700611345565b5b905f5260205f2090600502015f8201815f01908161071f9190611684565b50600182018160010190816107349190611684565b506002820154816002015560038201548160030155600482015f9054906101000a900460ff16816004015f6101000a81548160ff0219169083600281111561077f5761077e610ed5565b5b02179055509050505b60025f3373ffffffffffffffffffffffffffffffffffffffff1673ffffffffffffffffffffffffffffffffffffffff1681526020019081526020015f208054806107d5576107d4611769565b5b600190038181905f5260205f2090600502015f5f82015f6107f69190610dcc565b600182015f6108059190610dcc565b600282015f9055600382015f9055600482015f6101000a81549060ff021916905550509055823373ffffffffffffffffffffffffffffffffffffffff167fd1bc87501afcaa22b7f6481dac99ed45fbe02321873ca9b55c1f41b9d78b8fb360405160405180910390a3505050565b5f85859050116108b8576040517f08c379a00000000000000000000000000000000000000000000000000000000081526004016108af906117e0565b60405180910390fd5b4281116108fa576040517f08c379a00000000000000000000000000000000000000000000000000000000081526004016108f190611848565b60405180910390fd5b60025f3373ffffffffffffffffffffffffffffffffffffffff1673ffffffffffffffffffffffffffffffffffffffff1681526020019081526020015f206040518060a0016040528087878080601f0160208091040260200160405190810160405280939291908181526020018383808284375f81840152601f19601f82011690508083019250505050505050815260200185858080601f0160208091040260200160405190810160405280939291908181526020018383808284375f81840152601f19601f8201169050808301925050505050505081526020014281526020018381526020015f60028111156109f3576109f2610ed5565b5b815250908060018154018082558091505060019003905f5260205f2090600502015f909190919091505f820151815f019081610a2f9190611866565b506020820151816001019081610a459190611866565b5060408201518160020155606082015181600301556080820151816004015f6101000a81548160ff02191690836002811115610a8457610a83610ed5565b5b021790555050505f600160025f3373ffffffffffffffffffffffffffffffffffffffff1673ffffffffffffffffffffffffffffffffffffffff1681526020019081526020015f2080549050610ad9919061146f565b9050803373ffffffffffffffffffffffffffffffffffffffff167ff2ba834cb120f28cac9129d80d6990b8d99d9a0a71487cec7d88bd8a2ba45cb960405160405180910390a3505050505050565b6001602052805f5260405f205f915090505481565b5f60025f3373ffffffffffffffffffffffffffffffffffffffff1673ffffffffffffffffffffffffffffffffffffffff1681526020019081526020015f2080549050905090565b8060025f3373ffffffffffffffffffffffffffffffffffffffff1673ffffffffffffffffffffffffffffffffffffffff1681526020019081526020015f20805490508110610c06576040517f08c379a0000000000000000000000000000000000000000000000000000000008152600401610bfd90611327565b60405180910390fd5b5f60025f3373ffffffffffffffffffffffffffffffffffffffff1673ffffffffffffffffffffffffffffffffffffffff1681526020019081526020015f208381548110610c5657610c55611345565b5b905f5260205f20906005020190505f6002811115610c7757610c76610ed5565b5b816004015f9054906101000a900460ff166002811115610c9a57610c99610ed5565b5b14610cda576040517f08c379a0000000000000000000000000000000000000000000000000000000008152600401610cd1906113bc565b60405180910390fd5b8060030154421115610d57576002816004015f6101000a81548160ff02191690836002811115610d0d57610d0c610ed5565b5b0217905550823373ffffffffffffffffffffffffffffffffffffffff167fc5c09e6ef32e79ce08770ecea60cd5e7915b242a238f0ac57fc39c0b3ba58d1960405160405180910390a35b6001816004015f6101000a81548160ff02191690836002811115610d7e57610d7d610ed5565b5b0217905550823373ffffffffffffffffffffffffffffffffffffffff167ff684d89bb0f42287bf32838774e4b7f8a60c11804b3c6d1791fa55f30679264360405160405180910390a3505050565b508054610dd89061129d565b5f825580601f10610de95750610e06565b601f0160209004905f5260205f2090810190610e059190610e09565b5b50565b5b80821115610e20575f815f905550600101610e0a565b5090565b5f81519050919050565b5f82825260208201905092915050565b5f819050602082019050919050565b5f81519050919050565b5f82825260208201905092915050565b8281835e5f83830152505050565b5f601f19601f8301169050919050565b5f610e8f82610e4d565b610e998185610e57565b9350610ea9818560208601610e67565b610eb281610e75565b840191505092915050565b5f819050919050565b610ecf81610ebd565b82525050565b7f4e487b71000000000000000000000000000000000000000000000000000000005f52602160045260245ffd5b60038110610f1357610f12610ed5565b5b50565b5f819050610f2382610f02565b919050565b5f610f3282610f16565b9050919050565b610f4281610f28565b82525050565b5f60a083015f8301518482035f860152610f628282610e85565b91505060208301518482036020860152610f7c8282610e85565b9150506040830151610f916040860182610ec6565b506060830151610fa46060860182610ec6565b506080830151610fb76080860182610f39565b508091505092915050565b5f610fcd8383610f48565b905092915050565b5f602082019050919050565b5f610feb82610e24565b610ff58185610e2e565b93508360208202850161100785610e3e565b805f5b8581101561104257848403895281516110238582610fc2565b945061102e83610fd5565b925060208a0199505060018101905061100a565b50829750879550505050505092915050565b5f6020820190508181035f83015261106c8184610fe1565b905092915050565b5f5ffd5b5f5ffd5b61108581610ebd565b811461108f575f5ffd5b50565b5f813590506110a08161107c565b92915050565b5f602082840312156110bb576110ba611074565b5b5f6110c884828501611092565b91505092915050565b5f5ffd5b5f5ffd5b5f5ffd5b5f5f83601f8401126110f2576110f16110d1565b5b8235905067ffffffffffffffff81111561110f5761110e6110d5565b5b60208301915083600182028301111561112b5761112a6110d9565b5b9250929050565b5f5f5f5f5f6060868803121561114b5761114a611074565b5b5f86013567ffffffffffffffff81111561116857611167611078565b5b611174888289016110dd565b9550955050602086013567ffffffffffffffff81111561119757611196611078565b5b6111a3888289016110dd565b935093505060406111b688828901611092565b9150509295509295909350565b5f73ffffffffffffffffffffffffffffffffffffffff82169050919050565b5f6111ec826111c3565b9050919050565b6111fc816111e2565b8114611206575f5ffd5b50565b5f81359050611217816111f3565b92915050565b5f6020828403121561123257611231611074565b5b5f61123f84828501611209565b91505092915050565b61125181610ebd565b82525050565b5f60208201905061126a5f830184611248565b92915050565b7f4e487b71000000000000000000000000000000000000000000000000000000005f52602260045260245ffd5b5f60028204905060018216806112b457607f821691505b6020821081036112c7576112c6611270565b5b50919050565b5f82825260208201905092915050565b7f496e76616c696465207461736b204944000000000000000000000000000000005f82015250565b5f6113116010836112cd565b915061131c826112dd565b602082019050919050565b5f6020820190508181035f83015261133e81611305565b9050919050565b7f4e487b71000000000000000000000000000000000000000000000000000000005f52603260045260245ffd5b7f5461736b206d7573742062652050656e64696e670000000000000000000000005f82015250565b5f6113a66014836112cd565b91506113b182611372565b602082019050919050565b5f6020820190508181035f8301526113d38161139a565b9050919050565b7f5461736b206973206e6f74206f766572647565207965740000000000000000005f82015250565b5f61140e6017836112cd565b9150611419826113da565b602082019050919050565b5f6020820190508181035f83015261143b81611402565b9050919050565b7f4e487b71000000000000000000000000000000000000000000000000000000005f52601160045260245ffd5b5f61147982610ebd565b915061148483610ebd565b925082820390508181111561149c5761149b611442565b5b92915050565b5f815490506114b08161129d565b9050919050565b7f4e487b71000000000000000000000000000000000000000000000000000000005f52604160045260245ffd5b5f819050815f5260205f209050919050565b5f6020601f8301049050919050565b5f82821b905092915050565b5f600883026115407fffffffffffffffffffffffffffffffffffffffffffffffffffffffffffffffff82611505565b61154a8683611505565b95508019841693508086168417925050509392505050565b5f819050919050565b5f61158561158061157b84610ebd565b611562565b610ebd565b9050919050565b5f819050919050565b61159e8361156b565b6115b26115aa8261158c565b848454611511565b825550505050565b5f5f905090565b6115c96115ba565b6115d4818484611595565b505050565b5b818110156115f7576115ec5f826115c1565b6001810190506115da565b5050565b601f82111561163c5761160d816114e4565b611616846114f6565b81016020851015611625578190505b611639611631856114f6565b8301826115d9565b50505b505050565b5f82821c905092915050565b5f61165c5f1984600802611641565b1980831691505092915050565b5f611674838361164d565b9150826002028217905092915050565b818103611692575050611767565b61169b826114a2565b67ffffffffffffffff8111156116b4576116b36114b7565b5b6116be825461129d565b6116c98282856115fb565b5f601f8311600181146116f6575f84156116e4578287015490505b6116ee8582611669565b865550611760565b601f198416611704876114e4565b965061170f866114e4565b5f5b8281101561173657848901548255600182019150600185019450602081019050611711565b86831015611753578489015461174f601f89168261164d565b8355505b6001600288020188555050505b5050505050505b565b7f4e487b71000000000000000000000000000000000000000000000000000000005f52603160045260245ffd5b7f5469746c65206d7573742062652070726f7669646564000000000000000000005f82015250565b5f6117ca6016836112cd565b91506117d582611796565b602082019050919050565b5f6020820190508181035f8301526117f7816117be565b9050919050565b7f446561646c696e65206d75737420626520696e207468652066757475726500005f82015250565b5f611832601e836112cd565b915061183d826117fe565b602082019050919050565b5f6020820190508181035f83015261185f81611826565b9050919050565b61186f82610e4d565b67ffffffffffffffff811115611888576118876114b7565b5b611892825461129d565b61189d8282856115fb565b5f60209050601f8311600181146118ce575f84156118bc578287015190505b6118c68582611669565b86555061192d565b601f1984166118dc866114e4565b5f5b82811015611903578489015182556001820191506020850194506020810190506118de565b86831015611920578489015161191c601f89168261164d565b8355505b6001600288020188555050505b50505050505056fea264697066735822122052c07cdc5e6280b2719113574a707e65ed1044ab412f6daab63053e2ceb7cbd164736f6c634300081e0033",
					"opcodes": "PUSH1 0x80 PUSH1 0x40 MSTORE CALLVALUE DUP1 ISZERO PUSH1 0xE JUMPI PUSH0 PUSH0 REVERT JUMPDEST POP CALLER PUSH0 PUSH0 PUSH2 0x100 EXP DUP2 SLOAD DUP2 PUSH20 0xFFFFFFFFFFFFFFFFFFFFFFFFFFFFFFFFFFFFFFFF MUL NOT AND SWAP1 DUP4 PUSH20 0xFFFFFFFFFFFFFFFFFFFFFFFFFFFFFFFFFFFFFFFF AND MUL OR SWAP1 SSTORE POP PUSH1 0x1 DUP1 PUSH0 CALLER PUSH20 0xFFFFFFFFFFFFFFFFFFFFFFFFFFFFFFFFFFFFFFFF AND PUSH20 0xFFFFFFFFFFFFFFFFFFFFFFFFFFFFFFFFFFFFFFFF AND DUP2 MSTORE PUSH1 0x20 ADD SWAP1 DUP2 MSTORE PUSH1 0x20 ADD PUSH0 KECCAK256 DUP2 SWAP1 SSTORE POP PUSH2 0x196B DUP1 PUSH2 0x9D PUSH0 CODECOPY PUSH0 RETURN INVALID PUSH1 0x80 PUSH1 0x40 MSTORE CALLVALUE DUP1 ISZERO PUSH2 0xF JUMPI PUSH0 PUSH0 REVERT JUMPDEST POP PUSH1 0x4 CALLDATASIZE LT PUSH2 0x7B JUMPI PUSH0 CALLDATALOAD PUSH1 0xE0 SHR DUP1 PUSH4 0x7CBC9AE9 GT PUSH2 0x59 JUMPI DUP1 PUSH4 0x7CBC9AE9 EQ PUSH2 0xD5 JUMPI DUP1 PUSH4 0xC0282A23 EQ PUSH2 0xF1 JUMPI DUP1 PUSH4 0xC17A340E EQ PUSH2 0x121 JUMPI DUP1 PUSH4 0xE1E29558 EQ PUSH2 0x13F JUMPI PUSH2 0x7B JUMP JUMPDEST DUP1 PUSH4 0x4A87E38 EQ PUSH2 0x7F JUMPI DUP1 PUSH4 0x18688290 EQ PUSH2 0x9D JUMPI DUP1 PUSH4 0x560F3192 EQ PUSH2 0xB9 JUMPI JUMPDEST PUSH0 PUSH0 REVERT JUMPDEST PUSH2 0x87 PUSH2 0x15B JUMP JUMPDEST PUSH1 0x40 MLOAD PUSH2 0x94 SWAP2 SWAP1 PUSH2 0x1054 JUMP JUMPDEST PUSH1 0x40 MLOAD DUP1 SWAP2 SUB SWAP1 RETURN JUMPDEST PUSH2 0xB7 PUSH1 0x4 DUP1 CALLDATASIZE SUB DUP2 ADD SWAP1 PUSH2 0xB2 SWAP2 SWAP1 PUSH2 0x10A6 JUMP JUMPDEST PUSH2 0x35F JUMP JUMPDEST STOP JUMPDEST PUSH2 0xD3 PUSH1 0x4 DUP1 CALLDATASIZE SUB DUP2 ADD SWAP1 PUSH2 0xCE SWAP2 SWAP1 PUSH2 0x10A6 JUMP JUMPDEST PUSH2 0x571 JUMP JUMPDEST STOP JUMPDEST PUSH2 0xEF PUSH1 0x4 DUP1 CALLDATASIZE SUB DUP2 ADD SWAP1 PUSH2 0xEA SWAP2 SWAP1 PUSH2 0x1132 JUMP JUMPDEST PUSH2 0x873 JUMP JUMPDEST STOP JUMPDEST PUSH2 0x10B PUSH1 0x4 DUP1 CALLDATASIZE SUB DUP2 ADD SWAP1 PUSH2 0x106 SWAP2 SWAP1 PUSH2 0x121D JUMP JUMPDEST PUSH2 0xB27 JUMP JUMPDEST PUSH1 0x40 MLOAD PUSH2 0x118 SWAP2 SWAP1 PUSH2 0x1257 JUMP JUMPDEST PUSH1 0x40 MLOAD DUP1 SWAP2 SUB SWAP1 RETURN JUMPDEST PUSH2 0x129 PUSH2 0xB3C JUMP JUMPDEST PUSH1 0x40 MLOAD PUSH2 0x136 SWAP2 SWAP1 PUSH2 0x1257 JUMP JUMPDEST PUSH1 0x40 MLOAD DUP1 SWAP2 SUB SWAP1 RETURN JUMPDEST PUSH2 0x159 PUSH1 0x4 DUP1 CALLDATASIZE SUB DUP2 ADD SWAP1 PUSH2 0x154 SWAP2 SWAP1 PUSH2 0x10A6 JUMP JUMPDEST PUSH2 0xB83 JUMP JUMPDEST STOP JUMPDEST PUSH1 0x60 PUSH1 0x2 PUSH0 CALLER PUSH20 0xFFFFFFFFFFFFFFFFFFFFFFFFFFFFFFFFFFFFFFFF AND PUSH20 0xFFFFFFFFFFFFFFFFFFFFFFFFFFFFFFFFFFFFFFFF AND DUP2 MSTORE PUSH1 0x20 ADD SWAP1 DUP2 MSTORE PUSH1 0x20 ADD PUSH0 KECCAK256 DUP1 SLOAD DUP1 PUSH1 0x20 MUL PUSH1 0x20 ADD PUSH1 0x40 MLOAD SWAP1 DUP2 ADD PUSH1 0x40 MSTORE DUP1 SWAP3 SWAP2 SWAP1 DUP2 DUP2 MSTORE PUSH1 0x20 ADD PUSH0 SWAP1 JUMPDEST DUP3 DUP3 LT ISZERO PUSH2 0x356 JUMPI DUP4 DUP3 SWAP1 PUSH0 MSTORE PUSH1 0x20 PUSH0 KECCAK256 SWAP1 PUSH1 0x5 MUL ADD PUSH1 0x40 MLOAD DUP1 PUSH1 0xA0 ADD PUSH1 0x40 MSTORE SWAP1 DUP2 PUSH0 DUP3 ADD DUP1 SLOAD PUSH2 0x1E9 SWAP1 PUSH2 0x129D JUMP JUMPDEST DUP1 PUSH1 0x1F ADD PUSH1 0x20 DUP1 SWAP2 DIV MUL PUSH1 0x20 ADD PUSH1 0x40 MLOAD SWAP1 DUP2 ADD PUSH1 0x40 MSTORE DUP1 SWAP3 SWAP2 SWAP1 DUP2 DUP2 MSTORE PUSH1 0x20 ADD DUP3 DUP1 SLOAD PUSH2 0x215 SWAP1 PUSH2 0x129D JUMP JUMPDEST DUP1 ISZERO PUSH2 0x260 JUMPI DUP1 PUSH1 0x1F LT PUSH2 0x237 JUMPI PUSH2 0x100 DUP1 DUP4 SLOAD DIV MUL DUP4 MSTORE SWAP2 PUSH1 0x20 ADD SWAP2 PUSH2 0x260 JUMP JUMPDEST DUP3 ADD SWAP2 SWAP1 PUSH0 MSTORE PUSH1 0x20 PUSH0 KECCAK256 SWAP1 JUMPDEST DUP2 SLOAD DUP2 MSTORE SWAP1 PUSH1 0x1 ADD SWAP1 PUSH1 0x20 ADD DUP1 DUP4 GT PUSH2 0x243 JUMPI DUP3 SWAP1 SUB PUSH1 0x1F AND DUP3 ADD SWAP2 JUMPDEST POP POP POP POP POP DUP2 MSTORE PUSH1 0x20 ADD PUSH1 0x1 DUP3 ADD DUP1 SLOAD PUSH2 0x279 SWAP1 PUSH2 0x129D JUMP JUMPDEST DUP1 PUSH1 0x1F ADD PUSH1 0x20 DUP1 SWAP2 DIV MUL PUSH1 0x20 ADD PUSH1 0x40 MLOAD SWAP1 DUP2 ADD PUSH1 0x40 MSTORE DUP1 SWAP3 SWAP2 SWAP1 DUP2 DUP2 MSTORE PUSH1 0x20 ADD DUP3 DUP1 SLOAD PUSH2 0x2A5 SWAP1 PUSH2 0x129D JUMP JUMPDEST DUP1 ISZERO PUSH2 0x2F0 JUMPI DUP1 PUSH1 0x1F LT PUSH2 0x2C7 JUMPI PUSH2 0x100 DUP1 DUP4 SLOAD DIV MUL DUP4 MSTORE SWAP2 PUSH1 0x20 ADD SWAP2 PUSH2 0x2F0 JUMP JUMPDEST DUP3 ADD SWAP2 SWAP1 PUSH0 MSTORE PUSH1 0x20 PUSH0 KECCAK256 SWAP1 JUMPDEST DUP2 SLOAD DUP2 MSTORE SWAP1 PUSH1 0x1 ADD SWAP1 PUSH1 0x20 ADD DUP1 DUP4 GT PUSH2 0x2D3 JUMPI DUP3 SWAP1 SUB PUSH1 0x1F AND DUP3 ADD SWAP2 JUMPDEST POP POP POP POP POP DUP2 MSTORE PUSH1 0x20 ADD PUSH1 0x2 DUP3 ADD SLOAD DUP2 MSTORE PUSH1 0x20 ADD PUSH1 0x3 DUP3 ADD SLOAD DUP2 MSTORE PUSH1 0x20 ADD PUSH1 0x4 DUP3 ADD PUSH0 SWAP1 SLOAD SWAP1 PUSH2 0x100 EXP SWAP1 DIV PUSH1 0xFF AND PUSH1 0x2 DUP2 GT ISZERO PUSH2 0x331 JUMPI PUSH2 0x330 PUSH2 0xED5 JUMP JUMPDEST JUMPDEST PUSH1 0x2 DUP2 GT ISZERO PUSH2 0x343 JUMPI PUSH2 0x342 PUSH2 0xED5 JUMP JUMPDEST JUMPDEST DUP2 MSTORE POP POP DUP2 MSTORE PUSH1 0x20 ADD SWAP1 PUSH1 0x1 ADD SWAP1 PUSH2 0x1B9 JUMP JUMPDEST POP POP POP POP SWAP1 POP SWAP1 JUMP JUMPDEST DUP1 PUSH1 0x2 PUSH0 CALLER PUSH20 0xFFFFFFFFFFFFFFFFFFFFFFFFFFFFFFFFFFFFFFFF AND PUSH20 0xFFFFFFFFFFFFFFFFFFFFFFFFFFFFFFFFFFFFFFFF AND DUP2 MSTORE PUSH1 0x20 ADD SWAP1 DUP2 MSTORE PUSH1 0x20 ADD PUSH0 KECCAK256 DUP1 SLOAD SWAP1 POP DUP2 LT PUSH2 0x3E2 JUMPI PUSH1 0x40 MLOAD PUSH32 0x8C379A000000000000000000000000000000000000000000000000000000000 DUP2 MSTORE PUSH1 0x4 ADD PUSH2 0x3D9 SWAP1 PUSH2 0x1327 JUMP JUMPDEST PUSH1 0x40 MLOAD DUP1 SWAP2 SUB SWAP1 REVERT JUMPDEST PUSH0 PUSH1 0x2 PUSH0 CALLER PUSH20 0xFFFFFFFFFFFFFFFFFFFFFFFFFFFFFFFFFFFFFFFF AND PUSH20 0xFFFFFFFFFFFFFFFFFFFFFFFFFFFFFFFFFFFFFFFF AND DUP2 MSTORE PUSH1 0x20 ADD SWAP1 DUP2 MSTORE PUSH1 0x20 ADD PUSH0 KECCAK256 DUP4 DUP2 SLOAD DUP2 LT PUSH2 0x432 JUMPI PUSH2 0x431 PUSH2 0x1345 JUMP JUMPDEST JUMPDEST SWAP1 PUSH0 MSTORE PUSH1 0x20 PUSH0 KECCAK256 SWAP1 PUSH1 0x5 MUL ADD SWAP1 POP PUSH0 PUSH1 0x2 DUP2 GT ISZERO PUSH2 0x453 JUMPI PUSH2 0x452 PUSH2 0xED5 JUMP JUMPDEST JUMPDEST DUP2 PUSH1 0x4 ADD PUSH0 SWAP1 SLOAD SWAP1 PUSH2 0x100 EXP SWAP1 DIV PUSH1 0xFF AND PUSH1 0x2 DUP2 GT ISZERO PUSH2 0x476 JUMPI PUSH2 0x475 PUSH2 0xED5 JUMP JUMPDEST JUMPDEST EQ PUSH2 0x4B6 JUMPI PUSH1 0x40 MLOAD PUSH32 0x8C379A000000000000000000000000000000000000000000000000000000000 DUP2 MSTORE PUSH1 0x4 ADD PUSH2 0x4AD SWAP1 PUSH2 0x13BC JUMP JUMPDEST PUSH1 0x40 MLOAD DUP1 SWAP2 SUB SWAP1 REVERT JUMPDEST TIMESTAMP DUP2 PUSH1 0x3 ADD SLOAD LT PUSH2 0x4FC JUMPI PUSH1 0x40 MLOAD PUSH32 0x8C379A000000000000000000000000000000000000000000000000000000000 DUP2 MSTORE PUSH1 0x4 ADD PUSH2 0x4F3 SWAP1 PUSH2 0x1424 JUMP JUMPDEST PUSH1 0x40 MLOAD DUP1 SWAP2 SUB SWAP1 REVERT JUMPDEST PUSH1 0x2 DUP2 PUSH1 0x4 ADD PUSH0 PUSH2 0x100 EXP DUP2 SLOAD DUP2 PUSH1 0xFF MUL NOT AND SWAP1 DUP4 PUSH1 0x2 DUP2 GT ISZERO PUSH2 0x523 JUMPI PUSH2 0x522 PUSH2 0xED5 JUMP JUMPDEST JUMPDEST MUL OR SWAP1 SSTORE POP DUP3 CALLER PUSH20 0xFFFFFFFFFFFFFFFFFFFFFFFFFFFFFFFFFFFFFFFF AND PUSH32 0xC5C09E6EF32E79CE08770ECEA60CD5E7915B242A238F0AC57FC39C0B3BA58D19 PUSH1 0x40 MLOAD PUSH1 0x40 MLOAD DUP1 SWAP2 SUB SWAP1 LOG3 POP POP POP JUMP JUMPDEST DUP1 PUSH1 0x2 PUSH0 CALLER PUSH20 0xFFFFFFFFFFFFFFFFFFFFFFFFFFFFFFFFFFFFFFFF AND PUSH20 0xFFFFFFFFFFFFFFFFFFFFFFFFFFFFFFFFFFFFFFFF AND DUP2 MSTORE PUSH1 0x20 ADD SWAP1 DUP2 MSTORE PUSH1 0x20 ADD PUSH0 KECCAK256 DUP1 SLOAD SWAP1 POP DUP2 LT PUSH2 0x5F4 JUMPI PUSH1 0x40 MLOAD PUSH32 0x8C379A000000000000000000000000000000000000000000000000000000000 DUP2 MSTORE PUSH1 0x4 ADD PUSH2 0x5EB SWAP1 PUSH2 0x1327 JUMP JUMPDEST PUSH1 0x40 MLOAD DUP1 SWAP2 SUB SWAP1 REVERT JUMPDEST PUSH0 PUSH1 0x2 PUSH0 CALLER PUSH20 0xFFFFFFFFFFFFFFFFFFFFFFFFFFFFFFFFFFFFFFFF AND PUSH20 0xFFFFFFFFFFFFFFFFFFFFFFFFFFFFFFFFFFFFFFFF AND DUP2 MSTORE PUSH1 0x20 ADD SWAP1 DUP2 MSTORE PUSH1 0x20 ADD PUSH0 KECCAK256 DUP1 SLOAD SWAP1 POP SWAP1 POP PUSH1 0x1 DUP2 PUSH2 0x645 SWAP2 SWAP1 PUSH2 0x146F JUMP JUMPDEST DUP4 EQ PUSH2 0x788 JUMPI PUSH1 0x2 PUSH0 CALLER PUSH20 0xFFFFFFFFFFFFFFFFFFFFFFFFFFFFFFFFFFFFFFFF AND PUSH20 0xFFFFFFFFFFFFFFFFFFFFFFFFFFFFFFFFFFFFFFFF AND DUP2 MSTORE PUSH1 0x20 ADD SWAP1 DUP2 MSTORE PUSH1 0x20 ADD PUSH0 KECCAK256 PUSH1 0x1 DUP3 PUSH2 0x695 SWAP2 SWAP1 PUSH2 0x146F JUMP JUMPDEST DUP2 SLOAD DUP2 LT PUSH2 0x6A6 JUMPI PUSH2 0x6A5 PUSH2 0x1345 JUMP JUMPDEST JUMPDEST SWAP1 PUSH0 MSTORE PUSH1 0x20 PUSH0 KECCAK256 SWAP1 PUSH1 0x5 MUL ADD PUSH1 0x2 PUSH0 CALLER PUSH20 0xFFFFFFFFFFFFFFFFFFFFFFFFFFFFFFFFFFFFFFFF AND PUSH20 0xFFFFFFFFFFFFFFFFFFFFFFFFFFFFFFFFFFFFFFFF AND DUP2 MSTORE PUSH1 0x20 ADD SWAP1 DUP2 MSTORE PUSH1 0x20 ADD PUSH0 KECCAK256 DUP5 DUP2 SLOAD DUP2 LT PUSH2 0x701 JUMPI PUSH2 0x700 PUSH2 0x1345 JUMP JUMPDEST JUMPDEST SWAP1 PUSH0 MSTORE PUSH1 0x20 PUSH0 KECCAK256 SWAP1 PUSH1 0x5 MUL ADD PUSH0 DUP3 ADD DUP2 PUSH0 ADD SWAP1 DUP2 PUSH2 0x71F SWAP2 SWAP1 PUSH2 0x1684 JUMP JUMPDEST POP PUSH1 0x1 DUP3 ADD DUP2 PUSH1 0x1 ADD SWAP1 DUP2 PUSH2 0x734 SWAP2 SWAP1 PUSH2 0x1684 JUMP JUMPDEST POP PUSH1 0x2 DUP3 ADD SLOAD DUP2 PUSH1 0x2 ADD SSTORE PUSH1 0x3 DUP3 ADD SLOAD DUP2 PUSH1 0x3 ADD SSTORE PUSH1 0x4 DUP3 ADD PUSH0 SWAP1 SLOAD SWAP1 PUSH2 0x100 EXP SWAP1 DIV PUSH1 0xFF AND DUP2 PUSH1 0x4 ADD PUSH0 PUSH2 0x100 EXP DUP2 SLOAD DUP2 PUSH1 0xFF MUL NOT AND SWAP1 DUP4 PUSH1 0x2 DUP2 GT ISZERO PUSH2 0x77F JUMPI PUSH2 0x77E PUSH2 0xED5 JUMP JUMPDEST JUMPDEST MUL OR SWAP1 SSTORE POP SWAP1 POP POP JUMPDEST PUSH1 0x2 PUSH0 CALLER PUSH20 0xFFFFFFFFFFFFFFFFFFFFFFFFFFFFFFFFFFFFFFFF AND PUSH20 0xFFFFFFFFFFFFFFFFFFFFFFFFFFFFFFFFFFFFFFFF AND DUP2 MSTORE PUSH1 0x20 ADD SWAP1 DUP2 MSTORE PUSH1 0x20 ADD PUSH0 KECCAK256 DUP1 SLOAD DUP1 PUSH2 0x7D5 JUMPI PUSH2 0x7D4 PUSH2 0x1769 JUMP JUMPDEST JUMPDEST PUSH1 0x1 SWAP1 SUB DUP2 DUP2 SWAP1 PUSH0 MSTORE PUSH1 0x20 PUSH0 KECCAK256 SWAP1 PUSH1 0x5 MUL ADD PUSH0 PUSH0 DUP3 ADD PUSH0 PUSH2 0x7F6 SWAP2 SWAP1 PUSH2 0xDCC JUMP JUMPDEST PUSH1 0x1 DUP3 ADD PUSH0 PUSH2 0x805 SWAP2 SWAP1 PUSH2 0xDCC JUMP JUMPDEST PUSH1 0x2 DUP3 ADD PUSH0 SWAP1 SSTORE PUSH1 0x3 DUP3 ADD PUSH0 SWAP1 SSTORE PUSH1 0x4 DUP3 ADD PUSH0 PUSH2 0x100 EXP DUP2 SLOAD SWAP1 PUSH1 0xFF MUL NOT AND SWAP1 SSTORE POP POP SWAP1 SSTORE DUP3 CALLER PUSH20 0xFFFFFFFFFFFFFFFFFFFFFFFFFFFFFFFFFFFFFFFF AND PUSH32 0xD1BC87501AFCAA22B7F6481DAC99ED45FBE02321873CA9B55C1F41B9D78B8FB3 PUSH1 0x40 MLOAD PUSH1 0x40 MLOAD DUP1 SWAP2 SUB SWAP1 LOG3 POP POP POP JUMP JUMPDEST PUSH0 DUP6 DUP6 SWAP1 POP GT PUSH2 0x8B8 JUMPI PUSH1 0x40 MLOAD PUSH32 0x8C379A000000000000000000000000000000000000000000000000000000000 DUP2 MSTORE PUSH1 0x4 ADD PUSH2 0x8AF SWAP1 PUSH2 0x17E0 JUMP JUMPDEST PUSH1 0x40 MLOAD DUP1 SWAP2 SUB SWAP1 REVERT JUMPDEST TIMESTAMP DUP2 GT PUSH2 0x8FA JUMPI PUSH1 0x40 MLOAD PUSH32 0x8C379A000000000000000000000000000000000000000000000000000000000 DUP2 MSTORE PUSH1 0x4 ADD PUSH2 0x8F1 SWAP1 PUSH2 0x1848 JUMP JUMPDEST PUSH1 0x40 MLOAD DUP1 SWAP2 SUB SWAP1 REVERT JUMPDEST PUSH1 0x2 PUSH0 CALLER PUSH20 0xFFFFFFFFFFFFFFFFFFFFFFFFFFFFFFFFFFFFFFFF AND PUSH20 0xFFFFFFFFFFFFFFFFFFFFFFFFFFFFFFFFFFFFFFFF AND DUP2 MSTORE PUSH1 0x20 ADD SWAP1 DUP2 MSTORE PUSH1 0x20 ADD PUSH0 KECCAK256 PUSH1 0x40 MLOAD DUP1 PUSH1 0xA0 ADD PUSH1 0x40 MSTORE DUP1 DUP8 DUP8 DUP1 DUP1 PUSH1 0x1F ADD PUSH1 0x20 DUP1 SWAP2 DIV MUL PUSH1 0x20 ADD PUSH1 0x40 MLOAD SWAP1 DUP2 ADD PUSH1 0x40 MSTORE DUP1 SWAP4 SWAP3 SWAP2 SWAP1 DUP2 DUP2 MSTORE PUSH1 0x20 ADD DUP4 DUP4 DUP1 DUP3 DUP5 CALLDATACOPY PUSH0 DUP2 DUP5 ADD MSTORE PUSH1 0x1F NOT PUSH1 0x1F DUP3 ADD AND SWAP1 POP DUP1 DUP4 ADD SWAP3 POP POP POP POP POP POP POP DUP2 MSTORE PUSH1 0x20 ADD DUP6 DUP6 DUP1 DUP1 PUSH1 0x1F ADD PUSH1 0x20 DUP1 SWAP2 DIV MUL PUSH1 0x20 ADD PUSH1 0x40 MLOAD SWAP1 DUP2 ADD PUSH1 0x40 MSTORE DUP1 SWAP4 SWAP3 SWAP2 SWAP1 DUP2 DUP2 MSTORE PUSH1 0x20 ADD DUP4 DUP4 DUP1 DUP3 DUP5 CALLDATACOPY PUSH0 DUP2 DUP5 ADD MSTORE PUSH1 0x1F NOT PUSH1 0x1F DUP3 ADD AND SWAP1 POP DUP1 DUP4 ADD SWAP3 POP POP POP POP POP POP POP DUP2 MSTORE PUSH1 0x20 ADD TIMESTAMP DUP2 MSTORE PUSH1 0x20 ADD DUP4 DUP2 MSTORE PUSH1 0x20 ADD PUSH0 PUSH1 0x2 DUP2 GT ISZERO PUSH2 0x9F3 JUMPI PUSH2 0x9F2 PUSH2 0xED5 JUMP JUMPDEST JUMPDEST DUP2 MSTORE POP SWAP1 DUP1 PUSH1 0x1 DUP2 SLOAD ADD DUP1 DUP3 SSTORE DUP1 SWAP2 POP POP PUSH1 0x1 SWAP1 SUB SWAP1 PUSH0 MSTORE PUSH1 0x20 PUSH0 KECCAK256 SWAP1 PUSH1 0x5 MUL ADD PUSH0 SWAP1 SWAP2 SWAP1 SWAP2 SWAP1 SWAP2 POP PUSH0 DUP3 ADD MLOAD DUP2 PUSH0 ADD SWAP1 DUP2 PUSH2 0xA2F SWAP2 SWAP1 PUSH2 0x1866 JUMP JUMPDEST POP PUSH1 0x20 DUP3 ADD MLOAD DUP2 PUSH1 0x1 ADD SWAP1 DUP2 PUSH2 0xA45 SWAP2 SWAP1 PUSH2 0x1866 JUMP JUMPDEST POP PUSH1 0x40 DUP3 ADD MLOAD DUP2 PUSH1 0x2 ADD SSTORE PUSH1 0x60 DUP3 ADD MLOAD DUP2 PUSH1 0x3 ADD SSTORE PUSH1 0x80 DUP3 ADD MLOAD DUP2 PUSH1 0x4 ADD PUSH0 PUSH2 0x100 EXP DUP2 SLOAD DUP2 PUSH1 0xFF MUL NOT AND SWAP1 DUP4 PUSH1 0x2 DUP2 GT ISZERO PUSH2 0xA84 JUMPI PUSH2 0xA83 PUSH2 0xED5 JUMP JUMPDEST JUMPDEST MUL OR SWAP1 SSTORE POP POP POP PUSH0 PUSH1 0x1 PUSH1 0x2 PUSH0 CALLER PUSH20 0xFFFFFFFFFFFFFFFFFFFFFFFFFFFFFFFFFFFFFFFF AND PUSH20 0xFFFFFFFFFFFFFFFFFFFFFFFFFFFFFFFFFFFFFFFF AND DUP2 MSTORE PUSH1 0x20 ADD SWAP1 DUP2 MSTORE PUSH1 0x20 ADD PUSH0 KECCAK256 DUP1 SLOAD SWAP1 POP PUSH2 0xAD9 SWAP2 SWAP1 PUSH2 0x146F JUMP JUMPDEST SWAP1 POP DUP1 CALLER PUSH20 0xFFFFFFFFFFFFFFFFFFFFFFFFFFFFFFFFFFFFFFFF AND PUSH32 0xF2BA834CB120F28CAC9129D80D6990B8D99D9A0A71487CEC7D88BD8A2BA45CB9 PUSH1 0x40 MLOAD PUSH1 0x40 MLOAD DUP1 SWAP2 SUB SWAP1 LOG3 POP POP POP POP POP POP JUMP JUMPDEST PUSH1 0x1 PUSH1 0x20 MSTORE DUP1 PUSH0 MSTORE PUSH1 0x40 PUSH0 KECCAK256 PUSH0 SWAP2 POP SWAP1 POP SLOAD DUP2 JUMP JUMPDEST PUSH0 PUSH1 0x2 PUSH0 CALLER PUSH20 0xFFFFFFFFFFFFFFFFFFFFFFFFFFFFFFFFFFFFFFFF AND PUSH20 0xFFFFFFFFFFFFFFFFFFFFFFFFFFFFFFFFFFFFFFFF AND DUP2 MSTORE PUSH1 0x20 ADD SWAP1 DUP2 MSTORE PUSH1 0x20 ADD PUSH0 KECCAK256 DUP1 SLOAD SWAP1 POP SWAP1 POP SWAP1 JUMP JUMPDEST DUP1 PUSH1 0x2 PUSH0 CALLER PUSH20 0xFFFFFFFFFFFFFFFFFFFFFFFFFFFFFFFFFFFFFFFF AND PUSH20 0xFFFFFFFFFFFFFFFFFFFFFFFFFFFFFFFFFFFFFFFF AND DUP2 MSTORE PUSH1 0x20 ADD SWAP1 DUP2 MSTORE PUSH1 0x20 ADD PUSH0 KECCAK256 DUP1 SLOAD SWAP1 POP DUP2 LT PUSH2 0xC06 JUMPI PUSH1 0x40 MLOAD PUSH32 0x8C379A000000000000000000000000000000000000000000000000000000000 DUP2 MSTORE PUSH1 0x4 ADD PUSH2 0xBFD SWAP1 PUSH2 0x1327 JUMP JUMPDEST PUSH1 0x40 MLOAD DUP1 SWAP2 SUB SWAP1 REVERT JUMPDEST PUSH0 PUSH1 0x2 PUSH0 CALLER PUSH20 0xFFFFFFFFFFFFFFFFFFFFFFFFFFFFFFFFFFFFFFFF AND PUSH20 0xFFFFFFFFFFFFFFFFFFFFFFFFFFFFFFFFFFFFFFFF AND DUP2 MSTORE PUSH1 0x20 ADD SWAP1 DUP2 MSTORE PUSH1 0x20 ADD PUSH0 KECCAK256 DUP4 DUP2 SLOAD DUP2 LT PUSH2 0xC56 JUMPI PUSH2 0xC55 PUSH2 0x1345 JUMP JUMPDEST JUMPDEST SWAP1 PUSH0 MSTORE PUSH1 0x20 PUSH0 KECCAK256 SWAP1 PUSH1 0x5 MUL ADD SWAP1 POP PUSH0 PUSH1 0x2 DUP2 GT ISZERO PUSH2 0xC77 JUMPI PUSH2 0xC76 PUSH2 0xED5 JUMP JUMPDEST JUMPDEST DUP2 PUSH1 0x4 ADD PUSH0 SWAP1 SLOAD SWAP1 PUSH2 0x100 EXP SWAP1 DIV PUSH1 0xFF AND PUSH1 0x2 DUP2 GT ISZERO PUSH2 0xC9A JUMPI PUSH2 0xC99 PUSH2 0xED5 JUMP JUMPDEST JUMPDEST EQ PUSH2 0xCDA JUMPI PUSH1 0x40 MLOAD PUSH32 0x8C379A000000000000000000000000000000000000000000000000000000000 DUP2 MSTORE PUSH1 0x4 ADD PUSH2 0xCD1 SWAP1 PUSH2 0x13BC JUMP JUMPDEST PUSH1 0x40 MLOAD DUP1 SWAP2 SUB SWAP1 REVERT JUMPDEST DUP1 PUSH1 0x3 ADD SLOAD TIMESTAMP GT ISZERO PUSH2 0xD57 JUMPI PUSH1 0x2 DUP2 PUSH1 0x4 ADD PUSH0 PUSH2 0x100 EXP DUP2 SLOAD DUP2 PUSH1 0xFF MUL NOT AND SWAP1 DUP4 PUSH1 0x2 DUP2 GT ISZERO PUSH2 0xD0D JUMPI PUSH2 0xD0C PUSH2 0xED5 JUMP JUMPDEST JUMPDEST MUL OR SWAP1 SSTORE POP DUP3 CALLER PUSH20 0xFFFFFFFFFFFFFFFFFFFFFFFFFFFFFFFFFFFFFFFF AND PUSH32 0xC5C09E6EF32E79CE08770ECEA60CD5E7915B242A238F0AC57FC39C0B3BA58D19 PUSH1 0x40 MLOAD PUSH1 0x40 MLOAD DUP1 SWAP2 SUB SWAP1 LOG3 JUMPDEST PUSH1 0x1 DUP2 PUSH1 0x4 ADD PUSH0 PUSH2 0x100 EXP DUP2 SLOAD DUP2 PUSH1 0xFF MUL NOT AND SWAP1 DUP4 PUSH1 0x2 DUP2 GT ISZERO PUSH2 0xD7E JUMPI PUSH2 0xD7D PUSH2 0xED5 JUMP JUMPDEST JUMPDEST MUL OR SWAP1 SSTORE POP DUP3 CALLER PUSH20 0xFFFFFFFFFFFFFFFFFFFFFFFFFFFFFFFFFFFFFFFF AND PUSH32 0xF684D89BB0F42287BF32838774E4B7F8A60C11804B3C6D1791FA55F306792643 PUSH1 0x40 MLOAD PUSH1 0x40 MLOAD DUP1 SWAP2 SUB SWAP1 LOG3 POP POP POP JUMP JUMPDEST POP DUP1 SLOAD PUSH2 0xDD8 SWAP1 PUSH2 0x129D JUMP JUMPDEST PUSH0 DUP3 SSTORE DUP1 PUSH1 0x1F LT PUSH2 0xDE9 JUMPI POP PUSH2 0xE06 JUMP JUMPDEST PUSH1 0x1F ADD PUSH1 0x20 SWAP1 DIV SWAP1 PUSH0 MSTORE PUSH1 0x20 PUSH0 KECCAK256 SWAP1 DUP2 ADD SWAP1 PUSH2 0xE05 SWAP2 SWAP1 PUSH2 0xE09 JUMP JUMPDEST JUMPDEST POP JUMP JUMPDEST JUMPDEST DUP1 DUP3 GT ISZERO PUSH2 0xE20 JUMPI PUSH0 DUP2 PUSH0 SWAP1 SSTORE POP PUSH1 0x1 ADD PUSH2 0xE0A JUMP JUMPDEST POP SWAP1 JUMP JUMPDEST PUSH0 DUP2 MLOAD SWAP1 POP SWAP2 SWAP1 POP JUMP JUMPDEST PUSH0 DUP3 DUP3 MSTORE PUSH1 0x20 DUP3 ADD SWAP1 POP SWAP3 SWAP2 POP POP JUMP JUMPDEST PUSH0 DUP2 SWAP1 POP PUSH1 0x20 DUP3 ADD SWAP1 POP SWAP2 SWAP1 POP JUMP JUMPDEST PUSH0 DUP2 MLOAD SWAP1 POP SWAP2 SWAP1 POP JUMP JUMPDEST PUSH0 DUP3 DUP3 MSTORE PUSH1 0x20 DUP3 ADD SWAP1 POP SWAP3 SWAP2 POP POP JUMP JUMPDEST DUP3 DUP2 DUP4 MCOPY PUSH0 DUP4 DUP4 ADD MSTORE POP POP POP JUMP JUMPDEST PUSH0 PUSH1 0x1F NOT PUSH1 0x1F DUP4 ADD AND SWAP1 POP SWAP2 SWAP1 POP JUMP JUMPDEST PUSH0 PUSH2 0xE8F DUP3 PUSH2 0xE4D JUMP JUMPDEST PUSH2 0xE99 DUP2 DUP6 PUSH2 0xE57 JUMP JUMPDEST SWAP4 POP PUSH2 0xEA9 DUP2 DUP6 PUSH1 0x20 DUP7 ADD PUSH2 0xE67 JUMP JUMPDEST PUSH2 0xEB2 DUP2 PUSH2 0xE75 JUMP JUMPDEST DUP5 ADD SWAP2 POP POP SWAP3 SWAP2 POP POP JUMP JUMPDEST PUSH0 DUP2 SWAP1 POP SWAP2 SWAP1 POP JUMP JUMPDEST PUSH2 0xECF DUP2 PUSH2 0xEBD JUMP JUMPDEST DUP3 MSTORE POP POP JUMP JUMPDEST PUSH32 0x4E487B7100000000000000000000000000000000000000000000000000000000 PUSH0 MSTORE PUSH1 0x21 PUSH1 0x4 MSTORE PUSH1 0x24 PUSH0 REVERT JUMPDEST PUSH1 0x3 DUP2 LT PUSH2 0xF13 JUMPI PUSH2 0xF12 PUSH2 0xED5 JUMP JUMPDEST JUMPDEST POP JUMP JUMPDEST PUSH0 DUP2 SWAP1 POP PUSH2 0xF23 DUP3 PUSH2 0xF02 JUMP JUMPDEST SWAP2 SWAP1 POP JUMP JUMPDEST PUSH0 PUSH2 0xF32 DUP3 PUSH2 0xF16 JUMP JUMPDEST SWAP1 POP SWAP2 SWAP1 POP JUMP JUMPDEST PUSH2 0xF42 DUP2 PUSH2 0xF28 JUMP JUMPDEST DUP3 MSTORE POP POP JUMP JUMPDEST PUSH0 PUSH1 0xA0 DUP4 ADD PUSH0 DUP4 ADD MLOAD DUP5 DUP3 SUB PUSH0 DUP7 ADD MSTORE PUSH2 0xF62 DUP3 DUP3 PUSH2 0xE85 JUMP JUMPDEST SWAP2 POP POP PUSH1 0x20 DUP4 ADD MLOAD DUP5 DUP3 SUB PUSH1 0x20 DUP7 ADD MSTORE PUSH2 0xF7C DUP3 DUP3 PUSH2 0xE85 JUMP JUMPDEST SWAP2 POP POP PUSH1 0x40 DUP4 ADD MLOAD PUSH2 0xF91 PUSH1 0x40 DUP7 ADD DUP3 PUSH2 0xEC6 JUMP JUMPDEST POP PUSH1 0x60 DUP4 ADD MLOAD PUSH2 0xFA4 PUSH1 0x60 DUP7 ADD DUP3 PUSH2 0xEC6 JUMP JUMPDEST POP PUSH1 0x80 DUP4 ADD MLOAD PUSH2 0xFB7 PUSH1 0x80 DUP7 ADD DUP3 PUSH2 0xF39 JUMP JUMPDEST POP DUP1 SWAP2 POP POP SWAP3 SWAP2 POP POP JUMP JUMPDEST PUSH0 PUSH2 0xFCD DUP4 DUP4 PUSH2 0xF48 JUMP JUMPDEST SWAP1 POP SWAP3 SWAP2 POP POP JUMP JUMPDEST PUSH0 PUSH1 0x20 DUP3 ADD SWAP1 POP SWAP2 SWAP1 POP JUMP JUMPDEST PUSH0 PUSH2 0xFEB DUP3 PUSH2 0xE24 JUMP JUMPDEST PUSH2 0xFF5 DUP2 DUP6 PUSH2 0xE2E JUMP JUMPDEST SWAP4 POP DUP4 PUSH1 0x20 DUP3 MUL DUP6 ADD PUSH2 0x1007 DUP6 PUSH2 0xE3E JUMP JUMPDEST DUP1 PUSH0 JUMPDEST DUP6 DUP2 LT ISZERO PUSH2 0x1042 JUMPI DUP5 DUP5 SUB DUP10 MSTORE DUP2 MLOAD PUSH2 0x1023 DUP6 DUP3 PUSH2 0xFC2 JUMP JUMPDEST SWAP5 POP PUSH2 0x102E DUP4 PUSH2 0xFD5 JUMP JUMPDEST SWAP3 POP PUSH1 0x20 DUP11 ADD SWAP10 POP POP PUSH1 0x1 DUP2 ADD SWAP1 POP PUSH2 0x100A JUMP JUMPDEST POP DUP3 SWAP8 POP DUP8 SWAP6 POP POP POP POP POP POP SWAP3 SWAP2 POP POP JUMP JUMPDEST PUSH0 PUSH1 0x20 DUP3 ADD SWAP1 POP DUP2 DUP2 SUB PUSH0 DUP4 ADD MSTORE PUSH2 0x106C DUP2 DUP5 PUSH2 0xFE1 JUMP JUMPDEST SWAP1 POP SWAP3 SWAP2 POP POP JUMP JUMPDEST PUSH0 PUSH0 REVERT JUMPDEST PUSH0 PUSH0 REVERT JUMPDEST PUSH2 0x1085 DUP2 PUSH2 0xEBD JUMP JUMPDEST DUP2 EQ PUSH2 0x108F JUMPI PUSH0 PUSH0 REVERT JUMPDEST POP JUMP JUMPDEST PUSH0 DUP2 CALLDATALOAD SWAP1 POP PUSH2 0x10A0 DUP2 PUSH2 0x107C JUMP JUMPDEST SWAP3 SWAP2 POP POP JUMP JUMPDEST PUSH0 PUSH1 0x20 DUP3 DUP5 SUB SLT ISZERO PUSH2 0x10BB JUMPI PUSH2 0x10BA PUSH2 0x1074 JUMP JUMPDEST JUMPDEST PUSH0 PUSH2 0x10C8 DUP5 DUP3 DUP6 ADD PUSH2 0x1092 JUMP JUMPDEST SWAP2 POP POP SWAP3 SWAP2 POP POP JUMP JUMPDEST PUSH0 PUSH0 REVERT JUMPDEST PUSH0 PUSH0 REVERT JUMPDEST PUSH0 PUSH0 REVERT JUMPDEST PUSH0 PUSH0 DUP4 PUSH1 0x1F DUP5 ADD SLT PUSH2 0x10F2 JUMPI PUSH2 0x10F1 PUSH2 0x10D1 JUMP JUMPDEST JUMPDEST DUP3 CALLDATALOAD SWAP1 POP PUSH8 0xFFFFFFFFFFFFFFFF DUP2 GT ISZERO PUSH2 0x110F JUMPI PUSH2 0x110E PUSH2 0x10D5 JUMP JUMPDEST JUMPDEST PUSH1 0x20 DUP4 ADD SWAP2 POP DUP4 PUSH1 0x1 DUP3 MUL DUP4 ADD GT ISZERO PUSH2 0x112B JUMPI PUSH2 0x112A PUSH2 0x10D9 JUMP JUMPDEST JUMPDEST SWAP3 POP SWAP3 SWAP1 POP JUMP JUMPDEST PUSH0 PUSH0 PUSH0 PUSH0 PUSH0 PUSH1 0x60 DUP7 DUP9 SUB SLT ISZERO PUSH2 0x114B JUMPI PUSH2 0x114A PUSH2 0x1074 JUMP JUMPDEST JUMPDEST PUSH0 DUP7 ADD CALLDATALOAD PUSH8 0xFFFFFFFFFFFFFFFF DUP2 GT ISZERO PUSH2 0x1168 JUMPI PUSH2 0x1167 PUSH2 0x1078 JUMP JUMPDEST JUMPDEST PUSH2 0x1174 DUP9 DUP3 DUP10 ADD PUSH2 0x10DD JUMP JUMPDEST SWAP6 POP SWAP6 POP POP PUSH1 0x20 DUP7 ADD CALLDATALOAD PUSH8 0xFFFFFFFFFFFFFFFF DUP2 GT ISZERO PUSH2 0x1197 JUMPI PUSH2 0x1196 PUSH2 0x1078 JUMP JUMPDEST JUMPDEST PUSH2 0x11A3 DUP9 DUP3 DUP10 ADD PUSH2 0x10DD JUMP JUMPDEST SWAP4 POP SWAP4 POP POP PUSH1 0x40 PUSH2 0x11B6 DUP9 DUP3 DUP10 ADD PUSH2 0x1092 JUMP JUMPDEST SWAP2 POP POP SWAP3 SWAP6 POP SWAP3 SWAP6 SWAP1 SWAP4 POP JUMP JUMPDEST PUSH0 PUSH20 0xFFFFFFFFFFFFFFFFFFFFFFFFFFFFFFFFFFFFFFFF DUP3 AND SWAP1 POP SWAP2 SWAP1 POP JUMP JUMPDEST PUSH0 PUSH2 0x11EC DUP3 PUSH2 0x11C3 JUMP JUMPDEST SWAP1 POP SWAP2 SWAP1 POP JUMP JUMPDEST PUSH2 0x11FC DUP2 PUSH2 0x11E2 JUMP JUMPDEST DUP2 EQ PUSH2 0x1206 JUMPI PUSH0 PUSH0 REVERT JUMPDEST POP JUMP JUMPDEST PUSH0 DUP2 CALLDATALOAD SWAP1 POP PUSH2 0x1217 DUP2 PUSH2 0x11F3 JUMP JUMPDEST SWAP3 SWAP2 POP POP JUMP JUMPDEST PUSH0 PUSH1 0x20 DUP3 DUP5 SUB SLT ISZERO PUSH2 0x1232 JUMPI PUSH2 0x1231 PUSH2 0x1074 JUMP JUMPDEST JUMPDEST PUSH0 PUSH2 0x123F DUP5 DUP3 DUP6 ADD PUSH2 0x1209 JUMP JUMPDEST SWAP2 POP POP SWAP3 SWAP2 POP POP JUMP JUMPDEST PUSH2 0x1251 DUP2 PUSH2 0xEBD JUMP JUMPDEST DUP3 MSTORE POP POP JUMP JUMPDEST PUSH0 PUSH1 0x20 DUP3 ADD SWAP1 POP PUSH2 0x126A PUSH0 DUP4 ADD DUP5 PUSH2 0x1248 JUMP JUMPDEST SWAP3 SWAP2 POP POP JUMP JUMPDEST PUSH32 0x4E487B7100000000000000000000000000000000000000000000000000000000 PUSH0 MSTORE PUSH1 0x22 PUSH1 0x4 MSTORE PUSH1 0x24 PUSH0 REVERT JUMPDEST PUSH0 PUSH1 0x2 DUP3 DIV SWAP1 POP PUSH1 0x1 DUP3 AND DUP1 PUSH2 0x12B4 JUMPI PUSH1 0x7F DUP3 AND SWAP2 POP JUMPDEST PUSH1 0x20 DUP3 LT DUP2 SUB PUSH2 0x12C7 JUMPI PUSH2 0x12C6 PUSH2 0x1270 JUMP JUMPDEST JUMPDEST POP SWAP2 SWAP1 POP JUMP JUMPDEST PUSH0 DUP3 DUP3 MSTORE PUSH1 0x20 DUP3 ADD SWAP1 POP SWAP3 SWAP2 POP POP JUMP JUMPDEST PUSH32 0x496E76616C696465207461736B20494400000000000000000000000000000000 PUSH0 DUP3 ADD MSTORE POP JUMP JUMPDEST PUSH0 PUSH2 0x1311 PUSH1 0x10 DUP4 PUSH2 0x12CD JUMP JUMPDEST SWAP2 POP PUSH2 0x131C DUP3 PUSH2 0x12DD JUMP JUMPDEST PUSH1 0x20 DUP3 ADD SWAP1 POP SWAP2 SWAP1 POP JUMP JUMPDEST PUSH0 PUSH1 0x20 DUP3 ADD SWAP1 POP DUP2 DUP2 SUB PUSH0 DUP4 ADD MSTORE PUSH2 0x133E DUP2 PUSH2 0x1305 JUMP JUMPDEST SWAP1 POP SWAP2 SWAP1 POP JUMP JUMPDEST PUSH32 0x4E487B7100000000000000000000000000000000000000000000000000000000 PUSH0 MSTORE PUSH1 0x32 PUSH1 0x4 MSTORE PUSH1 0x24 PUSH0 REVERT JUMPDEST PUSH32 0x5461736B206D7573742062652050656E64696E67000000000000000000000000 PUSH0 DUP3 ADD MSTORE POP JUMP JUMPDEST PUSH0 PUSH2 0x13A6 PUSH1 0x14 DUP4 PUSH2 0x12CD JUMP JUMPDEST SWAP2 POP PUSH2 0x13B1 DUP3 PUSH2 0x1372 JUMP JUMPDEST PUSH1 0x20 DUP3 ADD SWAP1 POP SWAP2 SWAP1 POP JUMP JUMPDEST PUSH0 PUSH1 0x20 DUP3 ADD SWAP1 POP DUP2 DUP2 SUB PUSH0 DUP4 ADD MSTORE PUSH2 0x13D3 DUP2 PUSH2 0x139A JUMP JUMPDEST SWAP1 POP SWAP2 SWAP1 POP JUMP JUMPDEST PUSH32 0x5461736B206973206E6F74206F76657264756520796574000000000000000000 PUSH0 DUP3 ADD MSTORE POP JUMP JUMPDEST PUSH0 PUSH2 0x140E PUSH1 0x17 DUP4 PUSH2 0x12CD JUMP JUMPDEST SWAP2 POP PUSH2 0x1419 DUP3 PUSH2 0x13DA JUMP JUMPDEST PUSH1 0x20 DUP3 ADD SWAP1 POP SWAP2 SWAP1 POP JUMP JUMPDEST PUSH0 PUSH1 0x20 DUP3 ADD SWAP1 POP DUP2 DUP2 SUB PUSH0 DUP4 ADD MSTORE PUSH2 0x143B DUP2 PUSH2 0x1402 JUMP JUMPDEST SWAP1 POP SWAP2 SWAP1 POP JUMP JUMPDEST PUSH32 0x4E487B7100000000000000000000000000000000000000000000000000000000 PUSH0 MSTORE PUSH1 0x11 PUSH1 0x4 MSTORE PUSH1 0x24 PUSH0 REVERT JUMPDEST PUSH0 PUSH2 0x1479 DUP3 PUSH2 0xEBD JUMP JUMPDEST SWAP2 POP PUSH2 0x1484 DUP4 PUSH2 0xEBD JUMP JUMPDEST SWAP3 POP DUP3 DUP3 SUB SWAP1 POP DUP2 DUP2 GT ISZERO PUSH2 0x149C JUMPI PUSH2 0x149B PUSH2 0x1442 JUMP JUMPDEST JUMPDEST SWAP3 SWAP2 POP POP JUMP JUMPDEST PUSH0 DUP2 SLOAD SWAP1 POP PUSH2 0x14B0 DUP2 PUSH2 0x129D JUMP JUMPDEST SWAP1 POP SWAP2 SWAP1 POP JUMP JUMPDEST PUSH32 0x4E487B7100000000000000000000000000000000000000000000000000000000 PUSH0 MSTORE PUSH1 0x41 PUSH1 0x4 MSTORE PUSH1 0x24 PUSH0 REVERT JUMPDEST PUSH0 DUP2 SWAP1 POP DUP2 PUSH0 MSTORE PUSH1 0x20 PUSH0 KECCAK256 SWAP1 POP SWAP2 SWAP1 POP JUMP JUMPDEST PUSH0 PUSH1 0x20 PUSH1 0x1F DUP4 ADD DIV SWAP1 POP SWAP2 SWAP1 POP JUMP JUMPDEST PUSH0 DUP3 DUP3 SHL SWAP1 POP SWAP3 SWAP2 POP POP JUMP JUMPDEST PUSH0 PUSH1 0x8 DUP4 MUL PUSH2 0x1540 PUSH32 0xFFFFFFFFFFFFFFFFFFFFFFFFFFFFFFFFFFFFFFFFFFFFFFFFFFFFFFFFFFFFFFFF DUP3 PUSH2 0x1505 JUMP JUMPDEST PUSH2 0x154A DUP7 DUP4 PUSH2 0x1505 JUMP JUMPDEST SWAP6 POP DUP1 NOT DUP5 AND SWAP4 POP DUP1 DUP7 AND DUP5 OR SWAP3 POP POP POP SWAP4 SWAP3 POP POP POP JUMP JUMPDEST PUSH0 DUP2 SWAP1 POP SWAP2 SWAP1 POP JUMP JUMPDEST PUSH0 PUSH2 0x1585 PUSH2 0x1580 PUSH2 0x157B DUP5 PUSH2 0xEBD JUMP JUMPDEST PUSH2 0x1562 JUMP JUMPDEST PUSH2 0xEBD JUMP JUMPDEST SWAP1 POP SWAP2 SWAP1 POP JUMP JUMPDEST PUSH0 DUP2 SWAP1 POP SWAP2 SWAP1 POP JUMP JUMPDEST PUSH2 0x159E DUP4 PUSH2 0x156B JUMP JUMPDEST PUSH2 0x15B2 PUSH2 0x15AA DUP3 PUSH2 0x158C JUMP JUMPDEST DUP5 DUP5 SLOAD PUSH2 0x1511 JUMP JUMPDEST DUP3 SSTORE POP POP POP POP JUMP JUMPDEST PUSH0 PUSH0 SWAP1 POP SWAP1 JUMP JUMPDEST PUSH2 0x15C9 PUSH2 0x15BA JUMP JUMPDEST PUSH2 0x15D4 DUP2 DUP5 DUP5 PUSH2 0x1595 JUMP JUMPDEST POP POP POP JUMP JUMPDEST JUMPDEST DUP2 DUP2 LT ISZERO PUSH2 0x15F7 JUMPI PUSH2 0x15EC PUSH0 DUP3 PUSH2 0x15C1 JUMP JUMPDEST PUSH1 0x1 DUP2 ADD SWAP1 POP PUSH2 0x15DA JUMP JUMPDEST POP POP JUMP JUMPDEST PUSH1 0x1F DUP3 GT ISZERO PUSH2 0x163C JUMPI PUSH2 0x160D DUP2 PUSH2 0x14E4 JUMP JUMPDEST PUSH2 0x1616 DUP5 PUSH2 0x14F6 JUMP JUMPDEST DUP2 ADD PUSH1 0x20 DUP6 LT ISZERO PUSH2 0x1625 JUMPI DUP2 SWAP1 POP JUMPDEST PUSH2 0x1639 PUSH2 0x1631 DUP6 PUSH2 0x14F6 JUMP JUMPDEST DUP4 ADD DUP3 PUSH2 0x15D9 JUMP JUMPDEST POP POP JUMPDEST POP POP POP JUMP JUMPDEST PUSH0 DUP3 DUP3 SHR SWAP1 POP SWAP3 SWAP2 POP POP JUMP JUMPDEST PUSH0 PUSH2 0x165C PUSH0 NOT DUP5 PUSH1 0x8 MUL PUSH2 0x1641 JUMP JUMPDEST NOT DUP1 DUP4 AND SWAP2 POP POP SWAP3 SWAP2 POP POP JUMP JUMPDEST PUSH0 PUSH2 0x1674 DUP4 DUP4 PUSH2 0x164D JUMP JUMPDEST SWAP2 POP DUP3 PUSH1 0x2 MUL DUP3 OR SWAP1 POP SWAP3 SWAP2 POP POP JUMP JUMPDEST DUP2 DUP2 SUB PUSH2 0x1692 JUMPI POP POP PUSH2 0x1767 JUMP JUMPDEST PUSH2 0x169B DUP3 PUSH2 0x14A2 JUMP JUMPDEST PUSH8 0xFFFFFFFFFFFFFFFF DUP2 GT ISZERO PUSH2 0x16B4 JUMPI PUSH2 0x16B3 PUSH2 0x14B7 JUMP JUMPDEST JUMPDEST PUSH2 0x16BE DUP3 SLOAD PUSH2 0x129D JUMP JUMPDEST PUSH2 0x16C9 DUP3 DUP3 DUP6 PUSH2 0x15FB JUMP JUMPDEST PUSH0 PUSH1 0x1F DUP4 GT PUSH1 0x1 DUP2 EQ PUSH2 0x16F6 JUMPI PUSH0 DUP5 ISZERO PUSH2 0x16E4 JUMPI DUP3 DUP8 ADD SLOAD SWAP1 POP JUMPDEST PUSH2 0x16EE DUP6 DUP3 PUSH2 0x1669 JUMP JUMPDEST DUP7 SSTORE POP PUSH2 0x1760 JUMP JUMPDEST PUSH1 0x1F NOT DUP5 AND PUSH2 0x1704 DUP8 PUSH2 0x14E4 JUMP JUMPDEST SWAP7 POP PUSH2 0x170F DUP7 PUSH2 0x14E4 JUMP JUMPDEST PUSH0 JUMPDEST DUP3 DUP2 LT ISZERO PUSH2 0x1736 JUMPI DUP5 DUP10 ADD SLOAD DUP3 SSTORE PUSH1 0x1 DUP3 ADD SWAP2 POP PUSH1 0x1 DUP6 ADD SWAP5 POP PUSH1 0x20 DUP2 ADD SWAP1 POP PUSH2 0x1711 JUMP JUMPDEST DUP7 DUP4 LT ISZERO PUSH2 0x1753 JUMPI DUP5 DUP10 ADD SLOAD PUSH2 0x174F PUSH1 0x1F DUP10 AND DUP3 PUSH2 0x164D JUMP JUMPDEST DUP4 SSTORE POP JUMPDEST PUSH1 0x1 PUSH1 0x2 DUP9 MUL ADD DUP9 SSTORE POP POP POP JUMPDEST POP POP POP POP POP POP JUMPDEST JUMP JUMPDEST PUSH32 0x4E487B7100000000000000000000000000000000000000000000000000000000 PUSH0 MSTORE PUSH1 0x31 PUSH1 0x4 MSTORE PUSH1 0x24 PUSH0 REVERT JUMPDEST PUSH32 0x5469746C65206D7573742062652070726F766964656400000000000000000000 PUSH0 DUP3 ADD MSTORE POP JUMP JUMPDEST PUSH0 PUSH2 0x17CA PUSH1 0x16 DUP4 PUSH2 0x12CD JUMP JUMPDEST SWAP2 POP PUSH2 0x17D5 DUP3 PUSH2 0x1796 JUMP JUMPDEST PUSH1 0x20 DUP3 ADD SWAP1 POP SWAP2 SWAP1 POP JUMP JUMPDEST PUSH0 PUSH1 0x20 DUP3 ADD SWAP1 POP DUP2 DUP2 SUB PUSH0 DUP4 ADD MSTORE PUSH2 0x17F7 DUP2 PUSH2 0x17BE JUMP JUMPDEST SWAP1 POP SWAP2 SWAP1 POP JUMP JUMPDEST PUSH32 0x446561646C696E65206D75737420626520696E20746865206675747572650000 PUSH0 DUP3 ADD MSTORE POP JUMP JUMPDEST PUSH0 PUSH2 0x1832 PUSH1 0x1E DUP4 PUSH2 0x12CD JUMP JUMPDEST SWAP2 POP PUSH2 0x183D DUP3 PUSH2 0x17FE JUMP JUMPDEST PUSH1 0x20 DUP3 ADD SWAP1 POP SWAP2 SWAP1 POP JUMP JUMPDEST PUSH0 PUSH1 0x20 DUP3 ADD SWAP1 POP DUP2 DUP2 SUB PUSH0 DUP4 ADD MSTORE PUSH2 0x185F DUP2 PUSH2 0x1826 JUMP JUMPDEST SWAP1 POP SWAP2 SWAP1 POP JUMP JUMPDEST PUSH2 0x186F DUP3 PUSH2 0xE4D JUMP JUMPDEST PUSH8 0xFFFFFFFFFFFFFFFF DUP2 GT ISZERO PUSH2 0x1888 JUMPI PUSH2 0x1887 PUSH2 0x14B7 JUMP JUMPDEST JUMPDEST PUSH2 0x1892 DUP3 SLOAD PUSH2 0x129D JUMP JUMPDEST PUSH2 0x189D DUP3 DUP3 DUP6 PUSH2 0x15FB JUMP JUMPDEST PUSH0 PUSH1 0x20 SWAP1 POP PUSH1 0x1F DUP4 GT PUSH1 0x1 DUP2 EQ PUSH2 0x18CE JUMPI PUSH0 DUP5 ISZERO PUSH2 0x18BC JUMPI DUP3 DUP8 ADD MLOAD SWAP1 POP JUMPDEST PUSH2 0x18C6 DUP6 DUP3 PUSH2 0x1669 JUMP JUMPDEST DUP7 SSTORE POP PUSH2 0x192D JUMP JUMPDEST PUSH1 0x1F NOT DUP5 AND PUSH2 0x18DC DUP7 PUSH2 0x14E4 JUMP JUMPDEST PUSH0 JUMPDEST DUP3 DUP2 LT ISZERO PUSH2 0x1903 JUMPI DUP5 DUP10 ADD MLOAD DUP3 SSTORE PUSH1 0x1 DUP3 ADD SWAP2 POP PUSH1 0x20 DUP6 ADD SWAP5 POP PUSH1 0x20 DUP2 ADD SWAP1 POP PUSH2 0x18DE JUMP JUMPDEST DUP7 DUP4 LT ISZERO PUSH2 0x1920 JUMPI DUP5 DUP10 ADD MLOAD PUSH2 0x191C PUSH1 0x1F DUP10 AND DUP3 PUSH2 0x164D JUMP JUMPDEST DUP4 SSTORE POP JUMPDEST PUSH1 0x1 PUSH1 0x2 DUP9 MUL ADD DUP9 SSTORE POP POP POP JUMPDEST POP POP POP POP POP POP JUMP INVALID LOG2 PUSH5 0x6970667358 0x22 SLT KECCAK256 MSTORE 0xC0 PUSH29 0xDC5E6280B2719113574A707E65ED1044AB412F6DAAB63053E2CEB7CBD1 PUSH5 0x736F6C6343 STOP ADDMOD 0x1E STOP CALLER "
				},
				"gasEstimates": {
					"creation": {
						"codeDepositCost": "1301400",
						"executionCost": "47819",
						"totalCost": "1349219"
					},
					"external": {
						"addTask(string,string,uint256)": "infinite",
						"addressToTaskCount(address)": "2824",
						"completeTask(uint256)": "60984",
						"deleteTask(uint256)": "infinite",
						"getTaskCount()": "2571",
						"getTasks()": "infinite",
						"setOverdueTask(uint256)": "35108"
					}
				},
				"methodIdentifiers": {
					"addTask(string,string,uint256)": "7cbc9ae9",
					"addressToTaskCount(address)": "c0282a23",
					"completeTask(uint256)": "e1e29558",
					"deleteTask(uint256)": "560f3192",
					"getTaskCount()": "c17a340e",
					"getTasks()": "04a87e38",
					"setOverdueTask(uint256)": "18688290"
				}
			},
			"storageLayout": {
				"storage": [
					{
						"astId": 3,
						"contract": "contracts/3_Ballot.sol:ToDoList",
						"label": "assigner",
						"offset": 0,
						"slot": "0",
						"type": "t_address"
					},
					{
						"astId": 7,
						"contract": "contracts/3_Ballot.sol:ToDoList",
						"label": "addressToTaskCount",
						"offset": 0,
						"slot": "1",
						"type": "t_mapping(t_address,t_uint256)"
					},
					{
						"astId": 45,
						"contract": "contracts/3_Ballot.sol:ToDoList",
						"label": "tasks",
						"offset": 0,
						"slot": "2",
						"type": "t_mapping(t_address,t_array(t_struct(Task)39_storage)dyn_storage)"
					}
				],
				"types": {
					"t_address": {
						"encoding": "inplace",
						"label": "address",
						"numberOfBytes": "20"
					},
					"t_array(t_struct(Task)39_storage)dyn_storage": {
						"base": "t_struct(Task)39_storage",
						"encoding": "dynamic_array",
						"label": "struct ToDoList.Task[]",
						"numberOfBytes": "32"
					},
					"t_enum(STATUS)27": {
						"encoding": "inplace",
						"label": "enum ToDoList.STATUS",
						"numberOfBytes": "1"
					},
					"t_mapping(t_address,t_array(t_struct(Task)39_storage)dyn_storage)": {
						"encoding": "mapping",
						"key": "t_address",
						"label": "mapping(address => struct ToDoList.Task[])",
						"numberOfBytes": "32",
						"value": "t_array(t_struct(Task)39_storage)dyn_storage"
					},
					"t_mapping(t_address,t_uint256)": {
						"encoding": "mapping",
						"key": "t_address",
						"label": "mapping(address => uint256)",
						"numberOfBytes": "32",
						"value": "t_uint256"
					},
					"t_string_storage": {
						"encoding": "bytes",
						"label": "string",
						"numberOfBytes": "32"
					},
					"t_struct(Task)39_storage": {
						"encoding": "inplace",
						"label": "struct ToDoList.Task",
						"members": [
							{
								"astId": 29,
								"contract": "contracts/3_Ballot.sol:ToDoList",
								"label": "title",
								"offset": 0,
								"slot": "0",
								"type": "t_string_storage"
							},
							{
								"astId": 31,
								"contract": "contracts/3_Ballot.sol:ToDoList",
								"label": "task",
								"offset": 0,
								"slot": "1",
								"type": "t_string_storage"
							},
							{
								"astId": 33,
								"contract": "contracts/3_Ballot.sol:ToDoList",
								"label": "createdAt",
								"offset": 0,
								"slot": "2",
								"type": "t_uint256"
							},
							{
								"astId": 35,
								"contract": "contracts/3_Ballot.sol:ToDoList",
								"label": "deadline",
								"offset": 0,
								"slot": "3",
								"type": "t_uint256"
							},
							{
								"astId": 38,
								"contract": "contracts/3_Ballot.sol:ToDoList",
								"label": "status",
								"offset": 0,
								"slot": "4",
								"type": "t_enum(STATUS)27"
							}
						],
						"numberOfBytes": "160"
					},
					"t_uint256": {
						"encoding": "inplace",
						"label": "uint256",
						"numberOfBytes": "32"
					}
				}
			},
			"userdoc": {
				"kind": "user",
				"methods": {},
				"version": 1
			}
		}
	}
}