{
	"contracts/3_Ballot.sol": {
		"ToDoList": {
			"abi": [
				{
					"inputs": [],
					"stateMutability": "nonpayable",
					"type": "constructor"
				},
				{
					"anonymous": false,
					"inputs": [
						{
							"components": [
								{
									"internalType": "uint256",
									"name": "taskId",
									"type": "uint256"
								},
								{
									"internalType": "address",
									"name": "assignee",
									"type": "address"
								},
								{
									"internalType": "string",
									"name": "task",
									"type": "string"
								},
								{
									"internalType": "uint32",
									"name": "deadline",
									"type": "uint32"
								},
								{
									"internalType": "enum ToDoList.STATUS",
									"name": "status",
									"type": "uint8"
								}
							],
							"indexed": false,
							"internalType": "struct ToDoList.ToDo",
							"name": "",
							"type": "tuple"
						}
					],
					"name": "TaskAdded",
					"type": "event"
				},
				{
					"inputs": [
						{
							"internalType": "address",
							"name": "_assignee",
							"type": "address"
						},
						{
							"internalType": "string",
							"name": "_task",
							"type": "string"
						},
						{
							"internalType": "uint32",
							"name": "_deadline",
							"type": "uint32"
						}
					],
					"name": "assignTask",
					"outputs": [],
					"stateMutability": "nonpayable",
					"type": "function"
				},
				{
					"inputs": [
						{
							"internalType": "uint256",
							"name": "_taskId",
							"type": "uint256"
						},
						{
							"internalType": "address",
							"name": "_assignee",
							"type": "address"
						}
					],
					"name": "reassignTask",
					"outputs": [],
					"stateMutability": "nonpayable",
					"type": "function"
				}
			],
			"devdoc": {
				"kind": "dev",
				"methods": {},
				"version": 1
			},
			"evm": {
				"assembly": "    /* \"contracts/3_Ballot.sol\":70:1783  contract ToDoList {... */\n  mstore(0x40, 0x80)\n    /* \"contracts/3_Ballot.sol\":433:529  constructor() {... */\n  callvalue\n  dup1\n  iszero\n  tag_1\n  jumpi\n  revert(0x00, 0x00)\ntag_1:\n  pop\n    /* \"contracts/3_Ballot.sol\":468:478  msg.sender */\n  caller\n    /* \"contracts/3_Ballot.sol\":457:465  assigner */\n  0x00\n  0x00\n    /* \"contracts/3_Ballot.sol\":457:478  assigner = msg.sender */\n  0x0100\n  exp\n  dup2\n  sload\n  dup2\n  0xffffffffffffffffffffffffffffffffffffffff\n  mul\n  not\n  and\n  swap1\n  dup4\n  0xffffffffffffffffffffffffffffffffffffffff\n  and\n  mul\n  or\n  swap1\n  sstore\n  pop\n    /* \"contracts/3_Ballot.sol\":521:522  1 */\n  0x01\n    /* \"contracts/3_Ballot.sol\":488:506  addressToTaskCount */\n  0x02\n    /* \"contracts/3_Ballot.sol\":488:518  addressToTaskCount[msg.sender] */\n  0x00\n    /* \"contracts/3_Ballot.sol\":507:517  msg.sender */\n  caller\n    /* \"contracts/3_Ballot.sol\":488:518  addressToTaskCount[msg.sender] */\n  0xffffffffffffffffffffffffffffffffffffffff\n  and\n  0xffffffffffffffffffffffffffffffffffffffff\n  and\n  dup2\n  mstore\n  0x20\n  add\n  swap1\n  dup2\n  mstore\n  0x20\n  add\n  0x00\n  keccak256\n    /* \"contracts/3_Ballot.sol\":488:522  addressToTaskCount[msg.sender] = 1 */\n  dup2\n  swap1\n  sstore\n  pop\n    /* \"contracts/3_Ballot.sol\":70:1783  contract ToDoList {... */\n  dataSize(sub_0)\n  dup1\n  dataOffset(sub_0)\n  0x00\n  codecopy\n  0x00\n  return\nstop\n\nsub_0: assembly {\n        /* \"contracts/3_Ballot.sol\":70:1783  contract ToDoList {... */\n      mstore(0x40, 0x80)\n      callvalue\n      dup1\n      iszero\n      tag_1\n      jumpi\n      revert(0x00, 0x00)\n    tag_1:\n      pop\n      jumpi(tag_2, lt(calldatasize, 0x04))\n      shr(0xe0, calldataload(0x00))\n      dup1\n      0x256d6a2b\n      eq\n      tag_3\n      jumpi\n      dup1\n      0x6f6b07db\n      eq\n      tag_4\n      jumpi\n    tag_2:\n      revert(0x00, 0x00)\n        /* \"contracts/3_Ballot.sol\":535:923  function assignTask(address _assignee, string calldata _task, uint32 _deadline) external onlyAssigner {... */\n    tag_3:\n      tag_5\n      0x04\n      dup1\n      calldatasize\n      sub\n      dup2\n      add\n      swap1\n      tag_6\n      swap2\n      swap1\n      tag_7\n      jump\t// in\n    tag_6:\n      tag_8\n      jump\t// in\n    tag_5:\n      stop\n        /* \"contracts/3_Ballot.sol\":929:1617  function reassignTask(uint _taskId, address _assignee) external onlyAssigner {... */\n    tag_4:\n      tag_9\n      0x04\n      dup1\n      calldatasize\n      sub\n      dup2\n      add\n      swap1\n      tag_10\n      swap2\n      swap1\n      tag_11\n      jump\t// in\n    tag_10:\n      tag_12\n      jump\t// in\n    tag_9:\n      stop\n        /* \"contracts/3_Ballot.sol\":535:923  function assignTask(address _assignee, string calldata _task, uint32 _deadline) external onlyAssigner {... */\n    tag_8:\n        /* \"contracts/3_Ballot.sol\":1679:1687  assigner */\n      0x00\n      0x00\n      swap1\n      sload\n      swap1\n      0x0100\n      exp\n      swap1\n      div\n      0xffffffffffffffffffffffffffffffffffffffff\n      and\n        /* \"contracts/3_Ballot.sol\":1665:1687  msg.sender == assigner */\n      0xffffffffffffffffffffffffffffffffffffffff\n      and\n        /* \"contracts/3_Ballot.sol\":1665:1675  msg.sender */\n      caller\n        /* \"contracts/3_Ballot.sol\":1665:1687  msg.sender == assigner */\n      0xffffffffffffffffffffffffffffffffffffffff\n      and\n      eq\n        /* \"contracts/3_Ballot.sol\":1657:1763  require(msg.sender == assigner, \"This function can be only execute by Assigner, address is not assigner.\") */\n      tag_14\n      jumpi\n      mload(0x40)\n      0x08c379a000000000000000000000000000000000000000000000000000000000\n      dup2\n      mstore\n      0x04\n      add\n      tag_15\n      swap1\n      tag_16\n      jump\t// in\n    tag_15:\n      mload(0x40)\n      dup1\n      swap2\n      sub\n      swap1\n      revert\n    tag_14:\n        /* \"contracts/3_Ballot.sol\":647:666  ToDo memory newTask */\n      0x00\n        /* \"contracts/3_Ballot.sol\":669:811  ToDo(... */\n      mload(0x40)\n      dup1\n      0xa0\n      add\n      0x40\n      mstore\n      dup1\n        /* \"contracts/3_Ballot.sol\":692:697  toDos */\n      0x01\n        /* \"contracts/3_Ballot.sol\":692:704  toDos.length */\n      dup1\n      sload\n      swap1\n      pop\n        /* \"contracts/3_Ballot.sol\":669:811  ToDo(... */\n      dup2\n      mstore\n      0x20\n      add\n        /* \"contracts/3_Ballot.sol\":719:728  _assignee */\n      dup7\n        /* \"contracts/3_Ballot.sol\":669:811  ToDo(... */\n      0xffffffffffffffffffffffffffffffffffffffff\n      and\n      dup2\n      mstore\n      0x20\n      add\n        /* \"contracts/3_Ballot.sol\":742:747  _task */\n      dup6\n      dup6\n        /* \"contracts/3_Ballot.sol\":669:811  ToDo(... */\n      dup1\n      dup1\n      0x1f\n      add\n      0x20\n      dup1\n      swap2\n      div\n      mul\n      0x20\n      add\n      mload(0x40)\n      swap1\n      dup2\n      add\n      0x40\n      mstore\n      dup1\n      swap4\n      swap3\n      swap2\n      swap1\n      dup2\n      dup2\n      mstore\n      0x20\n      add\n      dup4\n      dup4\n      dup1\n      dup3\n      dup5\n      calldatacopy\n      0x00\n      dup2\n      dup5\n      add\n      mstore\n      not(0x1f)\n      0x1f\n      dup3\n      add\n      and\n      swap1\n      pop\n      dup1\n      dup4\n      add\n      swap3\n      pop\n      pop\n      pop\n      pop\n      pop\n      pop\n      pop\n      dup2\n      mstore\n      0x20\n      add\n        /* \"contracts/3_Ballot.sol\":761:770  _deadline */\n      dup4\n        /* \"contracts/3_Ballot.sol\":669:811  ToDo(... */\n      0xffffffff\n      and\n      dup2\n      mstore\n      0x20\n      add\n        /* \"contracts/3_Ballot.sol\":784:801  STATUS.INCOMPLETE */\n      0x00\n        /* \"contracts/3_Ballot.sol\":669:811  ToDo(... */\n      0x02\n      dup2\n      gt\n      iszero\n      tag_18\n      jumpi\n      tag_19\n      tag_20\n      jump\t// in\n    tag_19:\n    tag_18:\n      dup2\n      mstore\n      pop\n        /* \"contracts/3_Ballot.sol\":647:811  ToDo memory newTask = ToDo(... */\n      swap1\n      pop\n        /* \"contracts/3_Ballot.sol\":821:826  toDos */\n      0x01\n        /* \"contracts/3_Ballot.sol\":832:839  newTask */\n      dup2\n        /* \"contracts/3_Ballot.sol\":821:840  toDos.push(newTask) */\n      swap1\n      dup1\n      0x01\n      dup2\n      sload\n      add\n      dup1\n      dup3\n      sstore\n      dup1\n      swap2\n      pop\n      pop\n      0x01\n      swap1\n      sub\n      swap1\n      0x00\n      mstore\n      keccak256(0x00, 0x20)\n      swap1\n      0x04\n      mul\n      add\n      0x00\n      swap1\n      swap2\n      swap1\n      swap2\n      swap1\n      swap2\n      pop\n      0x00\n      dup3\n      add\n      mload\n      dup2\n      0x00\n      add\n      sstore\n      0x20\n      dup3\n      add\n      mload\n      dup2\n      0x01\n      add\n      exp(0x0100, 0x00)\n      dup2\n      sload\n      dup2\n      0xffffffffffffffffffffffffffffffffffffffff\n      mul\n      not\n      and\n      swap1\n      dup4\n      0xffffffffffffffffffffffffffffffffffffffff\n      and\n      mul\n      or\n      swap1\n      sstore\n      pop\n      0x40\n      dup3\n      add\n      mload\n      dup2\n      0x02\n      add\n      swap1\n      dup2\n      tag_22\n      swap2\n      swap1\n      tag_23\n      jump\t// in\n    tag_22:\n      pop\n      0x60\n      dup3\n      add\n      mload\n      dup2\n      0x03\n      add\n      exp(0x0100, 0x00)\n      dup2\n      sload\n      dup2\n      0xffffffff\n      mul\n      not\n      and\n      swap1\n      dup4\n      0xffffffff\n      and\n      mul\n      or\n      swap1\n      sstore\n      pop\n      0x80\n      dup3\n      add\n      mload\n      dup2\n      0x03\n      add\n      exp(0x0100, 0x04)\n      dup2\n      sload\n      dup2\n      0xff\n      mul\n      not\n      and\n      swap1\n      dup4\n      0x02\n      dup2\n      gt\n      iszero\n      tag_24\n      jumpi\n      tag_25\n      tag_20\n      jump\t// in\n    tag_25:\n    tag_24:\n      mul\n      or\n      swap1\n      sstore\n      pop\n      pop\n      pop\n        /* \"contracts/3_Ballot.sol\":851:869  addressToTaskCount */\n      0x02\n        /* \"contracts/3_Ballot.sol\":851:880  addressToTaskCount[_assignee] */\n      0x00\n        /* \"contracts/3_Ballot.sol\":870:879  _assignee */\n      dup7\n        /* \"contracts/3_Ballot.sol\":851:880  addressToTaskCount[_assignee] */\n      0xffffffffffffffffffffffffffffffffffffffff\n      and\n      0xffffffffffffffffffffffffffffffffffffffff\n      and\n      dup2\n      mstore\n      0x20\n      add\n      swap1\n      dup2\n      mstore\n      0x20\n      add\n      0x00\n      keccak256\n      0x00\n        /* \"contracts/3_Ballot.sol\":851:882  addressToTaskCount[_assignee]++ */\n      dup2\n      sload\n      dup1\n      swap3\n      swap2\n      swap1\n      tag_26\n      swap1\n      tag_27\n      jump\t// in\n    tag_26:\n      swap2\n      swap1\n      pop\n      sstore\n      pop\n        /* \"contracts/3_Ballot.sol\":898:916  TaskAdded(newTask) */\n      0x728537006fe8b64e571fa9b822bb2a9a411dea9828b4cb2d373c79654ccc00b0\n        /* \"contracts/3_Ballot.sol\":908:915  newTask */\n      dup2\n        /* \"contracts/3_Ballot.sol\":898:916  TaskAdded(newTask) */\n      mload(0x40)\n      tag_28\n      swap2\n      swap1\n      tag_29\n      jump\t// in\n    tag_28:\n      mload(0x40)\n      dup1\n      swap2\n      sub\n      swap1\n      log1\n        /* \"contracts/3_Ballot.sol\":637:923  {... */\n      pop\n        /* \"contracts/3_Ballot.sol\":535:923  function assignTask(address _assignee, string calldata _task, uint32 _deadline) external onlyAssigner {... */\n      pop\n      pop\n      pop\n      pop\n      jump\t// out\n        /* \"contracts/3_Ballot.sol\":929:1617  function reassignTask(uint _taskId, address _assignee) external onlyAssigner {... */\n    tag_12:\n        /* \"contracts/3_Ballot.sol\":1679:1687  assigner */\n      0x00\n      0x00\n      swap1\n      sload\n      swap1\n      0x0100\n      exp\n      swap1\n      div\n      0xffffffffffffffffffffffffffffffffffffffff\n      and\n        /* \"contracts/3_Ballot.sol\":1665:1687  msg.sender == assigner */\n      0xffffffffffffffffffffffffffffffffffffffff\n      and\n        /* \"contracts/3_Ballot.sol\":1665:1675  msg.sender */\n      caller\n        /* \"contracts/3_Ballot.sol\":1665:1687  msg.sender == assigner */\n      0xffffffffffffffffffffffffffffffffffffffff\n      and\n      eq\n        /* \"contracts/3_Ballot.sol\":1657:1763  require(msg.sender == assigner, \"This function can be only execute by Assigner, address is not assigner.\") */\n      tag_31\n      jumpi\n      mload(0x40)\n      0x08c379a000000000000000000000000000000000000000000000000000000000\n      dup2\n      mstore\n      0x04\n      add\n      tag_32\n      swap1\n      tag_16\n      jump\t// in\n    tag_32:\n      mload(0x40)\n      dup1\n      swap2\n      sub\n      swap1\n      revert\n    tag_31:\n        /* \"contracts/3_Ballot.sol\":1095:1112  STATUS.INCOMPLETE */\n      0x00\n        /* \"contracts/3_Ballot.sol\":1070:1112  toDos[_taskId].status == STATUS.INCOMPLETE */\n      0x02\n      dup2\n      gt\n      iszero\n      tag_34\n      jumpi\n      tag_35\n      tag_20\n      jump\t// in\n    tag_35:\n    tag_34:\n        /* \"contracts/3_Ballot.sol\":1070:1075  toDos */\n      0x01\n        /* \"contracts/3_Ballot.sol\":1076:1083  _taskId */\n      dup4\n        /* \"contracts/3_Ballot.sol\":1070:1084  toDos[_taskId] */\n      dup2\n      sload\n      dup2\n      lt\n      tag_36\n      jumpi\n      tag_37\n      tag_38\n      jump\t// in\n    tag_37:\n    tag_36:\n      swap1\n      0x00\n      mstore\n      keccak256(0x00, 0x20)\n      swap1\n      0x04\n      mul\n      add\n        /* \"contracts/3_Ballot.sol\":1070:1091  toDos[_taskId].status */\n      0x03\n      add\n      0x04\n      swap1\n      sload\n      swap1\n      0x0100\n      exp\n      swap1\n      div\n      0xff\n      and\n        /* \"contracts/3_Ballot.sol\":1070:1112  toDos[_taskId].status == STATUS.INCOMPLETE */\n      0x02\n      dup2\n      gt\n      iszero\n      tag_40\n      jumpi\n      tag_41\n      tag_20\n      jump\t// in\n    tag_41:\n    tag_40:\n      eq\n        /* \"contracts/3_Ballot.sol\":1062:1148  require(toDos[_taskId].status == STATUS.INCOMPLETE, \"This task is already completed.\") */\n      tag_42\n      jumpi\n      mload(0x40)\n      0x08c379a000000000000000000000000000000000000000000000000000000000\n      dup2\n      mstore\n      0x04\n      add\n      tag_43\n      swap1\n      tag_44\n      jump\t// in\n    tag_43:\n      mload(0x40)\n      dup1\n      swap2\n      sub\n      swap1\n      revert\n    tag_42:\n        /* \"contracts/3_Ballot.sol\":1251:1260  _assignee */\n      dup1\n        /* \"contracts/3_Ballot.sol\":1224:1260  toDos[_taskId].assignee != _assignee */\n      0xffffffffffffffffffffffffffffffffffffffff\n      and\n        /* \"contracts/3_Ballot.sol\":1224:1229  toDos */\n      0x01\n        /* \"contracts/3_Ballot.sol\":1230:1237  _taskId */\n      dup4\n        /* \"contracts/3_Ballot.sol\":1224:1238  toDos[_taskId] */\n      dup2\n      sload\n      dup2\n      lt\n      tag_45\n      jumpi\n      tag_46\n      tag_38\n      jump\t// in\n    tag_46:\n    tag_45:\n      swap1\n      0x00\n      mstore\n      keccak256(0x00, 0x20)\n      swap1\n      0x04\n      mul\n      add\n        /* \"contracts/3_Ballot.sol\":1224:1247  toDos[_taskId].assignee */\n      0x01\n      add\n      0x00\n      swap1\n      sload\n      swap1\n      0x0100\n      exp\n      swap1\n      div\n      0xffffffffffffffffffffffffffffffffffffffff\n      and\n        /* \"contracts/3_Ballot.sol\":1224:1260  toDos[_taskId].assignee != _assignee */\n      0xffffffffffffffffffffffffffffffffffffffff\n      and\n      sub\n        /* \"contracts/3_Ballot.sol\":1216:1303  require(toDos[_taskId].assignee != _assignee, \"Task can't be assigned to same address\") */\n      tag_48\n      jumpi\n      mload(0x40)\n      0x08c379a000000000000000000000000000000000000000000000000000000000\n      dup2\n      mstore\n      0x04\n      add\n      tag_49\n      swap1\n      tag_50\n      jump\t// in\n    tag_49:\n      mload(0x40)\n      dup1\n      swap2\n      sub\n      swap1\n      revert\n    tag_48:\n        /* \"contracts/3_Ballot.sol\":1358:1376  addressToTaskCount */\n      0x02\n        /* \"contracts/3_Ballot.sol\":1358:1401  addressToTaskCount[toDos[_taskId].assignee] */\n      0x00\n        /* \"contracts/3_Ballot.sol\":1377:1382  toDos */\n      0x01\n        /* \"contracts/3_Ballot.sol\":1383:1390  _taskId */\n      dup5\n        /* \"contracts/3_Ballot.sol\":1377:1391  toDos[_taskId] */\n      dup2\n      sload\n      dup2\n      lt\n      tag_51\n      jumpi\n      tag_52\n      tag_38\n      jump\t// in\n    tag_52:\n    tag_51:\n      swap1\n      0x00\n      mstore\n      keccak256(0x00, 0x20)\n      swap1\n      0x04\n      mul\n      add\n        /* \"contracts/3_Ballot.sol\":1377:1400  toDos[_taskId].assignee */\n      0x01\n      add\n      0x00\n      swap1\n      sload\n      swap1\n      0x0100\n      exp\n      swap1\n      div\n      0xffffffffffffffffffffffffffffffffffffffff\n      and\n        /* \"contracts/3_Ballot.sol\":1358:1401  addressToTaskCount[toDos[_taskId].assignee] */\n      0xffffffffffffffffffffffffffffffffffffffff\n      and\n      0xffffffffffffffffffffffffffffffffffffffff\n      and\n      dup2\n      mstore\n      0x20\n      add\n      swap1\n      dup2\n      mstore\n      0x20\n      add\n      0x00\n      keccak256\n      0x00\n        /* \"contracts/3_Ballot.sol\":1358:1403  addressToTaskCount[toDos[_taskId].assignee]-- */\n      dup2\n      sload\n      dup1\n      swap3\n      swap2\n      swap1\n      tag_54\n      swap1\n      tag_55\n      jump\t// in\n    tag_54:\n      swap2\n      swap1\n      pop\n      sstore\n      pop\n        /* \"contracts/3_Ballot.sol\":1516:1525  _assignee */\n      dup1\n        /* \"contracts/3_Ballot.sol\":1490:1495  toDos */\n      0x01\n        /* \"contracts/3_Ballot.sol\":1496:1503  _taskId */\n      dup4\n        /* \"contracts/3_Ballot.sol\":1490:1504  toDos[_taskId] */\n      dup2\n      sload\n      dup2\n      lt\n      tag_56\n      jumpi\n      tag_57\n      tag_38\n      jump\t// in\n    tag_57:\n    tag_56:\n      swap1\n      0x00\n      mstore\n      keccak256(0x00, 0x20)\n      swap1\n      0x04\n      mul\n      add\n        /* \"contracts/3_Ballot.sol\":1490:1513  toDos[_taskId].assignee */\n      0x01\n      add\n      0x00\n        /* \"contracts/3_Ballot.sol\":1490:1525  toDos[_taskId].assignee = _assignee */\n      0x0100\n      exp\n      dup2\n      sload\n      dup2\n      0xffffffffffffffffffffffffffffffffffffffff\n      mul\n      not\n      and\n      swap1\n      dup4\n      0xffffffffffffffffffffffffffffffffffffffff\n      and\n      mul\n      or\n      swap1\n      sstore\n      pop\n        /* \"contracts/3_Ballot.sol\":1579:1597  addressToTaskCount */\n      0x02\n        /* \"contracts/3_Ballot.sol\":1579:1608  addressToTaskCount[_assignee] */\n      0x00\n        /* \"contracts/3_Ballot.sol\":1598:1607  _assignee */\n      dup3\n        /* \"contracts/3_Ballot.sol\":1579:1608  addressToTaskCount[_assignee] */\n      0xffffffffffffffffffffffffffffffffffffffff\n      and\n      0xffffffffffffffffffffffffffffffffffffffff\n      and\n      dup2\n      mstore\n      0x20\n      add\n      swap1\n      dup2\n      mstore\n      0x20\n      add\n      0x00\n      keccak256\n      0x00\n        /* \"contracts/3_Ballot.sol\":1579:1610  addressToTaskCount[_assignee]++ */\n      dup2\n      sload\n      dup1\n      swap3\n      swap2\n      swap1\n      tag_59\n      swap1\n      tag_27\n      jump\t// in\n    tag_59:\n      swap2\n      swap1\n      pop\n      sstore\n      pop\n        /* \"contracts/3_Ballot.sol\":929:1617  function reassignTask(uint _taskId, address _assignee) external onlyAssigner {... */\n      pop\n      pop\n      jump\t// out\n        /* \"#utility.yul\":88:205   */\n    tag_61:\n        /* \"#utility.yul\":197:198   */\n      0x00\n        /* \"#utility.yul\":194:195   */\n      0x00\n        /* \"#utility.yul\":187:199   */\n      revert\n        /* \"#utility.yul\":211:328   */\n    tag_62:\n        /* \"#utility.yul\":320:321   */\n      0x00\n        /* \"#utility.yul\":317:318   */\n      0x00\n        /* \"#utility.yul\":310:322   */\n      revert\n        /* \"#utility.yul\":334:460   */\n    tag_63:\n        /* \"#utility.yul\":371:378   */\n      0x00\n        /* \"#utility.yul\":411:453   */\n      0xffffffffffffffffffffffffffffffffffffffff\n        /* \"#utility.yul\":404:409   */\n      dup3\n        /* \"#utility.yul\":400:454   */\n      and\n        /* \"#utility.yul\":389:454   */\n      swap1\n      pop\n        /* \"#utility.yul\":334:460   */\n      swap2\n      swap1\n      pop\n      jump\t// out\n        /* \"#utility.yul\":466:562   */\n    tag_64:\n        /* \"#utility.yul\":503:510   */\n      0x00\n        /* \"#utility.yul\":532:556   */\n      tag_122\n        /* \"#utility.yul\":550:555   */\n      dup3\n        /* \"#utility.yul\":532:556   */\n      tag_63\n      jump\t// in\n    tag_122:\n        /* \"#utility.yul\":521:556   */\n      swap1\n      pop\n        /* \"#utility.yul\":466:562   */\n      swap2\n      swap1\n      pop\n      jump\t// out\n        /* \"#utility.yul\":568:690   */\n    tag_65:\n        /* \"#utility.yul\":641:665   */\n      tag_124\n        /* \"#utility.yul\":659:664   */\n      dup2\n        /* \"#utility.yul\":641:665   */\n      tag_64\n      jump\t// in\n    tag_124:\n        /* \"#utility.yul\":634:639   */\n      dup2\n        /* \"#utility.yul\":631:666   */\n      eq\n        /* \"#utility.yul\":621:684   */\n      tag_125\n      jumpi\n        /* \"#utility.yul\":680:681   */\n      0x00\n        /* \"#utility.yul\":677:678   */\n      0x00\n        /* \"#utility.yul\":670:682   */\n      revert\n        /* \"#utility.yul\":621:684   */\n    tag_125:\n        /* \"#utility.yul\":568:690   */\n      pop\n      jump\t// out\n        /* \"#utility.yul\":696:835   */\n    tag_66:\n        /* \"#utility.yul\":742:747   */\n      0x00\n        /* \"#utility.yul\":780:786   */\n      dup2\n        /* \"#utility.yul\":767:787   */\n      calldataload\n        /* \"#utility.yul\":758:787   */\n      swap1\n      pop\n        /* \"#utility.yul\":796:829   */\n      tag_127\n        /* \"#utility.yul\":823:828   */\n      dup2\n        /* \"#utility.yul\":796:829   */\n      tag_65\n      jump\t// in\n    tag_127:\n        /* \"#utility.yul\":696:835   */\n      swap3\n      swap2\n      pop\n      pop\n      jump\t// out\n        /* \"#utility.yul\":841:958   */\n    tag_67:\n        /* \"#utility.yul\":950:951   */\n      0x00\n        /* \"#utility.yul\":947:948   */\n      0x00\n        /* \"#utility.yul\":940:952   */\n      revert\n        /* \"#utility.yul\":964:1081   */\n    tag_68:\n        /* \"#utility.yul\":1073:1074   */\n      0x00\n        /* \"#utility.yul\":1070:1071   */\n      0x00\n        /* \"#utility.yul\":1063:1075   */\n      revert\n        /* \"#utility.yul\":1087:1204   */\n    tag_69:\n        /* \"#utility.yul\":1196:1197   */\n      0x00\n        /* \"#utility.yul\":1193:1194   */\n      0x00\n        /* \"#utility.yul\":1186:1198   */\n      revert\n        /* \"#utility.yul\":1224:1777   */\n    tag_70:\n        /* \"#utility.yul\":1282:1290   */\n      0x00\n        /* \"#utility.yul\":1292:1298   */\n      0x00\n        /* \"#utility.yul\":1342:1345   */\n      dup4\n        /* \"#utility.yul\":1335:1339   */\n      0x1f\n        /* \"#utility.yul\":1327:1333   */\n      dup5\n        /* \"#utility.yul\":1323:1340   */\n      add\n        /* \"#utility.yul\":1319:1346   */\n      slt\n        /* \"#utility.yul\":1309:1431   */\n      tag_132\n      jumpi\n        /* \"#utility.yul\":1350:1429   */\n      tag_133\n      tag_67\n      jump\t// in\n    tag_133:\n        /* \"#utility.yul\":1309:1431   */\n    tag_132:\n        /* \"#utility.yul\":1463:1469   */\n      dup3\n        /* \"#utility.yul\":1450:1470   */\n      calldataload\n        /* \"#utility.yul\":1440:1470   */\n      swap1\n      pop\n        /* \"#utility.yul\":1493:1511   */\n      0xffffffffffffffff\n        /* \"#utility.yul\":1485:1491   */\n      dup2\n        /* \"#utility.yul\":1482:1512   */\n      gt\n        /* \"#utility.yul\":1479:1596   */\n      iszero\n      tag_134\n      jumpi\n        /* \"#utility.yul\":1515:1594   */\n      tag_135\n      tag_68\n      jump\t// in\n    tag_135:\n        /* \"#utility.yul\":1479:1596   */\n    tag_134:\n        /* \"#utility.yul\":1629:1633   */\n      0x20\n        /* \"#utility.yul\":1621:1627   */\n      dup4\n        /* \"#utility.yul\":1617:1634   */\n      add\n        /* \"#utility.yul\":1605:1634   */\n      swap2\n      pop\n        /* \"#utility.yul\":1683:1686   */\n      dup4\n        /* \"#utility.yul\":1675:1679   */\n      0x01\n        /* \"#utility.yul\":1667:1673   */\n      dup3\n        /* \"#utility.yul\":1663:1680   */\n      mul\n        /* \"#utility.yul\":1653:1661   */\n      dup4\n        /* \"#utility.yul\":1649:1681   */\n      add\n        /* \"#utility.yul\":1646:1687   */\n      gt\n        /* \"#utility.yul\":1643:1771   */\n      iszero\n      tag_136\n      jumpi\n        /* \"#utility.yul\":1690:1769   */\n      tag_137\n      tag_69\n      jump\t// in\n    tag_137:\n        /* \"#utility.yul\":1643:1771   */\n    tag_136:\n        /* \"#utility.yul\":1224:1777   */\n      swap3\n      pop\n      swap3\n      swap1\n      pop\n      jump\t// out\n        /* \"#utility.yul\":1783:1876   */\n    tag_71:\n        /* \"#utility.yul\":1819:1826   */\n      0x00\n        /* \"#utility.yul\":1859:1869   */\n      0xffffffff\n        /* \"#utility.yul\":1852:1857   */\n      dup3\n        /* \"#utility.yul\":1848:1870   */\n      and\n        /* \"#utility.yul\":1837:1870   */\n      swap1\n      pop\n        /* \"#utility.yul\":1783:1876   */\n      swap2\n      swap1\n      pop\n      jump\t// out\n        /* \"#utility.yul\":1882:2002   */\n    tag_72:\n        /* \"#utility.yul\":1954:1977   */\n      tag_140\n        /* \"#utility.yul\":1971:1976   */\n      dup2\n        /* \"#utility.yul\":1954:1977   */\n      tag_71\n      jump\t// in\n    tag_140:\n        /* \"#utility.yul\":1947:1952   */\n      dup2\n        /* \"#utility.yul\":1944:1978   */\n      eq\n        /* \"#utility.yul\":1934:1996   */\n      tag_141\n      jumpi\n        /* \"#utility.yul\":1992:1993   */\n      0x00\n        /* \"#utility.yul\":1989:1990   */\n      0x00\n        /* \"#utility.yul\":1982:1994   */\n      revert\n        /* \"#utility.yul\":1934:1996   */\n    tag_141:\n        /* \"#utility.yul\":1882:2002   */\n      pop\n      jump\t// out\n        /* \"#utility.yul\":2008:2145   */\n    tag_73:\n        /* \"#utility.yul\":2053:2058   */\n      0x00\n        /* \"#utility.yul\":2091:2097   */\n      dup2\n        /* \"#utility.yul\":2078:2098   */\n      calldataload\n        /* \"#utility.yul\":2069:2098   */\n      swap1\n      pop\n        /* \"#utility.yul\":2107:2139   */\n      tag_143\n        /* \"#utility.yul\":2133:2138   */\n      dup2\n        /* \"#utility.yul\":2107:2139   */\n      tag_72\n      jump\t// in\n    tag_143:\n        /* \"#utility.yul\":2008:2145   */\n      swap3\n      swap2\n      pop\n      pop\n      jump\t// out\n        /* \"#utility.yul\":2151:2968   */\n    tag_7:\n        /* \"#utility.yul\":2239:2245   */\n      0x00\n        /* \"#utility.yul\":2247:2253   */\n      0x00\n        /* \"#utility.yul\":2255:2261   */\n      0x00\n        /* \"#utility.yul\":2263:2269   */\n      0x00\n        /* \"#utility.yul\":2312:2314   */\n      0x60\n        /* \"#utility.yul\":2300:2309   */\n      dup6\n        /* \"#utility.yul\":2291:2298   */\n      dup8\n        /* \"#utility.yul\":2287:2310   */\n      sub\n        /* \"#utility.yul\":2283:2315   */\n      slt\n        /* \"#utility.yul\":2280:2399   */\n      iszero\n      tag_145\n      jumpi\n        /* \"#utility.yul\":2318:2397   */\n      tag_146\n      tag_61\n      jump\t// in\n    tag_146:\n        /* \"#utility.yul\":2280:2399   */\n    tag_145:\n        /* \"#utility.yul\":2438:2439   */\n      0x00\n        /* \"#utility.yul\":2463:2516   */\n      tag_147\n        /* \"#utility.yul\":2508:2515   */\n      dup8\n        /* \"#utility.yul\":2499:2505   */\n      dup3\n        /* \"#utility.yul\":2488:2497   */\n      dup9\n        /* \"#utility.yul\":2484:2506   */\n      add\n        /* \"#utility.yul\":2463:2516   */\n      tag_66\n      jump\t// in\n    tag_147:\n        /* \"#utility.yul\":2453:2516   */\n      swap5\n      pop\n        /* \"#utility.yul\":2409:2526   */\n      pop\n        /* \"#utility.yul\":2593:2595   */\n      0x20\n        /* \"#utility.yul\":2582:2591   */\n      dup6\n        /* \"#utility.yul\":2578:2596   */\n      add\n        /* \"#utility.yul\":2565:2597   */\n      calldataload\n        /* \"#utility.yul\":2624:2642   */\n      0xffffffffffffffff\n        /* \"#utility.yul\":2616:2622   */\n      dup2\n        /* \"#utility.yul\":2613:2643   */\n      gt\n        /* \"#utility.yul\":2610:2727   */\n      iszero\n      tag_148\n      jumpi\n        /* \"#utility.yul\":2646:2725   */\n      tag_149\n      tag_62\n      jump\t// in\n    tag_149:\n        /* \"#utility.yul\":2610:2727   */\n    tag_148:\n        /* \"#utility.yul\":2759:2824   */\n      tag_150\n        /* \"#utility.yul\":2816:2823   */\n      dup8\n        /* \"#utility.yul\":2807:2813   */\n      dup3\n        /* \"#utility.yul\":2796:2805   */\n      dup9\n        /* \"#utility.yul\":2792:2814   */\n      add\n        /* \"#utility.yul\":2759:2824   */\n      tag_70\n      jump\t// in\n    tag_150:\n        /* \"#utility.yul\":2741:2824   */\n      swap4\n      pop\n      swap4\n      pop\n        /* \"#utility.yul\":2536:2834   */\n      pop\n        /* \"#utility.yul\":2873:2875   */\n      0x40\n        /* \"#utility.yul\":2899:2951   */\n      tag_151\n        /* \"#utility.yul\":2943:2950   */\n      dup8\n        /* \"#utility.yul\":2934:2940   */\n      dup3\n        /* \"#utility.yul\":2923:2932   */\n      dup9\n        /* \"#utility.yul\":2919:2941   */\n      add\n        /* \"#utility.yul\":2899:2951   */\n      tag_73\n      jump\t// in\n    tag_151:\n        /* \"#utility.yul\":2889:2951   */\n      swap2\n      pop\n        /* \"#utility.yul\":2844:2961   */\n      pop\n        /* \"#utility.yul\":2151:2968   */\n      swap3\n      swap6\n      swap2\n      swap5\n      pop\n      swap3\n      pop\n      jump\t// out\n        /* \"#utility.yul\":2974:3051   */\n    tag_74:\n        /* \"#utility.yul\":3011:3018   */\n      0x00\n        /* \"#utility.yul\":3040:3045   */\n      dup2\n        /* \"#utility.yul\":3029:3045   */\n      swap1\n      pop\n        /* \"#utility.yul\":2974:3051   */\n      swap2\n      swap1\n      pop\n      jump\t// out\n        /* \"#utility.yul\":3057:3179   */\n    tag_75:\n        /* \"#utility.yul\":3130:3154   */\n      tag_154\n        /* \"#utility.yul\":3148:3153   */\n      dup2\n        /* \"#utility.yul\":3130:3154   */\n      tag_74\n      jump\t// in\n    tag_154:\n        /* \"#utility.yul\":3123:3128   */\n      dup2\n        /* \"#utility.yul\":3120:3155   */\n      eq\n        /* \"#utility.yul\":3110:3173   */\n      tag_155\n      jumpi\n        /* \"#utility.yul\":3169:3170   */\n      0x00\n        /* \"#utility.yul\":3166:3167   */\n      0x00\n        /* \"#utility.yul\":3159:3171   */\n      revert\n        /* \"#utility.yul\":3110:3173   */\n    tag_155:\n        /* \"#utility.yul\":3057:3179   */\n      pop\n      jump\t// out\n        /* \"#utility.yul\":3185:3324   */\n    tag_76:\n        /* \"#utility.yul\":3231:3236   */\n      0x00\n        /* \"#utility.yul\":3269:3275   */\n      dup2\n        /* \"#utility.yul\":3256:3276   */\n      calldataload\n        /* \"#utility.yul\":3247:3276   */\n      swap1\n      pop\n        /* \"#utility.yul\":3285:3318   */\n      tag_157\n        /* \"#utility.yul\":3312:3317   */\n      dup2\n        /* \"#utility.yul\":3285:3318   */\n      tag_75\n      jump\t// in\n    tag_157:\n        /* \"#utility.yul\":3185:3324   */\n      swap3\n      swap2\n      pop\n      pop\n      jump\t// out\n        /* \"#utility.yul\":3330:3804   */\n    tag_11:\n        /* \"#utility.yul\":3398:3404   */\n      0x00\n        /* \"#utility.yul\":3406:3412   */\n      0x00\n        /* \"#utility.yul\":3455:3457   */\n      0x40\n        /* \"#utility.yul\":3443:3452   */\n      dup4\n        /* \"#utility.yul\":3434:3441   */\n      dup6\n        /* \"#utility.yul\":3430:3453   */\n      sub\n        /* \"#utility.yul\":3426:3458   */\n      slt\n        /* \"#utility.yul\":3423:3542   */\n      iszero\n      tag_159\n      jumpi\n        /* \"#utility.yul\":3461:3540   */\n      tag_160\n      tag_61\n      jump\t// in\n    tag_160:\n        /* \"#utility.yul\":3423:3542   */\n    tag_159:\n        /* \"#utility.yul\":3581:3582   */\n      0x00\n        /* \"#utility.yul\":3606:3659   */\n      tag_161\n        /* \"#utility.yul\":3651:3658   */\n      dup6\n        /* \"#utility.yul\":3642:3648   */\n      dup3\n        /* \"#utility.yul\":3631:3640   */\n      dup7\n        /* \"#utility.yul\":3627:3649   */\n      add\n        /* \"#utility.yul\":3606:3659   */\n      tag_76\n      jump\t// in\n    tag_161:\n        /* \"#utility.yul\":3596:3659   */\n      swap3\n      pop\n        /* \"#utility.yul\":3552:3669   */\n      pop\n        /* \"#utility.yul\":3708:3710   */\n      0x20\n        /* \"#utility.yul\":3734:3787   */\n      tag_162\n        /* \"#utility.yul\":3779:3786   */\n      dup6\n        /* \"#utility.yul\":3770:3776   */\n      dup3\n        /* \"#utility.yul\":3759:3768   */\n      dup7\n        /* \"#utility.yul\":3755:3777   */\n      add\n        /* \"#utility.yul\":3734:3787   */\n      tag_66\n      jump\t// in\n    tag_162:\n        /* \"#utility.yul\":3724:3787   */\n      swap2\n      pop\n        /* \"#utility.yul\":3679:3797   */\n      pop\n        /* \"#utility.yul\":3330:3804   */\n      swap3\n      pop\n      swap3\n      swap1\n      pop\n      jump\t// out\n        /* \"#utility.yul\":3810:3979   */\n    tag_77:\n        /* \"#utility.yul\":3894:3905   */\n      0x00\n        /* \"#utility.yul\":3928:3934   */\n      dup3\n        /* \"#utility.yul\":3923:3926   */\n      dup3\n        /* \"#utility.yul\":3916:3935   */\n      mstore\n        /* \"#utility.yul\":3968:3972   */\n      0x20\n        /* \"#utility.yul\":3963:3966   */\n      dup3\n        /* \"#utility.yul\":3959:3973   */\n      add\n        /* \"#utility.yul\":3944:3973   */\n      swap1\n      pop\n        /* \"#utility.yul\":3810:3979   */\n      swap3\n      swap2\n      pop\n      pop\n      jump\t// out\n        /* \"#utility.yul\":3985:4280   */\n    tag_78:\n        /* \"#utility.yul\":4125:4159   */\n      0x546869732066756e6374696f6e2063616e206265206f6e6c7920657865637574\n        /* \"#utility.yul\":4121:4122   */\n      0x00\n        /* \"#utility.yul\":4113:4119   */\n      dup3\n        /* \"#utility.yul\":4109:4123   */\n      add\n        /* \"#utility.yul\":4102:4160   */\n      mstore\n        /* \"#utility.yul\":4194:4228   */\n      0x652062792041737369676e65722c2061646472657373206973206e6f74206173\n        /* \"#utility.yul\":4189:4191   */\n      0x20\n        /* \"#utility.yul\":4181:4187   */\n      dup3\n        /* \"#utility.yul\":4177:4192   */\n      add\n        /* \"#utility.yul\":4170:4229   */\n      mstore\n        /* \"#utility.yul\":4263:4272   */\n      0x7369676e65722e00000000000000000000000000000000000000000000000000\n        /* \"#utility.yul\":4258:4260   */\n      0x40\n        /* \"#utility.yul\":4250:4256   */\n      dup3\n        /* \"#utility.yul\":4246:4261   */\n      add\n        /* \"#utility.yul\":4239:4273   */\n      mstore\n        /* \"#utility.yul\":3985:4280   */\n      pop\n      jump\t// out\n        /* \"#utility.yul\":4286:4652   */\n    tag_79:\n        /* \"#utility.yul\":4428:4431   */\n      0x00\n        /* \"#utility.yul\":4449:4516   */\n      tag_166\n        /* \"#utility.yul\":4513:4515   */\n      0x47\n        /* \"#utility.yul\":4508:4511   */\n      dup4\n        /* \"#utility.yul\":4449:4516   */\n      tag_77\n      jump\t// in\n    tag_166:\n        /* \"#utility.yul\":4442:4516   */\n      swap2\n      pop\n        /* \"#utility.yul\":4525:4618   */\n      tag_167\n        /* \"#utility.yul\":4614:4617   */\n      dup3\n        /* \"#utility.yul\":4525:4618   */\n      tag_78\n      jump\t// in\n    tag_167:\n        /* \"#utility.yul\":4643:4645   */\n      0x60\n        /* \"#utility.yul\":4638:4641   */\n      dup3\n        /* \"#utility.yul\":4634:4646   */\n      add\n        /* \"#utility.yul\":4627:4646   */\n      swap1\n      pop\n        /* \"#utility.yul\":4286:4652   */\n      swap2\n      swap1\n      pop\n      jump\t// out\n        /* \"#utility.yul\":4658:5077   */\n    tag_16:\n        /* \"#utility.yul\":4824:4828   */\n      0x00\n        /* \"#utility.yul\":4862:4864   */\n      0x20\n        /* \"#utility.yul\":4851:4860   */\n      dup3\n        /* \"#utility.yul\":4847:4865   */\n      add\n        /* \"#utility.yul\":4839:4865   */\n      swap1\n      pop\n        /* \"#utility.yul\":4911:4920   */\n      dup2\n        /* \"#utility.yul\":4905:4909   */\n      dup2\n        /* \"#utility.yul\":4901:4921   */\n      sub\n        /* \"#utility.yul\":4897:4898   */\n      0x00\n        /* \"#utility.yul\":4886:4895   */\n      dup4\n        /* \"#utility.yul\":4882:4899   */\n      add\n        /* \"#utility.yul\":4875:4922   */\n      mstore\n        /* \"#utility.yul\":4939:5070   */\n      tag_169\n        /* \"#utility.yul\":5065:5069   */\n      dup2\n        /* \"#utility.yul\":4939:5070   */\n      tag_79\n      jump\t// in\n    tag_169:\n        /* \"#utility.yul\":4931:5070   */\n      swap1\n      pop\n        /* \"#utility.yul\":4658:5077   */\n      swap2\n      swap1\n      pop\n      jump\t// out\n        /* \"#utility.yul\":5083:5263   */\n    tag_20:\n        /* \"#utility.yul\":5131:5208   */\n      0x4e487b7100000000000000000000000000000000000000000000000000000000\n        /* \"#utility.yul\":5128:5129   */\n      0x00\n        /* \"#utility.yul\":5121:5209   */\n      mstore\n        /* \"#utility.yul\":5228:5232   */\n      0x21\n        /* \"#utility.yul\":5225:5226   */\n      0x04\n        /* \"#utility.yul\":5218:5233   */\n      mstore\n        /* \"#utility.yul\":5252:5256   */\n      0x24\n        /* \"#utility.yul\":5249:5250   */\n      0x00\n        /* \"#utility.yul\":5242:5257   */\n      revert\n        /* \"#utility.yul\":5269:5368   */\n    tag_80:\n        /* \"#utility.yul\":5321:5327   */\n      0x00\n        /* \"#utility.yul\":5355:5360   */\n      dup2\n        /* \"#utility.yul\":5349:5361   */\n      mload\n        /* \"#utility.yul\":5339:5361   */\n      swap1\n      pop\n        /* \"#utility.yul\":5269:5368   */\n      swap2\n      swap1\n      pop\n      jump\t// out\n        /* \"#utility.yul\":5374:5554   */\n    tag_81:\n        /* \"#utility.yul\":5422:5499   */\n      0x4e487b7100000000000000000000000000000000000000000000000000000000\n        /* \"#utility.yul\":5419:5420   */\n      0x00\n        /* \"#utility.yul\":5412:5500   */\n      mstore\n        /* \"#utility.yul\":5519:5523   */\n      0x41\n        /* \"#utility.yul\":5516:5517   */\n      0x04\n        /* \"#utility.yul\":5509:5524   */\n      mstore\n        /* \"#utility.yul\":5543:5547   */\n      0x24\n        /* \"#utility.yul\":5540:5541   */\n      0x00\n        /* \"#utility.yul\":5533:5548   */\n      revert\n        /* \"#utility.yul\":5560:5740   */\n    tag_82:\n        /* \"#utility.yul\":5608:5685   */\n      0x4e487b7100000000000000000000000000000000000000000000000000000000\n        /* \"#utility.yul\":5605:5606   */\n      0x00\n        /* \"#utility.yul\":5598:5686   */\n      mstore\n        /* \"#utility.yul\":5705:5709   */\n      0x22\n        /* \"#utility.yul\":5702:5703   */\n      0x04\n        /* \"#utility.yul\":5695:5710   */\n      mstore\n        /* \"#utility.yul\":5729:5733   */\n      0x24\n        /* \"#utility.yul\":5726:5727   */\n      0x00\n        /* \"#utility.yul\":5719:5734   */\n      revert\n        /* \"#utility.yul\":5746:6066   */\n    tag_83:\n        /* \"#utility.yul\":5790:5796   */\n      0x00\n        /* \"#utility.yul\":5827:5828   */\n      0x02\n        /* \"#utility.yul\":5821:5825   */\n      dup3\n        /* \"#utility.yul\":5817:5829   */\n      div\n        /* \"#utility.yul\":5807:5829   */\n      swap1\n      pop\n        /* \"#utility.yul\":5874:5875   */\n      0x01\n        /* \"#utility.yul\":5868:5872   */\n      dup3\n        /* \"#utility.yul\":5864:5876   */\n      and\n        /* \"#utility.yul\":5895:5913   */\n      dup1\n        /* \"#utility.yul\":5885:5966   */\n      tag_175\n      jumpi\n        /* \"#utility.yul\":5951:5955   */\n      0x7f\n        /* \"#utility.yul\":5943:5949   */\n      dup3\n        /* \"#utility.yul\":5939:5956   */\n      and\n        /* \"#utility.yul\":5929:5956   */\n      swap2\n      pop\n        /* \"#utility.yul\":5885:5966   */\n    tag_175:\n        /* \"#utility.yul\":6013:6015   */\n      0x20\n        /* \"#utility.yul\":6005:6011   */\n      dup3\n        /* \"#utility.yul\":6002:6016   */\n      lt\n        /* \"#utility.yul\":5982:6000   */\n      dup2\n        /* \"#utility.yul\":5979:6017   */\n      sub\n        /* \"#utility.yul\":5976:6060   */\n      tag_176\n      jumpi\n        /* \"#utility.yul\":6032:6050   */\n      tag_177\n      tag_82\n      jump\t// in\n    tag_177:\n        /* \"#utility.yul\":5976:6060   */\n    tag_176:\n        /* \"#utility.yul\":5797:6066   */\n      pop\n        /* \"#utility.yul\":5746:6066   */\n      swap2\n      swap1\n      pop\n      jump\t// out\n        /* \"#utility.yul\":6072:6213   */\n    tag_84:\n        /* \"#utility.yul\":6121:6125   */\n      0x00\n        /* \"#utility.yul\":6144:6147   */\n      dup2\n        /* \"#utility.yul\":6136:6147   */\n      swap1\n      pop\n        /* \"#utility.yul\":6167:6170   */\n      dup2\n        /* \"#utility.yul\":6164:6165   */\n      0x00\n        /* \"#utility.yul\":6157:6171   */\n      mstore\n        /* \"#utility.yul\":6201:6205   */\n      0x20\n        /* \"#utility.yul\":6198:6199   */\n      0x00\n        /* \"#utility.yul\":6188:6206   */\n      keccak256\n        /* \"#utility.yul\":6180:6206   */\n      swap1\n      pop\n        /* \"#utility.yul\":6072:6213   */\n      swap2\n      swap1\n      pop\n      jump\t// out\n        /* \"#utility.yul\":6219:6312   */\n    tag_85:\n        /* \"#utility.yul\":6256:6262   */\n      0x00\n        /* \"#utility.yul\":6303:6305   */\n      0x20\n        /* \"#utility.yul\":6298:6300   */\n      0x1f\n        /* \"#utility.yul\":6291:6296   */\n      dup4\n        /* \"#utility.yul\":6287:6301   */\n      add\n        /* \"#utility.yul\":6283:6306   */\n      div\n        /* \"#utility.yul\":6273:6306   */\n      swap1\n      pop\n        /* \"#utility.yul\":6219:6312   */\n      swap2\n      swap1\n      pop\n      jump\t// out\n        /* \"#utility.yul\":6318:6425   */\n    tag_86:\n        /* \"#utility.yul\":6362:6370   */\n      0x00\n        /* \"#utility.yul\":6412:6417   */\n      dup3\n        /* \"#utility.yul\":6406:6410   */\n      dup3\n        /* \"#utility.yul\":6402:6418   */\n      shl\n        /* \"#utility.yul\":6381:6418   */\n      swap1\n      pop\n        /* \"#utility.yul\":6318:6425   */\n      swap3\n      swap2\n      pop\n      pop\n      jump\t// out\n        /* \"#utility.yul\":6431:6824   */\n    tag_87:\n        /* \"#utility.yul\":6500:6506   */\n      0x00\n        /* \"#utility.yul\":6550:6551   */\n      0x08\n        /* \"#utility.yul\":6538:6548   */\n      dup4\n        /* \"#utility.yul\":6534:6552   */\n      mul\n        /* \"#utility.yul\":6573:6670   */\n      tag_182\n        /* \"#utility.yul\":6603:6669   */\n      0xffffffffffffffffffffffffffffffffffffffffffffffffffffffffffffffff\n        /* \"#utility.yul\":6592:6601   */\n      dup3\n        /* \"#utility.yul\":6573:6670   */\n      tag_86\n      jump\t// in\n    tag_182:\n        /* \"#utility.yul\":6691:6730   */\n      tag_183\n        /* \"#utility.yul\":6721:6729   */\n      dup7\n        /* \"#utility.yul\":6710:6719   */\n      dup4\n        /* \"#utility.yul\":6691:6730   */\n      tag_86\n      jump\t// in\n    tag_183:\n        /* \"#utility.yul\":6679:6730   */\n      swap6\n      pop\n        /* \"#utility.yul\":6763:6767   */\n      dup1\n        /* \"#utility.yul\":6759:6768   */\n      not\n        /* \"#utility.yul\":6752:6757   */\n      dup5\n        /* \"#utility.yul\":6748:6769   */\n      and\n        /* \"#utility.yul\":6739:6769   */\n      swap4\n      pop\n        /* \"#utility.yul\":6812:6816   */\n      dup1\n        /* \"#utility.yul\":6802:6810   */\n      dup7\n        /* \"#utility.yul\":6798:6817   */\n      and\n        /* \"#utility.yul\":6791:6796   */\n      dup5\n        /* \"#utility.yul\":6788:6818   */\n      or\n        /* \"#utility.yul\":6778:6818   */\n      swap3\n      pop\n        /* \"#utility.yul\":6507:6824   */\n      pop\n      pop\n        /* \"#utility.yul\":6431:6824   */\n      swap4\n      swap3\n      pop\n      pop\n      pop\n      jump\t// out\n        /* \"#utility.yul\":6830:6890   */\n    tag_88:\n        /* \"#utility.yul\":6858:6861   */\n      0x00\n        /* \"#utility.yul\":6879:6884   */\n      dup2\n        /* \"#utility.yul\":6872:6884   */\n      swap1\n      pop\n        /* \"#utility.yul\":6830:6890   */\n      swap2\n      swap1\n      pop\n      jump\t// out\n        /* \"#utility.yul\":6896:7038   */\n    tag_89:\n        /* \"#utility.yul\":6946:6955   */\n      0x00\n        /* \"#utility.yul\":6979:7032   */\n      tag_186\n        /* \"#utility.yul\":6997:7031   */\n      tag_187\n        /* \"#utility.yul\":7006:7030   */\n      tag_188\n        /* \"#utility.yul\":7024:7029   */\n      dup5\n        /* \"#utility.yul\":7006:7030   */\n      tag_74\n      jump\t// in\n    tag_188:\n        /* \"#utility.yul\":6997:7031   */\n      tag_88\n      jump\t// in\n    tag_187:\n        /* \"#utility.yul\":6979:7032   */\n      tag_74\n      jump\t// in\n    tag_186:\n        /* \"#utility.yul\":6966:7032   */\n      swap1\n      pop\n        /* \"#utility.yul\":6896:7038   */\n      swap2\n      swap1\n      pop\n      jump\t// out\n        /* \"#utility.yul\":7044:7119   */\n    tag_90:\n        /* \"#utility.yul\":7087:7090   */\n      0x00\n        /* \"#utility.yul\":7108:7113   */\n      dup2\n        /* \"#utility.yul\":7101:7113   */\n      swap1\n      pop\n        /* \"#utility.yul\":7044:7119   */\n      swap2\n      swap1\n      pop\n      jump\t// out\n        /* \"#utility.yul\":7125:7394   */\n    tag_91:\n        /* \"#utility.yul\":7235:7274   */\n      tag_191\n        /* \"#utility.yul\":7266:7273   */\n      dup4\n        /* \"#utility.yul\":7235:7274   */\n      tag_89\n      jump\t// in\n    tag_191:\n        /* \"#utility.yul\":7296:7387   */\n      tag_192\n        /* \"#utility.yul\":7345:7386   */\n      tag_193\n        /* \"#utility.yul\":7369:7385   */\n      dup3\n        /* \"#utility.yul\":7345:7386   */\n      tag_90\n      jump\t// in\n    tag_193:\n        /* \"#utility.yul\":7337:7343   */\n      dup5\n        /* \"#utility.yul\":7330:7334   */\n      dup5\n        /* \"#utility.yul\":7324:7335   */\n      sload\n        /* \"#utility.yul\":7296:7387   */\n      tag_87\n      jump\t// in\n    tag_192:\n        /* \"#utility.yul\":7290:7294   */\n      dup3\n        /* \"#utility.yul\":7283:7388   */\n      sstore\n        /* \"#utility.yul\":7201:7394   */\n      pop\n        /* \"#utility.yul\":7125:7394   */\n      pop\n      pop\n      pop\n      jump\t// out\n        /* \"#utility.yul\":7400:7473   */\n    tag_92:\n        /* \"#utility.yul\":7445:7448   */\n      0x00\n        /* \"#utility.yul\":7466:7467   */\n      0x00\n        /* \"#utility.yul\":7459:7467   */\n      swap1\n      pop\n        /* \"#utility.yul\":7400:7473   */\n      swap1\n      jump\t// out\n        /* \"#utility.yul\":7479:7668   */\n    tag_93:\n        /* \"#utility.yul\":7556:7588   */\n      tag_196\n      tag_92\n      jump\t// in\n    tag_196:\n        /* \"#utility.yul\":7597:7662   */\n      tag_197\n        /* \"#utility.yul\":7655:7661   */\n      dup2\n        /* \"#utility.yul\":7647:7653   */\n      dup5\n        /* \"#utility.yul\":7641:7645   */\n      dup5\n        /* \"#utility.yul\":7597:7662   */\n      tag_91\n      jump\t// in\n    tag_197:\n        /* \"#utility.yul\":7532:7668   */\n      pop\n        /* \"#utility.yul\":7479:7668   */\n      pop\n      pop\n      jump\t// out\n        /* \"#utility.yul\":7674:7860   */\n    tag_94:\n        /* \"#utility.yul\":7734:7854   */\n    tag_199:\n        /* \"#utility.yul\":7751:7754   */\n      dup2\n        /* \"#utility.yul\":7744:7749   */\n      dup2\n        /* \"#utility.yul\":7741:7755   */\n      lt\n        /* \"#utility.yul\":7734:7854   */\n      iszero\n      tag_201\n      jumpi\n        /* \"#utility.yul\":7805:7844   */\n      tag_202\n        /* \"#utility.yul\":7842:7843   */\n      0x00\n        /* \"#utility.yul\":7835:7840   */\n      dup3\n        /* \"#utility.yul\":7805:7844   */\n      tag_93\n      jump\t// in\n    tag_202:\n        /* \"#utility.yul\":7778:7779   */\n      0x01\n        /* \"#utility.yul\":7771:7776   */\n      dup2\n        /* \"#utility.yul\":7767:7780   */\n      add\n        /* \"#utility.yul\":7758:7780   */\n      swap1\n      pop\n        /* \"#utility.yul\":7734:7854   */\n      jump(tag_199)\n    tag_201:\n        /* \"#utility.yul\":7674:7860   */\n      pop\n      pop\n      jump\t// out\n        /* \"#utility.yul\":7866:8409   */\n    tag_95:\n        /* \"#utility.yul\":7967:7969   */\n      0x1f\n        /* \"#utility.yul\":7962:7965   */\n      dup3\n        /* \"#utility.yul\":7959:7970   */\n      gt\n        /* \"#utility.yul\":7956:8402   */\n      iszero\n      tag_204\n      jumpi\n        /* \"#utility.yul\":8001:8039   */\n      tag_205\n        /* \"#utility.yul\":8033:8038   */\n      dup2\n        /* \"#utility.yul\":8001:8039   */\n      tag_84\n      jump\t// in\n    tag_205:\n        /* \"#utility.yul\":8085:8114   */\n      tag_206\n        /* \"#utility.yul\":8103:8113   */\n      dup5\n        /* \"#utility.yul\":8085:8114   */\n      tag_85\n      jump\t// in\n    tag_206:\n        /* \"#utility.yul\":8075:8083   */\n      dup2\n        /* \"#utility.yul\":8071:8115   */\n      add\n        /* \"#utility.yul\":8268:8270   */\n      0x20\n        /* \"#utility.yul\":8256:8266   */\n      dup6\n        /* \"#utility.yul\":8253:8271   */\n      lt\n        /* \"#utility.yul\":8250:8299   */\n      iszero\n      tag_207\n      jumpi\n        /* \"#utility.yul\":8289:8297   */\n      dup2\n        /* \"#utility.yul\":8274:8297   */\n      swap1\n      pop\n        /* \"#utility.yul\":8250:8299   */\n    tag_207:\n        /* \"#utility.yul\":8312:8392   */\n      tag_208\n        /* \"#utility.yul\":8368:8390   */\n      tag_209\n        /* \"#utility.yul\":8386:8389   */\n      dup6\n        /* \"#utility.yul\":8368:8390   */\n      tag_85\n      jump\t// in\n    tag_209:\n        /* \"#utility.yul\":8358:8366   */\n      dup4\n        /* \"#utility.yul\":8354:8391   */\n      add\n        /* \"#utility.yul\":8341:8352   */\n      dup3\n        /* \"#utility.yul\":8312:8392   */\n      tag_94\n      jump\t// in\n    tag_208:\n        /* \"#utility.yul\":7971:8402   */\n      pop\n      pop\n        /* \"#utility.yul\":7956:8402   */\n    tag_204:\n        /* \"#utility.yul\":7866:8409   */\n      pop\n      pop\n      pop\n      jump\t// out\n        /* \"#utility.yul\":8415:8532   */\n    tag_96:\n        /* \"#utility.yul\":8469:8477   */\n      0x00\n        /* \"#utility.yul\":8519:8524   */\n      dup3\n        /* \"#utility.yul\":8513:8517   */\n      dup3\n        /* \"#utility.yul\":8509:8525   */\n      shr\n        /* \"#utility.yul\":8488:8525   */\n      swap1\n      pop\n        /* \"#utility.yul\":8415:8532   */\n      swap3\n      swap2\n      pop\n      pop\n      jump\t// out\n        /* \"#utility.yul\":8538:8707   */\n    tag_97:\n        /* \"#utility.yul\":8582:8588   */\n      0x00\n        /* \"#utility.yul\":8615:8666   */\n      tag_212\n        /* \"#utility.yul\":8663:8664   */\n      0x00\n        /* \"#utility.yul\":8659:8665   */\n      not\n        /* \"#utility.yul\":8651:8656   */\n      dup5\n        /* \"#utility.yul\":8648:8649   */\n      0x08\n        /* \"#utility.yul\":8644:8657   */\n      mul\n        /* \"#utility.yul\":8615:8666   */\n      tag_96\n      jump\t// in\n    tag_212:\n        /* \"#utility.yul\":8611:8667   */\n      not\n        /* \"#utility.yul\":8696:8700   */\n      dup1\n        /* \"#utility.yul\":8690:8694   */\n      dup4\n        /* \"#utility.yul\":8686:8701   */\n      and\n        /* \"#utility.yul\":8676:8701   */\n      swap2\n      pop\n        /* \"#utility.yul\":8589:8707   */\n      pop\n        /* \"#utility.yul\":8538:8707   */\n      swap3\n      swap2\n      pop\n      pop\n      jump\t// out\n        /* \"#utility.yul\":8712:9007   */\n    tag_98:\n        /* \"#utility.yul\":8788:8792   */\n      0x00\n        /* \"#utility.yul\":8934:8963   */\n      tag_214\n        /* \"#utility.yul\":8959:8962   */\n      dup4\n        /* \"#utility.yul\":8953:8957   */\n      dup4\n        /* \"#utility.yul\":8934:8963   */\n      tag_97\n      jump\t// in\n    tag_214:\n        /* \"#utility.yul\":8926:8963   */\n      swap2\n      pop\n        /* \"#utility.yul\":8996:8999   */\n      dup3\n        /* \"#utility.yul\":8993:8994   */\n      0x02\n        /* \"#utility.yul\":8989:9000   */\n      mul\n        /* \"#utility.yul\":8983:8987   */\n      dup3\n        /* \"#utility.yul\":8980:9001   */\n      or\n        /* \"#utility.yul\":8972:9001   */\n      swap1\n      pop\n        /* \"#utility.yul\":8712:9007   */\n      swap3\n      swap2\n      pop\n      pop\n      jump\t// out\n        /* \"#utility.yul\":9012:10407   */\n    tag_23:\n        /* \"#utility.yul\":9129:9166   */\n      tag_216\n        /* \"#utility.yul\":9162:9165   */\n      dup3\n        /* \"#utility.yul\":9129:9166   */\n      tag_80\n      jump\t// in\n    tag_216:\n        /* \"#utility.yul\":9231:9249   */\n      0xffffffffffffffff\n        /* \"#utility.yul\":9223:9229   */\n      dup2\n        /* \"#utility.yul\":9220:9250   */\n      gt\n        /* \"#utility.yul\":9217:9273   */\n      iszero\n      tag_217\n      jumpi\n        /* \"#utility.yul\":9253:9271   */\n      tag_218\n      tag_81\n      jump\t// in\n    tag_218:\n        /* \"#utility.yul\":9217:9273   */\n    tag_217:\n        /* \"#utility.yul\":9297:9335   */\n      tag_219\n        /* \"#utility.yul\":9329:9333   */\n      dup3\n        /* \"#utility.yul\":9323:9334   */\n      sload\n        /* \"#utility.yul\":9297:9335   */\n      tag_83\n      jump\t// in\n    tag_219:\n        /* \"#utility.yul\":9382:9449   */\n      tag_220\n        /* \"#utility.yul\":9442:9448   */\n      dup3\n        /* \"#utility.yul\":9434:9440   */\n      dup3\n        /* \"#utility.yul\":9428:9432   */\n      dup6\n        /* \"#utility.yul\":9382:9449   */\n      tag_95\n      jump\t// in\n    tag_220:\n        /* \"#utility.yul\":9476:9477   */\n      0x00\n        /* \"#utility.yul\":9500:9504   */\n      0x20\n        /* \"#utility.yul\":9487:9504   */\n      swap1\n      pop\n        /* \"#utility.yul\":9532:9534   */\n      0x1f\n        /* \"#utility.yul\":9524:9530   */\n      dup4\n        /* \"#utility.yul\":9521:9535   */\n      gt\n        /* \"#utility.yul\":9549:9550   */\n      0x01\n        /* \"#utility.yul\":9544:10162   */\n      dup2\n      eq\n      tag_222\n      jumpi\n        /* \"#utility.yul\":10206:10207   */\n      0x00\n        /* \"#utility.yul\":10223:10229   */\n      dup5\n        /* \"#utility.yul\":10220:10297   */\n      iszero\n      tag_223\n      jumpi\n        /* \"#utility.yul\":10272:10281   */\n      dup3\n        /* \"#utility.yul\":10267:10270   */\n      dup8\n        /* \"#utility.yul\":10263:10282   */\n      add\n        /* \"#utility.yul\":10257:10283   */\n      mload\n        /* \"#utility.yul\":10248:10283   */\n      swap1\n      pop\n        /* \"#utility.yul\":10220:10297   */\n    tag_223:\n        /* \"#utility.yul\":10323:10390   */\n      tag_224\n        /* \"#utility.yul\":10383:10389   */\n      dup6\n        /* \"#utility.yul\":10376:10381   */\n      dup3\n        /* \"#utility.yul\":10323:10390   */\n      tag_98\n      jump\t// in\n    tag_224:\n        /* \"#utility.yul\":10317:10321   */\n      dup7\n        /* \"#utility.yul\":10310:10391   */\n      sstore\n        /* \"#utility.yul\":10179:10401   */\n      pop\n        /* \"#utility.yul\":9514:10401   */\n      jump(tag_221)\n        /* \"#utility.yul\":9544:10162   */\n    tag_222:\n        /* \"#utility.yul\":9596:9600   */\n      0x1f\n        /* \"#utility.yul\":9592:9601   */\n      not\n        /* \"#utility.yul\":9584:9590   */\n      dup5\n        /* \"#utility.yul\":9580:9602   */\n      and\n        /* \"#utility.yul\":9630:9667   */\n      tag_225\n        /* \"#utility.yul\":9662:9666   */\n      dup7\n        /* \"#utility.yul\":9630:9667   */\n      tag_84\n      jump\t// in\n    tag_225:\n        /* \"#utility.yul\":9689:9690   */\n      0x00\n        /* \"#utility.yul\":9703:9911   */\n    tag_226:\n        /* \"#utility.yul\":9717:9724   */\n      dup3\n        /* \"#utility.yul\":9714:9715   */\n      dup2\n        /* \"#utility.yul\":9711:9725   */\n      lt\n        /* \"#utility.yul\":9703:9911   */\n      iszero\n      tag_228\n      jumpi\n        /* \"#utility.yul\":9796:9805   */\n      dup5\n        /* \"#utility.yul\":9791:9794   */\n      dup10\n        /* \"#utility.yul\":9787:9806   */\n      add\n        /* \"#utility.yul\":9781:9807   */\n      mload\n        /* \"#utility.yul\":9773:9779   */\n      dup3\n        /* \"#utility.yul\":9766:9808   */\n      sstore\n        /* \"#utility.yul\":9847:9848   */\n      0x01\n        /* \"#utility.yul\":9839:9845   */\n      dup3\n        /* \"#utility.yul\":9835:9849   */\n      add\n        /* \"#utility.yul\":9825:9849   */\n      swap2\n      pop\n        /* \"#utility.yul\":9894:9896   */\n      0x20\n        /* \"#utility.yul\":9883:9892   */\n      dup6\n        /* \"#utility.yul\":9879:9897   */\n      add\n        /* \"#utility.yul\":9866:9897   */\n      swap5\n      pop\n        /* \"#utility.yul\":9740:9744   */\n      0x20\n        /* \"#utility.yul\":9737:9738   */\n      dup2\n        /* \"#utility.yul\":9733:9745   */\n      add\n        /* \"#utility.yul\":9728:9745   */\n      swap1\n      pop\n        /* \"#utility.yul\":9703:9911   */\n      jump(tag_226)\n    tag_228:\n        /* \"#utility.yul\":9939:9945   */\n      dup7\n        /* \"#utility.yul\":9930:9937   */\n      dup4\n        /* \"#utility.yul\":9927:9946   */\n      lt\n        /* \"#utility.yul\":9924:10103   */\n      iszero\n      tag_229\n      jumpi\n        /* \"#utility.yul\":9997:10006   */\n      dup5\n        /* \"#utility.yul\":9992:9995   */\n      dup10\n        /* \"#utility.yul\":9988:10007   */\n      add\n        /* \"#utility.yul\":9982:10008   */\n      mload\n        /* \"#utility.yul\":10040:10088   */\n      tag_230\n        /* \"#utility.yul\":10082:10086   */\n      0x1f\n        /* \"#utility.yul\":10074:10080   */\n      dup10\n        /* \"#utility.yul\":10070:10087   */\n      and\n        /* \"#utility.yul\":10059:10068   */\n      dup3\n        /* \"#utility.yul\":10040:10088   */\n      tag_97\n      jump\t// in\n    tag_230:\n        /* \"#utility.yul\":10032:10038   */\n      dup4\n        /* \"#utility.yul\":10025:10089   */\n      sstore\n        /* \"#utility.yul\":9947:10103   */\n      pop\n        /* \"#utility.yul\":9924:10103   */\n    tag_229:\n        /* \"#utility.yul\":10149:10150   */\n      0x01\n        /* \"#utility.yul\":10145:10146   */\n      0x02\n        /* \"#utility.yul\":10137:10143   */\n      dup9\n        /* \"#utility.yul\":10133:10147   */\n      mul\n        /* \"#utility.yul\":10129:10151   */\n      add\n        /* \"#utility.yul\":10123:10127   */\n      dup9\n        /* \"#utility.yul\":10116:10152   */\n      sstore\n        /* \"#utility.yul\":9551:10162   */\n      pop\n      pop\n      pop\n        /* \"#utility.yul\":9514:10401   */\n    tag_221:\n      pop\n        /* \"#utility.yul\":9104:10407   */\n      pop\n      pop\n      pop\n        /* \"#utility.yul\":9012:10407   */\n      pop\n      pop\n      jump\t// out\n        /* \"#utility.yul\":10413:10593   */\n    tag_99:\n        /* \"#utility.yul\":10461:10538   */\n      0x4e487b7100000000000000000000000000000000000000000000000000000000\n        /* \"#utility.yul\":10458:10459   */\n      0x00\n        /* \"#utility.yul\":10451:10539   */\n      mstore\n        /* \"#utility.yul\":10558:10562   */\n      0x11\n        /* \"#utility.yul\":10555:10556   */\n      0x04\n        /* \"#utility.yul\":10548:10563   */\n      mstore\n        /* \"#utility.yul\":10582:10586   */\n      0x24\n        /* \"#utility.yul\":10579:10580   */\n      0x00\n        /* \"#utility.yul\":10572:10587   */\n      revert\n        /* \"#utility.yul\":10599:10832   */\n    tag_27:\n        /* \"#utility.yul\":10638:10641   */\n      0x00\n        /* \"#utility.yul\":10661:10685   */\n      tag_233\n        /* \"#utility.yul\":10679:10684   */\n      dup3\n        /* \"#utility.yul\":10661:10685   */\n      tag_74\n      jump\t// in\n    tag_233:\n        /* \"#utility.yul\":10652:10685   */\n      swap2\n      pop\n        /* \"#utility.yul\":10707:10773   */\n      0xffffffffffffffffffffffffffffffffffffffffffffffffffffffffffffffff\n        /* \"#utility.yul\":10700:10705   */\n      dup3\n        /* \"#utility.yul\":10697:10774   */\n      sub\n        /* \"#utility.yul\":10694:10797   */\n      tag_234\n      jumpi\n        /* \"#utility.yul\":10777:10795   */\n      tag_235\n      tag_99\n      jump\t// in\n    tag_235:\n        /* \"#utility.yul\":10694:10797   */\n    tag_234:\n        /* \"#utility.yul\":10824:10825   */\n      0x01\n        /* \"#utility.yul\":10817:10822   */\n      dup3\n        /* \"#utility.yul\":10813:10826   */\n      add\n        /* \"#utility.yul\":10806:10826   */\n      swap1\n      pop\n        /* \"#utility.yul\":10599:10832   */\n      swap2\n      swap1\n      pop\n      jump\t// out\n        /* \"#utility.yul\":10838:10946   */\n    tag_100:\n        /* \"#utility.yul\":10915:10939   */\n      tag_237\n        /* \"#utility.yul\":10933:10938   */\n      dup2\n        /* \"#utility.yul\":10915:10939   */\n      tag_74\n      jump\t// in\n    tag_237:\n        /* \"#utility.yul\":10910:10913   */\n      dup3\n        /* \"#utility.yul\":10903:10940   */\n      mstore\n        /* \"#utility.yul\":10838:10946   */\n      pop\n      pop\n      jump\t// out\n        /* \"#utility.yul\":10952:11060   */\n    tag_101:\n        /* \"#utility.yul\":11029:11053   */\n      tag_239\n        /* \"#utility.yul\":11047:11052   */\n      dup2\n        /* \"#utility.yul\":11029:11053   */\n      tag_64\n      jump\t// in\n    tag_239:\n        /* \"#utility.yul\":11024:11027   */\n      dup3\n        /* \"#utility.yul\":11017:11054   */\n      mstore\n        /* \"#utility.yul\":10952:11060   */\n      pop\n      pop\n      jump\t// out\n        /* \"#utility.yul\":11066:11225   */\n    tag_102:\n        /* \"#utility.yul\":11140:11151   */\n      0x00\n        /* \"#utility.yul\":11174:11180   */\n      dup3\n        /* \"#utility.yul\":11169:11172   */\n      dup3\n        /* \"#utility.yul\":11162:11181   */\n      mstore\n        /* \"#utility.yul\":11214:11218   */\n      0x20\n        /* \"#utility.yul\":11209:11212   */\n      dup3\n        /* \"#utility.yul\":11205:11219   */\n      add\n        /* \"#utility.yul\":11190:11219   */\n      swap1\n      pop\n        /* \"#utility.yul\":11066:11225   */\n      swap3\n      swap2\n      pop\n      pop\n      jump\t// out\n        /* \"#utility.yul\":11231:11370   */\n    tag_103:\n        /* \"#utility.yul\":11320:11326   */\n      dup3\n        /* \"#utility.yul\":11315:11318   */\n      dup2\n        /* \"#utility.yul\":11310:11313   */\n      dup4\n        /* \"#utility.yul\":11304:11327   */\n      mcopy\n        /* \"#utility.yul\":11361:11362   */\n      0x00\n        /* \"#utility.yul\":11352:11358   */\n      dup4\n        /* \"#utility.yul\":11347:11350   */\n      dup4\n        /* \"#utility.yul\":11343:11359   */\n      add\n        /* \"#utility.yul\":11336:11363   */\n      mstore\n        /* \"#utility.yul\":11231:11370   */\n      pop\n      pop\n      pop\n      jump\t// out\n        /* \"#utility.yul\":11376:11478   */\n    tag_104:\n        /* \"#utility.yul\":11417:11423   */\n      0x00\n        /* \"#utility.yul\":11468:11470   */\n      0x1f\n        /* \"#utility.yul\":11464:11471   */\n      not\n        /* \"#utility.yul\":11459:11461   */\n      0x1f\n        /* \"#utility.yul\":11452:11457   */\n      dup4\n        /* \"#utility.yul\":11448:11462   */\n      add\n        /* \"#utility.yul\":11444:11472   */\n      and\n        /* \"#utility.yul\":11434:11472   */\n      swap1\n      pop\n        /* \"#utility.yul\":11376:11478   */\n      swap2\n      swap1\n      pop\n      jump\t// out\n        /* \"#utility.yul\":11484:11841   */\n    tag_105:\n        /* \"#utility.yul\":11562:11565   */\n      0x00\n        /* \"#utility.yul\":11590:11629   */\n      tag_244\n        /* \"#utility.yul\":11623:11628   */\n      dup3\n        /* \"#utility.yul\":11590:11629   */\n      tag_80\n      jump\t// in\n    tag_244:\n        /* \"#utility.yul\":11645:11706   */\n      tag_245\n        /* \"#utility.yul\":11699:11705   */\n      dup2\n        /* \"#utility.yul\":11694:11697   */\n      dup6\n        /* \"#utility.yul\":11645:11706   */\n      tag_102\n      jump\t// in\n    tag_245:\n        /* \"#utility.yul\":11638:11706   */\n      swap4\n      pop\n        /* \"#utility.yul\":11715:11780   */\n      tag_246\n        /* \"#utility.yul\":11773:11779   */\n      dup2\n        /* \"#utility.yul\":11768:11771   */\n      dup6\n        /* \"#utility.yul\":11761:11765   */\n      0x20\n        /* \"#utility.yul\":11754:11759   */\n      dup7\n        /* \"#utility.yul\":11750:11766   */\n      add\n        /* \"#utility.yul\":11715:11780   */\n      tag_103\n      jump\t// in\n    tag_246:\n        /* \"#utility.yul\":11805:11834   */\n      tag_247\n        /* \"#utility.yul\":11827:11833   */\n      dup2\n        /* \"#utility.yul\":11805:11834   */\n      tag_104\n      jump\t// in\n    tag_247:\n        /* \"#utility.yul\":11800:11803   */\n      dup5\n        /* \"#utility.yul\":11796:11835   */\n      add\n        /* \"#utility.yul\":11789:11835   */\n      swap2\n      pop\n        /* \"#utility.yul\":11566:11841   */\n      pop\n        /* \"#utility.yul\":11484:11841   */\n      swap3\n      swap2\n      pop\n      pop\n      jump\t// out\n        /* \"#utility.yul\":11847:11952   */\n    tag_106:\n        /* \"#utility.yul\":11922:11945   */\n      tag_249\n        /* \"#utility.yul\":11939:11944   */\n      dup2\n        /* \"#utility.yul\":11922:11945   */\n      tag_71\n      jump\t// in\n    tag_249:\n        /* \"#utility.yul\":11917:11920   */\n      dup3\n        /* \"#utility.yul\":11910:11946   */\n      mstore\n        /* \"#utility.yul\":11847:11952   */\n      pop\n      pop\n      jump\t// out\n        /* \"#utility.yul\":11958:12072   */\n    tag_107:\n        /* \"#utility.yul\":12040:12041   */\n      0x03\n        /* \"#utility.yul\":12033:12038   */\n      dup2\n        /* \"#utility.yul\":12030:12042   */\n      lt\n        /* \"#utility.yul\":12020:12066   */\n      tag_251\n      jumpi\n        /* \"#utility.yul\":12046:12064   */\n      tag_252\n      tag_20\n      jump\t// in\n    tag_252:\n        /* \"#utility.yul\":12020:12066   */\n    tag_251:\n        /* \"#utility.yul\":11958:12072   */\n      pop\n      jump\t// out\n        /* \"#utility.yul\":12078:12207   */\n    tag_108:\n        /* \"#utility.yul\":12124:12131   */\n      0x00\n        /* \"#utility.yul\":12153:12158   */\n      dup2\n        /* \"#utility.yul\":12142:12158   */\n      swap1\n      pop\n        /* \"#utility.yul\":12159:12201   */\n      tag_254\n        /* \"#utility.yul\":12195:12200   */\n      dup3\n        /* \"#utility.yul\":12159:12201   */\n      tag_107\n      jump\t// in\n    tag_254:\n        /* \"#utility.yul\":12078:12207   */\n      swap2\n      swap1\n      pop\n      jump\t// out\n        /* \"#utility.yul\":12213:12342   */\n    tag_109:\n        /* \"#utility.yul\":12270:12279   */\n      0x00\n        /* \"#utility.yul\":12303:12336   */\n      tag_256\n        /* \"#utility.yul\":12330:12335   */\n      dup3\n        /* \"#utility.yul\":12303:12336   */\n      tag_108\n      jump\t// in\n    tag_256:\n        /* \"#utility.yul\":12290:12336   */\n      swap1\n      pop\n        /* \"#utility.yul\":12213:12342   */\n      swap2\n      swap1\n      pop\n      jump\t// out\n        /* \"#utility.yul\":12348:12483   */\n    tag_110:\n        /* \"#utility.yul\":12432:12476   */\n      tag_258\n        /* \"#utility.yul\":12470:12475   */\n      dup2\n        /* \"#utility.yul\":12432:12476   */\n      tag_109\n      jump\t// in\n    tag_258:\n        /* \"#utility.yul\":12427:12430   */\n      dup3\n        /* \"#utility.yul\":12420:12477   */\n      mstore\n        /* \"#utility.yul\":12348:12483   */\n      pop\n      pop\n      jump\t// out\n        /* \"#utility.yul\":12541:13676   */\n    tag_111:\n        /* \"#utility.yul\":12650:12653   */\n      0x00\n        /* \"#utility.yul\":12686:12690   */\n      0xa0\n        /* \"#utility.yul\":12681:12684   */\n      dup4\n        /* \"#utility.yul\":12677:12691   */\n      add\n        /* \"#utility.yul\":12775:12779   */\n      0x00\n        /* \"#utility.yul\":12768:12773   */\n      dup4\n        /* \"#utility.yul\":12764:12780   */\n      add\n        /* \"#utility.yul\":12758:12781   */\n      mload\n        /* \"#utility.yul\":12794:12857   */\n      tag_260\n        /* \"#utility.yul\":12851:12855   */\n      0x00\n        /* \"#utility.yul\":12846:12849   */\n      dup7\n        /* \"#utility.yul\":12842:12856   */\n      add\n        /* \"#utility.yul\":12828:12840   */\n      dup3\n        /* \"#utility.yul\":12794:12857   */\n      tag_100\n      jump\t// in\n    tag_260:\n        /* \"#utility.yul\":12701:12867   */\n      pop\n        /* \"#utility.yul\":12953:12957   */\n      0x20\n        /* \"#utility.yul\":12946:12951   */\n      dup4\n        /* \"#utility.yul\":12942:12958   */\n      add\n        /* \"#utility.yul\":12936:12959   */\n      mload\n        /* \"#utility.yul\":12972:13035   */\n      tag_261\n        /* \"#utility.yul\":13029:13033   */\n      0x20\n        /* \"#utility.yul\":13024:13027   */\n      dup7\n        /* \"#utility.yul\":13020:13034   */\n      add\n        /* \"#utility.yul\":13006:13018   */\n      dup3\n        /* \"#utility.yul\":12972:13035   */\n      tag_101\n      jump\t// in\n    tag_261:\n        /* \"#utility.yul\":12877:13045   */\n      pop\n        /* \"#utility.yul\":13127:13131   */\n      0x40\n        /* \"#utility.yul\":13120:13125   */\n      dup4\n        /* \"#utility.yul\":13116:13132   */\n      add\n        /* \"#utility.yul\":13110:13133   */\n      mload\n        /* \"#utility.yul\":13180:13183   */\n      dup5\n        /* \"#utility.yul\":13174:13178   */\n      dup3\n        /* \"#utility.yul\":13170:13184   */\n      sub\n        /* \"#utility.yul\":13163:13167   */\n      0x40\n        /* \"#utility.yul\":13158:13161   */\n      dup7\n        /* \"#utility.yul\":13154:13168   */\n      add\n        /* \"#utility.yul\":13147:13185   */\n      mstore\n        /* \"#utility.yul\":13206:13279   */\n      tag_262\n        /* \"#utility.yul\":13274:13278   */\n      dup3\n        /* \"#utility.yul\":13260:13272   */\n      dup3\n        /* \"#utility.yul\":13206:13279   */\n      tag_105\n      jump\t// in\n    tag_262:\n        /* \"#utility.yul\":13198:13279   */\n      swap2\n      pop\n        /* \"#utility.yul\":13055:13290   */\n      pop\n        /* \"#utility.yul\":13376:13380   */\n      0x60\n        /* \"#utility.yul\":13369:13374   */\n      dup4\n        /* \"#utility.yul\":13365:13381   */\n      add\n        /* \"#utility.yul\":13359:13382   */\n      mload\n        /* \"#utility.yul\":13395:13456   */\n      tag_263\n        /* \"#utility.yul\":13450:13454   */\n      0x60\n        /* \"#utility.yul\":13445:13448   */\n      dup7\n        /* \"#utility.yul\":13441:13455   */\n      add\n        /* \"#utility.yul\":13427:13439   */\n      dup3\n        /* \"#utility.yul\":13395:13456   */\n      tag_106\n      jump\t// in\n    tag_263:\n        /* \"#utility.yul\":13300:13466   */\n      pop\n        /* \"#utility.yul\":13550:13554   */\n      0x80\n        /* \"#utility.yul\":13543:13548   */\n      dup4\n        /* \"#utility.yul\":13539:13555   */\n      add\n        /* \"#utility.yul\":13533:13556   */\n      mload\n        /* \"#utility.yul\":13569:13639   */\n      tag_264\n        /* \"#utility.yul\":13633:13637   */\n      0x80\n        /* \"#utility.yul\":13628:13631   */\n      dup7\n        /* \"#utility.yul\":13624:13638   */\n      add\n        /* \"#utility.yul\":13610:13622   */\n      dup3\n        /* \"#utility.yul\":13569:13639   */\n      tag_110\n      jump\t// in\n    tag_264:\n        /* \"#utility.yul\":13476:13649   */\n      pop\n        /* \"#utility.yul\":13666:13670   */\n      dup1\n        /* \"#utility.yul\":13659:13670   */\n      swap2\n      pop\n        /* \"#utility.yul\":12655:13676   */\n      pop\n        /* \"#utility.yul\":12541:13676   */\n      swap3\n      swap2\n      pop\n      pop\n      jump\t// out\n        /* \"#utility.yul\":13682:14035   */\n    tag_29:\n        /* \"#utility.yul\":13815:13819   */\n      0x00\n        /* \"#utility.yul\":13853:13855   */\n      0x20\n        /* \"#utility.yul\":13842:13851   */\n      dup3\n        /* \"#utility.yul\":13838:13856   */\n      add\n        /* \"#utility.yul\":13830:13856   */\n      swap1\n      pop\n        /* \"#utility.yul\":13902:13911   */\n      dup2\n        /* \"#utility.yul\":13896:13900   */\n      dup2\n        /* \"#utility.yul\":13892:13912   */\n      sub\n        /* \"#utility.yul\":13888:13889   */\n      0x00\n        /* \"#utility.yul\":13877:13886   */\n      dup4\n        /* \"#utility.yul\":13873:13890   */\n      add\n        /* \"#utility.yul\":13866:13913   */\n      mstore\n        /* \"#utility.yul\":13930:14028   */\n      tag_266\n        /* \"#utility.yul\":14023:14027   */\n      dup2\n        /* \"#utility.yul\":14014:14020   */\n      dup5\n        /* \"#utility.yul\":13930:14028   */\n      tag_111\n      jump\t// in\n    tag_266:\n        /* \"#utility.yul\":13922:14028   */\n      swap1\n      pop\n        /* \"#utility.yul\":13682:14035   */\n      swap3\n      swap2\n      pop\n      pop\n      jump\t// out\n        /* \"#utility.yul\":14041:14221   */\n    tag_38:\n        /* \"#utility.yul\":14089:14166   */\n      0x4e487b7100000000000000000000000000000000000000000000000000000000\n        /* \"#utility.yul\":14086:14087   */\n      0x00\n        /* \"#utility.yul\":14079:14167   */\n      mstore\n        /* \"#utility.yul\":14186:14190   */\n      0x32\n        /* \"#utility.yul\":14183:14184   */\n      0x04\n        /* \"#utility.yul\":14176:14191   */\n      mstore\n        /* \"#utility.yul\":14210:14214   */\n      0x24\n        /* \"#utility.yul\":14207:14208   */\n      0x00\n        /* \"#utility.yul\":14200:14215   */\n      revert\n        /* \"#utility.yul\":14227:14408   */\n    tag_112:\n        /* \"#utility.yul\":14367:14400   */\n      0x54686973207461736b20697320616c726561647920636f6d706c657465642e00\n        /* \"#utility.yul\":14363:14364   */\n      0x00\n        /* \"#utility.yul\":14355:14361   */\n      dup3\n        /* \"#utility.yul\":14351:14365   */\n      add\n        /* \"#utility.yul\":14344:14401   */\n      mstore\n        /* \"#utility.yul\":14227:14408   */\n      pop\n      jump\t// out\n        /* \"#utility.yul\":14414:14780   */\n    tag_113:\n        /* \"#utility.yul\":14556:14559   */\n      0x00\n        /* \"#utility.yul\":14577:14644   */\n      tag_270\n        /* \"#utility.yul\":14641:14643   */\n      0x1f\n        /* \"#utility.yul\":14636:14639   */\n      dup4\n        /* \"#utility.yul\":14577:14644   */\n      tag_77\n      jump\t// in\n    tag_270:\n        /* \"#utility.yul\":14570:14644   */\n      swap2\n      pop\n        /* \"#utility.yul\":14653:14746   */\n      tag_271\n        /* \"#utility.yul\":14742:14745   */\n      dup3\n        /* \"#utility.yul\":14653:14746   */\n      tag_112\n      jump\t// in\n    tag_271:\n        /* \"#utility.yul\":14771:14773   */\n      0x20\n        /* \"#utility.yul\":14766:14769   */\n      dup3\n        /* \"#utility.yul\":14762:14774   */\n      add\n        /* \"#utility.yul\":14755:14774   */\n      swap1\n      pop\n        /* \"#utility.yul\":14414:14780   */\n      swap2\n      swap1\n      pop\n      jump\t// out\n        /* \"#utility.yul\":14786:15205   */\n    tag_44:\n        /* \"#utility.yul\":14952:14956   */\n      0x00\n        /* \"#utility.yul\":14990:14992   */\n      0x20\n        /* \"#utility.yul\":14979:14988   */\n      dup3\n        /* \"#utility.yul\":14975:14993   */\n      add\n        /* \"#utility.yul\":14967:14993   */\n      swap1\n      pop\n        /* \"#utility.yul\":15039:15048   */\n      dup2\n        /* \"#utility.yul\":15033:15037   */\n      dup2\n        /* \"#utility.yul\":15029:15049   */\n      sub\n        /* \"#utility.yul\":15025:15026   */\n      0x00\n        /* \"#utility.yul\":15014:15023   */\n      dup4\n        /* \"#utility.yul\":15010:15027   */\n      add\n        /* \"#utility.yul\":15003:15050   */\n      mstore\n        /* \"#utility.yul\":15067:15198   */\n      tag_273\n        /* \"#utility.yul\":15193:15197   */\n      dup2\n        /* \"#utility.yul\":15067:15198   */\n      tag_113\n      jump\t// in\n    tag_273:\n        /* \"#utility.yul\":15059:15198   */\n      swap1\n      pop\n        /* \"#utility.yul\":14786:15205   */\n      swap2\n      swap1\n      pop\n      jump\t// out\n        /* \"#utility.yul\":15211:15436   */\n    tag_114:\n        /* \"#utility.yul\":15351:15385   */\n      0x5461736b2063616e27742062652061737369676e656420746f2073616d652061\n        /* \"#utility.yul\":15347:15348   */\n      0x00\n        /* \"#utility.yul\":15339:15345   */\n      dup3\n        /* \"#utility.yul\":15335:15349   */\n      add\n        /* \"#utility.yul\":15328:15386   */\n      mstore\n        /* \"#utility.yul\":15420:15428   */\n      0x6464726573730000000000000000000000000000000000000000000000000000\n        /* \"#utility.yul\":15415:15417   */\n      0x20\n        /* \"#utility.yul\":15407:15413   */\n      dup3\n        /* \"#utility.yul\":15403:15418   */\n      add\n        /* \"#utility.yul\":15396:15429   */\n      mstore\n        /* \"#utility.yul\":15211:15436   */\n      pop\n      jump\t// out\n        /* \"#utility.yul\":15442:15808   */\n    tag_115:\n        /* \"#utility.yul\":15584:15587   */\n      0x00\n        /* \"#utility.yul\":15605:15672   */\n      tag_276\n        /* \"#utility.yul\":15669:15671   */\n      0x26\n        /* \"#utility.yul\":15664:15667   */\n      dup4\n        /* \"#utility.yul\":15605:15672   */\n      tag_77\n      jump\t// in\n    tag_276:\n        /* \"#utility.yul\":15598:15672   */\n      swap2\n      pop\n        /* \"#utility.yul\":15681:15774   */\n      tag_277\n        /* \"#utility.yul\":15770:15773   */\n      dup3\n        /* \"#utility.yul\":15681:15774   */\n      tag_114\n      jump\t// in\n    tag_277:\n        /* \"#utility.yul\":15799:15801   */\n      0x40\n        /* \"#utility.yul\":15794:15797   */\n      dup3\n        /* \"#utility.yul\":15790:15802   */\n      add\n        /* \"#utility.yul\":15783:15802   */\n      swap1\n      pop\n        /* \"#utility.yul\":15442:15808   */\n      swap2\n      swap1\n      pop\n      jump\t// out\n        /* \"#utility.yul\":15814:16233   */\n    tag_50:\n        /* \"#utility.yul\":15980:15984   */\n      0x00\n        /* \"#utility.yul\":16018:16020   */\n      0x20\n        /* \"#utility.yul\":16007:16016   */\n      dup3\n        /* \"#utility.yul\":16003:16021   */\n      add\n        /* \"#utility.yul\":15995:16021   */\n      swap1\n      pop\n        /* \"#utility.yul\":16067:16076   */\n      dup2\n        /* \"#utility.yul\":16061:16065   */\n      dup2\n        /* \"#utility.yul\":16057:16077   */\n      sub\n        /* \"#utility.yul\":16053:16054   */\n      0x00\n        /* \"#utility.yul\":16042:16051   */\n      dup4\n        /* \"#utility.yul\":16038:16055   */\n      add\n        /* \"#utility.yul\":16031:16078   */\n      mstore\n        /* \"#utility.yul\":16095:16226   */\n      tag_279\n        /* \"#utility.yul\":16221:16225   */\n      dup2\n        /* \"#utility.yul\":16095:16226   */\n      tag_115\n      jump\t// in\n    tag_279:\n        /* \"#utility.yul\":16087:16226   */\n      swap1\n      pop\n        /* \"#utility.yul\":15814:16233   */\n      swap2\n      swap1\n      pop\n      jump\t// out\n        /* \"#utility.yul\":16239:16410   */\n    tag_55:\n        /* \"#utility.yul\":16278:16281   */\n      0x00\n        /* \"#utility.yul\":16301:16325   */\n      tag_281\n        /* \"#utility.yul\":16319:16324   */\n      dup3\n        /* \"#utility.yul\":16301:16325   */\n      tag_74\n      jump\t// in\n    tag_281:\n        /* \"#utility.yul\":16292:16325   */\n      swap2\n      pop\n        /* \"#utility.yul\":16347:16351   */\n      0x00\n        /* \"#utility.yul\":16340:16345   */\n      dup3\n        /* \"#utility.yul\":16337:16352   */\n      sub\n        /* \"#utility.yul\":16334:16375   */\n      tag_282\n      jumpi\n        /* \"#utility.yul\":16355:16373   */\n      tag_283\n      tag_99\n      jump\t// in\n    tag_283:\n        /* \"#utility.yul\":16334:16375   */\n    tag_282:\n        /* \"#utility.yul\":16402:16403   */\n      0x01\n        /* \"#utility.yul\":16395:16400   */\n      dup3\n        /* \"#utility.yul\":16391:16404   */\n      sub\n        /* \"#utility.yul\":16384:16404   */\n      swap1\n      pop\n        /* \"#utility.yul\":16239:16410   */\n      swap2\n      swap1\n      pop\n      jump\t// out\n\n    auxdata: 0xa264697066735822122056b86f18b05e9895d1f03460f0d363bffa33336e96bbeff11563cf9e88f899b664736f6c634300081e0033\n}\n",
				"bytecode": {
					"linkReferences": {},
					"object": "6080604052348015600e575f5ffd5b50335f5f6101000a81548173ffffffffffffffffffffffffffffffffffffffff021916908373ffffffffffffffffffffffffffffffffffffffff160217905550600160025f3373ffffffffffffffffffffffffffffffffffffffff1673ffffffffffffffffffffffffffffffffffffffff1681526020019081526020015f2081905550610f648061009e5f395ff3fe608060405234801561000f575f5ffd5b5060043610610034575f3560e01c8063256d6a2b146100385780636f6b07db14610054575b5f5ffd5b610052600480360381019061004d919061072e565b610070565b005b61006e600480360381019061006991906107d2565b610313565b005b5f5f9054906101000a900473ffffffffffffffffffffffffffffffffffffffff1673ffffffffffffffffffffffffffffffffffffffff163373ffffffffffffffffffffffffffffffffffffffff16146100fe576040517f08c379a00000000000000000000000000000000000000000000000000000000081526004016100f5906108b6565b60405180910390fd5b5f6040518060a0016040528060018054905081526020018673ffffffffffffffffffffffffffffffffffffffff16815260200185858080601f0160208091040260200160405190810160405280939291908181526020018383808284375f81840152601f19601f8201169050808301925050505050505081526020018363ffffffff1681526020015f6002811115610199576101986108d4565b5b8152509050600181908060018154018082558091505060019003905f5260205f2090600402015f909190919091505f820151815f01556020820151816001015f6101000a81548173ffffffffffffffffffffffffffffffffffffffff021916908373ffffffffffffffffffffffffffffffffffffffff160217905550604082015181600201908161022a9190610b35565b506060820151816003015f6101000a81548163ffffffff021916908363ffffffff16021790555060808201518160030160046101000a81548160ff0219169083600281111561027c5761027b6108d4565b5b0217905550505060025f8673ffffffffffffffffffffffffffffffffffffffff1673ffffffffffffffffffffffffffffffffffffffff1681526020019081526020015f205f8154809291906102d090610c31565b91905055507f728537006fe8b64e571fa9b822bb2a9a411dea9828b4cb2d373c79654ccc00b0816040516103049190610dc4565b60405180910390a15050505050565b5f5f9054906101000a900473ffffffffffffffffffffffffffffffffffffffff1673ffffffffffffffffffffffffffffffffffffffff163373ffffffffffffffffffffffffffffffffffffffff16146103a1576040517f08c379a0000000000000000000000000000000000000000000000000000000008152600401610398906108b6565b60405180910390fd5b5f60028111156103b4576103b36108d4565b5b600183815481106103c8576103c7610de4565b5b905f5260205f20906004020160030160049054906101000a900460ff1660028111156103f7576103f66108d4565b5b14610437576040517f08c379a000000000000000000000000000000000000000000000000000000000815260040161042e90610e5b565b60405180910390fd5b8073ffffffffffffffffffffffffffffffffffffffff166001838154811061046257610461610de4565b5b905f5260205f2090600402016001015f9054906101000a900473ffffffffffffffffffffffffffffffffffffffff1673ffffffffffffffffffffffffffffffffffffffff16036104e7576040517f08c379a00000000000000000000000000000000000000000000000000000000081526004016104de90610ee9565b60405180910390fd5b60025f600184815481106104fe576104fd610de4565b5b905f5260205f2090600402016001015f9054906101000a900473ffffffffffffffffffffffffffffffffffffffff1673ffffffffffffffffffffffffffffffffffffffff1673ffffffffffffffffffffffffffffffffffffffff1681526020019081526020015f205f81548092919061057690610f07565b919050555080600183815481106105905761058f610de4565b5b905f5260205f2090600402016001015f6101000a81548173ffffffffffffffffffffffffffffffffffffffff021916908373ffffffffffffffffffffffffffffffffffffffff16021790555060025f8273ffffffffffffffffffffffffffffffffffffffff1673ffffffffffffffffffffffffffffffffffffffff1681526020019081526020015f205f81548092919061062990610c31565b91905055505050565b5f5ffd5b5f5ffd5b5f73ffffffffffffffffffffffffffffffffffffffff82169050919050565b5f6106638261063a565b9050919050565b61067381610659565b811461067d575f5ffd5b50565b5f8135905061068e8161066a565b92915050565b5f5ffd5b5f5ffd5b5f5ffd5b5f5f83601f8401126106b5576106b4610694565b5b8235905067ffffffffffffffff8111156106d2576106d1610698565b5b6020830191508360018202830111156106ee576106ed61069c565b5b9250929050565b5f63ffffffff82169050919050565b61070d816106f5565b8114610717575f5ffd5b50565b5f8135905061072881610704565b92915050565b5f5f5f5f6060858703121561074657610745610632565b5b5f61075387828801610680565b945050602085013567ffffffffffffffff81111561077457610773610636565b5b610780878288016106a0565b935093505060406107938782880161071a565b91505092959194509250565b5f819050919050565b6107b18161079f565b81146107bb575f5ffd5b50565b5f813590506107cc816107a8565b92915050565b5f5f604083850312156107e8576107e7610632565b5b5f6107f5858286016107be565b925050602061080685828601610680565b9150509250929050565b5f82825260208201905092915050565b7f546869732066756e6374696f6e2063616e206265206f6e6c79206578656375745f8201527f652062792041737369676e65722c2061646472657373206973206e6f7420617360208201527f7369676e65722e00000000000000000000000000000000000000000000000000604082015250565b5f6108a0604783610810565b91506108ab82610820565b606082019050919050565b5f6020820190508181035f8301526108cd81610894565b9050919050565b7f4e487b71000000000000000000000000000000000000000000000000000000005f52602160045260245ffd5b5f81519050919050565b7f4e487b71000000000000000000000000000000000000000000000000000000005f52604160045260245ffd5b7f4e487b71000000000000000000000000000000000000000000000000000000005f52602260045260245ffd5b5f600282049050600182168061097c57607f821691505b60208210810361098f5761098e610938565b5b50919050565b5f819050815f5260205f209050919050565b5f6020601f8301049050919050565b5f82821b905092915050565b5f600883026109f17fffffffffffffffffffffffffffffffffffffffffffffffffffffffffffffffff826109b6565b6109fb86836109b6565b95508019841693508086168417925050509392505050565b5f819050919050565b5f610a36610a31610a2c8461079f565b610a13565b61079f565b9050919050565b5f819050919050565b610a4f83610a1c565b610a63610a5b82610a3d565b8484546109c2565b825550505050565b5f5f905090565b610a7a610a6b565b610a85818484610a46565b505050565b5b81811015610aa857610a9d5f82610a72565b600181019050610a8b565b5050565b601f821115610aed57610abe81610995565b610ac7846109a7565b81016020851015610ad6578190505b610aea610ae2856109a7565b830182610a8a565b50505b505050565b5f82821c905092915050565b5f610b0d5f1984600802610af2565b1980831691505092915050565b5f610b258383610afe565b9150826002028217905092915050565b610b3e82610901565b67ffffffffffffffff811115610b5757610b5661090b565b5b610b618254610965565b610b6c828285610aac565b5f60209050601f831160018114610b9d575f8415610b8b578287015190505b610b958582610b1a565b865550610bfc565b601f198416610bab86610995565b5f5b82811015610bd257848901518255600182019150602085019450602081019050610bad565b86831015610bef5784890151610beb601f891682610afe565b8355505b6001600288020188555050505b505050505050565b7f4e487b71000000000000000000000000000000000000000000000000000000005f52601160045260245ffd5b5f610c3b8261079f565b91507fffffffffffffffffffffffffffffffffffffffffffffffffffffffffffffffff8203610c6d57610c6c610c04565b5b600182019050919050565b610c818161079f565b82525050565b610c9081610659565b82525050565b5f82825260208201905092915050565b8281835e5f83830152505050565b5f601f19601f8301169050919050565b5f610cce82610901565b610cd88185610c96565b9350610ce8818560208601610ca6565b610cf181610cb4565b840191505092915050565b610d05816106f5565b82525050565b60038110610d1c57610d1b6108d4565b5b50565b5f819050610d2c82610d0b565b919050565b5f610d3b82610d1f565b9050919050565b610d4b81610d31565b82525050565b5f60a083015f830151610d665f860182610c78565b506020830151610d796020860182610c87565b5060408301518482036040860152610d918282610cc4565b9150506060830151610da66060860182610cfc565b506080830151610db96080860182610d42565b508091505092915050565b5f6020820190508181035f830152610ddc8184610d51565b905092915050565b7f4e487b71000000000000000000000000000000000000000000000000000000005f52603260045260245ffd5b7f54686973207461736b20697320616c726561647920636f6d706c657465642e005f82015250565b5f610e45601f83610810565b9150610e5082610e11565b602082019050919050565b5f6020820190508181035f830152610e7281610e39565b9050919050565b7f5461736b2063616e27742062652061737369676e656420746f2073616d6520615f8201527f6464726573730000000000000000000000000000000000000000000000000000602082015250565b5f610ed3602683610810565b9150610ede82610e79565b604082019050919050565b5f6020820190508181035f830152610f0081610ec7565b9050919050565b5f610f118261079f565b91505f8203610f2357610f22610c04565b5b60018203905091905056fea264697066735822122056b86f18b05e9895d1f03460f0d363bffa33336e96bbeff11563cf9e88f899b664736f6c634300081e0033",
					"opcodes": "PUSH1 0x80 PUSH1 0x40 MSTORE CALLVALUE DUP1 ISZERO PUSH1 0xE JUMPI PUSH0 PUSH0 REVERT JUMPDEST POP CALLER PUSH0 PUSH0 PUSH2 0x100 EXP DUP2 SLOAD DUP2 PUSH20 0xFFFFFFFFFFFFFFFFFFFFFFFFFFFFFFFFFFFFFFFF MUL NOT AND SWAP1 DUP4 PUSH20 0xFFFFFFFFFFFFFFFFFFFFFFFFFFFFFFFFFFFFFFFF AND MUL OR SWAP1 SSTORE POP PUSH1 0x1 PUSH1 0x2 PUSH0 CALLER PUSH20 0xFFFFFFFFFFFFFFFFFFFFFFFFFFFFFFFFFFFFFFFF AND PUSH20 0xFFFFFFFFFFFFFFFFFFFFFFFFFFFFFFFFFFFFFFFF AND DUP2 MSTORE PUSH1 0x20 ADD SWAP1 DUP2 MSTORE PUSH1 0x20 ADD PUSH0 KECCAK256 DUP2 SWAP1 SSTORE POP PUSH2 0xF64 DUP1 PUSH2 0x9E PUSH0 CODECOPY PUSH0 RETURN INVALID PUSH1 0x80 PUSH1 0x40 MSTORE CALLVALUE DUP1 ISZERO PUSH2 0xF JUMPI PUSH0 PUSH0 REVERT JUMPDEST POP PUSH1 0x4 CALLDATASIZE LT PUSH2 0x34 JUMPI PUSH0 CALLDATALOAD PUSH1 0xE0 SHR DUP1 PUSH4 0x256D6A2B EQ PUSH2 0x38 JUMPI DUP1 PUSH4 0x6F6B07DB EQ PUSH2 0x54 JUMPI JUMPDEST PUSH0 PUSH0 REVERT JUMPDEST PUSH2 0x52 PUSH1 0x4 DUP1 CALLDATASIZE SUB DUP2 ADD SWAP1 PUSH2 0x4D SWAP2 SWAP1 PUSH2 0x72E JUMP JUMPDEST PUSH2 0x70 JUMP JUMPDEST STOP JUMPDEST PUSH2 0x6E PUSH1 0x4 DUP1 CALLDATASIZE SUB DUP2 ADD SWAP1 PUSH2 0x69 SWAP2 SWAP1 PUSH2 0x7D2 JUMP JUMPDEST PUSH2 0x313 JUMP JUMPDEST STOP JUMPDEST PUSH0 PUSH0 SWAP1 SLOAD SWAP1 PUSH2 0x100 EXP SWAP1 DIV PUSH20 0xFFFFFFFFFFFFFFFFFFFFFFFFFFFFFFFFFFFFFFFF AND PUSH20 0xFFFFFFFFFFFFFFFFFFFFFFFFFFFFFFFFFFFFFFFF AND CALLER PUSH20 0xFFFFFFFFFFFFFFFFFFFFFFFFFFFFFFFFFFFFFFFF AND EQ PUSH2 0xFE JUMPI PUSH1 0x40 MLOAD PUSH32 0x8C379A000000000000000000000000000000000000000000000000000000000 DUP2 MSTORE PUSH1 0x4 ADD PUSH2 0xF5 SWAP1 PUSH2 0x8B6 JUMP JUMPDEST PUSH1 0x40 MLOAD DUP1 SWAP2 SUB SWAP1 REVERT JUMPDEST PUSH0 PUSH1 0x40 MLOAD DUP1 PUSH1 0xA0 ADD PUSH1 0x40 MSTORE DUP1 PUSH1 0x1 DUP1 SLOAD SWAP1 POP DUP2 MSTORE PUSH1 0x20 ADD DUP7 PUSH20 0xFFFFFFFFFFFFFFFFFFFFFFFFFFFFFFFFFFFFFFFF AND DUP2 MSTORE PUSH1 0x20 ADD DUP6 DUP6 DUP1 DUP1 PUSH1 0x1F ADD PUSH1 0x20 DUP1 SWAP2 DIV MUL PUSH1 0x20 ADD PUSH1 0x40 MLOAD SWAP1 DUP2 ADD PUSH1 0x40 MSTORE DUP1 SWAP4 SWAP3 SWAP2 SWAP1 DUP2 DUP2 MSTORE PUSH1 0x20 ADD DUP4 DUP4 DUP1 DUP3 DUP5 CALLDATACOPY PUSH0 DUP2 DUP5 ADD MSTORE PUSH1 0x1F NOT PUSH1 0x1F DUP3 ADD AND SWAP1 POP DUP1 DUP4 ADD SWAP3 POP POP POP POP POP POP POP DUP2 MSTORE PUSH1 0x20 ADD DUP4 PUSH4 0xFFFFFFFF AND DUP2 MSTORE PUSH1 0x20 ADD PUSH0 PUSH1 0x2 DUP2 GT ISZERO PUSH2 0x199 JUMPI PUSH2 0x198 PUSH2 0x8D4 JUMP JUMPDEST JUMPDEST DUP2 MSTORE POP SWAP1 POP PUSH1 0x1 DUP2 SWAP1 DUP1 PUSH1 0x1 DUP2 SLOAD ADD DUP1 DUP3 SSTORE DUP1 SWAP2 POP POP PUSH1 0x1 SWAP1 SUB SWAP1 PUSH0 MSTORE PUSH1 0x20 PUSH0 KECCAK256 SWAP1 PUSH1 0x4 MUL ADD PUSH0 SWAP1 SWAP2 SWAP1 SWAP2 SWAP1 SWAP2 POP PUSH0 DUP3 ADD MLOAD DUP2 PUSH0 ADD SSTORE PUSH1 0x20 DUP3 ADD MLOAD DUP2 PUSH1 0x1 ADD PUSH0 PUSH2 0x100 EXP DUP2 SLOAD DUP2 PUSH20 0xFFFFFFFFFFFFFFFFFFFFFFFFFFFFFFFFFFFFFFFF MUL NOT AND SWAP1 DUP4 PUSH20 0xFFFFFFFFFFFFFFFFFFFFFFFFFFFFFFFFFFFFFFFF AND MUL OR SWAP1 SSTORE POP PUSH1 0x40 DUP3 ADD MLOAD DUP2 PUSH1 0x2 ADD SWAP1 DUP2 PUSH2 0x22A SWAP2 SWAP1 PUSH2 0xB35 JUMP JUMPDEST POP PUSH1 0x60 DUP3 ADD MLOAD DUP2 PUSH1 0x3 ADD PUSH0 PUSH2 0x100 EXP DUP2 SLOAD DUP2 PUSH4 0xFFFFFFFF MUL NOT AND SWAP1 DUP4 PUSH4 0xFFFFFFFF AND MUL OR SWAP1 SSTORE POP PUSH1 0x80 DUP3 ADD MLOAD DUP2 PUSH1 0x3 ADD PUSH1 0x4 PUSH2 0x100 EXP DUP2 SLOAD DUP2 PUSH1 0xFF MUL NOT AND SWAP1 DUP4 PUSH1 0x2 DUP2 GT ISZERO PUSH2 0x27C JUMPI PUSH2 0x27B PUSH2 0x8D4 JUMP JUMPDEST JUMPDEST MUL OR SWAP1 SSTORE POP POP POP PUSH1 0x2 PUSH0 DUP7 PUSH20 0xFFFFFFFFFFFFFFFFFFFFFFFFFFFFFFFFFFFFFFFF AND PUSH20 0xFFFFFFFFFFFFFFFFFFFFFFFFFFFFFFFFFFFFFFFF AND DUP2 MSTORE PUSH1 0x20 ADD SWAP1 DUP2 MSTORE PUSH1 0x20 ADD PUSH0 KECCAK256 PUSH0 DUP2 SLOAD DUP1 SWAP3 SWAP2 SWAP1 PUSH2 0x2D0 SWAP1 PUSH2 0xC31 JUMP JUMPDEST SWAP2 SWAP1 POP SSTORE POP PUSH32 0x728537006FE8B64E571FA9B822BB2A9A411DEA9828B4CB2D373C79654CCC00B0 DUP2 PUSH1 0x40 MLOAD PUSH2 0x304 SWAP2 SWAP1 PUSH2 0xDC4 JUMP JUMPDEST PUSH1 0x40 MLOAD DUP1 SWAP2 SUB SWAP1 LOG1 POP POP POP POP POP JUMP JUMPDEST PUSH0 PUSH0 SWAP1 SLOAD SWAP1 PUSH2 0x100 EXP SWAP1 DIV PUSH20 0xFFFFFFFFFFFFFFFFFFFFFFFFFFFFFFFFFFFFFFFF AND PUSH20 0xFFFFFFFFFFFFFFFFFFFFFFFFFFFFFFFFFFFFFFFF AND CALLER PUSH20 0xFFFFFFFFFFFFFFFFFFFFFFFFFFFFFFFFFFFFFFFF AND EQ PUSH2 0x3A1 JUMPI PUSH1 0x40 MLOAD PUSH32 0x8C379A000000000000000000000000000000000000000000000000000000000 DUP2 MSTORE PUSH1 0x4 ADD PUSH2 0x398 SWAP1 PUSH2 0x8B6 JUMP JUMPDEST PUSH1 0x40 MLOAD DUP1 SWAP2 SUB SWAP1 REVERT JUMPDEST PUSH0 PUSH1 0x2 DUP2 GT ISZERO PUSH2 0x3B4 JUMPI PUSH2 0x3B3 PUSH2 0x8D4 JUMP JUMPDEST JUMPDEST PUSH1 0x1 DUP4 DUP2 SLOAD DUP2 LT PUSH2 0x3C8 JUMPI PUSH2 0x3C7 PUSH2 0xDE4 JUMP JUMPDEST JUMPDEST SWAP1 PUSH0 MSTORE PUSH1 0x20 PUSH0 KECCAK256 SWAP1 PUSH1 0x4 MUL ADD PUSH1 0x3 ADD PUSH1 0x4 SWAP1 SLOAD SWAP1 PUSH2 0x100 EXP SWAP1 DIV PUSH1 0xFF AND PUSH1 0x2 DUP2 GT ISZERO PUSH2 0x3F7 JUMPI PUSH2 0x3F6 PUSH2 0x8D4 JUMP JUMPDEST JUMPDEST EQ PUSH2 0x437 JUMPI PUSH1 0x40 MLOAD PUSH32 0x8C379A000000000000000000000000000000000000000000000000000000000 DUP2 MSTORE PUSH1 0x4 ADD PUSH2 0x42E SWAP1 PUSH2 0xE5B JUMP JUMPDEST PUSH1 0x40 MLOAD DUP1 SWAP2 SUB SWAP1 REVERT JUMPDEST DUP1 PUSH20 0xFFFFFFFFFFFFFFFFFFFFFFFFFFFFFFFFFFFFFFFF AND PUSH1 0x1 DUP4 DUP2 SLOAD DUP2 LT PUSH2 0x462 JUMPI PUSH2 0x461 PUSH2 0xDE4 JUMP JUMPDEST JUMPDEST SWAP1 PUSH0 MSTORE PUSH1 0x20 PUSH0 KECCAK256 SWAP1 PUSH1 0x4 MUL ADD PUSH1 0x1 ADD PUSH0 SWAP1 SLOAD SWAP1 PUSH2 0x100 EXP SWAP1 DIV PUSH20 0xFFFFFFFFFFFFFFFFFFFFFFFFFFFFFFFFFFFFFFFF AND PUSH20 0xFFFFFFFFFFFFFFFFFFFFFFFFFFFFFFFFFFFFFFFF AND SUB PUSH2 0x4E7 JUMPI PUSH1 0x40 MLOAD PUSH32 0x8C379A000000000000000000000000000000000000000000000000000000000 DUP2 MSTORE PUSH1 0x4 ADD PUSH2 0x4DE SWAP1 PUSH2 0xEE9 JUMP JUMPDEST PUSH1 0x40 MLOAD DUP1 SWAP2 SUB SWAP1 REVERT JUMPDEST PUSH1 0x2 PUSH0 PUSH1 0x1 DUP5 DUP2 SLOAD DUP2 LT PUSH2 0x4FE JUMPI PUSH2 0x4FD PUSH2 0xDE4 JUMP JUMPDEST JUMPDEST SWAP1 PUSH0 MSTORE PUSH1 0x20 PUSH0 KECCAK256 SWAP1 PUSH1 0x4 MUL ADD PUSH1 0x1 ADD PUSH0 SWAP1 SLOAD SWAP1 PUSH2 0x100 EXP SWAP1 DIV PUSH20 0xFFFFFFFFFFFFFFFFFFFFFFFFFFFFFFFFFFFFFFFF AND PUSH20 0xFFFFFFFFFFFFFFFFFFFFFFFFFFFFFFFFFFFFFFFF AND PUSH20 0xFFFFFFFFFFFFFFFFFFFFFFFFFFFFFFFFFFFFFFFF AND DUP2 MSTORE PUSH1 0x20 ADD SWAP1 DUP2 MSTORE PUSH1 0x20 ADD PUSH0 KECCAK256 PUSH0 DUP2 SLOAD DUP1 SWAP3 SWAP2 SWAP1 PUSH2 0x576 SWAP1 PUSH2 0xF07 JUMP JUMPDEST SWAP2 SWAP1 POP SSTORE POP DUP1 PUSH1 0x1 DUP4 DUP2 SLOAD DUP2 LT PUSH2 0x590 JUMPI PUSH2 0x58F PUSH2 0xDE4 JUMP JUMPDEST JUMPDEST SWAP1 PUSH0 MSTORE PUSH1 0x20 PUSH0 KECCAK256 SWAP1 PUSH1 0x4 MUL ADD PUSH1 0x1 ADD PUSH0 PUSH2 0x100 EXP DUP2 SLOAD DUP2 PUSH20 0xFFFFFFFFFFFFFFFFFFFFFFFFFFFFFFFFFFFFFFFF MUL NOT AND SWAP1 DUP4 PUSH20 0xFFFFFFFFFFFFFFFFFFFFFFFFFFFFFFFFFFFFFFFF AND MUL OR SWAP1 SSTORE POP PUSH1 0x2 PUSH0 DUP3 PUSH20 0xFFFFFFFFFFFFFFFFFFFFFFFFFFFFFFFFFFFFFFFF AND PUSH20 0xFFFFFFFFFFFFFFFFFFFFFFFFFFFFFFFFFFFFFFFF AND DUP2 MSTORE PUSH1 0x20 ADD SWAP1 DUP2 MSTORE PUSH1 0x20 ADD PUSH0 KECCAK256 PUSH0 DUP2 SLOAD DUP1 SWAP3 SWAP2 SWAP1 PUSH2 0x629 SWAP1 PUSH2 0xC31 JUMP JUMPDEST SWAP2 SWAP1 POP SSTORE POP POP POP JUMP JUMPDEST PUSH0 PUSH0 REVERT JUMPDEST PUSH0 PUSH0 REVERT JUMPDEST PUSH0 PUSH20 0xFFFFFFFFFFFFFFFFFFFFFFFFFFFFFFFFFFFFFFFF DUP3 AND SWAP1 POP SWAP2 SWAP1 POP JUMP JUMPDEST PUSH0 PUSH2 0x663 DUP3 PUSH2 0x63A JUMP JUMPDEST SWAP1 POP SWAP2 SWAP1 POP JUMP JUMPDEST PUSH2 0x673 DUP2 PUSH2 0x659 JUMP JUMPDEST DUP2 EQ PUSH2 0x67D JUMPI PUSH0 PUSH0 REVERT JUMPDEST POP JUMP JUMPDEST PUSH0 DUP2 CALLDATALOAD SWAP1 POP PUSH2 0x68E DUP2 PUSH2 0x66A JUMP JUMPDEST SWAP3 SWAP2 POP POP JUMP JUMPDEST PUSH0 PUSH0 REVERT JUMPDEST PUSH0 PUSH0 REVERT JUMPDEST PUSH0 PUSH0 REVERT JUMPDEST PUSH0 PUSH0 DUP4 PUSH1 0x1F DUP5 ADD SLT PUSH2 0x6B5 JUMPI PUSH2 0x6B4 PUSH2 0x694 JUMP JUMPDEST JUMPDEST DUP3 CALLDATALOAD SWAP1 POP PUSH8 0xFFFFFFFFFFFFFFFF DUP2 GT ISZERO PUSH2 0x6D2 JUMPI PUSH2 0x6D1 PUSH2 0x698 JUMP JUMPDEST JUMPDEST PUSH1 0x20 DUP4 ADD SWAP2 POP DUP4 PUSH1 0x1 DUP3 MUL DUP4 ADD GT ISZERO PUSH2 0x6EE JUMPI PUSH2 0x6ED PUSH2 0x69C JUMP JUMPDEST JUMPDEST SWAP3 POP SWAP3 SWAP1 POP JUMP JUMPDEST PUSH0 PUSH4 0xFFFFFFFF DUP3 AND SWAP1 POP SWAP2 SWAP1 POP JUMP JUMPDEST PUSH2 0x70D DUP2 PUSH2 0x6F5 JUMP JUMPDEST DUP2 EQ PUSH2 0x717 JUMPI PUSH0 PUSH0 REVERT JUMPDEST POP JUMP JUMPDEST PUSH0 DUP2 CALLDATALOAD SWAP1 POP PUSH2 0x728 DUP2 PUSH2 0x704 JUMP JUMPDEST SWAP3 SWAP2 POP POP JUMP JUMPDEST PUSH0 PUSH0 PUSH0 PUSH0 PUSH1 0x60 DUP6 DUP8 SUB SLT ISZERO PUSH2 0x746 JUMPI PUSH2 0x745 PUSH2 0x632 JUMP JUMPDEST JUMPDEST PUSH0 PUSH2 0x753 DUP8 DUP3 DUP9 ADD PUSH2 0x680 JUMP JUMPDEST SWAP5 POP POP PUSH1 0x20 DUP6 ADD CALLDATALOAD PUSH8 0xFFFFFFFFFFFFFFFF DUP2 GT ISZERO PUSH2 0x774 JUMPI PUSH2 0x773 PUSH2 0x636 JUMP JUMPDEST JUMPDEST PUSH2 0x780 DUP8 DUP3 DUP9 ADD PUSH2 0x6A0 JUMP JUMPDEST SWAP4 POP SWAP4 POP POP PUSH1 0x40 PUSH2 0x793 DUP8 DUP3 DUP9 ADD PUSH2 0x71A JUMP JUMPDEST SWAP2 POP POP SWAP3 SWAP6 SWAP2 SWAP5 POP SWAP3 POP JUMP JUMPDEST PUSH0 DUP2 SWAP1 POP SWAP2 SWAP1 POP JUMP JUMPDEST PUSH2 0x7B1 DUP2 PUSH2 0x79F JUMP JUMPDEST DUP2 EQ PUSH2 0x7BB JUMPI PUSH0 PUSH0 REVERT JUMPDEST POP JUMP JUMPDEST PUSH0 DUP2 CALLDATALOAD SWAP1 POP PUSH2 0x7CC DUP2 PUSH2 0x7A8 JUMP JUMPDEST SWAP3 SWAP2 POP POP JUMP JUMPDEST PUSH0 PUSH0 PUSH1 0x40 DUP4 DUP6 SUB SLT ISZERO PUSH2 0x7E8 JUMPI PUSH2 0x7E7 PUSH2 0x632 JUMP JUMPDEST JUMPDEST PUSH0 PUSH2 0x7F5 DUP6 DUP3 DUP7 ADD PUSH2 0x7BE JUMP JUMPDEST SWAP3 POP POP PUSH1 0x20 PUSH2 0x806 DUP6 DUP3 DUP7 ADD PUSH2 0x680 JUMP JUMPDEST SWAP2 POP POP SWAP3 POP SWAP3 SWAP1 POP JUMP JUMPDEST PUSH0 DUP3 DUP3 MSTORE PUSH1 0x20 DUP3 ADD SWAP1 POP SWAP3 SWAP2 POP POP JUMP JUMPDEST PUSH32 0x546869732066756E6374696F6E2063616E206265206F6E6C7920657865637574 PUSH0 DUP3 ADD MSTORE PUSH32 0x652062792041737369676E65722C2061646472657373206973206E6F74206173 PUSH1 0x20 DUP3 ADD MSTORE PUSH32 0x7369676E65722E00000000000000000000000000000000000000000000000000 PUSH1 0x40 DUP3 ADD MSTORE POP JUMP JUMPDEST PUSH0 PUSH2 0x8A0 PUSH1 0x47 DUP4 PUSH2 0x810 JUMP JUMPDEST SWAP2 POP PUSH2 0x8AB DUP3 PUSH2 0x820 JUMP JUMPDEST PUSH1 0x60 DUP3 ADD SWAP1 POP SWAP2 SWAP1 POP JUMP JUMPDEST PUSH0 PUSH1 0x20 DUP3 ADD SWAP1 POP DUP2 DUP2 SUB PUSH0 DUP4 ADD MSTORE PUSH2 0x8CD DUP2 PUSH2 0x894 JUMP JUMPDEST SWAP1 POP SWAP2 SWAP1 POP JUMP JUMPDEST PUSH32 0x4E487B7100000000000000000000000000000000000000000000000000000000 PUSH0 MSTORE PUSH1 0x21 PUSH1 0x4 MSTORE PUSH1 0x24 PUSH0 REVERT JUMPDEST PUSH0 DUP2 MLOAD SWAP1 POP SWAP2 SWAP1 POP JUMP JUMPDEST PUSH32 0x4E487B7100000000000000000000000000000000000000000000000000000000 PUSH0 MSTORE PUSH1 0x41 PUSH1 0x4 MSTORE PUSH1 0x24 PUSH0 REVERT JUMPDEST PUSH32 0x4E487B7100000000000000000000000000000000000000000000000000000000 PUSH0 MSTORE PUSH1 0x22 PUSH1 0x4 MSTORE PUSH1 0x24 PUSH0 REVERT JUMPDEST PUSH0 PUSH1 0x2 DUP3 DIV SWAP1 POP PUSH1 0x1 DUP3 AND DUP1 PUSH2 0x97C JUMPI PUSH1 0x7F DUP3 AND SWAP2 POP JUMPDEST PUSH1 0x20 DUP3 LT DUP2 SUB PUSH2 0x98F JUMPI PUSH2 0x98E PUSH2 0x938 JUMP JUMPDEST JUMPDEST POP SWAP2 SWAP1 POP JUMP JUMPDEST PUSH0 DUP2 SWAP1 POP DUP2 PUSH0 MSTORE PUSH1 0x20 PUSH0 KECCAK256 SWAP1 POP SWAP2 SWAP1 POP JUMP JUMPDEST PUSH0 PUSH1 0x20 PUSH1 0x1F DUP4 ADD DIV SWAP1 POP SWAP2 SWAP1 POP JUMP JUMPDEST PUSH0 DUP3 DUP3 SHL SWAP1 POP SWAP3 SWAP2 POP POP JUMP JUMPDEST PUSH0 PUSH1 0x8 DUP4 MUL PUSH2 0x9F1 PUSH32 0xFFFFFFFFFFFFFFFFFFFFFFFFFFFFFFFFFFFFFFFFFFFFFFFFFFFFFFFFFFFFFFFF DUP3 PUSH2 0x9B6 JUMP JUMPDEST PUSH2 0x9FB DUP7 DUP4 PUSH2 0x9B6 JUMP JUMPDEST SWAP6 POP DUP1 NOT DUP5 AND SWAP4 POP DUP1 DUP7 AND DUP5 OR SWAP3 POP POP POP SWAP4 SWAP3 POP POP POP JUMP JUMPDEST PUSH0 DUP2 SWAP1 POP SWAP2 SWAP1 POP JUMP JUMPDEST PUSH0 PUSH2 0xA36 PUSH2 0xA31 PUSH2 0xA2C DUP5 PUSH2 0x79F JUMP JUMPDEST PUSH2 0xA13 JUMP JUMPDEST PUSH2 0x79F JUMP JUMPDEST SWAP1 POP SWAP2 SWAP1 POP JUMP JUMPDEST PUSH0 DUP2 SWAP1 POP SWAP2 SWAP1 POP JUMP JUMPDEST PUSH2 0xA4F DUP4 PUSH2 0xA1C JUMP JUMPDEST PUSH2 0xA63 PUSH2 0xA5B DUP3 PUSH2 0xA3D JUMP JUMPDEST DUP5 DUP5 SLOAD PUSH2 0x9C2 JUMP JUMPDEST DUP3 SSTORE POP POP POP POP JUMP JUMPDEST PUSH0 PUSH0 SWAP1 POP SWAP1 JUMP JUMPDEST PUSH2 0xA7A PUSH2 0xA6B JUMP JUMPDEST PUSH2 0xA85 DUP2 DUP5 DUP5 PUSH2 0xA46 JUMP JUMPDEST POP POP POP JUMP JUMPDEST JUMPDEST DUP2 DUP2 LT ISZERO PUSH2 0xAA8 JUMPI PUSH2 0xA9D PUSH0 DUP3 PUSH2 0xA72 JUMP JUMPDEST PUSH1 0x1 DUP2 ADD SWAP1 POP PUSH2 0xA8B JUMP JUMPDEST POP POP JUMP JUMPDEST PUSH1 0x1F DUP3 GT ISZERO PUSH2 0xAED JUMPI PUSH2 0xABE DUP2 PUSH2 0x995 JUMP JUMPDEST PUSH2 0xAC7 DUP5 PUSH2 0x9A7 JUMP JUMPDEST DUP2 ADD PUSH1 0x20 DUP6 LT ISZERO PUSH2 0xAD6 JUMPI DUP2 SWAP1 POP JUMPDEST PUSH2 0xAEA PUSH2 0xAE2 DUP6 PUSH2 0x9A7 JUMP JUMPDEST DUP4 ADD DUP3 PUSH2 0xA8A JUMP JUMPDEST POP POP JUMPDEST POP POP POP JUMP JUMPDEST PUSH0 DUP3 DUP3 SHR SWAP1 POP SWAP3 SWAP2 POP POP JUMP JUMPDEST PUSH0 PUSH2 0xB0D PUSH0 NOT DUP5 PUSH1 0x8 MUL PUSH2 0xAF2 JUMP JUMPDEST NOT DUP1 DUP4 AND SWAP2 POP POP SWAP3 SWAP2 POP POP JUMP JUMPDEST PUSH0 PUSH2 0xB25 DUP4 DUP4 PUSH2 0xAFE JUMP JUMPDEST SWAP2 POP DUP3 PUSH1 0x2 MUL DUP3 OR SWAP1 POP SWAP3 SWAP2 POP POP JUMP JUMPDEST PUSH2 0xB3E DUP3 PUSH2 0x901 JUMP JUMPDEST PUSH8 0xFFFFFFFFFFFFFFFF DUP2 GT ISZERO PUSH2 0xB57 JUMPI PUSH2 0xB56 PUSH2 0x90B JUMP JUMPDEST JUMPDEST PUSH2 0xB61 DUP3 SLOAD PUSH2 0x965 JUMP JUMPDEST PUSH2 0xB6C DUP3 DUP3 DUP6 PUSH2 0xAAC JUMP JUMPDEST PUSH0 PUSH1 0x20 SWAP1 POP PUSH1 0x1F DUP4 GT PUSH1 0x1 DUP2 EQ PUSH2 0xB9D JUMPI PUSH0 DUP5 ISZERO PUSH2 0xB8B JUMPI DUP3 DUP8 ADD MLOAD SWAP1 POP JUMPDEST PUSH2 0xB95 DUP6 DUP3 PUSH2 0xB1A JUMP JUMPDEST DUP7 SSTORE POP PUSH2 0xBFC JUMP JUMPDEST PUSH1 0x1F NOT DUP5 AND PUSH2 0xBAB DUP7 PUSH2 0x995 JUMP JUMPDEST PUSH0 JUMPDEST DUP3 DUP2 LT ISZERO PUSH2 0xBD2 JUMPI DUP5 DUP10 ADD MLOAD DUP3 SSTORE PUSH1 0x1 DUP3 ADD SWAP2 POP PUSH1 0x20 DUP6 ADD SWAP5 POP PUSH1 0x20 DUP2 ADD SWAP1 POP PUSH2 0xBAD JUMP JUMPDEST DUP7 DUP4 LT ISZERO PUSH2 0xBEF JUMPI DUP5 DUP10 ADD MLOAD PUSH2 0xBEB PUSH1 0x1F DUP10 AND DUP3 PUSH2 0xAFE JUMP JUMPDEST DUP4 SSTORE POP JUMPDEST PUSH1 0x1 PUSH1 0x2 DUP9 MUL ADD DUP9 SSTORE POP POP POP JUMPDEST POP POP POP POP POP POP JUMP JUMPDEST PUSH32 0x4E487B7100000000000000000000000000000000000000000000000000000000 PUSH0 MSTORE PUSH1 0x11 PUSH1 0x4 MSTORE PUSH1 0x24 PUSH0 REVERT JUMPDEST PUSH0 PUSH2 0xC3B DUP3 PUSH2 0x79F JUMP JUMPDEST SWAP2 POP PUSH32 0xFFFFFFFFFFFFFFFFFFFFFFFFFFFFFFFFFFFFFFFFFFFFFFFFFFFFFFFFFFFFFFFF DUP3 SUB PUSH2 0xC6D JUMPI PUSH2 0xC6C PUSH2 0xC04 JUMP JUMPDEST JUMPDEST PUSH1 0x1 DUP3 ADD SWAP1 POP SWAP2 SWAP1 POP JUMP JUMPDEST PUSH2 0xC81 DUP2 PUSH2 0x79F JUMP JUMPDEST DUP3 MSTORE POP POP JUMP JUMPDEST PUSH2 0xC90 DUP2 PUSH2 0x659 JUMP JUMPDEST DUP3 MSTORE POP POP JUMP JUMPDEST PUSH0 DUP3 DUP3 MSTORE PUSH1 0x20 DUP3 ADD SWAP1 POP SWAP3 SWAP2 POP POP JUMP JUMPDEST DUP3 DUP2 DUP4 MCOPY PUSH0 DUP4 DUP4 ADD MSTORE POP POP POP JUMP JUMPDEST PUSH0 PUSH1 0x1F NOT PUSH1 0x1F DUP4 ADD AND SWAP1 POP SWAP2 SWAP1 POP JUMP JUMPDEST PUSH0 PUSH2 0xCCE DUP3 PUSH2 0x901 JUMP JUMPDEST PUSH2 0xCD8 DUP2 DUP6 PUSH2 0xC96 JUMP JUMPDEST SWAP4 POP PUSH2 0xCE8 DUP2 DUP6 PUSH1 0x20 DUP7 ADD PUSH2 0xCA6 JUMP JUMPDEST PUSH2 0xCF1 DUP2 PUSH2 0xCB4 JUMP JUMPDEST DUP5 ADD SWAP2 POP POP SWAP3 SWAP2 POP POP JUMP JUMPDEST PUSH2 0xD05 DUP2 PUSH2 0x6F5 JUMP JUMPDEST DUP3 MSTORE POP POP JUMP JUMPDEST PUSH1 0x3 DUP2 LT PUSH2 0xD1C JUMPI PUSH2 0xD1B PUSH2 0x8D4 JUMP JUMPDEST JUMPDEST POP JUMP JUMPDEST PUSH0 DUP2 SWAP1 POP PUSH2 0xD2C DUP3 PUSH2 0xD0B JUMP JUMPDEST SWAP2 SWAP1 POP JUMP JUMPDEST PUSH0 PUSH2 0xD3B DUP3 PUSH2 0xD1F JUMP JUMPDEST SWAP1 POP SWAP2 SWAP1 POP JUMP JUMPDEST PUSH2 0xD4B DUP2 PUSH2 0xD31 JUMP JUMPDEST DUP3 MSTORE POP POP JUMP JUMPDEST PUSH0 PUSH1 0xA0 DUP4 ADD PUSH0 DUP4 ADD MLOAD PUSH2 0xD66 PUSH0 DUP7 ADD DUP3 PUSH2 0xC78 JUMP JUMPDEST POP PUSH1 0x20 DUP4 ADD MLOAD PUSH2 0xD79 PUSH1 0x20 DUP7 ADD DUP3 PUSH2 0xC87 JUMP JUMPDEST POP PUSH1 0x40 DUP4 ADD MLOAD DUP5 DUP3 SUB PUSH1 0x40 DUP7 ADD MSTORE PUSH2 0xD91 DUP3 DUP3 PUSH2 0xCC4 JUMP JUMPDEST SWAP2 POP POP PUSH1 0x60 DUP4 ADD MLOAD PUSH2 0xDA6 PUSH1 0x60 DUP7 ADD DUP3 PUSH2 0xCFC JUMP JUMPDEST POP PUSH1 0x80 DUP4 ADD MLOAD PUSH2 0xDB9 PUSH1 0x80 DUP7 ADD DUP3 PUSH2 0xD42 JUMP JUMPDEST POP DUP1 SWAP2 POP POP SWAP3 SWAP2 POP POP JUMP JUMPDEST PUSH0 PUSH1 0x20 DUP3 ADD SWAP1 POP DUP2 DUP2 SUB PUSH0 DUP4 ADD MSTORE PUSH2 0xDDC DUP2 DUP5 PUSH2 0xD51 JUMP JUMPDEST SWAP1 POP SWAP3 SWAP2 POP POP JUMP JUMPDEST PUSH32 0x4E487B7100000000000000000000000000000000000000000000000000000000 PUSH0 MSTORE PUSH1 0x32 PUSH1 0x4 MSTORE PUSH1 0x24 PUSH0 REVERT JUMPDEST PUSH32 0x54686973207461736B20697320616C726561647920636F6D706C657465642E00 PUSH0 DUP3 ADD MSTORE POP JUMP JUMPDEST PUSH0 PUSH2 0xE45 PUSH1 0x1F DUP4 PUSH2 0x810 JUMP JUMPDEST SWAP2 POP PUSH2 0xE50 DUP3 PUSH2 0xE11 JUMP JUMPDEST PUSH1 0x20 DUP3 ADD SWAP1 POP SWAP2 SWAP1 POP JUMP JUMPDEST PUSH0 PUSH1 0x20 DUP3 ADD SWAP1 POP DUP2 DUP2 SUB PUSH0 DUP4 ADD MSTORE PUSH2 0xE72 DUP2 PUSH2 0xE39 JUMP JUMPDEST SWAP1 POP SWAP2 SWAP1 POP JUMP JUMPDEST PUSH32 0x5461736B2063616E27742062652061737369676E656420746F2073616D652061 PUSH0 DUP3 ADD MSTORE PUSH32 0x6464726573730000000000000000000000000000000000000000000000000000 PUSH1 0x20 DUP3 ADD MSTORE POP JUMP JUMPDEST PUSH0 PUSH2 0xED3 PUSH1 0x26 DUP4 PUSH2 0x810 JUMP JUMPDEST SWAP2 POP PUSH2 0xEDE DUP3 PUSH2 0xE79 JUMP JUMPDEST PUSH1 0x40 DUP3 ADD SWAP1 POP SWAP2 SWAP1 POP JUMP JUMPDEST PUSH0 PUSH1 0x20 DUP3 ADD SWAP1 POP DUP2 DUP2 SUB PUSH0 DUP4 ADD MSTORE PUSH2 0xF00 DUP2 PUSH2 0xEC7 JUMP JUMPDEST SWAP1 POP SWAP2 SWAP1 POP JUMP JUMPDEST PUSH0 PUSH2 0xF11 DUP3 PUSH2 0x79F JUMP JUMPDEST SWAP2 POP PUSH0 DUP3 SUB PUSH2 0xF23 JUMPI PUSH2 0xF22 PUSH2 0xC04 JUMP JUMPDEST JUMPDEST PUSH1 0x1 DUP3 SUB SWAP1 POP SWAP2 SWAP1 POP JUMP INVALID LOG2 PUSH5 0x6970667358 0x22 SLT KECCAK256 JUMP 0xB8 PUSH16 0x18B05E9895D1F03460F0D363BFFA3333 PUSH15 0x96BBEFF11563CF9E88F899B664736F PUSH13 0x634300081E0033000000000000 "
				},
				"gasEstimates": {
					"creation": {
						"codeDepositCost": "788000",
						"executionCost": "47288",
						"totalCost": "835288"
					},
					"external": {
						"assignTask(address,string,uint32)": "infinite",
						"reassignTask(uint256,address)": "infinite"
					}
				},
				"methodIdentifiers": {
					"assignTask(address,string,uint32)": "256d6a2b",
					"reassignTask(uint256,address)": "6f6b07db"
				}
			},
			"storageLayout": {
				"storage": [
					{
						"astId": 3,
						"contract": "contracts/3_Ballot.sol:ToDoList",
						"label": "assigner",
						"offset": 0,
						"slot": "0",
						"type": "t_address"
					},
					{
						"astId": 7,
						"contract": "contracts/3_Ballot.sol:ToDoList",
						"label": "toDos",
						"offset": 0,
						"slot": "1",
						"type": "t_array(t_struct(ToDo)23_storage)dyn_storage"
					},
					{
						"astId": 11,
						"contract": "contracts/3_Ballot.sol:ToDoList",
						"label": "addressToTaskCount",
						"offset": 0,
						"slot": "2",
						"type": "t_mapping(t_address,t_uint256)"
					}
				],
				"types": {
					"t_address": {
						"encoding": "inplace",
						"label": "address",
						"numberOfBytes": "20"
					},
					"t_array(t_struct(ToDo)23_storage)dyn_storage": {
						"base": "t_struct(ToDo)23_storage",
						"encoding": "dynamic_array",
						"label": "struct ToDoList.ToDo[]",
						"numberOfBytes": "32"
					},
					"t_enum(STATUS)27": {
						"encoding": "inplace",
						"label": "enum ToDoList.STATUS",
						"numberOfBytes": "1"
					},
					"t_mapping(t_address,t_uint256)": {
						"encoding": "mapping",
						"key": "t_address",
						"label": "mapping(address => uint256)",
						"numberOfBytes": "32",
						"value": "t_uint256"
					},
					"t_string_storage": {
						"encoding": "bytes",
						"label": "string",
						"numberOfBytes": "32"
					},
					"t_struct(ToDo)23_storage": {
						"encoding": "inplace",
						"label": "struct ToDoList.ToDo",
						"members": [
							{
								"astId": 13,
								"contract": "contracts/3_Ballot.sol:ToDoList",
								"label": "taskId",
								"offset": 0,
								"slot": "0",
								"type": "t_uint256"
							},
							{
								"astId": 15,
								"contract": "contracts/3_Ballot.sol:ToDoList",
								"label": "assignee",
								"offset": 0,
								"slot": "1",
								"type": "t_address"
							},
							{
								"astId": 17,
								"contract": "contracts/3_Ballot.sol:ToDoList",
								"label": "task",
								"offset": 0,
								"slot": "2",
								"type": "t_string_storage"
							},
							{
								"astId": 19,
								"contract": "contracts/3_Ballot.sol:ToDoList",
								"label": "deadline",
								"offset": 0,
								"slot": "3",
								"type": "t_uint32"
							},
							{
								"astId": 22,
								"contract": "contracts/3_Ballot.sol:ToDoList",
								"label": "status",
								"offset": 4,
								"slot": "3",
								"type": "t_enum(STATUS)27"
							}
						],
						"numberOfBytes": "128"
					},
					"t_uint256": {
						"encoding": "inplace",
						"label": "uint256",
						"numberOfBytes": "32"
					},
					"t_uint32": {
						"encoding": "inplace",
						"label": "uint32",
						"numberOfBytes": "4"
					}
				}
			},
			"userdoc": {
				"kind": "user",
				"methods": {},
				"version": 1
			}
		}
	}
}