{
	"contracts/3_Ballot.sol": {
		"ToDoList": {
			"abi": [
				{
					"inputs": [],
					"stateMutability": "nonpayable",
					"type": "constructor"
				},
				{
					"anonymous": false,
					"inputs": [
						{
							"indexed": false,
							"internalType": "uint256",
							"name": "unixTime",
							"type": "uint256"
						}
					],
					"name": "LogCurrentUnixTime",
					"type": "event"
				},
				{
					"anonymous": false,
					"inputs": [
						{
							"components": [
								{
									"internalType": "uint256",
									"name": "taskId",
									"type": "uint256"
								},
								{
									"internalType": "address",
									"name": "assignee",
									"type": "address"
								},
								{
									"internalType": "string",
									"name": "task",
									"type": "string"
								},
								{
									"internalType": "uint32",
									"name": "deadline",
									"type": "uint32"
								},
								{
									"internalType": "enum ToDoList.STATUS",
									"name": "status",
									"type": "uint8"
								}
							],
							"indexed": false,
							"internalType": "struct ToDoList.ToDo",
							"name": "",
							"type": "tuple"
						}
					],
					"name": "TaskAdded",
					"type": "event"
				},
				{
					"anonymous": false,
					"inputs": [
						{
							"components": [
								{
									"internalType": "uint256",
									"name": "taskId",
									"type": "uint256"
								},
								{
									"internalType": "address",
									"name": "assignee",
									"type": "address"
								},
								{
									"internalType": "string",
									"name": "task",
									"type": "string"
								},
								{
									"internalType": "uint32",
									"name": "deadline",
									"type": "uint32"
								},
								{
									"internalType": "enum ToDoList.STATUS",
									"name": "status",
									"type": "uint8"
								}
							],
							"indexed": false,
							"internalType": "struct ToDoList.ToDo",
							"name": "",
							"type": "tuple"
						}
					],
					"name": "TaskReassigned",
					"type": "event"
				},
				{
					"inputs": [
						{
							"internalType": "address",
							"name": "_assignee",
							"type": "address"
						},
						{
							"internalType": "string",
							"name": "_task",
							"type": "string"
						},
						{
							"internalType": "uint32",
							"name": "_deadline",
							"type": "uint32"
						}
					],
					"name": "assignTask",
					"outputs": [],
					"stateMutability": "nonpayable",
					"type": "function"
				},
				{
					"inputs": [
						{
							"internalType": "uint256",
							"name": "_deadline",
							"type": "uint256"
						},
						{
							"internalType": "uint256",
							"name": "_curentUnixTime",
							"type": "uint256"
						}
					],
					"name": "checkDeadlineValid",
					"outputs": [
						{
							"internalType": "bool",
							"name": "",
							"type": "bool"
						}
					],
					"stateMutability": "pure",
					"type": "function"
				},
				{
					"inputs": [
						{
							"internalType": "uint32",
							"name": "_taskId",
							"type": "uint32"
						}
					],
					"name": "completeTask",
					"outputs": [],
					"stateMutability": "nonpayable",
					"type": "function"
				},
				{
					"inputs": [
						{
							"internalType": "uint32",
							"name": "_taskId",
							"type": "uint32"
						},
						{
							"internalType": "address",
							"name": "_assignee",
							"type": "address"
						}
					],
					"name": "reassignTask",
					"outputs": [],
					"stateMutability": "nonpayable",
					"type": "function"
				},
				{
					"inputs": [],
					"name": "refreshTask",
					"outputs": [],
					"stateMutability": "nonpayable",
					"type": "function"
				}
			],
			"devdoc": {
				"kind": "dev",
				"methods": {},
				"version": 1
			},
			"evm": {
				"assembly": "    /* \"contracts/3_Ballot.sol\":70:3429  contract ToDoList {... */\n  mstore(0x40, 0x80)\n    /* \"contracts/3_Ballot.sol\":510:606  constructor() {... */\n  callvalue\n  dup1\n  iszero\n  tag_1\n  jumpi\n  revert(0x00, 0x00)\ntag_1:\n  pop\n    /* \"contracts/3_Ballot.sol\":545:555  msg.sender */\n  caller\n    /* \"contracts/3_Ballot.sol\":534:542  assigner */\n  0x00\n  0x00\n    /* \"contracts/3_Ballot.sol\":534:555  assigner = msg.sender */\n  0x0100\n  exp\n  dup2\n  sload\n  dup2\n  0xffffffffffffffffffffffffffffffffffffffff\n  mul\n  not\n  and\n  swap1\n  dup4\n  0xffffffffffffffffffffffffffffffffffffffff\n  and\n  mul\n  or\n  swap1\n  sstore\n  pop\n    /* \"contracts/3_Ballot.sol\":598:599  1 */\n  0x01\n    /* \"contracts/3_Ballot.sol\":565:583  addressToTaskCount */\n  0x02\n    /* \"contracts/3_Ballot.sol\":565:595  addressToTaskCount[msg.sender] */\n  0x00\n    /* \"contracts/3_Ballot.sol\":584:594  msg.sender */\n  caller\n    /* \"contracts/3_Ballot.sol\":565:595  addressToTaskCount[msg.sender] */\n  0xffffffffffffffffffffffffffffffffffffffff\n  and\n  0xffffffffffffffffffffffffffffffffffffffff\n  and\n  dup2\n  mstore\n  0x20\n  add\n  swap1\n  dup2\n  mstore\n  0x20\n  add\n  0x00\n  keccak256\n    /* \"contracts/3_Ballot.sol\":565:599  addressToTaskCount[msg.sender] = 1 */\n  dup2\n  swap1\n  sstore\n  pop\n    /* \"contracts/3_Ballot.sol\":70:3429  contract ToDoList {... */\n  dataSize(sub_0)\n  dup1\n  dataOffset(sub_0)\n  0x00\n  codecopy\n  0x00\n  return\nstop\n\nsub_0: assembly {\n        /* \"contracts/3_Ballot.sol\":70:3429  contract ToDoList {... */\n      mstore(0x40, 0x80)\n      callvalue\n      dup1\n      iszero\n      tag_1\n      jumpi\n      revert(0x00, 0x00)\n    tag_1:\n      pop\n      jumpi(tag_2, lt(calldatasize, 0x04))\n      shr(0xe0, calldataload(0x00))\n      dup1\n      0x141908dc\n      eq\n      tag_3\n      jumpi\n      dup1\n      0x256d6a2b\n      eq\n      tag_4\n      jumpi\n      dup1\n      0x7a77801e\n      eq\n      tag_5\n      jumpi\n      dup1\n      0x80cb747b\n      eq\n      tag_6\n      jumpi\n      dup1\n      0xdcfb55bf\n      eq\n      tag_7\n      jumpi\n    tag_2:\n      revert(0x00, 0x00)\n        /* \"contracts/3_Ballot.sol\":2301:3087  function completeTask(uint32 _taskId) external onlyMembers {... */\n    tag_3:\n      tag_8\n      0x04\n      dup1\n      calldatasize\n      sub\n      dup2\n      add\n      swap1\n      tag_9\n      swap2\n      swap1\n      tag_10\n      jump\t// in\n    tag_9:\n      tag_11\n      jump\t// in\n    tag_8:\n      stop\n        /* \"contracts/3_Ballot.sol\":612:1000  function assignTask(address _assignee, string calldata _task, uint32 _deadline) external onlyAssigner {... */\n    tag_4:\n      tag_12\n      0x04\n      dup1\n      calldatasize\n      sub\n      dup2\n      add\n      swap1\n      tag_13\n      swap2\n      swap1\n      tag_14\n      jump\t// in\n    tag_13:\n      tag_15\n      jump\t// in\n    tag_12:\n      stop\n        /* \"contracts/3_Ballot.sol\":1748:1948  function checkDeadlineValid(uint _deadline, uint _curentUnixTime) public pure returns(bool) {... */\n    tag_5:\n      tag_16\n      0x04\n      dup1\n      calldatasize\n      sub\n      dup2\n      add\n      swap1\n      tag_17\n      swap2\n      swap1\n      tag_18\n      jump\t// in\n    tag_17:\n      tag_19\n      jump\t// in\n    tag_16:\n      mload(0x40)\n      tag_20\n      swap2\n      swap1\n      tag_21\n      jump\t// in\n    tag_20:\n      mload(0x40)\n      dup1\n      swap2\n      sub\n      swap1\n      return\n        /* \"contracts/3_Ballot.sol\":1006:1742  function reassignTask(uint32 _taskId, address _assignee) external onlyAssigner {... */\n    tag_6:\n      tag_22\n      0x04\n      dup1\n      calldatasize\n      sub\n      dup2\n      add\n      swap1\n      tag_23\n      swap2\n      swap1\n      tag_24\n      jump\t// in\n    tag_23:\n      tag_25\n      jump\t// in\n    tag_22:\n      stop\n        /* \"contracts/3_Ballot.sol\":1954:2295  function refreshTask() external onlyAssigner {... */\n    tag_7:\n      tag_26\n      tag_27\n      jump\t// in\n    tag_26:\n      stop\n        /* \"contracts/3_Ballot.sol\":2301:3087  function completeTask(uint32 _taskId) external onlyMembers {... */\n    tag_11:\n        /* \"contracts/3_Ballot.sol\":3334:3335  0 */\n      0x00\n        /* \"contracts/3_Ballot.sol\":3301:3319  addressToTaskCount */\n      0x02\n        /* \"contracts/3_Ballot.sol\":3301:3331  addressToTaskCount[msg.sender] */\n      0x00\n        /* \"contracts/3_Ballot.sol\":3320:3330  msg.sender */\n      caller\n        /* \"contracts/3_Ballot.sol\":3301:3331  addressToTaskCount[msg.sender] */\n      0xffffffffffffffffffffffffffffffffffffffff\n      and\n      0xffffffffffffffffffffffffffffffffffffffff\n      and\n      dup2\n      mstore\n      0x20\n      add\n      swap1\n      dup2\n      mstore\n      0x20\n      add\n      0x00\n      keccak256\n      sload\n        /* \"contracts/3_Ballot.sol\":3301:3335  addressToTaskCount[msg.sender] > 0 */\n      gt\n        /* \"contracts/3_Ballot.sol\":3293:3409  require(addressToTaskCount[msg.sender] > 0, \"This function s can be only execute by Member, address is not Member.\") */\n      tag_29\n      jumpi\n      mload(0x40)\n      0x08c379a000000000000000000000000000000000000000000000000000000000\n      dup2\n      mstore\n      0x04\n      add\n      tag_30\n      swap1\n      tag_31\n      jump\t// in\n    tag_30:\n      mload(0x40)\n      dup1\n      swap2\n      sub\n      swap1\n      revert\n    tag_29:\n        /* \"contracts/3_Ballot.sol\":2474:2484  msg.sender */\n      caller\n        /* \"contracts/3_Ballot.sol\":2447:2484  toDos[_taskId].assignee == msg.sender */\n      0xffffffffffffffffffffffffffffffffffffffff\n      and\n        /* \"contracts/3_Ballot.sol\":2447:2452  toDos */\n      0x01\n        /* \"contracts/3_Ballot.sol\":2453:2460  _taskId */\n      dup3\n        /* \"contracts/3_Ballot.sol\":2447:2461  toDos[_taskId] */\n      0xffffffff\n      and\n      dup2\n      sload\n      dup2\n      lt\n      tag_33\n      jumpi\n      tag_34\n      tag_35\n      jump\t// in\n    tag_34:\n    tag_33:\n      swap1\n      0x00\n      mstore\n      keccak256(0x00, 0x20)\n      swap1\n      0x04\n      mul\n      add\n        /* \"contracts/3_Ballot.sol\":2447:2470  toDos[_taskId].assignee */\n      0x01\n      add\n      0x00\n      swap1\n      sload\n      swap1\n      0x0100\n      exp\n      swap1\n      div\n      0xffffffffffffffffffffffffffffffffffffffff\n      and\n        /* \"contracts/3_Ballot.sol\":2447:2484  toDos[_taskId].assignee == msg.sender */\n      0xffffffffffffffffffffffffffffffffffffffff\n      and\n      eq\n        /* \"contracts/3_Ballot.sol\":2439:2529  require(toDos[_taskId].assignee == msg.sender, \"Address is not the assignee of the task.\") */\n      tag_37\n      jumpi\n      mload(0x40)\n      0x08c379a000000000000000000000000000000000000000000000000000000000\n      dup2\n      mstore\n      0x04\n      add\n      tag_38\n      swap1\n      tag_39\n      jump\t// in\n    tag_38:\n      mload(0x40)\n      dup1\n      swap2\n      sub\n      swap1\n      revert\n    tag_37:\n        /* \"contracts/3_Ballot.sol\":2614:2631  STATUS.INCOMPLETE */\n      0x00\n        /* \"contracts/3_Ballot.sol\":2589:2631  toDos[_taskId].status == STATUS.INCOMPLETE */\n      0x02\n      dup2\n      gt\n      iszero\n      tag_40\n      jumpi\n      tag_41\n      tag_42\n      jump\t// in\n    tag_41:\n    tag_40:\n        /* \"contracts/3_Ballot.sol\":2589:2594  toDos */\n      0x01\n        /* \"contracts/3_Ballot.sol\":2595:2602  _taskId */\n      dup3\n        /* \"contracts/3_Ballot.sol\":2589:2603  toDos[_taskId] */\n      0xffffffff\n      and\n      dup2\n      sload\n      dup2\n      lt\n      tag_43\n      jumpi\n      tag_44\n      tag_35\n      jump\t// in\n    tag_44:\n    tag_43:\n      swap1\n      0x00\n      mstore\n      keccak256(0x00, 0x20)\n      swap1\n      0x04\n      mul\n      add\n        /* \"contracts/3_Ballot.sol\":2589:2610  toDos[_taskId].status */\n      0x03\n      add\n      0x04\n      swap1\n      sload\n      swap1\n      0x0100\n      exp\n      swap1\n      div\n      0xff\n      and\n        /* \"contracts/3_Ballot.sol\":2589:2631  toDos[_taskId].status == STATUS.INCOMPLETE */\n      0x02\n      dup2\n      gt\n      iszero\n      tag_46\n      jumpi\n      tag_47\n      tag_42\n      jump\t// in\n    tag_47:\n    tag_46:\n      eq\n        /* \"contracts/3_Ballot.sol\":2581:2662  require(toDos[_taskId].status == STATUS.INCOMPLETE, \"Task is already completed.\") */\n      tag_48\n      jumpi\n      mload(0x40)\n      0x08c379a000000000000000000000000000000000000000000000000000000000\n      dup2\n      mstore\n      0x04\n      add\n      tag_49\n      swap1\n      tag_50\n      jump\t// in\n    tag_49:\n      mload(0x40)\n      dup1\n      swap2\n      sub\n      swap1\n      revert\n    tag_48:\n        /* \"contracts/3_Ballot.sol\":2733:2753  bool isDeadlineValid */\n      0x00\n        /* \"contracts/3_Ballot.sol\":2756:2816  checkDeadlineValid(toDos[_taskId].deadline, block.timestamp) */\n      tag_51\n        /* \"contracts/3_Ballot.sol\":2775:2780  toDos */\n      0x01\n        /* \"contracts/3_Ballot.sol\":2781:2788  _taskId */\n      dup4\n        /* \"contracts/3_Ballot.sol\":2775:2789  toDos[_taskId] */\n      0xffffffff\n      and\n      dup2\n      sload\n      dup2\n      lt\n      tag_52\n      jumpi\n      tag_53\n      tag_35\n      jump\t// in\n    tag_53:\n    tag_52:\n      swap1\n      0x00\n      mstore\n      keccak256(0x00, 0x20)\n      swap1\n      0x04\n      mul\n      add\n        /* \"contracts/3_Ballot.sol\":2775:2798  toDos[_taskId].deadline */\n      0x03\n      add\n      0x00\n      swap1\n      sload\n      swap1\n      0x0100\n      exp\n      swap1\n      div\n      0xffffffff\n      and\n        /* \"contracts/3_Ballot.sol\":2756:2816  checkDeadlineValid(toDos[_taskId].deadline, block.timestamp) */\n      0xffffffff\n      and\n        /* \"contracts/3_Ballot.sol\":2800:2815  block.timestamp */\n      timestamp\n        /* \"contracts/3_Ballot.sol\":2756:2774  checkDeadlineValid */\n      tag_19\n        /* \"contracts/3_Ballot.sol\":2756:2816  checkDeadlineValid(toDos[_taskId].deadline, block.timestamp) */\n      jump\t// in\n    tag_51:\n        /* \"contracts/3_Ballot.sol\":2733:2816  bool isDeadlineValid = checkDeadlineValid(toDos[_taskId].deadline, block.timestamp) */\n      swap1\n      pop\n        /* \"contracts/3_Ballot.sol\":2830:2845  isDeadlineValid */\n      dup1\n        /* \"contracts/3_Ballot.sol\":2826:2909  if(!isDeadlineValid) {... */\n      tag_55\n      jumpi\n        /* \"contracts/3_Ballot.sol\":2885:2898  STATUS.FAILED */\n      0x02\n        /* \"contracts/3_Ballot.sol\":2861:2866  toDos */\n      0x01\n        /* \"contracts/3_Ballot.sol\":2867:2874  _taskId */\n      dup4\n        /* \"contracts/3_Ballot.sol\":2861:2875  toDos[_taskId] */\n      0xffffffff\n      and\n      dup2\n      sload\n      dup2\n      lt\n      tag_56\n      jumpi\n      tag_57\n      tag_35\n      jump\t// in\n    tag_57:\n    tag_56:\n      swap1\n      0x00\n      mstore\n      keccak256(0x00, 0x20)\n      swap1\n      0x04\n      mul\n      add\n        /* \"contracts/3_Ballot.sol\":2861:2882  toDos[_taskId].status */\n      0x03\n      add\n      0x04\n        /* \"contracts/3_Ballot.sol\":2861:2898  toDos[_taskId].status = STATUS.FAILED */\n      0x0100\n      exp\n      dup2\n      sload\n      dup2\n      0xff\n      mul\n      not\n      and\n      swap1\n      dup4\n      0x02\n      dup2\n      gt\n      iszero\n      tag_59\n      jumpi\n      tag_60\n      tag_42\n      jump\t// in\n    tag_60:\n    tag_59:\n      mul\n      or\n      swap1\n      sstore\n      pop\n        /* \"contracts/3_Ballot.sol\":2826:2909  if(!isDeadlineValid) {... */\n    tag_55:\n        /* \"contracts/3_Ballot.sol\":2980:2995  isDeadlineValid */\n      dup1\n        /* \"contracts/3_Ballot.sol\":2972:3029  require(isDeadlineValid, \"Task has passed the deadline.\") */\n      tag_61\n      jumpi\n      mload(0x40)\n      0x08c379a000000000000000000000000000000000000000000000000000000000\n      dup2\n      mstore\n      0x04\n      add\n      tag_62\n      swap1\n      tag_63\n      jump\t// in\n    tag_62:\n      mload(0x40)\n      dup1\n      swap2\n      sub\n      swap1\n      revert\n    tag_61:\n        /* \"contracts/3_Ballot.sol\":3063:3079  STATUS.COMPLETED */\n      0x01\n        /* \"contracts/3_Ballot.sol\":3039:3044  toDos */\n      dup1\n        /* \"contracts/3_Ballot.sol\":3045:3052  _taskId */\n      dup4\n        /* \"contracts/3_Ballot.sol\":3039:3053  toDos[_taskId] */\n      0xffffffff\n      and\n      dup2\n      sload\n      dup2\n      lt\n      tag_64\n      jumpi\n      tag_65\n      tag_35\n      jump\t// in\n    tag_65:\n    tag_64:\n      swap1\n      0x00\n      mstore\n      keccak256(0x00, 0x20)\n      swap1\n      0x04\n      mul\n      add\n        /* \"contracts/3_Ballot.sol\":3039:3060  toDos[_taskId].status */\n      0x03\n      add\n      0x04\n        /* \"contracts/3_Ballot.sol\":3039:3079  toDos[_taskId].status = STATUS.COMPLETED */\n      0x0100\n      exp\n      dup2\n      sload\n      dup2\n      0xff\n      mul\n      not\n      and\n      swap1\n      dup4\n      0x02\n      dup2\n      gt\n      iszero\n      tag_67\n      jumpi\n      tag_68\n      tag_42\n      jump\t// in\n    tag_68:\n    tag_67:\n      mul\n      or\n      swap1\n      sstore\n      pop\n        /* \"contracts/3_Ballot.sol\":2360:3087  {... */\n      pop\n        /* \"contracts/3_Ballot.sol\":2301:3087  function completeTask(uint32 _taskId) external onlyMembers {... */\n      pop\n      jump\t// out\n        /* \"contracts/3_Ballot.sol\":612:1000  function assignTask(address _assignee, string calldata _task, uint32 _deadline) external onlyAssigner {... */\n    tag_15:\n        /* \"contracts/3_Ballot.sol\":3149:3157  assigner */\n      0x00\n      0x00\n      swap1\n      sload\n      swap1\n      0x0100\n      exp\n      swap1\n      div\n      0xffffffffffffffffffffffffffffffffffffffff\n      and\n        /* \"contracts/3_Ballot.sol\":3135:3157  msg.sender == assigner */\n      0xffffffffffffffffffffffffffffffffffffffff\n      and\n        /* \"contracts/3_Ballot.sol\":3135:3145  msg.sender */\n      caller\n        /* \"contracts/3_Ballot.sol\":3135:3157  msg.sender == assigner */\n      0xffffffffffffffffffffffffffffffffffffffff\n      and\n      eq\n        /* \"contracts/3_Ballot.sol\":3127:3236  require(msg.sender == assigner, \"This function is can be only execute by Assigner, address is not assigner.\") */\n      tag_70\n      jumpi\n      mload(0x40)\n      0x08c379a000000000000000000000000000000000000000000000000000000000\n      dup2\n      mstore\n      0x04\n      add\n      tag_71\n      swap1\n      tag_72\n      jump\t// in\n    tag_71:\n      mload(0x40)\n      dup1\n      swap2\n      sub\n      swap1\n      revert\n    tag_70:\n        /* \"contracts/3_Ballot.sol\":724:743  ToDo memory newTask */\n      0x00\n        /* \"contracts/3_Ballot.sol\":746:888  ToDo(... */\n      mload(0x40)\n      dup1\n      0xa0\n      add\n      0x40\n      mstore\n      dup1\n        /* \"contracts/3_Ballot.sol\":769:774  toDos */\n      0x01\n        /* \"contracts/3_Ballot.sol\":769:781  toDos.length */\n      dup1\n      sload\n      swap1\n      pop\n        /* \"contracts/3_Ballot.sol\":746:888  ToDo(... */\n      dup2\n      mstore\n      0x20\n      add\n        /* \"contracts/3_Ballot.sol\":796:805  _assignee */\n      dup7\n        /* \"contracts/3_Ballot.sol\":746:888  ToDo(... */\n      0xffffffffffffffffffffffffffffffffffffffff\n      and\n      dup2\n      mstore\n      0x20\n      add\n        /* \"contracts/3_Ballot.sol\":819:824  _task */\n      dup6\n      dup6\n        /* \"contracts/3_Ballot.sol\":746:888  ToDo(... */\n      dup1\n      dup1\n      0x1f\n      add\n      0x20\n      dup1\n      swap2\n      div\n      mul\n      0x20\n      add\n      mload(0x40)\n      swap1\n      dup2\n      add\n      0x40\n      mstore\n      dup1\n      swap4\n      swap3\n      swap2\n      swap1\n      dup2\n      dup2\n      mstore\n      0x20\n      add\n      dup4\n      dup4\n      dup1\n      dup3\n      dup5\n      calldatacopy\n      0x00\n      dup2\n      dup5\n      add\n      mstore\n      not(0x1f)\n      0x1f\n      dup3\n      add\n      and\n      swap1\n      pop\n      dup1\n      dup4\n      add\n      swap3\n      pop\n      pop\n      pop\n      pop\n      pop\n      pop\n      pop\n      dup2\n      mstore\n      0x20\n      add\n        /* \"contracts/3_Ballot.sol\":838:847  _deadline */\n      dup4\n        /* \"contracts/3_Ballot.sol\":746:888  ToDo(... */\n      0xffffffff\n      and\n      dup2\n      mstore\n      0x20\n      add\n        /* \"contracts/3_Ballot.sol\":861:878  STATUS.INCOMPLETE */\n      0x00\n        /* \"contracts/3_Ballot.sol\":746:888  ToDo(... */\n      0x02\n      dup2\n      gt\n      iszero\n      tag_74\n      jumpi\n      tag_75\n      tag_42\n      jump\t// in\n    tag_75:\n    tag_74:\n      dup2\n      mstore\n      pop\n        /* \"contracts/3_Ballot.sol\":724:888  ToDo memory newTask = ToDo(... */\n      swap1\n      pop\n        /* \"contracts/3_Ballot.sol\":898:903  toDos */\n      0x01\n        /* \"contracts/3_Ballot.sol\":909:916  newTask */\n      dup2\n        /* \"contracts/3_Ballot.sol\":898:917  toDos.push(newTask) */\n      swap1\n      dup1\n      0x01\n      dup2\n      sload\n      add\n      dup1\n      dup3\n      sstore\n      dup1\n      swap2\n      pop\n      pop\n      0x01\n      swap1\n      sub\n      swap1\n      0x00\n      mstore\n      keccak256(0x00, 0x20)\n      swap1\n      0x04\n      mul\n      add\n      0x00\n      swap1\n      swap2\n      swap1\n      swap2\n      swap1\n      swap2\n      pop\n      0x00\n      dup3\n      add\n      mload\n      dup2\n      0x00\n      add\n      sstore\n      0x20\n      dup3\n      add\n      mload\n      dup2\n      0x01\n      add\n      exp(0x0100, 0x00)\n      dup2\n      sload\n      dup2\n      0xffffffffffffffffffffffffffffffffffffffff\n      mul\n      not\n      and\n      swap1\n      dup4\n      0xffffffffffffffffffffffffffffffffffffffff\n      and\n      mul\n      or\n      swap1\n      sstore\n      pop\n      0x40\n      dup3\n      add\n      mload\n      dup2\n      0x02\n      add\n      swap1\n      dup2\n      tag_77\n      swap2\n      swap1\n      tag_78\n      jump\t// in\n    tag_77:\n      pop\n      0x60\n      dup3\n      add\n      mload\n      dup2\n      0x03\n      add\n      exp(0x0100, 0x00)\n      dup2\n      sload\n      dup2\n      0xffffffff\n      mul\n      not\n      and\n      swap1\n      dup4\n      0xffffffff\n      and\n      mul\n      or\n      swap1\n      sstore\n      pop\n      0x80\n      dup3\n      add\n      mload\n      dup2\n      0x03\n      add\n      exp(0x0100, 0x04)\n      dup2\n      sload\n      dup2\n      0xff\n      mul\n      not\n      and\n      swap1\n      dup4\n      0x02\n      dup2\n      gt\n      iszero\n      tag_79\n      jumpi\n      tag_80\n      tag_42\n      jump\t// in\n    tag_80:\n    tag_79:\n      mul\n      or\n      swap1\n      sstore\n      pop\n      pop\n      pop\n        /* \"contracts/3_Ballot.sol\":928:946  addressToTaskCount */\n      0x02\n        /* \"contracts/3_Ballot.sol\":928:957  addressToTaskCount[_assignee] */\n      0x00\n        /* \"contracts/3_Ballot.sol\":947:956  _assignee */\n      dup7\n        /* \"contracts/3_Ballot.sol\":928:957  addressToTaskCount[_assignee] */\n      0xffffffffffffffffffffffffffffffffffffffff\n      and\n      0xffffffffffffffffffffffffffffffffffffffff\n      and\n      dup2\n      mstore\n      0x20\n      add\n      swap1\n      dup2\n      mstore\n      0x20\n      add\n      0x00\n      keccak256\n      0x00\n        /* \"contracts/3_Ballot.sol\":928:959  addressToTaskCount[_assignee]++ */\n      dup2\n      sload\n      dup1\n      swap3\n      swap2\n      swap1\n      tag_81\n      swap1\n      tag_82\n      jump\t// in\n    tag_81:\n      swap2\n      swap1\n      pop\n      sstore\n      pop\n        /* \"contracts/3_Ballot.sol\":975:993  TaskAdded(newTask) */\n      0x728537006fe8b64e571fa9b822bb2a9a411dea9828b4cb2d373c79654ccc00b0\n        /* \"contracts/3_Ballot.sol\":985:992  newTask */\n      dup2\n        /* \"contracts/3_Ballot.sol\":975:993  TaskAdded(newTask) */\n      mload(0x40)\n      tag_83\n      swap2\n      swap1\n      tag_84\n      jump\t// in\n    tag_83:\n      mload(0x40)\n      dup1\n      swap2\n      sub\n      swap1\n      log1\n        /* \"contracts/3_Ballot.sol\":714:1000  {... */\n      pop\n        /* \"contracts/3_Ballot.sol\":612:1000  function assignTask(address _assignee, string calldata _task, uint32 _deadline) external onlyAssigner {... */\n      pop\n      pop\n      pop\n      pop\n      jump\t// out\n        /* \"contracts/3_Ballot.sol\":1748:1948  function checkDeadlineValid(uint _deadline, uint _curentUnixTime) public pure returns(bool) {... */\n    tag_19:\n        /* \"contracts/3_Ballot.sol\":1834:1838  bool */\n      0x00\n        /* \"contracts/3_Ballot.sol\":1866:1881  _curentUnixTime */\n      dup2\n        /* \"contracts/3_Ballot.sol\":1854:1863  _deadline */\n      dup4\n        /* \"contracts/3_Ballot.sol\":1854:1881  _deadline > _curentUnixTime */\n      gt\n        /* \"contracts/3_Ballot.sol\":1850:1919  if (_deadline > _curentUnixTime) {... */\n      iszero\n      tag_86\n      jumpi\n        /* \"contracts/3_Ballot.sol\":1904:1908  true */\n      0x01\n        /* \"contracts/3_Ballot.sol\":1897:1908  return true */\n      swap1\n      pop\n      jump(tag_85)\n        /* \"contracts/3_Ballot.sol\":1850:1919  if (_deadline > _curentUnixTime) {... */\n    tag_86:\n        /* \"contracts/3_Ballot.sol\":1936:1941  false */\n      0x00\n        /* \"contracts/3_Ballot.sol\":1929:1941  return false */\n      swap1\n      pop\n        /* \"contracts/3_Ballot.sol\":1748:1948  function checkDeadlineValid(uint _deadline, uint _curentUnixTime) public pure returns(bool) {... */\n    tag_85:\n      swap3\n      swap2\n      pop\n      pop\n      jump\t// out\n        /* \"contracts/3_Ballot.sol\":1006:1742  function reassignTask(uint32 _taskId, address _assignee) external onlyAssigner {... */\n    tag_25:\n        /* \"contracts/3_Ballot.sol\":3149:3157  assigner */\n      0x00\n      0x00\n      swap1\n      sload\n      swap1\n      0x0100\n      exp\n      swap1\n      div\n      0xffffffffffffffffffffffffffffffffffffffff\n      and\n        /* \"contracts/3_Ballot.sol\":3135:3157  msg.sender == assigner */\n      0xffffffffffffffffffffffffffffffffffffffff\n      and\n        /* \"contracts/3_Ballot.sol\":3135:3145  msg.sender */\n      caller\n        /* \"contracts/3_Ballot.sol\":3135:3157  msg.sender == assigner */\n      0xffffffffffffffffffffffffffffffffffffffff\n      and\n      eq\n        /* \"contracts/3_Ballot.sol\":3127:3236  require(msg.sender == assigner, \"This function is can be only execute by Assigner, address is not assigner.\") */\n      tag_88\n      jumpi\n      mload(0x40)\n      0x08c379a000000000000000000000000000000000000000000000000000000000\n      dup2\n      mstore\n      0x04\n      add\n      tag_89\n      swap1\n      tag_72\n      jump\t// in\n    tag_89:\n      mload(0x40)\n      dup1\n      swap2\n      sub\n      swap1\n      revert\n    tag_88:\n        /* \"contracts/3_Ballot.sol\":1174:1191  STATUS.INCOMPLETE */\n      0x00\n        /* \"contracts/3_Ballot.sol\":1149:1191  toDos[_taskId].status == STATUS.INCOMPLETE */\n      0x02\n      dup2\n      gt\n      iszero\n      tag_91\n      jumpi\n      tag_92\n      tag_42\n      jump\t// in\n    tag_92:\n    tag_91:\n        /* \"contracts/3_Ballot.sol\":1149:1154  toDos */\n      0x01\n        /* \"contracts/3_Ballot.sol\":1155:1162  _taskId */\n      dup4\n        /* \"contracts/3_Ballot.sol\":1149:1163  toDos[_taskId] */\n      0xffffffff\n      and\n      dup2\n      sload\n      dup2\n      lt\n      tag_93\n      jumpi\n      tag_94\n      tag_35\n      jump\t// in\n    tag_94:\n    tag_93:\n      swap1\n      0x00\n      mstore\n      keccak256(0x00, 0x20)\n      swap1\n      0x04\n      mul\n      add\n        /* \"contracts/3_Ballot.sol\":1149:1170  toDos[_taskId].status */\n      0x03\n      add\n      0x04\n      swap1\n      sload\n      swap1\n      0x0100\n      exp\n      swap1\n      div\n      0xff\n      and\n        /* \"contracts/3_Ballot.sol\":1149:1191  toDos[_taskId].status == STATUS.INCOMPLETE */\n      0x02\n      dup2\n      gt\n      iszero\n      tag_96\n      jumpi\n      tag_97\n      tag_42\n      jump\t// in\n    tag_97:\n    tag_96:\n      eq\n        /* \"contracts/3_Ballot.sol\":1141:1227  require(toDos[_taskId].status == STATUS.INCOMPLETE, \"This task is already completed.\") */\n      tag_98\n      jumpi\n      mload(0x40)\n      0x08c379a000000000000000000000000000000000000000000000000000000000\n      dup2\n      mstore\n      0x04\n      add\n      tag_99\n      swap1\n      tag_100\n      jump\t// in\n    tag_99:\n      mload(0x40)\n      dup1\n      swap2\n      sub\n      swap1\n      revert\n    tag_98:\n        /* \"contracts/3_Ballot.sol\":1330:1339  _assignee */\n      dup1\n        /* \"contracts/3_Ballot.sol\":1303:1339  toDos[_taskId].assignee != _assignee */\n      0xffffffffffffffffffffffffffffffffffffffff\n      and\n        /* \"contracts/3_Ballot.sol\":1303:1308  toDos */\n      0x01\n        /* \"contracts/3_Ballot.sol\":1309:1316  _taskId */\n      dup4\n        /* \"contracts/3_Ballot.sol\":1303:1317  toDos[_taskId] */\n      0xffffffff\n      and\n      dup2\n      sload\n      dup2\n      lt\n      tag_101\n      jumpi\n      tag_102\n      tag_35\n      jump\t// in\n    tag_102:\n    tag_101:\n      swap1\n      0x00\n      mstore\n      keccak256(0x00, 0x20)\n      swap1\n      0x04\n      mul\n      add\n        /* \"contracts/3_Ballot.sol\":1303:1326  toDos[_taskId].assignee */\n      0x01\n      add\n      0x00\n      swap1\n      sload\n      swap1\n      0x0100\n      exp\n      swap1\n      div\n      0xffffffffffffffffffffffffffffffffffffffff\n      and\n        /* \"contracts/3_Ballot.sol\":1303:1339  toDos[_taskId].assignee != _assignee */\n      0xffffffffffffffffffffffffffffffffffffffff\n      and\n      sub\n        /* \"contracts/3_Ballot.sol\":1295:1382  require(toDos[_taskId].assignee != _assignee, \"Task can't be assigned to same address\") */\n      tag_104\n      jumpi\n      mload(0x40)\n      0x08c379a000000000000000000000000000000000000000000000000000000000\n      dup2\n      mstore\n      0x04\n      add\n      tag_105\n      swap1\n      tag_106\n      jump\t// in\n    tag_105:\n      mload(0x40)\n      dup1\n      swap2\n      sub\n      swap1\n      revert\n    tag_104:\n        /* \"contracts/3_Ballot.sol\":1437:1455  addressToTaskCount */\n      0x02\n        /* \"contracts/3_Ballot.sol\":1437:1480  addressToTaskCount[toDos[_taskId].assignee] */\n      0x00\n        /* \"contracts/3_Ballot.sol\":1456:1461  toDos */\n      0x01\n        /* \"contracts/3_Ballot.sol\":1462:1469  _taskId */\n      dup5\n        /* \"contracts/3_Ballot.sol\":1456:1470  toDos[_taskId] */\n      0xffffffff\n      and\n      dup2\n      sload\n      dup2\n      lt\n      tag_107\n      jumpi\n      tag_108\n      tag_35\n      jump\t// in\n    tag_108:\n    tag_107:\n      swap1\n      0x00\n      mstore\n      keccak256(0x00, 0x20)\n      swap1\n      0x04\n      mul\n      add\n        /* \"contracts/3_Ballot.sol\":1456:1479  toDos[_taskId].assignee */\n      0x01\n      add\n      0x00\n      swap1\n      sload\n      swap1\n      0x0100\n      exp\n      swap1\n      div\n      0xffffffffffffffffffffffffffffffffffffffff\n      and\n        /* \"contracts/3_Ballot.sol\":1437:1480  addressToTaskCount[toDos[_taskId].assignee] */\n      0xffffffffffffffffffffffffffffffffffffffff\n      and\n      0xffffffffffffffffffffffffffffffffffffffff\n      and\n      dup2\n      mstore\n      0x20\n      add\n      swap1\n      dup2\n      mstore\n      0x20\n      add\n      0x00\n      keccak256\n      0x00\n        /* \"contracts/3_Ballot.sol\":1437:1482  addressToTaskCount[toDos[_taskId].assignee]-- */\n      dup2\n      sload\n      dup1\n      swap3\n      swap2\n      swap1\n      tag_110\n      swap1\n      tag_111\n      jump\t// in\n    tag_110:\n      swap2\n      swap1\n      pop\n      sstore\n      pop\n        /* \"contracts/3_Ballot.sol\":1595:1604  _assignee */\n      dup1\n        /* \"contracts/3_Ballot.sol\":1569:1574  toDos */\n      0x01\n        /* \"contracts/3_Ballot.sol\":1575:1582  _taskId */\n      dup4\n        /* \"contracts/3_Ballot.sol\":1569:1583  toDos[_taskId] */\n      0xffffffff\n      and\n      dup2\n      sload\n      dup2\n      lt\n      tag_112\n      jumpi\n      tag_113\n      tag_35\n      jump\t// in\n    tag_113:\n    tag_112:\n      swap1\n      0x00\n      mstore\n      keccak256(0x00, 0x20)\n      swap1\n      0x04\n      mul\n      add\n        /* \"contracts/3_Ballot.sol\":1569:1592  toDos[_taskId].assignee */\n      0x01\n      add\n      0x00\n        /* \"contracts/3_Ballot.sol\":1569:1604  toDos[_taskId].assignee = _assignee */\n      0x0100\n      exp\n      dup2\n      sload\n      dup2\n      0xffffffffffffffffffffffffffffffffffffffff\n      mul\n      not\n      and\n      swap1\n      dup4\n      0xffffffffffffffffffffffffffffffffffffffff\n      and\n      mul\n      or\n      swap1\n      sstore\n      pop\n        /* \"contracts/3_Ballot.sol\":1658:1676  addressToTaskCount */\n      0x02\n        /* \"contracts/3_Ballot.sol\":1658:1687  addressToTaskCount[_assignee] */\n      0x00\n        /* \"contracts/3_Ballot.sol\":1677:1686  _assignee */\n      dup3\n        /* \"contracts/3_Ballot.sol\":1658:1687  addressToTaskCount[_assignee] */\n      0xffffffffffffffffffffffffffffffffffffffff\n      and\n      0xffffffffffffffffffffffffffffffffffffffff\n      and\n      dup2\n      mstore\n      0x20\n      add\n      swap1\n      dup2\n      mstore\n      0x20\n      add\n      0x00\n      keccak256\n      0x00\n        /* \"contracts/3_Ballot.sol\":1658:1689  addressToTaskCount[_assignee]++ */\n      dup2\n      sload\n      dup1\n      swap3\n      swap2\n      swap1\n      tag_115\n      swap1\n      tag_82\n      jump\t// in\n    tag_115:\n      swap2\n      swap1\n      pop\n      sstore\n      pop\n        /* \"contracts/3_Ballot.sol\":1705:1735  TaskReassigned(toDos[_taskId]) */\n      0x90a144ab2975c0d9bc27fb9709dd36427d5ceab2100d2e3b9feabc7c223bc90e\n        /* \"contracts/3_Ballot.sol\":1720:1725  toDos */\n      0x01\n        /* \"contracts/3_Ballot.sol\":1726:1733  _taskId */\n      dup4\n        /* \"contracts/3_Ballot.sol\":1720:1734  toDos[_taskId] */\n      0xffffffff\n      and\n      dup2\n      sload\n      dup2\n      lt\n      tag_116\n      jumpi\n      tag_117\n      tag_35\n      jump\t// in\n    tag_117:\n    tag_116:\n      swap1\n      0x00\n      mstore\n      keccak256(0x00, 0x20)\n      swap1\n      0x04\n      mul\n      add\n        /* \"contracts/3_Ballot.sol\":1705:1735  TaskReassigned(toDos[_taskId]) */\n      mload(0x40)\n      tag_119\n      swap2\n      swap1\n      tag_120\n      jump\t// in\n    tag_119:\n      mload(0x40)\n      dup1\n      swap2\n      sub\n      swap1\n      log1\n        /* \"contracts/3_Ballot.sol\":1006:1742  function reassignTask(uint32 _taskId, address _assignee) external onlyAssigner {... */\n      pop\n      pop\n      jump\t// out\n        /* \"contracts/3_Ballot.sol\":1954:2295  function refreshTask() external onlyAssigner {... */\n    tag_27:\n        /* \"contracts/3_Ballot.sol\":3149:3157  assigner */\n      0x00\n      0x00\n      swap1\n      sload\n      swap1\n      0x0100\n      exp\n      swap1\n      div\n      0xffffffffffffffffffffffffffffffffffffffff\n      and\n        /* \"contracts/3_Ballot.sol\":3135:3157  msg.sender == assigner */\n      0xffffffffffffffffffffffffffffffffffffffff\n      and\n        /* \"contracts/3_Ballot.sol\":3135:3145  msg.sender */\n      caller\n        /* \"contracts/3_Ballot.sol\":3135:3157  msg.sender == assigner */\n      0xffffffffffffffffffffffffffffffffffffffff\n      and\n      eq\n        /* \"contracts/3_Ballot.sol\":3127:3236  require(msg.sender == assigner, \"This function is can be only execute by Assigner, address is not assigner.\") */\n      tag_122\n      jumpi\n      mload(0x40)\n      0x08c379a000000000000000000000000000000000000000000000000000000000\n      dup2\n      mstore\n      0x04\n      add\n      tag_123\n      swap1\n      tag_72\n      jump\t// in\n    tag_123:\n      mload(0x40)\n      dup1\n      swap2\n      sub\n      swap1\n      revert\n    tag_122:\n        /* \"contracts/3_Ballot.sol\":2014:2049  LogCurrentUnixTime(block.timestamp) */\n      0x0b4add2caad05ff5854296790546c919aac848c44dcaa9c18ca0c1cf53260300\n        /* \"contracts/3_Ballot.sol\":2033:2048  block.timestamp */\n      timestamp\n        /* \"contracts/3_Ballot.sol\":2014:2049  LogCurrentUnixTime(block.timestamp) */\n      mload(0x40)\n      tag_125\n      swap2\n      swap1\n      tag_126\n      jump\t// in\n    tag_125:\n      mload(0x40)\n      dup1\n      swap2\n      sub\n      swap1\n      log1\n        /* \"contracts/3_Ballot.sol\":2065:2071  uint i */\n      0x00\n        /* \"contracts/3_Ballot.sol\":2074:2075  0 */\n      0x00\n        /* \"contracts/3_Ballot.sol\":2065:2075  uint i = 0 */\n      swap1\n      pop\n        /* \"contracts/3_Ballot.sol\":2060:2289  for (uint i = 0; i < toDos.length; i++) {... */\n    tag_127:\n        /* \"contracts/3_Ballot.sol\":2081:2086  toDos */\n      0x01\n        /* \"contracts/3_Ballot.sol\":2081:2093  toDos.length */\n      dup1\n      sload\n      swap1\n      pop\n        /* \"contracts/3_Ballot.sol\":2077:2078  i */\n      dup2\n        /* \"contracts/3_Ballot.sol\":2077:2093  i < toDos.length */\n      lt\n        /* \"contracts/3_Ballot.sol\":2060:2289  for (uint i = 0; i < toDos.length; i++) {... */\n      iszero\n      tag_128\n      jumpi\n        /* \"contracts/3_Ballot.sol\":2137:2154  STATUS.INCOMPLETE */\n      0x00\n        /* \"contracts/3_Ballot.sol\":2118:2154  toDos[i].status == STATUS.INCOMPLETE */\n      0x02\n      dup2\n      gt\n      iszero\n      tag_130\n      jumpi\n      tag_131\n      tag_42\n      jump\t// in\n    tag_131:\n    tag_130:\n        /* \"contracts/3_Ballot.sol\":2118:2123  toDos */\n      0x01\n        /* \"contracts/3_Ballot.sol\":2124:2125  i */\n      dup3\n        /* \"contracts/3_Ballot.sol\":2118:2126  toDos[i] */\n      dup2\n      sload\n      dup2\n      lt\n      tag_132\n      jumpi\n      tag_133\n      tag_35\n      jump\t// in\n    tag_133:\n    tag_132:\n      swap1\n      0x00\n      mstore\n      keccak256(0x00, 0x20)\n      swap1\n      0x04\n      mul\n      add\n        /* \"contracts/3_Ballot.sol\":2118:2133  toDos[i].status */\n      0x03\n      add\n      0x04\n      swap1\n      sload\n      swap1\n      0x0100\n      exp\n      swap1\n      div\n      0xff\n      and\n        /* \"contracts/3_Ballot.sol\":2118:2154  toDos[i].status == STATUS.INCOMPLETE */\n      0x02\n      dup2\n      gt\n      iszero\n      tag_135\n      jumpi\n      tag_136\n      tag_42\n      jump\t// in\n    tag_136:\n    tag_135:\n      eq\n        /* \"contracts/3_Ballot.sol\":2118:2213  toDos[i].status == STATUS.INCOMPLETE && !checkDeadlineValid(toDos[i].deadline, block.timestamp) */\n      dup1\n      iszero\n      tag_137\n      jumpi\n      pop\n        /* \"contracts/3_Ballot.sol\":2159:2213  checkDeadlineValid(toDos[i].deadline, block.timestamp) */\n      tag_138\n        /* \"contracts/3_Ballot.sol\":2178:2183  toDos */\n      0x01\n        /* \"contracts/3_Ballot.sol\":2184:2185  i */\n      dup3\n        /* \"contracts/3_Ballot.sol\":2178:2186  toDos[i] */\n      dup2\n      sload\n      dup2\n      lt\n      tag_139\n      jumpi\n      tag_140\n      tag_35\n      jump\t// in\n    tag_140:\n    tag_139:\n      swap1\n      0x00\n      mstore\n      keccak256(0x00, 0x20)\n      swap1\n      0x04\n      mul\n      add\n        /* \"contracts/3_Ballot.sol\":2178:2195  toDos[i].deadline */\n      0x03\n      add\n      0x00\n      swap1\n      sload\n      swap1\n      0x0100\n      exp\n      swap1\n      div\n      0xffffffff\n      and\n        /* \"contracts/3_Ballot.sol\":2159:2213  checkDeadlineValid(toDos[i].deadline, block.timestamp) */\n      0xffffffff\n      and\n        /* \"contracts/3_Ballot.sol\":2197:2212  block.timestamp */\n      timestamp\n        /* \"contracts/3_Ballot.sol\":2159:2177  checkDeadlineValid */\n      tag_19\n        /* \"contracts/3_Ballot.sol\":2159:2213  checkDeadlineValid(toDos[i].deadline, block.timestamp) */\n      jump\t// in\n    tag_138:\n        /* \"contracts/3_Ballot.sol\":2158:2213  !checkDeadlineValid(toDos[i].deadline, block.timestamp) */\n      iszero\n        /* \"contracts/3_Ballot.sol\":2118:2213  toDos[i].status == STATUS.INCOMPLETE && !checkDeadlineValid(toDos[i].deadline, block.timestamp) */\n    tag_137:\n        /* \"contracts/3_Ballot.sol\":2114:2279  if (toDos[i].status == STATUS.INCOMPLETE && !checkDeadlineValid(toDos[i].deadline, block.timestamp)) {... */\n      iszero\n      tag_142\n      jumpi\n        /* \"contracts/3_Ballot.sol\":2251:2264  STATUS.FAILED */\n      0x02\n        /* \"contracts/3_Ballot.sol\":2233:2238  toDos */\n      0x01\n        /* \"contracts/3_Ballot.sol\":2239:2240  i */\n      dup3\n        /* \"contracts/3_Ballot.sol\":2233:2241  toDos[i] */\n      dup2\n      sload\n      dup2\n      lt\n      tag_143\n      jumpi\n      tag_144\n      tag_35\n      jump\t// in\n    tag_144:\n    tag_143:\n      swap1\n      0x00\n      mstore\n      keccak256(0x00, 0x20)\n      swap1\n      0x04\n      mul\n      add\n        /* \"contracts/3_Ballot.sol\":2233:2248  toDos[i].status */\n      0x03\n      add\n      0x04\n        /* \"contracts/3_Ballot.sol\":2233:2264  toDos[i].status = STATUS.FAILED */\n      0x0100\n      exp\n      dup2\n      sload\n      dup2\n      0xff\n      mul\n      not\n      and\n      swap1\n      dup4\n      0x02\n      dup2\n      gt\n      iszero\n      tag_146\n      jumpi\n      tag_147\n      tag_42\n      jump\t// in\n    tag_147:\n    tag_146:\n      mul\n      or\n      swap1\n      sstore\n      pop\n        /* \"contracts/3_Ballot.sol\":2114:2279  if (toDos[i].status == STATUS.INCOMPLETE && !checkDeadlineValid(toDos[i].deadline, block.timestamp)) {... */\n    tag_142:\n        /* \"contracts/3_Ballot.sol\":2095:2098  i++ */\n      dup1\n      dup1\n      0x01\n      add\n      swap2\n      pop\n      pop\n        /* \"contracts/3_Ballot.sol\":2060:2289  for (uint i = 0; i < toDos.length; i++) {... */\n      jump(tag_127)\n    tag_128:\n      pop\n        /* \"contracts/3_Ballot.sol\":1954:2295  function refreshTask() external onlyAssigner {... */\n      jump\t// out\n        /* \"#utility.yul\":88:205   */\n    tag_149:\n        /* \"#utility.yul\":197:198   */\n      0x00\n        /* \"#utility.yul\":194:195   */\n      0x00\n        /* \"#utility.yul\":187:199   */\n      revert\n        /* \"#utility.yul\":211:328   */\n    tag_150:\n        /* \"#utility.yul\":320:321   */\n      0x00\n        /* \"#utility.yul\":317:318   */\n      0x00\n        /* \"#utility.yul\":310:322   */\n      revert\n        /* \"#utility.yul\":334:427   */\n    tag_151:\n        /* \"#utility.yul\":370:377   */\n      0x00\n        /* \"#utility.yul\":410:420   */\n      0xffffffff\n        /* \"#utility.yul\":403:408   */\n      dup3\n        /* \"#utility.yul\":399:421   */\n      and\n        /* \"#utility.yul\":388:421   */\n      swap1\n      pop\n        /* \"#utility.yul\":334:427   */\n      swap2\n      swap1\n      pop\n      jump\t// out\n        /* \"#utility.yul\":433:553   */\n    tag_152:\n        /* \"#utility.yul\":505:528   */\n      tag_233\n        /* \"#utility.yul\":522:527   */\n      dup2\n        /* \"#utility.yul\":505:528   */\n      tag_151\n      jump\t// in\n    tag_233:\n        /* \"#utility.yul\":498:503   */\n      dup2\n        /* \"#utility.yul\":495:529   */\n      eq\n        /* \"#utility.yul\":485:547   */\n      tag_234\n      jumpi\n        /* \"#utility.yul\":543:544   */\n      0x00\n        /* \"#utility.yul\":540:541   */\n      0x00\n        /* \"#utility.yul\":533:545   */\n      revert\n        /* \"#utility.yul\":485:547   */\n    tag_234:\n        /* \"#utility.yul\":433:553   */\n      pop\n      jump\t// out\n        /* \"#utility.yul\":559:696   */\n    tag_153:\n        /* \"#utility.yul\":604:609   */\n      0x00\n        /* \"#utility.yul\":642:648   */\n      dup2\n        /* \"#utility.yul\":629:649   */\n      calldataload\n        /* \"#utility.yul\":620:649   */\n      swap1\n      pop\n        /* \"#utility.yul\":658:690   */\n      tag_236\n        /* \"#utility.yul\":684:689   */\n      dup2\n        /* \"#utility.yul\":658:690   */\n      tag_152\n      jump\t// in\n    tag_236:\n        /* \"#utility.yul\":559:696   */\n      swap3\n      swap2\n      pop\n      pop\n      jump\t// out\n        /* \"#utility.yul\":702:1029   */\n    tag_10:\n        /* \"#utility.yul\":760:766   */\n      0x00\n        /* \"#utility.yul\":809:811   */\n      0x20\n        /* \"#utility.yul\":797:806   */\n      dup3\n        /* \"#utility.yul\":788:795   */\n      dup5\n        /* \"#utility.yul\":784:807   */\n      sub\n        /* \"#utility.yul\":780:812   */\n      slt\n        /* \"#utility.yul\":777:896   */\n      iszero\n      tag_238\n      jumpi\n        /* \"#utility.yul\":815:894   */\n      tag_239\n      tag_149\n      jump\t// in\n    tag_239:\n        /* \"#utility.yul\":777:896   */\n    tag_238:\n        /* \"#utility.yul\":935:936   */\n      0x00\n        /* \"#utility.yul\":960:1012   */\n      tag_240\n        /* \"#utility.yul\":1004:1011   */\n      dup5\n        /* \"#utility.yul\":995:1001   */\n      dup3\n        /* \"#utility.yul\":984:993   */\n      dup6\n        /* \"#utility.yul\":980:1002   */\n      add\n        /* \"#utility.yul\":960:1012   */\n      tag_153\n      jump\t// in\n    tag_240:\n        /* \"#utility.yul\":950:1012   */\n      swap2\n      pop\n        /* \"#utility.yul\":906:1022   */\n      pop\n        /* \"#utility.yul\":702:1029   */\n      swap3\n      swap2\n      pop\n      pop\n      jump\t// out\n        /* \"#utility.yul\":1035:1161   */\n    tag_154:\n        /* \"#utility.yul\":1072:1079   */\n      0x00\n        /* \"#utility.yul\":1112:1154   */\n      0xffffffffffffffffffffffffffffffffffffffff\n        /* \"#utility.yul\":1105:1110   */\n      dup3\n        /* \"#utility.yul\":1101:1155   */\n      and\n        /* \"#utility.yul\":1090:1155   */\n      swap1\n      pop\n        /* \"#utility.yul\":1035:1161   */\n      swap2\n      swap1\n      pop\n      jump\t// out\n        /* \"#utility.yul\":1167:1263   */\n    tag_155:\n        /* \"#utility.yul\":1204:1211   */\n      0x00\n        /* \"#utility.yul\":1233:1257   */\n      tag_243\n        /* \"#utility.yul\":1251:1256   */\n      dup3\n        /* \"#utility.yul\":1233:1257   */\n      tag_154\n      jump\t// in\n    tag_243:\n        /* \"#utility.yul\":1222:1257   */\n      swap1\n      pop\n        /* \"#utility.yul\":1167:1263   */\n      swap2\n      swap1\n      pop\n      jump\t// out\n        /* \"#utility.yul\":1269:1391   */\n    tag_156:\n        /* \"#utility.yul\":1342:1366   */\n      tag_245\n        /* \"#utility.yul\":1360:1365   */\n      dup2\n        /* \"#utility.yul\":1342:1366   */\n      tag_155\n      jump\t// in\n    tag_245:\n        /* \"#utility.yul\":1335:1340   */\n      dup2\n        /* \"#utility.yul\":1332:1367   */\n      eq\n        /* \"#utility.yul\":1322:1385   */\n      tag_246\n      jumpi\n        /* \"#utility.yul\":1381:1382   */\n      0x00\n        /* \"#utility.yul\":1378:1379   */\n      0x00\n        /* \"#utility.yul\":1371:1383   */\n      revert\n        /* \"#utility.yul\":1322:1385   */\n    tag_246:\n        /* \"#utility.yul\":1269:1391   */\n      pop\n      jump\t// out\n        /* \"#utility.yul\":1397:1536   */\n    tag_157:\n        /* \"#utility.yul\":1443:1448   */\n      0x00\n        /* \"#utility.yul\":1481:1487   */\n      dup2\n        /* \"#utility.yul\":1468:1488   */\n      calldataload\n        /* \"#utility.yul\":1459:1488   */\n      swap1\n      pop\n        /* \"#utility.yul\":1497:1530   */\n      tag_248\n        /* \"#utility.yul\":1524:1529   */\n      dup2\n        /* \"#utility.yul\":1497:1530   */\n      tag_156\n      jump\t// in\n    tag_248:\n        /* \"#utility.yul\":1397:1536   */\n      swap3\n      swap2\n      pop\n      pop\n      jump\t// out\n        /* \"#utility.yul\":1542:1659   */\n    tag_158:\n        /* \"#utility.yul\":1651:1652   */\n      0x00\n        /* \"#utility.yul\":1648:1649   */\n      0x00\n        /* \"#utility.yul\":1641:1653   */\n      revert\n        /* \"#utility.yul\":1665:1782   */\n    tag_159:\n        /* \"#utility.yul\":1774:1775   */\n      0x00\n        /* \"#utility.yul\":1771:1772   */\n      0x00\n        /* \"#utility.yul\":1764:1776   */\n      revert\n        /* \"#utility.yul\":1788:1905   */\n    tag_160:\n        /* \"#utility.yul\":1897:1898   */\n      0x00\n        /* \"#utility.yul\":1894:1895   */\n      0x00\n        /* \"#utility.yul\":1887:1899   */\n      revert\n        /* \"#utility.yul\":1925:2478   */\n    tag_161:\n        /* \"#utility.yul\":1983:1991   */\n      0x00\n        /* \"#utility.yul\":1993:1999   */\n      0x00\n        /* \"#utility.yul\":2043:2046   */\n      dup4\n        /* \"#utility.yul\":2036:2040   */\n      0x1f\n        /* \"#utility.yul\":2028:2034   */\n      dup5\n        /* \"#utility.yul\":2024:2041   */\n      add\n        /* \"#utility.yul\":2020:2047   */\n      slt\n        /* \"#utility.yul\":2010:2132   */\n      tag_253\n      jumpi\n        /* \"#utility.yul\":2051:2130   */\n      tag_254\n      tag_158\n      jump\t// in\n    tag_254:\n        /* \"#utility.yul\":2010:2132   */\n    tag_253:\n        /* \"#utility.yul\":2164:2170   */\n      dup3\n        /* \"#utility.yul\":2151:2171   */\n      calldataload\n        /* \"#utility.yul\":2141:2171   */\n      swap1\n      pop\n        /* \"#utility.yul\":2194:2212   */\n      0xffffffffffffffff\n        /* \"#utility.yul\":2186:2192   */\n      dup2\n        /* \"#utility.yul\":2183:2213   */\n      gt\n        /* \"#utility.yul\":2180:2297   */\n      iszero\n      tag_255\n      jumpi\n        /* \"#utility.yul\":2216:2295   */\n      tag_256\n      tag_159\n      jump\t// in\n    tag_256:\n        /* \"#utility.yul\":2180:2297   */\n    tag_255:\n        /* \"#utility.yul\":2330:2334   */\n      0x20\n        /* \"#utility.yul\":2322:2328   */\n      dup4\n        /* \"#utility.yul\":2318:2335   */\n      add\n        /* \"#utility.yul\":2306:2335   */\n      swap2\n      pop\n        /* \"#utility.yul\":2384:2387   */\n      dup4\n        /* \"#utility.yul\":2376:2380   */\n      0x01\n        /* \"#utility.yul\":2368:2374   */\n      dup3\n        /* \"#utility.yul\":2364:2381   */\n      mul\n        /* \"#utility.yul\":2354:2362   */\n      dup4\n        /* \"#utility.yul\":2350:2382   */\n      add\n        /* \"#utility.yul\":2347:2388   */\n      gt\n        /* \"#utility.yul\":2344:2472   */\n      iszero\n      tag_257\n      jumpi\n        /* \"#utility.yul\":2391:2470   */\n      tag_258\n      tag_160\n      jump\t// in\n    tag_258:\n        /* \"#utility.yul\":2344:2472   */\n    tag_257:\n        /* \"#utility.yul\":1925:2478   */\n      swap3\n      pop\n      swap3\n      swap1\n      pop\n      jump\t// out\n        /* \"#utility.yul\":2484:3301   */\n    tag_14:\n        /* \"#utility.yul\":2572:2578   */\n      0x00\n        /* \"#utility.yul\":2580:2586   */\n      0x00\n        /* \"#utility.yul\":2588:2594   */\n      0x00\n        /* \"#utility.yul\":2596:2602   */\n      0x00\n        /* \"#utility.yul\":2645:2647   */\n      0x60\n        /* \"#utility.yul\":2633:2642   */\n      dup6\n        /* \"#utility.yul\":2624:2631   */\n      dup8\n        /* \"#utility.yul\":2620:2643   */\n      sub\n        /* \"#utility.yul\":2616:2648   */\n      slt\n        /* \"#utility.yul\":2613:2732   */\n      iszero\n      tag_260\n      jumpi\n        /* \"#utility.yul\":2651:2730   */\n      tag_261\n      tag_149\n      jump\t// in\n    tag_261:\n        /* \"#utility.yul\":2613:2732   */\n    tag_260:\n        /* \"#utility.yul\":2771:2772   */\n      0x00\n        /* \"#utility.yul\":2796:2849   */\n      tag_262\n        /* \"#utility.yul\":2841:2848   */\n      dup8\n        /* \"#utility.yul\":2832:2838   */\n      dup3\n        /* \"#utility.yul\":2821:2830   */\n      dup9\n        /* \"#utility.yul\":2817:2839   */\n      add\n        /* \"#utility.yul\":2796:2849   */\n      tag_157\n      jump\t// in\n    tag_262:\n        /* \"#utility.yul\":2786:2849   */\n      swap5\n      pop\n        /* \"#utility.yul\":2742:2859   */\n      pop\n        /* \"#utility.yul\":2926:2928   */\n      0x20\n        /* \"#utility.yul\":2915:2924   */\n      dup6\n        /* \"#utility.yul\":2911:2929   */\n      add\n        /* \"#utility.yul\":2898:2930   */\n      calldataload\n        /* \"#utility.yul\":2957:2975   */\n      0xffffffffffffffff\n        /* \"#utility.yul\":2949:2955   */\n      dup2\n        /* \"#utility.yul\":2946:2976   */\n      gt\n        /* \"#utility.yul\":2943:3060   */\n      iszero\n      tag_263\n      jumpi\n        /* \"#utility.yul\":2979:3058   */\n      tag_264\n      tag_150\n      jump\t// in\n    tag_264:\n        /* \"#utility.yul\":2943:3060   */\n    tag_263:\n        /* \"#utility.yul\":3092:3157   */\n      tag_265\n        /* \"#utility.yul\":3149:3156   */\n      dup8\n        /* \"#utility.yul\":3140:3146   */\n      dup3\n        /* \"#utility.yul\":3129:3138   */\n      dup9\n        /* \"#utility.yul\":3125:3147   */\n      add\n        /* \"#utility.yul\":3092:3157   */\n      tag_161\n      jump\t// in\n    tag_265:\n        /* \"#utility.yul\":3074:3157   */\n      swap4\n      pop\n      swap4\n      pop\n        /* \"#utility.yul\":2869:3167   */\n      pop\n        /* \"#utility.yul\":3206:3208   */\n      0x40\n        /* \"#utility.yul\":3232:3284   */\n      tag_266\n        /* \"#utility.yul\":3276:3283   */\n      dup8\n        /* \"#utility.yul\":3267:3273   */\n      dup3\n        /* \"#utility.yul\":3256:3265   */\n      dup9\n        /* \"#utility.yul\":3252:3274   */\n      add\n        /* \"#utility.yul\":3232:3284   */\n      tag_153\n      jump\t// in\n    tag_266:\n        /* \"#utility.yul\":3222:3284   */\n      swap2\n      pop\n        /* \"#utility.yul\":3177:3294   */\n      pop\n        /* \"#utility.yul\":2484:3301   */\n      swap3\n      swap6\n      swap2\n      swap5\n      pop\n      swap3\n      pop\n      jump\t// out\n        /* \"#utility.yul\":3307:3384   */\n    tag_162:\n        /* \"#utility.yul\":3344:3351   */\n      0x00\n        /* \"#utility.yul\":3373:3378   */\n      dup2\n        /* \"#utility.yul\":3362:3378   */\n      swap1\n      pop\n        /* \"#utility.yul\":3307:3384   */\n      swap2\n      swap1\n      pop\n      jump\t// out\n        /* \"#utility.yul\":3390:3512   */\n    tag_163:\n        /* \"#utility.yul\":3463:3487   */\n      tag_269\n        /* \"#utility.yul\":3481:3486   */\n      dup2\n        /* \"#utility.yul\":3463:3487   */\n      tag_162\n      jump\t// in\n    tag_269:\n        /* \"#utility.yul\":3456:3461   */\n      dup2\n        /* \"#utility.yul\":3453:3488   */\n      eq\n        /* \"#utility.yul\":3443:3506   */\n      tag_270\n      jumpi\n        /* \"#utility.yul\":3502:3503   */\n      0x00\n        /* \"#utility.yul\":3499:3500   */\n      0x00\n        /* \"#utility.yul\":3492:3504   */\n      revert\n        /* \"#utility.yul\":3443:3506   */\n    tag_270:\n        /* \"#utility.yul\":3390:3512   */\n      pop\n      jump\t// out\n        /* \"#utility.yul\":3518:3657   */\n    tag_164:\n        /* \"#utility.yul\":3564:3569   */\n      0x00\n        /* \"#utility.yul\":3602:3608   */\n      dup2\n        /* \"#utility.yul\":3589:3609   */\n      calldataload\n        /* \"#utility.yul\":3580:3609   */\n      swap1\n      pop\n        /* \"#utility.yul\":3618:3651   */\n      tag_272\n        /* \"#utility.yul\":3645:3650   */\n      dup2\n        /* \"#utility.yul\":3618:3651   */\n      tag_163\n      jump\t// in\n    tag_272:\n        /* \"#utility.yul\":3518:3657   */\n      swap3\n      swap2\n      pop\n      pop\n      jump\t// out\n        /* \"#utility.yul\":3663:4137   */\n    tag_18:\n        /* \"#utility.yul\":3731:3737   */\n      0x00\n        /* \"#utility.yul\":3739:3745   */\n      0x00\n        /* \"#utility.yul\":3788:3790   */\n      0x40\n        /* \"#utility.yul\":3776:3785   */\n      dup4\n        /* \"#utility.yul\":3767:3774   */\n      dup6\n        /* \"#utility.yul\":3763:3786   */\n      sub\n        /* \"#utility.yul\":3759:3791   */\n      slt\n        /* \"#utility.yul\":3756:3875   */\n      iszero\n      tag_274\n      jumpi\n        /* \"#utility.yul\":3794:3873   */\n      tag_275\n      tag_149\n      jump\t// in\n    tag_275:\n        /* \"#utility.yul\":3756:3875   */\n    tag_274:\n        /* \"#utility.yul\":3914:3915   */\n      0x00\n        /* \"#utility.yul\":3939:3992   */\n      tag_276\n        /* \"#utility.yul\":3984:3991   */\n      dup6\n        /* \"#utility.yul\":3975:3981   */\n      dup3\n        /* \"#utility.yul\":3964:3973   */\n      dup7\n        /* \"#utility.yul\":3960:3982   */\n      add\n        /* \"#utility.yul\":3939:3992   */\n      tag_164\n      jump\t// in\n    tag_276:\n        /* \"#utility.yul\":3929:3992   */\n      swap3\n      pop\n        /* \"#utility.yul\":3885:4002   */\n      pop\n        /* \"#utility.yul\":4041:4043   */\n      0x20\n        /* \"#utility.yul\":4067:4120   */\n      tag_277\n        /* \"#utility.yul\":4112:4119   */\n      dup6\n        /* \"#utility.yul\":4103:4109   */\n      dup3\n        /* \"#utility.yul\":4092:4101   */\n      dup7\n        /* \"#utility.yul\":4088:4110   */\n      add\n        /* \"#utility.yul\":4067:4120   */\n      tag_164\n      jump\t// in\n    tag_277:\n        /* \"#utility.yul\":4057:4120   */\n      swap2\n      pop\n        /* \"#utility.yul\":4012:4130   */\n      pop\n        /* \"#utility.yul\":3663:4137   */\n      swap3\n      pop\n      swap3\n      swap1\n      pop\n      jump\t// out\n        /* \"#utility.yul\":4143:4233   */\n    tag_165:\n        /* \"#utility.yul\":4177:4184   */\n      0x00\n        /* \"#utility.yul\":4220:4225   */\n      dup2\n        /* \"#utility.yul\":4213:4226   */\n      iszero\n        /* \"#utility.yul\":4206:4227   */\n      iszero\n        /* \"#utility.yul\":4195:4227   */\n      swap1\n      pop\n        /* \"#utility.yul\":4143:4233   */\n      swap2\n      swap1\n      pop\n      jump\t// out\n        /* \"#utility.yul\":4239:4348   */\n    tag_166:\n        /* \"#utility.yul\":4320:4341   */\n      tag_280\n        /* \"#utility.yul\":4335:4340   */\n      dup2\n        /* \"#utility.yul\":4320:4341   */\n      tag_165\n      jump\t// in\n    tag_280:\n        /* \"#utility.yul\":4315:4318   */\n      dup3\n        /* \"#utility.yul\":4308:4342   */\n      mstore\n        /* \"#utility.yul\":4239:4348   */\n      pop\n      pop\n      jump\t// out\n        /* \"#utility.yul\":4354:4564   */\n    tag_21:\n        /* \"#utility.yul\":4441:4445   */\n      0x00\n        /* \"#utility.yul\":4479:4481   */\n      0x20\n        /* \"#utility.yul\":4468:4477   */\n      dup3\n        /* \"#utility.yul\":4464:4482   */\n      add\n        /* \"#utility.yul\":4456:4482   */\n      swap1\n      pop\n        /* \"#utility.yul\":4492:4557   */\n      tag_282\n        /* \"#utility.yul\":4554:4555   */\n      0x00\n        /* \"#utility.yul\":4543:4552   */\n      dup4\n        /* \"#utility.yul\":4539:4556   */\n      add\n        /* \"#utility.yul\":4530:4536   */\n      dup5\n        /* \"#utility.yul\":4492:4557   */\n      tag_166\n      jump\t// in\n    tag_282:\n        /* \"#utility.yul\":4354:4564   */\n      swap3\n      swap2\n      pop\n      pop\n      jump\t// out\n        /* \"#utility.yul\":4570:5042   */\n    tag_24:\n        /* \"#utility.yul\":4637:4643   */\n      0x00\n        /* \"#utility.yul\":4645:4651   */\n      0x00\n        /* \"#utility.yul\":4694:4696   */\n      0x40\n        /* \"#utility.yul\":4682:4691   */\n      dup4\n        /* \"#utility.yul\":4673:4680   */\n      dup6\n        /* \"#utility.yul\":4669:4692   */\n      sub\n        /* \"#utility.yul\":4665:4697   */\n      slt\n        /* \"#utility.yul\":4662:4781   */\n      iszero\n      tag_284\n      jumpi\n        /* \"#utility.yul\":4700:4779   */\n      tag_285\n      tag_149\n      jump\t// in\n    tag_285:\n        /* \"#utility.yul\":4662:4781   */\n    tag_284:\n        /* \"#utility.yul\":4820:4821   */\n      0x00\n        /* \"#utility.yul\":4845:4897   */\n      tag_286\n        /* \"#utility.yul\":4889:4896   */\n      dup6\n        /* \"#utility.yul\":4880:4886   */\n      dup3\n        /* \"#utility.yul\":4869:4878   */\n      dup7\n        /* \"#utility.yul\":4865:4887   */\n      add\n        /* \"#utility.yul\":4845:4897   */\n      tag_153\n      jump\t// in\n    tag_286:\n        /* \"#utility.yul\":4835:4897   */\n      swap3\n      pop\n        /* \"#utility.yul\":4791:4907   */\n      pop\n        /* \"#utility.yul\":4946:4948   */\n      0x20\n        /* \"#utility.yul\":4972:5025   */\n      tag_287\n        /* \"#utility.yul\":5017:5024   */\n      dup6\n        /* \"#utility.yul\":5008:5014   */\n      dup3\n        /* \"#utility.yul\":4997:5006   */\n      dup7\n        /* \"#utility.yul\":4993:5015   */\n      add\n        /* \"#utility.yul\":4972:5025   */\n      tag_157\n      jump\t// in\n    tag_287:\n        /* \"#utility.yul\":4962:5025   */\n      swap2\n      pop\n        /* \"#utility.yul\":4917:5035   */\n      pop\n        /* \"#utility.yul\":4570:5042   */\n      swap3\n      pop\n      swap3\n      swap1\n      pop\n      jump\t// out\n        /* \"#utility.yul\":5048:5217   */\n    tag_167:\n        /* \"#utility.yul\":5132:5143   */\n      0x00\n        /* \"#utility.yul\":5166:5172   */\n      dup3\n        /* \"#utility.yul\":5161:5164   */\n      dup3\n        /* \"#utility.yul\":5154:5173   */\n      mstore\n        /* \"#utility.yul\":5206:5210   */\n      0x20\n        /* \"#utility.yul\":5201:5204   */\n      dup3\n        /* \"#utility.yul\":5197:5211   */\n      add\n        /* \"#utility.yul\":5182:5211   */\n      swap1\n      pop\n        /* \"#utility.yul\":5048:5217   */\n      swap3\n      swap2\n      pop\n      pop\n      jump\t// out\n        /* \"#utility.yul\":5223:5516   */\n    tag_168:\n        /* \"#utility.yul\":5363:5397   */\n      0x546869732066756e6374696f6e20732063616e206265206f6e6c792065786563\n        /* \"#utility.yul\":5359:5360   */\n      0x00\n        /* \"#utility.yul\":5351:5357   */\n      dup3\n        /* \"#utility.yul\":5347:5361   */\n      add\n        /* \"#utility.yul\":5340:5398   */\n      mstore\n        /* \"#utility.yul\":5432:5466   */\n      0x757465206279204d656d6265722c2061646472657373206973206e6f74204d65\n        /* \"#utility.yul\":5427:5429   */\n      0x20\n        /* \"#utility.yul\":5419:5425   */\n      dup3\n        /* \"#utility.yul\":5415:5430   */\n      add\n        /* \"#utility.yul\":5408:5467   */\n      mstore\n        /* \"#utility.yul\":5501:5508   */\n      0x6d6265722e000000000000000000000000000000000000000000000000000000\n        /* \"#utility.yul\":5496:5498   */\n      0x40\n        /* \"#utility.yul\":5488:5494   */\n      dup3\n        /* \"#utility.yul\":5484:5499   */\n      add\n        /* \"#utility.yul\":5477:5509   */\n      mstore\n        /* \"#utility.yul\":5223:5516   */\n      pop\n      jump\t// out\n        /* \"#utility.yul\":5522:5888   */\n    tag_169:\n        /* \"#utility.yul\":5664:5667   */\n      0x00\n        /* \"#utility.yul\":5685:5752   */\n      tag_291\n        /* \"#utility.yul\":5749:5751   */\n      0x45\n        /* \"#utility.yul\":5744:5747   */\n      dup4\n        /* \"#utility.yul\":5685:5752   */\n      tag_167\n      jump\t// in\n    tag_291:\n        /* \"#utility.yul\":5678:5752   */\n      swap2\n      pop\n        /* \"#utility.yul\":5761:5854   */\n      tag_292\n        /* \"#utility.yul\":5850:5853   */\n      dup3\n        /* \"#utility.yul\":5761:5854   */\n      tag_168\n      jump\t// in\n    tag_292:\n        /* \"#utility.yul\":5879:5881   */\n      0x60\n        /* \"#utility.yul\":5874:5877   */\n      dup3\n        /* \"#utility.yul\":5870:5882   */\n      add\n        /* \"#utility.yul\":5863:5882   */\n      swap1\n      pop\n        /* \"#utility.yul\":5522:5888   */\n      swap2\n      swap1\n      pop\n      jump\t// out\n        /* \"#utility.yul\":5894:6313   */\n    tag_31:\n        /* \"#utility.yul\":6060:6064   */\n      0x00\n        /* \"#utility.yul\":6098:6100   */\n      0x20\n        /* \"#utility.yul\":6087:6096   */\n      dup3\n        /* \"#utility.yul\":6083:6101   */\n      add\n        /* \"#utility.yul\":6075:6101   */\n      swap1\n      pop\n        /* \"#utility.yul\":6147:6156   */\n      dup2\n        /* \"#utility.yul\":6141:6145   */\n      dup2\n        /* \"#utility.yul\":6137:6157   */\n      sub\n        /* \"#utility.yul\":6133:6134   */\n      0x00\n        /* \"#utility.yul\":6122:6131   */\n      dup4\n        /* \"#utility.yul\":6118:6135   */\n      add\n        /* \"#utility.yul\":6111:6158   */\n      mstore\n        /* \"#utility.yul\":6175:6306   */\n      tag_294\n        /* \"#utility.yul\":6301:6305   */\n      dup2\n        /* \"#utility.yul\":6175:6306   */\n      tag_169\n      jump\t// in\n    tag_294:\n        /* \"#utility.yul\":6167:6306   */\n      swap1\n      pop\n        /* \"#utility.yul\":5894:6313   */\n      swap2\n      swap1\n      pop\n      jump\t// out\n        /* \"#utility.yul\":6319:6499   */\n    tag_35:\n        /* \"#utility.yul\":6367:6444   */\n      0x4e487b7100000000000000000000000000000000000000000000000000000000\n        /* \"#utility.yul\":6364:6365   */\n      0x00\n        /* \"#utility.yul\":6357:6445   */\n      mstore\n        /* \"#utility.yul\":6464:6468   */\n      0x32\n        /* \"#utility.yul\":6461:6462   */\n      0x04\n        /* \"#utility.yul\":6454:6469   */\n      mstore\n        /* \"#utility.yul\":6488:6492   */\n      0x24\n        /* \"#utility.yul\":6485:6486   */\n      0x00\n        /* \"#utility.yul\":6478:6493   */\n      revert\n        /* \"#utility.yul\":6505:6732   */\n    tag_170:\n        /* \"#utility.yul\":6645:6679   */\n      0x41646472657373206973206e6f74207468652061737369676e6565206f662074\n        /* \"#utility.yul\":6641:6642   */\n      0x00\n        /* \"#utility.yul\":6633:6639   */\n      dup3\n        /* \"#utility.yul\":6629:6643   */\n      add\n        /* \"#utility.yul\":6622:6680   */\n      mstore\n        /* \"#utility.yul\":6714:6724   */\n      0x6865207461736b2e000000000000000000000000000000000000000000000000\n        /* \"#utility.yul\":6709:6711   */\n      0x20\n        /* \"#utility.yul\":6701:6707   */\n      dup3\n        /* \"#utility.yul\":6697:6712   */\n      add\n        /* \"#utility.yul\":6690:6725   */\n      mstore\n        /* \"#utility.yul\":6505:6732   */\n      pop\n      jump\t// out\n        /* \"#utility.yul\":6738:7104   */\n    tag_171:\n        /* \"#utility.yul\":6880:6883   */\n      0x00\n        /* \"#utility.yul\":6901:6968   */\n      tag_298\n        /* \"#utility.yul\":6965:6967   */\n      0x28\n        /* \"#utility.yul\":6960:6963   */\n      dup4\n        /* \"#utility.yul\":6901:6968   */\n      tag_167\n      jump\t// in\n    tag_298:\n        /* \"#utility.yul\":6894:6968   */\n      swap2\n      pop\n        /* \"#utility.yul\":6977:7070   */\n      tag_299\n        /* \"#utility.yul\":7066:7069   */\n      dup3\n        /* \"#utility.yul\":6977:7070   */\n      tag_170\n      jump\t// in\n    tag_299:\n        /* \"#utility.yul\":7095:7097   */\n      0x40\n        /* \"#utility.yul\":7090:7093   */\n      dup3\n        /* \"#utility.yul\":7086:7098   */\n      add\n        /* \"#utility.yul\":7079:7098   */\n      swap1\n      pop\n        /* \"#utility.yul\":6738:7104   */\n      swap2\n      swap1\n      pop\n      jump\t// out\n        /* \"#utility.yul\":7110:7529   */\n    tag_39:\n        /* \"#utility.yul\":7276:7280   */\n      0x00\n        /* \"#utility.yul\":7314:7316   */\n      0x20\n        /* \"#utility.yul\":7303:7312   */\n      dup3\n        /* \"#utility.yul\":7299:7317   */\n      add\n        /* \"#utility.yul\":7291:7317   */\n      swap1\n      pop\n        /* \"#utility.yul\":7363:7372   */\n      dup2\n        /* \"#utility.yul\":7357:7361   */\n      dup2\n        /* \"#utility.yul\":7353:7373   */\n      sub\n        /* \"#utility.yul\":7349:7350   */\n      0x00\n        /* \"#utility.yul\":7338:7347   */\n      dup4\n        /* \"#utility.yul\":7334:7351   */\n      add\n        /* \"#utility.yul\":7327:7374   */\n      mstore\n        /* \"#utility.yul\":7391:7522   */\n      tag_301\n        /* \"#utility.yul\":7517:7521   */\n      dup2\n        /* \"#utility.yul\":7391:7522   */\n      tag_171\n      jump\t// in\n    tag_301:\n        /* \"#utility.yul\":7383:7522   */\n      swap1\n      pop\n        /* \"#utility.yul\":7110:7529   */\n      swap2\n      swap1\n      pop\n      jump\t// out\n        /* \"#utility.yul\":7535:7715   */\n    tag_42:\n        /* \"#utility.yul\":7583:7660   */\n      0x4e487b7100000000000000000000000000000000000000000000000000000000\n        /* \"#utility.yul\":7580:7581   */\n      0x00\n        /* \"#utility.yul\":7573:7661   */\n      mstore\n        /* \"#utility.yul\":7680:7684   */\n      0x21\n        /* \"#utility.yul\":7677:7678   */\n      0x04\n        /* \"#utility.yul\":7670:7685   */\n      mstore\n        /* \"#utility.yul\":7704:7708   */\n      0x24\n        /* \"#utility.yul\":7701:7702   */\n      0x00\n        /* \"#utility.yul\":7694:7709   */\n      revert\n        /* \"#utility.yul\":7721:7897   */\n    tag_172:\n        /* \"#utility.yul\":7861:7889   */\n      0x5461736b20697320616c726561647920636f6d706c657465642e000000000000\n        /* \"#utility.yul\":7857:7858   */\n      0x00\n        /* \"#utility.yul\":7849:7855   */\n      dup3\n        /* \"#utility.yul\":7845:7859   */\n      add\n        /* \"#utility.yul\":7838:7890   */\n      mstore\n        /* \"#utility.yul\":7721:7897   */\n      pop\n      jump\t// out\n        /* \"#utility.yul\":7903:8269   */\n    tag_173:\n        /* \"#utility.yul\":8045:8048   */\n      0x00\n        /* \"#utility.yul\":8066:8133   */\n      tag_305\n        /* \"#utility.yul\":8130:8132   */\n      0x1a\n        /* \"#utility.yul\":8125:8128   */\n      dup4\n        /* \"#utility.yul\":8066:8133   */\n      tag_167\n      jump\t// in\n    tag_305:\n        /* \"#utility.yul\":8059:8133   */\n      swap2\n      pop\n        /* \"#utility.yul\":8142:8235   */\n      tag_306\n        /* \"#utility.yul\":8231:8234   */\n      dup3\n        /* \"#utility.yul\":8142:8235   */\n      tag_172\n      jump\t// in\n    tag_306:\n        /* \"#utility.yul\":8260:8262   */\n      0x20\n        /* \"#utility.yul\":8255:8258   */\n      dup3\n        /* \"#utility.yul\":8251:8263   */\n      add\n        /* \"#utility.yul\":8244:8263   */\n      swap1\n      pop\n        /* \"#utility.yul\":7903:8269   */\n      swap2\n      swap1\n      pop\n      jump\t// out\n        /* \"#utility.yul\":8275:8694   */\n    tag_50:\n        /* \"#utility.yul\":8441:8445   */\n      0x00\n        /* \"#utility.yul\":8479:8481   */\n      0x20\n        /* \"#utility.yul\":8468:8477   */\n      dup3\n        /* \"#utility.yul\":8464:8482   */\n      add\n        /* \"#utility.yul\":8456:8482   */\n      swap1\n      pop\n        /* \"#utility.yul\":8528:8537   */\n      dup2\n        /* \"#utility.yul\":8522:8526   */\n      dup2\n        /* \"#utility.yul\":8518:8538   */\n      sub\n        /* \"#utility.yul\":8514:8515   */\n      0x00\n        /* \"#utility.yul\":8503:8512   */\n      dup4\n        /* \"#utility.yul\":8499:8516   */\n      add\n        /* \"#utility.yul\":8492:8539   */\n      mstore\n        /* \"#utility.yul\":8556:8687   */\n      tag_308\n        /* \"#utility.yul\":8682:8686   */\n      dup2\n        /* \"#utility.yul\":8556:8687   */\n      tag_173\n      jump\t// in\n    tag_308:\n        /* \"#utility.yul\":8548:8687   */\n      swap1\n      pop\n        /* \"#utility.yul\":8275:8694   */\n      swap2\n      swap1\n      pop\n      jump\t// out\n        /* \"#utility.yul\":8700:8879   */\n    tag_174:\n        /* \"#utility.yul\":8840:8871   */\n      0x5461736b20686173207061737365642074686520646561646c696e652e000000\n        /* \"#utility.yul\":8836:8837   */\n      0x00\n        /* \"#utility.yul\":8828:8834   */\n      dup3\n        /* \"#utility.yul\":8824:8838   */\n      add\n        /* \"#utility.yul\":8817:8872   */\n      mstore\n        /* \"#utility.yul\":8700:8879   */\n      pop\n      jump\t// out\n        /* \"#utility.yul\":8885:9251   */\n    tag_175:\n        /* \"#utility.yul\":9027:9030   */\n      0x00\n        /* \"#utility.yul\":9048:9115   */\n      tag_311\n        /* \"#utility.yul\":9112:9114   */\n      0x1d\n        /* \"#utility.yul\":9107:9110   */\n      dup4\n        /* \"#utility.yul\":9048:9115   */\n      tag_167\n      jump\t// in\n    tag_311:\n        /* \"#utility.yul\":9041:9115   */\n      swap2\n      pop\n        /* \"#utility.yul\":9124:9217   */\n      tag_312\n        /* \"#utility.yul\":9213:9216   */\n      dup3\n        /* \"#utility.yul\":9124:9217   */\n      tag_174\n      jump\t// in\n    tag_312:\n        /* \"#utility.yul\":9242:9244   */\n      0x20\n        /* \"#utility.yul\":9237:9240   */\n      dup3\n        /* \"#utility.yul\":9233:9245   */\n      add\n        /* \"#utility.yul\":9226:9245   */\n      swap1\n      pop\n        /* \"#utility.yul\":8885:9251   */\n      swap2\n      swap1\n      pop\n      jump\t// out\n        /* \"#utility.yul\":9257:9676   */\n    tag_63:\n        /* \"#utility.yul\":9423:9427   */\n      0x00\n        /* \"#utility.yul\":9461:9463   */\n      0x20\n        /* \"#utility.yul\":9450:9459   */\n      dup3\n        /* \"#utility.yul\":9446:9464   */\n      add\n        /* \"#utility.yul\":9438:9464   */\n      swap1\n      pop\n        /* \"#utility.yul\":9510:9519   */\n      dup2\n        /* \"#utility.yul\":9504:9508   */\n      dup2\n        /* \"#utility.yul\":9500:9520   */\n      sub\n        /* \"#utility.yul\":9496:9497   */\n      0x00\n        /* \"#utility.yul\":9485:9494   */\n      dup4\n        /* \"#utility.yul\":9481:9498   */\n      add\n        /* \"#utility.yul\":9474:9521   */\n      mstore\n        /* \"#utility.yul\":9538:9669   */\n      tag_314\n        /* \"#utility.yul\":9664:9668   */\n      dup2\n        /* \"#utility.yul\":9538:9669   */\n      tag_175\n      jump\t// in\n    tag_314:\n        /* \"#utility.yul\":9530:9669   */\n      swap1\n      pop\n        /* \"#utility.yul\":9257:9676   */\n      swap2\n      swap1\n      pop\n      jump\t// out\n        /* \"#utility.yul\":9682:9980   */\n    tag_176:\n        /* \"#utility.yul\":9822:9856   */\n      0x546869732066756e6374696f6e2069732063616e206265206f6e6c7920657865\n        /* \"#utility.yul\":9818:9819   */\n      0x00\n        /* \"#utility.yul\":9810:9816   */\n      dup3\n        /* \"#utility.yul\":9806:9820   */\n      add\n        /* \"#utility.yul\":9799:9857   */\n      mstore\n        /* \"#utility.yul\":9891:9925   */\n      0x637574652062792041737369676e65722c2061646472657373206973206e6f74\n        /* \"#utility.yul\":9886:9888   */\n      0x20\n        /* \"#utility.yul\":9878:9884   */\n      dup3\n        /* \"#utility.yul\":9874:9889   */\n      add\n        /* \"#utility.yul\":9867:9926   */\n      mstore\n        /* \"#utility.yul\":9960:9972   */\n      0x2061737369676e65722e00000000000000000000000000000000000000000000\n        /* \"#utility.yul\":9955:9957   */\n      0x40\n        /* \"#utility.yul\":9947:9953   */\n      dup3\n        /* \"#utility.yul\":9943:9958   */\n      add\n        /* \"#utility.yul\":9936:9973   */\n      mstore\n        /* \"#utility.yul\":9682:9980   */\n      pop\n      jump\t// out\n        /* \"#utility.yul\":9986:10352   */\n    tag_177:\n        /* \"#utility.yul\":10128:10131   */\n      0x00\n        /* \"#utility.yul\":10149:10216   */\n      tag_317\n        /* \"#utility.yul\":10213:10215   */\n      0x4a\n        /* \"#utility.yul\":10208:10211   */\n      dup4\n        /* \"#utility.yul\":10149:10216   */\n      tag_167\n      jump\t// in\n    tag_317:\n        /* \"#utility.yul\":10142:10216   */\n      swap2\n      pop\n        /* \"#utility.yul\":10225:10318   */\n      tag_318\n        /* \"#utility.yul\":10314:10317   */\n      dup3\n        /* \"#utility.yul\":10225:10318   */\n      tag_176\n      jump\t// in\n    tag_318:\n        /* \"#utility.yul\":10343:10345   */\n      0x60\n        /* \"#utility.yul\":10338:10341   */\n      dup3\n        /* \"#utility.yul\":10334:10346   */\n      add\n        /* \"#utility.yul\":10327:10346   */\n      swap1\n      pop\n        /* \"#utility.yul\":9986:10352   */\n      swap2\n      swap1\n      pop\n      jump\t// out\n        /* \"#utility.yul\":10358:10777   */\n    tag_72:\n        /* \"#utility.yul\":10524:10528   */\n      0x00\n        /* \"#utility.yul\":10562:10564   */\n      0x20\n        /* \"#utility.yul\":10551:10560   */\n      dup3\n        /* \"#utility.yul\":10547:10565   */\n      add\n        /* \"#utility.yul\":10539:10565   */\n      swap1\n      pop\n        /* \"#utility.yul\":10611:10620   */\n      dup2\n        /* \"#utility.yul\":10605:10609   */\n      dup2\n        /* \"#utility.yul\":10601:10621   */\n      sub\n        /* \"#utility.yul\":10597:10598   */\n      0x00\n        /* \"#utility.yul\":10586:10595   */\n      dup4\n        /* \"#utility.yul\":10582:10599   */\n      add\n        /* \"#utility.yul\":10575:10622   */\n      mstore\n        /* \"#utility.yul\":10639:10770   */\n      tag_320\n        /* \"#utility.yul\":10765:10769   */\n      dup2\n        /* \"#utility.yul\":10639:10770   */\n      tag_177\n      jump\t// in\n    tag_320:\n        /* \"#utility.yul\":10631:10770   */\n      swap1\n      pop\n        /* \"#utility.yul\":10358:10777   */\n      swap2\n      swap1\n      pop\n      jump\t// out\n        /* \"#utility.yul\":10783:10882   */\n    tag_178:\n        /* \"#utility.yul\":10835:10841   */\n      0x00\n        /* \"#utility.yul\":10869:10874   */\n      dup2\n        /* \"#utility.yul\":10863:10875   */\n      mload\n        /* \"#utility.yul\":10853:10875   */\n      swap1\n      pop\n        /* \"#utility.yul\":10783:10882   */\n      swap2\n      swap1\n      pop\n      jump\t// out\n        /* \"#utility.yul\":10888:11068   */\n    tag_179:\n        /* \"#utility.yul\":10936:11013   */\n      0x4e487b7100000000000000000000000000000000000000000000000000000000\n        /* \"#utility.yul\":10933:10934   */\n      0x00\n        /* \"#utility.yul\":10926:11014   */\n      mstore\n        /* \"#utility.yul\":11033:11037   */\n      0x41\n        /* \"#utility.yul\":11030:11031   */\n      0x04\n        /* \"#utility.yul\":11023:11038   */\n      mstore\n        /* \"#utility.yul\":11057:11061   */\n      0x24\n        /* \"#utility.yul\":11054:11055   */\n      0x00\n        /* \"#utility.yul\":11047:11062   */\n      revert\n        /* \"#utility.yul\":11074:11254   */\n    tag_180:\n        /* \"#utility.yul\":11122:11199   */\n      0x4e487b7100000000000000000000000000000000000000000000000000000000\n        /* \"#utility.yul\":11119:11120   */\n      0x00\n        /* \"#utility.yul\":11112:11200   */\n      mstore\n        /* \"#utility.yul\":11219:11223   */\n      0x22\n        /* \"#utility.yul\":11216:11217   */\n      0x04\n        /* \"#utility.yul\":11209:11224   */\n      mstore\n        /* \"#utility.yul\":11243:11247   */\n      0x24\n        /* \"#utility.yul\":11240:11241   */\n      0x00\n        /* \"#utility.yul\":11233:11248   */\n      revert\n        /* \"#utility.yul\":11260:11580   */\n    tag_181:\n        /* \"#utility.yul\":11304:11310   */\n      0x00\n        /* \"#utility.yul\":11341:11342   */\n      0x02\n        /* \"#utility.yul\":11335:11339   */\n      dup3\n        /* \"#utility.yul\":11331:11343   */\n      div\n        /* \"#utility.yul\":11321:11343   */\n      swap1\n      pop\n        /* \"#utility.yul\":11388:11389   */\n      0x01\n        /* \"#utility.yul\":11382:11386   */\n      dup3\n        /* \"#utility.yul\":11378:11390   */\n      and\n        /* \"#utility.yul\":11409:11427   */\n      dup1\n        /* \"#utility.yul\":11399:11480   */\n      tag_325\n      jumpi\n        /* \"#utility.yul\":11465:11469   */\n      0x7f\n        /* \"#utility.yul\":11457:11463   */\n      dup3\n        /* \"#utility.yul\":11453:11470   */\n      and\n        /* \"#utility.yul\":11443:11470   */\n      swap2\n      pop\n        /* \"#utility.yul\":11399:11480   */\n    tag_325:\n        /* \"#utility.yul\":11527:11529   */\n      0x20\n        /* \"#utility.yul\":11519:11525   */\n      dup3\n        /* \"#utility.yul\":11516:11530   */\n      lt\n        /* \"#utility.yul\":11496:11514   */\n      dup2\n        /* \"#utility.yul\":11493:11531   */\n      sub\n        /* \"#utility.yul\":11490:11574   */\n      tag_326\n      jumpi\n        /* \"#utility.yul\":11546:11564   */\n      tag_327\n      tag_180\n      jump\t// in\n    tag_327:\n        /* \"#utility.yul\":11490:11574   */\n    tag_326:\n        /* \"#utility.yul\":11311:11580   */\n      pop\n        /* \"#utility.yul\":11260:11580   */\n      swap2\n      swap1\n      pop\n      jump\t// out\n        /* \"#utility.yul\":11586:11727   */\n    tag_182:\n        /* \"#utility.yul\":11635:11639   */\n      0x00\n        /* \"#utility.yul\":11658:11661   */\n      dup2\n        /* \"#utility.yul\":11650:11661   */\n      swap1\n      pop\n        /* \"#utility.yul\":11681:11684   */\n      dup2\n        /* \"#utility.yul\":11678:11679   */\n      0x00\n        /* \"#utility.yul\":11671:11685   */\n      mstore\n        /* \"#utility.yul\":11715:11719   */\n      0x20\n        /* \"#utility.yul\":11712:11713   */\n      0x00\n        /* \"#utility.yul\":11702:11720   */\n      keccak256\n        /* \"#utility.yul\":11694:11720   */\n      swap1\n      pop\n        /* \"#utility.yul\":11586:11727   */\n      swap2\n      swap1\n      pop\n      jump\t// out\n        /* \"#utility.yul\":11733:11826   */\n    tag_183:\n        /* \"#utility.yul\":11770:11776   */\n      0x00\n        /* \"#utility.yul\":11817:11819   */\n      0x20\n        /* \"#utility.yul\":11812:11814   */\n      0x1f\n        /* \"#utility.yul\":11805:11810   */\n      dup4\n        /* \"#utility.yul\":11801:11815   */\n      add\n        /* \"#utility.yul\":11797:11820   */\n      div\n        /* \"#utility.yul\":11787:11820   */\n      swap1\n      pop\n        /* \"#utility.yul\":11733:11826   */\n      swap2\n      swap1\n      pop\n      jump\t// out\n        /* \"#utility.yul\":11832:11939   */\n    tag_184:\n        /* \"#utility.yul\":11876:11884   */\n      0x00\n        /* \"#utility.yul\":11926:11931   */\n      dup3\n        /* \"#utility.yul\":11920:11924   */\n      dup3\n        /* \"#utility.yul\":11916:11932   */\n      shl\n        /* \"#utility.yul\":11895:11932   */\n      swap1\n      pop\n        /* \"#utility.yul\":11832:11939   */\n      swap3\n      swap2\n      pop\n      pop\n      jump\t// out\n        /* \"#utility.yul\":11945:12338   */\n    tag_185:\n        /* \"#utility.yul\":12014:12020   */\n      0x00\n        /* \"#utility.yul\":12064:12065   */\n      0x08\n        /* \"#utility.yul\":12052:12062   */\n      dup4\n        /* \"#utility.yul\":12048:12066   */\n      mul\n        /* \"#utility.yul\":12087:12184   */\n      tag_332\n        /* \"#utility.yul\":12117:12183   */\n      0xffffffffffffffffffffffffffffffffffffffffffffffffffffffffffffffff\n        /* \"#utility.yul\":12106:12115   */\n      dup3\n        /* \"#utility.yul\":12087:12184   */\n      tag_184\n      jump\t// in\n    tag_332:\n        /* \"#utility.yul\":12205:12244   */\n      tag_333\n        /* \"#utility.yul\":12235:12243   */\n      dup7\n        /* \"#utility.yul\":12224:12233   */\n      dup4\n        /* \"#utility.yul\":12205:12244   */\n      tag_184\n      jump\t// in\n    tag_333:\n        /* \"#utility.yul\":12193:12244   */\n      swap6\n      pop\n        /* \"#utility.yul\":12277:12281   */\n      dup1\n        /* \"#utility.yul\":12273:12282   */\n      not\n        /* \"#utility.yul\":12266:12271   */\n      dup5\n        /* \"#utility.yul\":12262:12283   */\n      and\n        /* \"#utility.yul\":12253:12283   */\n      swap4\n      pop\n        /* \"#utility.yul\":12326:12330   */\n      dup1\n        /* \"#utility.yul\":12316:12324   */\n      dup7\n        /* \"#utility.yul\":12312:12331   */\n      and\n        /* \"#utility.yul\":12305:12310   */\n      dup5\n        /* \"#utility.yul\":12302:12332   */\n      or\n        /* \"#utility.yul\":12292:12332   */\n      swap3\n      pop\n        /* \"#utility.yul\":12021:12338   */\n      pop\n      pop\n        /* \"#utility.yul\":11945:12338   */\n      swap4\n      swap3\n      pop\n      pop\n      pop\n      jump\t// out\n        /* \"#utility.yul\":12344:12404   */\n    tag_186:\n        /* \"#utility.yul\":12372:12375   */\n      0x00\n        /* \"#utility.yul\":12393:12398   */\n      dup2\n        /* \"#utility.yul\":12386:12398   */\n      swap1\n      pop\n        /* \"#utility.yul\":12344:12404   */\n      swap2\n      swap1\n      pop\n      jump\t// out\n        /* \"#utility.yul\":12410:12552   */\n    tag_187:\n        /* \"#utility.yul\":12460:12469   */\n      0x00\n        /* \"#utility.yul\":12493:12546   */\n      tag_336\n        /* \"#utility.yul\":12511:12545   */\n      tag_337\n        /* \"#utility.yul\":12520:12544   */\n      tag_338\n        /* \"#utility.yul\":12538:12543   */\n      dup5\n        /* \"#utility.yul\":12520:12544   */\n      tag_162\n      jump\t// in\n    tag_338:\n        /* \"#utility.yul\":12511:12545   */\n      tag_186\n      jump\t// in\n    tag_337:\n        /* \"#utility.yul\":12493:12546   */\n      tag_162\n      jump\t// in\n    tag_336:\n        /* \"#utility.yul\":12480:12546   */\n      swap1\n      pop\n        /* \"#utility.yul\":12410:12552   */\n      swap2\n      swap1\n      pop\n      jump\t// out\n        /* \"#utility.yul\":12558:12633   */\n    tag_188:\n        /* \"#utility.yul\":12601:12604   */\n      0x00\n        /* \"#utility.yul\":12622:12627   */\n      dup2\n        /* \"#utility.yul\":12615:12627   */\n      swap1\n      pop\n        /* \"#utility.yul\":12558:12633   */\n      swap2\n      swap1\n      pop\n      jump\t// out\n        /* \"#utility.yul\":12639:12908   */\n    tag_189:\n        /* \"#utility.yul\":12749:12788   */\n      tag_341\n        /* \"#utility.yul\":12780:12787   */\n      dup4\n        /* \"#utility.yul\":12749:12788   */\n      tag_187\n      jump\t// in\n    tag_341:\n        /* \"#utility.yul\":12810:12901   */\n      tag_342\n        /* \"#utility.yul\":12859:12900   */\n      tag_343\n        /* \"#utility.yul\":12883:12899   */\n      dup3\n        /* \"#utility.yul\":12859:12900   */\n      tag_188\n      jump\t// in\n    tag_343:\n        /* \"#utility.yul\":12851:12857   */\n      dup5\n        /* \"#utility.yul\":12844:12848   */\n      dup5\n        /* \"#utility.yul\":12838:12849   */\n      sload\n        /* \"#utility.yul\":12810:12901   */\n      tag_185\n      jump\t// in\n    tag_342:\n        /* \"#utility.yul\":12804:12808   */\n      dup3\n        /* \"#utility.yul\":12797:12902   */\n      sstore\n        /* \"#utility.yul\":12715:12908   */\n      pop\n        /* \"#utility.yul\":12639:12908   */\n      pop\n      pop\n      pop\n      jump\t// out\n        /* \"#utility.yul\":12914:12987   */\n    tag_190:\n        /* \"#utility.yul\":12959:12962   */\n      0x00\n        /* \"#utility.yul\":12980:12981   */\n      0x00\n        /* \"#utility.yul\":12973:12981   */\n      swap1\n      pop\n        /* \"#utility.yul\":12914:12987   */\n      swap1\n      jump\t// out\n        /* \"#utility.yul\":12993:13182   */\n    tag_191:\n        /* \"#utility.yul\":13070:13102   */\n      tag_346\n      tag_190\n      jump\t// in\n    tag_346:\n        /* \"#utility.yul\":13111:13176   */\n      tag_347\n        /* \"#utility.yul\":13169:13175   */\n      dup2\n        /* \"#utility.yul\":13161:13167   */\n      dup5\n        /* \"#utility.yul\":13155:13159   */\n      dup5\n        /* \"#utility.yul\":13111:13176   */\n      tag_189\n      jump\t// in\n    tag_347:\n        /* \"#utility.yul\":13046:13182   */\n      pop\n        /* \"#utility.yul\":12993:13182   */\n      pop\n      pop\n      jump\t// out\n        /* \"#utility.yul\":13188:13374   */\n    tag_192:\n        /* \"#utility.yul\":13248:13368   */\n    tag_349:\n        /* \"#utility.yul\":13265:13268   */\n      dup2\n        /* \"#utility.yul\":13258:13263   */\n      dup2\n        /* \"#utility.yul\":13255:13269   */\n      lt\n        /* \"#utility.yul\":13248:13368   */\n      iszero\n      tag_351\n      jumpi\n        /* \"#utility.yul\":13319:13358   */\n      tag_352\n        /* \"#utility.yul\":13356:13357   */\n      0x00\n        /* \"#utility.yul\":13349:13354   */\n      dup3\n        /* \"#utility.yul\":13319:13358   */\n      tag_191\n      jump\t// in\n    tag_352:\n        /* \"#utility.yul\":13292:13293   */\n      0x01\n        /* \"#utility.yul\":13285:13290   */\n      dup2\n        /* \"#utility.yul\":13281:13294   */\n      add\n        /* \"#utility.yul\":13272:13294   */\n      swap1\n      pop\n        /* \"#utility.yul\":13248:13368   */\n      jump(tag_349)\n    tag_351:\n        /* \"#utility.yul\":13188:13374   */\n      pop\n      pop\n      jump\t// out\n        /* \"#utility.yul\":13380:13923   */\n    tag_193:\n        /* \"#utility.yul\":13481:13483   */\n      0x1f\n        /* \"#utility.yul\":13476:13479   */\n      dup3\n        /* \"#utility.yul\":13473:13484   */\n      gt\n        /* \"#utility.yul\":13470:13916   */\n      iszero\n      tag_354\n      jumpi\n        /* \"#utility.yul\":13515:13553   */\n      tag_355\n        /* \"#utility.yul\":13547:13552   */\n      dup2\n        /* \"#utility.yul\":13515:13553   */\n      tag_182\n      jump\t// in\n    tag_355:\n        /* \"#utility.yul\":13599:13628   */\n      tag_356\n        /* \"#utility.yul\":13617:13627   */\n      dup5\n        /* \"#utility.yul\":13599:13628   */\n      tag_183\n      jump\t// in\n    tag_356:\n        /* \"#utility.yul\":13589:13597   */\n      dup2\n        /* \"#utility.yul\":13585:13629   */\n      add\n        /* \"#utility.yul\":13782:13784   */\n      0x20\n        /* \"#utility.yul\":13770:13780   */\n      dup6\n        /* \"#utility.yul\":13767:13785   */\n      lt\n        /* \"#utility.yul\":13764:13813   */\n      iszero\n      tag_357\n      jumpi\n        /* \"#utility.yul\":13803:13811   */\n      dup2\n        /* \"#utility.yul\":13788:13811   */\n      swap1\n      pop\n        /* \"#utility.yul\":13764:13813   */\n    tag_357:\n        /* \"#utility.yul\":13826:13906   */\n      tag_358\n        /* \"#utility.yul\":13882:13904   */\n      tag_359\n        /* \"#utility.yul\":13900:13903   */\n      dup6\n        /* \"#utility.yul\":13882:13904   */\n      tag_183\n      jump\t// in\n    tag_359:\n        /* \"#utility.yul\":13872:13880   */\n      dup4\n        /* \"#utility.yul\":13868:13905   */\n      add\n        /* \"#utility.yul\":13855:13866   */\n      dup3\n        /* \"#utility.yul\":13826:13906   */\n      tag_192\n      jump\t// in\n    tag_358:\n        /* \"#utility.yul\":13485:13916   */\n      pop\n      pop\n        /* \"#utility.yul\":13470:13916   */\n    tag_354:\n        /* \"#utility.yul\":13380:13923   */\n      pop\n      pop\n      pop\n      jump\t// out\n        /* \"#utility.yul\":13929:14046   */\n    tag_194:\n        /* \"#utility.yul\":13983:13991   */\n      0x00\n        /* \"#utility.yul\":14033:14038   */\n      dup3\n        /* \"#utility.yul\":14027:14031   */\n      dup3\n        /* \"#utility.yul\":14023:14039   */\n      shr\n        /* \"#utility.yul\":14002:14039   */\n      swap1\n      pop\n        /* \"#utility.yul\":13929:14046   */\n      swap3\n      swap2\n      pop\n      pop\n      jump\t// out\n        /* \"#utility.yul\":14052:14221   */\n    tag_195:\n        /* \"#utility.yul\":14096:14102   */\n      0x00\n        /* \"#utility.yul\":14129:14180   */\n      tag_362\n        /* \"#utility.yul\":14177:14178   */\n      0x00\n        /* \"#utility.yul\":14173:14179   */\n      not\n        /* \"#utility.yul\":14165:14170   */\n      dup5\n        /* \"#utility.yul\":14162:14163   */\n      0x08\n        /* \"#utility.yul\":14158:14171   */\n      mul\n        /* \"#utility.yul\":14129:14180   */\n      tag_194\n      jump\t// in\n    tag_362:\n        /* \"#utility.yul\":14125:14181   */\n      not\n        /* \"#utility.yul\":14210:14214   */\n      dup1\n        /* \"#utility.yul\":14204:14208   */\n      dup4\n        /* \"#utility.yul\":14200:14215   */\n      and\n        /* \"#utility.yul\":14190:14215   */\n      swap2\n      pop\n        /* \"#utility.yul\":14103:14221   */\n      pop\n        /* \"#utility.yul\":14052:14221   */\n      swap3\n      swap2\n      pop\n      pop\n      jump\t// out\n        /* \"#utility.yul\":14226:14521   */\n    tag_196:\n        /* \"#utility.yul\":14302:14306   */\n      0x00\n        /* \"#utility.yul\":14448:14477   */\n      tag_364\n        /* \"#utility.yul\":14473:14476   */\n      dup4\n        /* \"#utility.yul\":14467:14471   */\n      dup4\n        /* \"#utility.yul\":14448:14477   */\n      tag_195\n      jump\t// in\n    tag_364:\n        /* \"#utility.yul\":14440:14477   */\n      swap2\n      pop\n        /* \"#utility.yul\":14510:14513   */\n      dup3\n        /* \"#utility.yul\":14507:14508   */\n      0x02\n        /* \"#utility.yul\":14503:14514   */\n      mul\n        /* \"#utility.yul\":14497:14501   */\n      dup3\n        /* \"#utility.yul\":14494:14515   */\n      or\n        /* \"#utility.yul\":14486:14515   */\n      swap1\n      pop\n        /* \"#utility.yul\":14226:14521   */\n      swap3\n      swap2\n      pop\n      pop\n      jump\t// out\n        /* \"#utility.yul\":14526:15921   */\n    tag_78:\n        /* \"#utility.yul\":14643:14680   */\n      tag_366\n        /* \"#utility.yul\":14676:14679   */\n      dup3\n        /* \"#utility.yul\":14643:14680   */\n      tag_178\n      jump\t// in\n    tag_366:\n        /* \"#utility.yul\":14745:14763   */\n      0xffffffffffffffff\n        /* \"#utility.yul\":14737:14743   */\n      dup2\n        /* \"#utility.yul\":14734:14764   */\n      gt\n        /* \"#utility.yul\":14731:14787   */\n      iszero\n      tag_367\n      jumpi\n        /* \"#utility.yul\":14767:14785   */\n      tag_368\n      tag_179\n      jump\t// in\n    tag_368:\n        /* \"#utility.yul\":14731:14787   */\n    tag_367:\n        /* \"#utility.yul\":14811:14849   */\n      tag_369\n        /* \"#utility.yul\":14843:14847   */\n      dup3\n        /* \"#utility.yul\":14837:14848   */\n      sload\n        /* \"#utility.yul\":14811:14849   */\n      tag_181\n      jump\t// in\n    tag_369:\n        /* \"#utility.yul\":14896:14963   */\n      tag_370\n        /* \"#utility.yul\":14956:14962   */\n      dup3\n        /* \"#utility.yul\":14948:14954   */\n      dup3\n        /* \"#utility.yul\":14942:14946   */\n      dup6\n        /* \"#utility.yul\":14896:14963   */\n      tag_193\n      jump\t// in\n    tag_370:\n        /* \"#utility.yul\":14990:14991   */\n      0x00\n        /* \"#utility.yul\":15014:15018   */\n      0x20\n        /* \"#utility.yul\":15001:15018   */\n      swap1\n      pop\n        /* \"#utility.yul\":15046:15048   */\n      0x1f\n        /* \"#utility.yul\":15038:15044   */\n      dup4\n        /* \"#utility.yul\":15035:15049   */\n      gt\n        /* \"#utility.yul\":15063:15064   */\n      0x01\n        /* \"#utility.yul\":15058:15676   */\n      dup2\n      eq\n      tag_372\n      jumpi\n        /* \"#utility.yul\":15720:15721   */\n      0x00\n        /* \"#utility.yul\":15737:15743   */\n      dup5\n        /* \"#utility.yul\":15734:15811   */\n      iszero\n      tag_373\n      jumpi\n        /* \"#utility.yul\":15786:15795   */\n      dup3\n        /* \"#utility.yul\":15781:15784   */\n      dup8\n        /* \"#utility.yul\":15777:15796   */\n      add\n        /* \"#utility.yul\":15771:15797   */\n      mload\n        /* \"#utility.yul\":15762:15797   */\n      swap1\n      pop\n        /* \"#utility.yul\":15734:15811   */\n    tag_373:\n        /* \"#utility.yul\":15837:15904   */\n      tag_374\n        /* \"#utility.yul\":15897:15903   */\n      dup6\n        /* \"#utility.yul\":15890:15895   */\n      dup3\n        /* \"#utility.yul\":15837:15904   */\n      tag_196\n      jump\t// in\n    tag_374:\n        /* \"#utility.yul\":15831:15835   */\n      dup7\n        /* \"#utility.yul\":15824:15905   */\n      sstore\n        /* \"#utility.yul\":15693:15915   */\n      pop\n        /* \"#utility.yul\":15028:15915   */\n      jump(tag_371)\n        /* \"#utility.yul\":15058:15676   */\n    tag_372:\n        /* \"#utility.yul\":15110:15114   */\n      0x1f\n        /* \"#utility.yul\":15106:15115   */\n      not\n        /* \"#utility.yul\":15098:15104   */\n      dup5\n        /* \"#utility.yul\":15094:15116   */\n      and\n        /* \"#utility.yul\":15144:15181   */\n      tag_375\n        /* \"#utility.yul\":15176:15180   */\n      dup7\n        /* \"#utility.yul\":15144:15181   */\n      tag_182\n      jump\t// in\n    tag_375:\n        /* \"#utility.yul\":15203:15204   */\n      0x00\n        /* \"#utility.yul\":15217:15425   */\n    tag_376:\n        /* \"#utility.yul\":15231:15238   */\n      dup3\n        /* \"#utility.yul\":15228:15229   */\n      dup2\n        /* \"#utility.yul\":15225:15239   */\n      lt\n        /* \"#utility.yul\":15217:15425   */\n      iszero\n      tag_378\n      jumpi\n        /* \"#utility.yul\":15310:15319   */\n      dup5\n        /* \"#utility.yul\":15305:15308   */\n      dup10\n        /* \"#utility.yul\":15301:15320   */\n      add\n        /* \"#utility.yul\":15295:15321   */\n      mload\n        /* \"#utility.yul\":15287:15293   */\n      dup3\n        /* \"#utility.yul\":15280:15322   */\n      sstore\n        /* \"#utility.yul\":15361:15362   */\n      0x01\n        /* \"#utility.yul\":15353:15359   */\n      dup3\n        /* \"#utility.yul\":15349:15363   */\n      add\n        /* \"#utility.yul\":15339:15363   */\n      swap2\n      pop\n        /* \"#utility.yul\":15408:15410   */\n      0x20\n        /* \"#utility.yul\":15397:15406   */\n      dup6\n        /* \"#utility.yul\":15393:15411   */\n      add\n        /* \"#utility.yul\":15380:15411   */\n      swap5\n      pop\n        /* \"#utility.yul\":15254:15258   */\n      0x20\n        /* \"#utility.yul\":15251:15252   */\n      dup2\n        /* \"#utility.yul\":15247:15259   */\n      add\n        /* \"#utility.yul\":15242:15259   */\n      swap1\n      pop\n        /* \"#utility.yul\":15217:15425   */\n      jump(tag_376)\n    tag_378:\n        /* \"#utility.yul\":15453:15459   */\n      dup7\n        /* \"#utility.yul\":15444:15451   */\n      dup4\n        /* \"#utility.yul\":15441:15460   */\n      lt\n        /* \"#utility.yul\":15438:15617   */\n      iszero\n      tag_379\n      jumpi\n        /* \"#utility.yul\":15511:15520   */\n      dup5\n        /* \"#utility.yul\":15506:15509   */\n      dup10\n        /* \"#utility.yul\":15502:15521   */\n      add\n        /* \"#utility.yul\":15496:15522   */\n      mload\n        /* \"#utility.yul\":15554:15602   */\n      tag_380\n        /* \"#utility.yul\":15596:15600   */\n      0x1f\n        /* \"#utility.yul\":15588:15594   */\n      dup10\n        /* \"#utility.yul\":15584:15601   */\n      and\n        /* \"#utility.yul\":15573:15582   */\n      dup3\n        /* \"#utility.yul\":15554:15602   */\n      tag_195\n      jump\t// in\n    tag_380:\n        /* \"#utility.yul\":15546:15552   */\n      dup4\n        /* \"#utility.yul\":15539:15603   */\n      sstore\n        /* \"#utility.yul\":15461:15617   */\n      pop\n        /* \"#utility.yul\":15438:15617   */\n    tag_379:\n        /* \"#utility.yul\":15663:15664   */\n      0x01\n        /* \"#utility.yul\":15659:15660   */\n      0x02\n        /* \"#utility.yul\":15651:15657   */\n      dup9\n        /* \"#utility.yul\":15647:15661   */\n      mul\n        /* \"#utility.yul\":15643:15665   */\n      add\n        /* \"#utility.yul\":15637:15641   */\n      dup9\n        /* \"#utility.yul\":15630:15666   */\n      sstore\n        /* \"#utility.yul\":15065:15676   */\n      pop\n      pop\n      pop\n        /* \"#utility.yul\":15028:15915   */\n    tag_371:\n      pop\n        /* \"#utility.yul\":14618:15921   */\n      pop\n      pop\n      pop\n        /* \"#utility.yul\":14526:15921   */\n      pop\n      pop\n      jump\t// out\n        /* \"#utility.yul\":15927:16107   */\n    tag_197:\n        /* \"#utility.yul\":15975:16052   */\n      0x4e487b7100000000000000000000000000000000000000000000000000000000\n        /* \"#utility.yul\":15972:15973   */\n      0x00\n        /* \"#utility.yul\":15965:16053   */\n      mstore\n        /* \"#utility.yul\":16072:16076   */\n      0x11\n        /* \"#utility.yul\":16069:16070   */\n      0x04\n        /* \"#utility.yul\":16062:16077   */\n      mstore\n        /* \"#utility.yul\":16096:16100   */\n      0x24\n        /* \"#utility.yul\":16093:16094   */\n      0x00\n        /* \"#utility.yul\":16086:16101   */\n      revert\n        /* \"#utility.yul\":16113:16346   */\n    tag_82:\n        /* \"#utility.yul\":16152:16155   */\n      0x00\n        /* \"#utility.yul\":16175:16199   */\n      tag_383\n        /* \"#utility.yul\":16193:16198   */\n      dup3\n        /* \"#utility.yul\":16175:16199   */\n      tag_162\n      jump\t// in\n    tag_383:\n        /* \"#utility.yul\":16166:16199   */\n      swap2\n      pop\n        /* \"#utility.yul\":16221:16287   */\n      0xffffffffffffffffffffffffffffffffffffffffffffffffffffffffffffffff\n        /* \"#utility.yul\":16214:16219   */\n      dup3\n        /* \"#utility.yul\":16211:16288   */\n      sub\n        /* \"#utility.yul\":16208:16311   */\n      tag_384\n      jumpi\n        /* \"#utility.yul\":16291:16309   */\n      tag_385\n      tag_197\n      jump\t// in\n    tag_385:\n        /* \"#utility.yul\":16208:16311   */\n    tag_384:\n        /* \"#utility.yul\":16338:16339   */\n      0x01\n        /* \"#utility.yul\":16331:16336   */\n      dup3\n        /* \"#utility.yul\":16327:16340   */\n      add\n        /* \"#utility.yul\":16320:16340   */\n      swap1\n      pop\n        /* \"#utility.yul\":16113:16346   */\n      swap2\n      swap1\n      pop\n      jump\t// out\n        /* \"#utility.yul\":16352:16460   */\n    tag_198:\n        /* \"#utility.yul\":16429:16453   */\n      tag_387\n        /* \"#utility.yul\":16447:16452   */\n      dup2\n        /* \"#utility.yul\":16429:16453   */\n      tag_162\n      jump\t// in\n    tag_387:\n        /* \"#utility.yul\":16424:16427   */\n      dup3\n        /* \"#utility.yul\":16417:16454   */\n      mstore\n        /* \"#utility.yul\":16352:16460   */\n      pop\n      pop\n      jump\t// out\n        /* \"#utility.yul\":16466:16574   */\n    tag_199:\n        /* \"#utility.yul\":16543:16567   */\n      tag_389\n        /* \"#utility.yul\":16561:16566   */\n      dup2\n        /* \"#utility.yul\":16543:16567   */\n      tag_155\n      jump\t// in\n    tag_389:\n        /* \"#utility.yul\":16538:16541   */\n      dup3\n        /* \"#utility.yul\":16531:16568   */\n      mstore\n        /* \"#utility.yul\":16466:16574   */\n      pop\n      pop\n      jump\t// out\n        /* \"#utility.yul\":16580:16739   */\n    tag_200:\n        /* \"#utility.yul\":16654:16665   */\n      0x00\n        /* \"#utility.yul\":16688:16694   */\n      dup3\n        /* \"#utility.yul\":16683:16686   */\n      dup3\n        /* \"#utility.yul\":16676:16695   */\n      mstore\n        /* \"#utility.yul\":16728:16732   */\n      0x20\n        /* \"#utility.yul\":16723:16726   */\n      dup3\n        /* \"#utility.yul\":16719:16733   */\n      add\n        /* \"#utility.yul\":16704:16733   */\n      swap1\n      pop\n        /* \"#utility.yul\":16580:16739   */\n      swap3\n      swap2\n      pop\n      pop\n      jump\t// out\n        /* \"#utility.yul\":16745:16884   */\n    tag_201:\n        /* \"#utility.yul\":16834:16840   */\n      dup3\n        /* \"#utility.yul\":16829:16832   */\n      dup2\n        /* \"#utility.yul\":16824:16827   */\n      dup4\n        /* \"#utility.yul\":16818:16841   */\n      mcopy\n        /* \"#utility.yul\":16875:16876   */\n      0x00\n        /* \"#utility.yul\":16866:16872   */\n      dup4\n        /* \"#utility.yul\":16861:16864   */\n      dup4\n        /* \"#utility.yul\":16857:16873   */\n      add\n        /* \"#utility.yul\":16850:16877   */\n      mstore\n        /* \"#utility.yul\":16745:16884   */\n      pop\n      pop\n      pop\n      jump\t// out\n        /* \"#utility.yul\":16890:16992   */\n    tag_202:\n        /* \"#utility.yul\":16931:16937   */\n      0x00\n        /* \"#utility.yul\":16982:16984   */\n      0x1f\n        /* \"#utility.yul\":16978:16985   */\n      not\n        /* \"#utility.yul\":16973:16975   */\n      0x1f\n        /* \"#utility.yul\":16966:16971   */\n      dup4\n        /* \"#utility.yul\":16962:16976   */\n      add\n        /* \"#utility.yul\":16958:16986   */\n      and\n        /* \"#utility.yul\":16948:16986   */\n      swap1\n      pop\n        /* \"#utility.yul\":16890:16992   */\n      swap2\n      swap1\n      pop\n      jump\t// out\n        /* \"#utility.yul\":16998:17355   */\n    tag_203:\n        /* \"#utility.yul\":17076:17079   */\n      0x00\n        /* \"#utility.yul\":17104:17143   */\n      tag_394\n        /* \"#utility.yul\":17137:17142   */\n      dup3\n        /* \"#utility.yul\":17104:17143   */\n      tag_178\n      jump\t// in\n    tag_394:\n        /* \"#utility.yul\":17159:17220   */\n      tag_395\n        /* \"#utility.yul\":17213:17219   */\n      dup2\n        /* \"#utility.yul\":17208:17211   */\n      dup6\n        /* \"#utility.yul\":17159:17220   */\n      tag_200\n      jump\t// in\n    tag_395:\n        /* \"#utility.yul\":17152:17220   */\n      swap4\n      pop\n        /* \"#utility.yul\":17229:17294   */\n      tag_396\n        /* \"#utility.yul\":17287:17293   */\n      dup2\n        /* \"#utility.yul\":17282:17285   */\n      dup6\n        /* \"#utility.yul\":17275:17279   */\n      0x20\n        /* \"#utility.yul\":17268:17273   */\n      dup7\n        /* \"#utility.yul\":17264:17280   */\n      add\n        /* \"#utility.yul\":17229:17294   */\n      tag_201\n      jump\t// in\n    tag_396:\n        /* \"#utility.yul\":17319:17348   */\n      tag_397\n        /* \"#utility.yul\":17341:17347   */\n      dup2\n        /* \"#utility.yul\":17319:17348   */\n      tag_202\n      jump\t// in\n    tag_397:\n        /* \"#utility.yul\":17314:17317   */\n      dup5\n        /* \"#utility.yul\":17310:17349   */\n      add\n        /* \"#utility.yul\":17303:17349   */\n      swap2\n      pop\n        /* \"#utility.yul\":17080:17355   */\n      pop\n        /* \"#utility.yul\":16998:17355   */\n      swap3\n      swap2\n      pop\n      pop\n      jump\t// out\n        /* \"#utility.yul\":17361:17466   */\n    tag_204:\n        /* \"#utility.yul\":17436:17459   */\n      tag_399\n        /* \"#utility.yul\":17453:17458   */\n      dup2\n        /* \"#utility.yul\":17436:17459   */\n      tag_151\n      jump\t// in\n    tag_399:\n        /* \"#utility.yul\":17431:17434   */\n      dup3\n        /* \"#utility.yul\":17424:17460   */\n      mstore\n        /* \"#utility.yul\":17361:17466   */\n      pop\n      pop\n      jump\t// out\n        /* \"#utility.yul\":17472:17586   */\n    tag_205:\n        /* \"#utility.yul\":17554:17555   */\n      0x03\n        /* \"#utility.yul\":17547:17552   */\n      dup2\n        /* \"#utility.yul\":17544:17556   */\n      lt\n        /* \"#utility.yul\":17534:17580   */\n      tag_401\n      jumpi\n        /* \"#utility.yul\":17560:17578   */\n      tag_402\n      tag_42\n      jump\t// in\n    tag_402:\n        /* \"#utility.yul\":17534:17580   */\n    tag_401:\n        /* \"#utility.yul\":17472:17586   */\n      pop\n      jump\t// out\n        /* \"#utility.yul\":17592:17721   */\n    tag_206:\n        /* \"#utility.yul\":17638:17645   */\n      0x00\n        /* \"#utility.yul\":17667:17672   */\n      dup2\n        /* \"#utility.yul\":17656:17672   */\n      swap1\n      pop\n        /* \"#utility.yul\":17673:17715   */\n      tag_404\n        /* \"#utility.yul\":17709:17714   */\n      dup3\n        /* \"#utility.yul\":17673:17715   */\n      tag_205\n      jump\t// in\n    tag_404:\n        /* \"#utility.yul\":17592:17721   */\n      swap2\n      swap1\n      pop\n      jump\t// out\n        /* \"#utility.yul\":17727:17856   */\n    tag_207:\n        /* \"#utility.yul\":17784:17793   */\n      0x00\n        /* \"#utility.yul\":17817:17850   */\n      tag_406\n        /* \"#utility.yul\":17844:17849   */\n      dup3\n        /* \"#utility.yul\":17817:17850   */\n      tag_206\n      jump\t// in\n    tag_406:\n        /* \"#utility.yul\":17804:17850   */\n      swap1\n      pop\n        /* \"#utility.yul\":17727:17856   */\n      swap2\n      swap1\n      pop\n      jump\t// out\n        /* \"#utility.yul\":17862:17997   */\n    tag_208:\n        /* \"#utility.yul\":17946:17990   */\n      tag_408\n        /* \"#utility.yul\":17984:17989   */\n      dup2\n        /* \"#utility.yul\":17946:17990   */\n      tag_207\n      jump\t// in\n    tag_408:\n        /* \"#utility.yul\":17941:17944   */\n      dup3\n        /* \"#utility.yul\":17934:17991   */\n      mstore\n        /* \"#utility.yul\":17862:17997   */\n      pop\n      pop\n      jump\t// out\n        /* \"#utility.yul\":18055:19190   */\n    tag_209:\n        /* \"#utility.yul\":18164:18167   */\n      0x00\n        /* \"#utility.yul\":18200:18204   */\n      0xa0\n        /* \"#utility.yul\":18195:18198   */\n      dup4\n        /* \"#utility.yul\":18191:18205   */\n      add\n        /* \"#utility.yul\":18289:18293   */\n      0x00\n        /* \"#utility.yul\":18282:18287   */\n      dup4\n        /* \"#utility.yul\":18278:18294   */\n      add\n        /* \"#utility.yul\":18272:18295   */\n      mload\n        /* \"#utility.yul\":18308:18371   */\n      tag_410\n        /* \"#utility.yul\":18365:18369   */\n      0x00\n        /* \"#utility.yul\":18360:18363   */\n      dup7\n        /* \"#utility.yul\":18356:18370   */\n      add\n        /* \"#utility.yul\":18342:18354   */\n      dup3\n        /* \"#utility.yul\":18308:18371   */\n      tag_198\n      jump\t// in\n    tag_410:\n        /* \"#utility.yul\":18215:18381   */\n      pop\n        /* \"#utility.yul\":18467:18471   */\n      0x20\n        /* \"#utility.yul\":18460:18465   */\n      dup4\n        /* \"#utility.yul\":18456:18472   */\n      add\n        /* \"#utility.yul\":18450:18473   */\n      mload\n        /* \"#utility.yul\":18486:18549   */\n      tag_411\n        /* \"#utility.yul\":18543:18547   */\n      0x20\n        /* \"#utility.yul\":18538:18541   */\n      dup7\n        /* \"#utility.yul\":18534:18548   */\n      add\n        /* \"#utility.yul\":18520:18532   */\n      dup3\n        /* \"#utility.yul\":18486:18549   */\n      tag_199\n      jump\t// in\n    tag_411:\n        /* \"#utility.yul\":18391:18559   */\n      pop\n        /* \"#utility.yul\":18641:18645   */\n      0x40\n        /* \"#utility.yul\":18634:18639   */\n      dup4\n        /* \"#utility.yul\":18630:18646   */\n      add\n        /* \"#utility.yul\":18624:18647   */\n      mload\n        /* \"#utility.yul\":18694:18697   */\n      dup5\n        /* \"#utility.yul\":18688:18692   */\n      dup3\n        /* \"#utility.yul\":18684:18698   */\n      sub\n        /* \"#utility.yul\":18677:18681   */\n      0x40\n        /* \"#utility.yul\":18672:18675   */\n      dup7\n        /* \"#utility.yul\":18668:18682   */\n      add\n        /* \"#utility.yul\":18661:18699   */\n      mstore\n        /* \"#utility.yul\":18720:18793   */\n      tag_412\n        /* \"#utility.yul\":18788:18792   */\n      dup3\n        /* \"#utility.yul\":18774:18786   */\n      dup3\n        /* \"#utility.yul\":18720:18793   */\n      tag_203\n      jump\t// in\n    tag_412:\n        /* \"#utility.yul\":18712:18793   */\n      swap2\n      pop\n        /* \"#utility.yul\":18569:18804   */\n      pop\n        /* \"#utility.yul\":18890:18894   */\n      0x60\n        /* \"#utility.yul\":18883:18888   */\n      dup4\n        /* \"#utility.yul\":18879:18895   */\n      add\n        /* \"#utility.yul\":18873:18896   */\n      mload\n        /* \"#utility.yul\":18909:18970   */\n      tag_413\n        /* \"#utility.yul\":18964:18968   */\n      0x60\n        /* \"#utility.yul\":18959:18962   */\n      dup7\n        /* \"#utility.yul\":18955:18969   */\n      add\n        /* \"#utility.yul\":18941:18953   */\n      dup3\n        /* \"#utility.yul\":18909:18970   */\n      tag_204\n      jump\t// in\n    tag_413:\n        /* \"#utility.yul\":18814:18980   */\n      pop\n        /* \"#utility.yul\":19064:19068   */\n      0x80\n        /* \"#utility.yul\":19057:19062   */\n      dup4\n        /* \"#utility.yul\":19053:19069   */\n      add\n        /* \"#utility.yul\":19047:19070   */\n      mload\n        /* \"#utility.yul\":19083:19153   */\n      tag_414\n        /* \"#utility.yul\":19147:19151   */\n      0x80\n        /* \"#utility.yul\":19142:19145   */\n      dup7\n        /* \"#utility.yul\":19138:19152   */\n      add\n        /* \"#utility.yul\":19124:19136   */\n      dup3\n        /* \"#utility.yul\":19083:19153   */\n      tag_208\n      jump\t// in\n    tag_414:\n        /* \"#utility.yul\":18990:19163   */\n      pop\n        /* \"#utility.yul\":19180:19184   */\n      dup1\n        /* \"#utility.yul\":19173:19184   */\n      swap2\n      pop\n        /* \"#utility.yul\":18169:19190   */\n      pop\n        /* \"#utility.yul\":18055:19190   */\n      swap3\n      swap2\n      pop\n      pop\n      jump\t// out\n        /* \"#utility.yul\":19196:19549   */\n    tag_84:\n        /* \"#utility.yul\":19329:19333   */\n      0x00\n        /* \"#utility.yul\":19367:19369   */\n      0x20\n        /* \"#utility.yul\":19356:19365   */\n      dup3\n        /* \"#utility.yul\":19352:19370   */\n      add\n        /* \"#utility.yul\":19344:19370   */\n      swap1\n      pop\n        /* \"#utility.yul\":19416:19425   */\n      dup2\n        /* \"#utility.yul\":19410:19414   */\n      dup2\n        /* \"#utility.yul\":19406:19426   */\n      sub\n        /* \"#utility.yul\":19402:19403   */\n      0x00\n        /* \"#utility.yul\":19391:19400   */\n      dup4\n        /* \"#utility.yul\":19387:19404   */\n      add\n        /* \"#utility.yul\":19380:19427   */\n      mstore\n        /* \"#utility.yul\":19444:19542   */\n      tag_416\n        /* \"#utility.yul\":19537:19541   */\n      dup2\n        /* \"#utility.yul\":19528:19534   */\n      dup5\n        /* \"#utility.yul\":19444:19542   */\n      tag_209\n      jump\t// in\n    tag_416:\n        /* \"#utility.yul\":19436:19542   */\n      swap1\n      pop\n        /* \"#utility.yul\":19196:19549   */\n      swap3\n      swap2\n      pop\n      pop\n      jump\t// out\n        /* \"#utility.yul\":19555:19736   */\n    tag_210:\n        /* \"#utility.yul\":19695:19728   */\n      0x54686973207461736b20697320616c726561647920636f6d706c657465642e00\n        /* \"#utility.yul\":19691:19692   */\n      0x00\n        /* \"#utility.yul\":19683:19689   */\n      dup3\n        /* \"#utility.yul\":19679:19693   */\n      add\n        /* \"#utility.yul\":19672:19729   */\n      mstore\n        /* \"#utility.yul\":19555:19736   */\n      pop\n      jump\t// out\n        /* \"#utility.yul\":19742:20108   */\n    tag_211:\n        /* \"#utility.yul\":19884:19887   */\n      0x00\n        /* \"#utility.yul\":19905:19972   */\n      tag_419\n        /* \"#utility.yul\":19969:19971   */\n      0x1f\n        /* \"#utility.yul\":19964:19967   */\n      dup4\n        /* \"#utility.yul\":19905:19972   */\n      tag_167\n      jump\t// in\n    tag_419:\n        /* \"#utility.yul\":19898:19972   */\n      swap2\n      pop\n        /* \"#utility.yul\":19981:20074   */\n      tag_420\n        /* \"#utility.yul\":20070:20073   */\n      dup3\n        /* \"#utility.yul\":19981:20074   */\n      tag_210\n      jump\t// in\n    tag_420:\n        /* \"#utility.yul\":20099:20101   */\n      0x20\n        /* \"#utility.yul\":20094:20097   */\n      dup3\n        /* \"#utility.yul\":20090:20102   */\n      add\n        /* \"#utility.yul\":20083:20102   */\n      swap1\n      pop\n        /* \"#utility.yul\":19742:20108   */\n      swap2\n      swap1\n      pop\n      jump\t// out\n        /* \"#utility.yul\":20114:20533   */\n    tag_100:\n        /* \"#utility.yul\":20280:20284   */\n      0x00\n        /* \"#utility.yul\":20318:20320   */\n      0x20\n        /* \"#utility.yul\":20307:20316   */\n      dup3\n        /* \"#utility.yul\":20303:20321   */\n      add\n        /* \"#utility.yul\":20295:20321   */\n      swap1\n      pop\n        /* \"#utility.yul\":20367:20376   */\n      dup2\n        /* \"#utility.yul\":20361:20365   */\n      dup2\n        /* \"#utility.yul\":20357:20377   */\n      sub\n        /* \"#utility.yul\":20353:20354   */\n      0x00\n        /* \"#utility.yul\":20342:20351   */\n      dup4\n        /* \"#utility.yul\":20338:20355   */\n      add\n        /* \"#utility.yul\":20331:20378   */\n      mstore\n        /* \"#utility.yul\":20395:20526   */\n      tag_422\n        /* \"#utility.yul\":20521:20525   */\n      dup2\n        /* \"#utility.yul\":20395:20526   */\n      tag_211\n      jump\t// in\n    tag_422:\n        /* \"#utility.yul\":20387:20526   */\n      swap1\n      pop\n        /* \"#utility.yul\":20114:20533   */\n      swap2\n      swap1\n      pop\n      jump\t// out\n        /* \"#utility.yul\":20539:20764   */\n    tag_212:\n        /* \"#utility.yul\":20679:20713   */\n      0x5461736b2063616e27742062652061737369676e656420746f2073616d652061\n        /* \"#utility.yul\":20675:20676   */\n      0x00\n        /* \"#utility.yul\":20667:20673   */\n      dup3\n        /* \"#utility.yul\":20663:20677   */\n      add\n        /* \"#utility.yul\":20656:20714   */\n      mstore\n        /* \"#utility.yul\":20748:20756   */\n      0x6464726573730000000000000000000000000000000000000000000000000000\n        /* \"#utility.yul\":20743:20745   */\n      0x20\n        /* \"#utility.yul\":20735:20741   */\n      dup3\n        /* \"#utility.yul\":20731:20746   */\n      add\n        /* \"#utility.yul\":20724:20757   */\n      mstore\n        /* \"#utility.yul\":20539:20764   */\n      pop\n      jump\t// out\n        /* \"#utility.yul\":20770:21136   */\n    tag_213:\n        /* \"#utility.yul\":20912:20915   */\n      0x00\n        /* \"#utility.yul\":20933:21000   */\n      tag_425\n        /* \"#utility.yul\":20997:20999   */\n      0x26\n        /* \"#utility.yul\":20992:20995   */\n      dup4\n        /* \"#utility.yul\":20933:21000   */\n      tag_167\n      jump\t// in\n    tag_425:\n        /* \"#utility.yul\":20926:21000   */\n      swap2\n      pop\n        /* \"#utility.yul\":21009:21102   */\n      tag_426\n        /* \"#utility.yul\":21098:21101   */\n      dup3\n        /* \"#utility.yul\":21009:21102   */\n      tag_212\n      jump\t// in\n    tag_426:\n        /* \"#utility.yul\":21127:21129   */\n      0x40\n        /* \"#utility.yul\":21122:21125   */\n      dup3\n        /* \"#utility.yul\":21118:21130   */\n      add\n        /* \"#utility.yul\":21111:21130   */\n      swap1\n      pop\n        /* \"#utility.yul\":20770:21136   */\n      swap2\n      swap1\n      pop\n      jump\t// out\n        /* \"#utility.yul\":21142:21561   */\n    tag_106:\n        /* \"#utility.yul\":21308:21312   */\n      0x00\n        /* \"#utility.yul\":21346:21348   */\n      0x20\n        /* \"#utility.yul\":21335:21344   */\n      dup3\n        /* \"#utility.yul\":21331:21349   */\n      add\n        /* \"#utility.yul\":21323:21349   */\n      swap1\n      pop\n        /* \"#utility.yul\":21395:21404   */\n      dup2\n        /* \"#utility.yul\":21389:21393   */\n      dup2\n        /* \"#utility.yul\":21385:21405   */\n      sub\n        /* \"#utility.yul\":21381:21382   */\n      0x00\n        /* \"#utility.yul\":21370:21379   */\n      dup4\n        /* \"#utility.yul\":21366:21383   */\n      add\n        /* \"#utility.yul\":21359:21406   */\n      mstore\n        /* \"#utility.yul\":21423:21554   */\n      tag_428\n        /* \"#utility.yul\":21549:21553   */\n      dup2\n        /* \"#utility.yul\":21423:21554   */\n      tag_213\n      jump\t// in\n    tag_428:\n        /* \"#utility.yul\":21415:21554   */\n      swap1\n      pop\n        /* \"#utility.yul\":21142:21561   */\n      swap2\n      swap1\n      pop\n      jump\t// out\n        /* \"#utility.yul\":21567:21738   */\n    tag_111:\n        /* \"#utility.yul\":21606:21609   */\n      0x00\n        /* \"#utility.yul\":21629:21653   */\n      tag_430\n        /* \"#utility.yul\":21647:21652   */\n      dup3\n        /* \"#utility.yul\":21629:21653   */\n      tag_162\n      jump\t// in\n    tag_430:\n        /* \"#utility.yul\":21620:21653   */\n      swap2\n      pop\n        /* \"#utility.yul\":21675:21679   */\n      0x00\n        /* \"#utility.yul\":21668:21673   */\n      dup3\n        /* \"#utility.yul\":21665:21680   */\n      sub\n        /* \"#utility.yul\":21662:21703   */\n      tag_431\n      jumpi\n        /* \"#utility.yul\":21683:21701   */\n      tag_432\n      tag_197\n      jump\t// in\n    tag_432:\n        /* \"#utility.yul\":21662:21703   */\n    tag_431:\n        /* \"#utility.yul\":21730:21731   */\n      0x01\n        /* \"#utility.yul\":21723:21728   */\n      dup3\n        /* \"#utility.yul\":21719:21732   */\n      sub\n        /* \"#utility.yul\":21712:21732   */\n      swap1\n      pop\n        /* \"#utility.yul\":21567:21738   */\n      swap2\n      swap1\n      pop\n      jump\t// out\n        /* \"#utility.yul\":21744:21846   */\n    tag_214:\n        /* \"#utility.yul\":21786:21794   */\n      0x00\n        /* \"#utility.yul\":21833:21838   */\n      dup2\n        /* \"#utility.yul\":21830:21831   */\n      0x00\n        /* \"#utility.yul\":21826:21839   */\n      shr\n        /* \"#utility.yul\":21805:21839   */\n      swap1\n      pop\n        /* \"#utility.yul\":21744:21846   */\n      swap2\n      swap1\n      pop\n      jump\t// out\n        /* \"#utility.yul\":21852:21942   */\n    tag_215:\n        /* \"#utility.yul\":21902:21909   */\n      0x00\n        /* \"#utility.yul\":21931:21936   */\n      dup2\n        /* \"#utility.yul\":21920:21936   */\n      swap1\n      pop\n        /* \"#utility.yul\":21852:21942   */\n      swap2\n      swap1\n      pop\n      jump\t// out\n        /* \"#utility.yul\":21948:22115   */\n    tag_216:\n        /* \"#utility.yul\":22018:22023   */\n      0x00\n        /* \"#utility.yul\":22043:22109   */\n      tag_436\n        /* \"#utility.yul\":22074:22108   */\n      tag_437\n        /* \"#utility.yul\":22097:22107   */\n      dup4\n        /* \"#utility.yul\":22074:22108   */\n      tag_214\n      jump\t// in\n    tag_437:\n        /* \"#utility.yul\":22043:22109   */\n      tag_215\n      jump\t// in\n    tag_436:\n        /* \"#utility.yul\":22034:22109   */\n      swap1\n      pop\n        /* \"#utility.yul\":21948:22115   */\n      swap2\n      swap1\n      pop\n      jump\t// out\n        /* \"#utility.yul\":22121:22260   */\n    tag_217:\n        /* \"#utility.yul\":22171:22178   */\n      0x00\n        /* \"#utility.yul\":22211:22253   */\n      0xffffffffffffffffffffffffffffffffffffffff\n        /* \"#utility.yul\":22204:22209   */\n      dup3\n        /* \"#utility.yul\":22200:22254   */\n      and\n        /* \"#utility.yul\":22189:22254   */\n      swap1\n      pop\n        /* \"#utility.yul\":22121:22260   */\n      swap2\n      swap1\n      pop\n      jump\t// out\n        /* \"#utility.yul\":22266:22433   */\n    tag_218:\n        /* \"#utility.yul\":22336:22341   */\n      0x00\n        /* \"#utility.yul\":22361:22427   */\n      tag_440\n        /* \"#utility.yul\":22392:22426   */\n      tag_441\n        /* \"#utility.yul\":22415:22425   */\n      dup4\n        /* \"#utility.yul\":22392:22426   */\n      tag_214\n      jump\t// in\n    tag_441:\n        /* \"#utility.yul\":22361:22427   */\n      tag_217\n      jump\t// in\n    tag_440:\n        /* \"#utility.yul\":22352:22427   */\n      swap1\n      pop\n        /* \"#utility.yul\":22266:22433   */\n      swap2\n      swap1\n      pop\n      jump\t// out\n        /* \"#utility.yul\":22463:23274   */\n    tag_219:\n        /* \"#utility.yul\":22538:22541   */\n      0x00\n        /* \"#utility.yul\":22575:22580   */\n      dup2\n        /* \"#utility.yul\":22569:22581   */\n      sload\n        /* \"#utility.yul\":22604:22640   */\n      tag_443\n        /* \"#utility.yul\":22630:22639   */\n      dup2\n        /* \"#utility.yul\":22604:22640   */\n      tag_181\n      jump\t// in\n    tag_443:\n        /* \"#utility.yul\":22656:22717   */\n      tag_444\n        /* \"#utility.yul\":22710:22716   */\n      dup2\n        /* \"#utility.yul\":22705:22708   */\n      dup7\n        /* \"#utility.yul\":22656:22717   */\n      tag_200\n      jump\t// in\n    tag_444:\n        /* \"#utility.yul\":22649:22717   */\n      swap5\n      pop\n        /* \"#utility.yul\":22748:22749   */\n      0x01\n        /* \"#utility.yul\":22737:22746   */\n      dup3\n        /* \"#utility.yul\":22733:22750   */\n      and\n        /* \"#utility.yul\":22764:22765   */\n      0x00\n        /* \"#utility.yul\":22759:22923   */\n      dup2\n      eq\n      tag_446\n      jumpi\n        /* \"#utility.yul\":22937:22938   */\n      0x01\n        /* \"#utility.yul\":22932:23268   */\n      dup2\n      eq\n      tag_447\n      jumpi\n        /* \"#utility.yul\":22726:23268   */\n      jump(tag_445)\n        /* \"#utility.yul\":22759:22923   */\n    tag_446:\n        /* \"#utility.yul\":22843:22847   */\n      0xff\n        /* \"#utility.yul\":22839:22848   */\n      not\n        /* \"#utility.yul\":22828:22837   */\n      dup4\n        /* \"#utility.yul\":22824:22849   */\n      and\n        /* \"#utility.yul\":22819:22822   */\n      dup7\n        /* \"#utility.yul\":22812:22850   */\n      mstore\n        /* \"#utility.yul\":22903:22909   */\n      dup2\n        /* \"#utility.yul\":22896:22910   */\n      iszero\n        /* \"#utility.yul\":22889:22911   */\n      iszero\n        /* \"#utility.yul\":22883:22887   */\n      0x20\n        /* \"#utility.yul\":22879:22912   */\n      mul\n        /* \"#utility.yul\":22874:22877   */\n      dup7\n        /* \"#utility.yul\":22870:22913   */\n      add\n        /* \"#utility.yul\":22863:22913   */\n      swap4\n      pop\n        /* \"#utility.yul\":22759:22923   */\n      jump(tag_445)\n        /* \"#utility.yul\":22932:23268   */\n    tag_447:\n        /* \"#utility.yul\":22999:23037   */\n      tag_448\n        /* \"#utility.yul\":23031:23036   */\n      dup6\n        /* \"#utility.yul\":22999:23037   */\n      tag_182\n      jump\t// in\n    tag_448:\n        /* \"#utility.yul\":23059:23060   */\n      0x00\n        /* \"#utility.yul\":23073:23227   */\n    tag_449:\n        /* \"#utility.yul\":23087:23093   */\n      dup4\n        /* \"#utility.yul\":23084:23085   */\n      dup2\n        /* \"#utility.yul\":23081:23094   */\n      lt\n        /* \"#utility.yul\":23073:23227   */\n      iszero\n      tag_451\n      jumpi\n        /* \"#utility.yul\":23161:23168   */\n      dup2\n        /* \"#utility.yul\":23155:23169   */\n      sload\n        /* \"#utility.yul\":23151:23152   */\n      dup2\n        /* \"#utility.yul\":23146:23149   */\n      dup10\n        /* \"#utility.yul\":23142:23153   */\n      add\n        /* \"#utility.yul\":23135:23170   */\n      mstore\n        /* \"#utility.yul\":23211:23212   */\n      0x01\n        /* \"#utility.yul\":23202:23209   */\n      dup3\n        /* \"#utility.yul\":23198:23213   */\n      add\n        /* \"#utility.yul\":23187:23213   */\n      swap2\n      pop\n        /* \"#utility.yul\":23109:23113   */\n      0x20\n        /* \"#utility.yul\":23106:23107   */\n      dup2\n        /* \"#utility.yul\":23102:23114   */\n      add\n        /* \"#utility.yul\":23097:23114   */\n      swap1\n      pop\n        /* \"#utility.yul\":23073:23227   */\n      jump(tag_449)\n    tag_451:\n        /* \"#utility.yul\":23256:23257   */\n      dup1\n        /* \"#utility.yul\":23251:23254   */\n      dup9\n        /* \"#utility.yul\":23247:23258   */\n      add\n        /* \"#utility.yul\":23240:23258   */\n      swap6\n      pop\n        /* \"#utility.yul\":22939:23268   */\n      pop\n      pop\n        /* \"#utility.yul\":22726:23268   */\n    tag_445:\n      pop\n        /* \"#utility.yul\":22542:23274   */\n      pop\n      pop\n        /* \"#utility.yul\":22463:23274   */\n      swap3\n      swap2\n      pop\n      pop\n      jump\t// out\n        /* \"#utility.yul\":23280:23386   */\n    tag_220:\n        /* \"#utility.yul\":23329:23336   */\n      0x00\n        /* \"#utility.yul\":23369:23379   */\n      0xffffffff\n        /* \"#utility.yul\":23362:23367   */\n      dup3\n        /* \"#utility.yul\":23358:23380   */\n      and\n        /* \"#utility.yul\":23347:23380   */\n      swap1\n      pop\n        /* \"#utility.yul\":23280:23386   */\n      swap2\n      swap1\n      pop\n      jump\t// out\n        /* \"#utility.yul\":23392:23557   */\n    tag_221:\n        /* \"#utility.yul\":23461:23466   */\n      0x00\n        /* \"#utility.yul\":23486:23551   */\n      tag_454\n        /* \"#utility.yul\":23516:23550   */\n      tag_455\n        /* \"#utility.yul\":23539:23549   */\n      dup4\n        /* \"#utility.yul\":23516:23550   */\n      tag_214\n      jump\t// in\n    tag_455:\n        /* \"#utility.yul\":23486:23551   */\n      tag_220\n      jump\t// in\n    tag_454:\n        /* \"#utility.yul\":23477:23551   */\n      swap1\n      pop\n        /* \"#utility.yul\":23392:23557   */\n      swap2\n      swap1\n      pop\n      jump\t// out\n        /* \"#utility.yul\":23563:23667   */\n    tag_222:\n        /* \"#utility.yul\":23606:23614   */\n      0x00\n        /* \"#utility.yul\":23654:23659   */\n      dup2\n        /* \"#utility.yul\":23650:23652   */\n      0x20\n        /* \"#utility.yul\":23646:23660   */\n      shr\n        /* \"#utility.yul\":23625:23660   */\n      swap1\n      pop\n        /* \"#utility.yul\":23563:23667   */\n      swap2\n      swap1\n      pop\n      jump\t// out\n        /* \"#utility.yul\":23673:23783   */\n    tag_223:\n        /* \"#utility.yul\":23732:23739   */\n      0x00\n        /* \"#utility.yul\":23772:23776   */\n      0xff\n        /* \"#utility.yul\":23765:23770   */\n      dup3\n        /* \"#utility.yul\":23761:23777   */\n      and\n        /* \"#utility.yul\":23750:23777   */\n      swap1\n      pop\n        /* \"#utility.yul\":23673:23783   */\n      swap2\n      swap1\n      pop\n      jump\t// out\n        /* \"#utility.yul\":23789:23975   */\n    tag_224:\n        /* \"#utility.yul\":23868:23873   */\n      0x00\n        /* \"#utility.yul\":23893:23969   */\n      tag_459\n        /* \"#utility.yul\":23933:23968   */\n      tag_460\n        /* \"#utility.yul\":23957:23967   */\n      dup4\n        /* \"#utility.yul\":23933:23968   */\n      tag_222\n      jump\t// in\n    tag_460:\n        /* \"#utility.yul\":23893:23969   */\n      tag_223\n      jump\t// in\n    tag_459:\n        /* \"#utility.yul\":23884:23969   */\n      swap1\n      pop\n        /* \"#utility.yul\":23789:23975   */\n      swap2\n      swap1\n      pop\n      jump\t// out\n        /* \"#utility.yul\":24033:25466   */\n    tag_225:\n        /* \"#utility.yul\":24139:24142   */\n      0x00\n        /* \"#utility.yul\":24175:24179   */\n      0xa0\n        /* \"#utility.yul\":24170:24173   */\n      dup4\n        /* \"#utility.yul\":24166:24180   */\n      add\n        /* \"#utility.yul\":24206:24207   */\n      0x00\n        /* \"#utility.yul\":24283:24287   */\n      0x00\n        /* \"#utility.yul\":24276:24281   */\n      dup5\n        /* \"#utility.yul\":24272:24288   */\n      add\n        /* \"#utility.yul\":24266:24289   */\n      sload\n        /* \"#utility.yul\":24253:24289   */\n      swap1\n      pop\n        /* \"#utility.yul\":24322:24378   */\n      tag_462\n        /* \"#utility.yul\":24368:24377   */\n      dup2\n        /* \"#utility.yul\":24322:24378   */\n      tag_216\n      jump\t// in\n    tag_462:\n        /* \"#utility.yul\":24391:24454   */\n      tag_463\n        /* \"#utility.yul\":24448:24452   */\n      0x00\n        /* \"#utility.yul\":24443:24446   */\n      dup8\n        /* \"#utility.yul\":24439:24453   */\n      add\n        /* \"#utility.yul\":24425:24437   */\n      dup3\n        /* \"#utility.yul\":24391:24454   */\n      tag_198\n      jump\t// in\n    tag_463:\n        /* \"#utility.yul\":24217:24464   */\n      pop\n        /* \"#utility.yul\":24542:24546   */\n      0x01\n        /* \"#utility.yul\":24535:24540   */\n      dup5\n        /* \"#utility.yul\":24531:24547   */\n      add\n        /* \"#utility.yul\":24525:24548   */\n      sload\n        /* \"#utility.yul\":24512:24548   */\n      swap1\n      pop\n        /* \"#utility.yul\":24581:24637   */\n      tag_464\n        /* \"#utility.yul\":24627:24636   */\n      dup2\n        /* \"#utility.yul\":24581:24637   */\n      tag_218\n      jump\t// in\n    tag_464:\n        /* \"#utility.yul\":24650:24713   */\n      tag_465\n        /* \"#utility.yul\":24707:24711   */\n      0x20\n        /* \"#utility.yul\":24702:24705   */\n      dup8\n        /* \"#utility.yul\":24698:24712   */\n      add\n        /* \"#utility.yul\":24684:24696   */\n      dup3\n        /* \"#utility.yul\":24650:24713   */\n      tag_199\n      jump\t// in\n    tag_465:\n        /* \"#utility.yul\":24474:24723   */\n      pop\n        /* \"#utility.yul\":24799:24803   */\n      0x02\n        /* \"#utility.yul\":24792:24797   */\n      dup5\n        /* \"#utility.yul\":24788:24804   */\n      add\n        /* \"#utility.yul\":24851:24854   */\n      dup6\n        /* \"#utility.yul\":24845:24849   */\n      dup4\n        /* \"#utility.yul\":24841:24855   */\n      sub\n        /* \"#utility.yul\":24834:24838   */\n      0x40\n        /* \"#utility.yul\":24829:24832   */\n      dup8\n        /* \"#utility.yul\":24825:24839   */\n      add\n        /* \"#utility.yul\":24818:24856   */\n      mstore\n        /* \"#utility.yul\":24877:24947   */\n      tag_466\n        /* \"#utility.yul\":24942:24946   */\n      dup4\n        /* \"#utility.yul\":24928:24940   */\n      dup3\n        /* \"#utility.yul\":24877:24947   */\n      tag_219\n      jump\t// in\n    tag_466:\n        /* \"#utility.yul\":24869:24947   */\n      swap3\n      pop\n        /* \"#utility.yul\":24733:24958   */\n      pop\n        /* \"#utility.yul\":25036:25040   */\n      0x03\n        /* \"#utility.yul\":25029:25034   */\n      dup5\n        /* \"#utility.yul\":25025:25041   */\n      add\n        /* \"#utility.yul\":25019:25042   */\n      sload\n        /* \"#utility.yul\":25006:25042   */\n      swap1\n      pop\n        /* \"#utility.yul\":25075:25130   */\n      tag_467\n        /* \"#utility.yul\":25120:25129   */\n      dup2\n        /* \"#utility.yul\":25075:25130   */\n      tag_221\n      jump\t// in\n    tag_467:\n        /* \"#utility.yul\":25143:25204   */\n      tag_468\n        /* \"#utility.yul\":25198:25202   */\n      0x60\n        /* \"#utility.yul\":25193:25196   */\n      dup8\n        /* \"#utility.yul\":25189:25203   */\n      add\n        /* \"#utility.yul\":25175:25187   */\n      dup3\n        /* \"#utility.yul\":25143:25204   */\n      tag_204\n      jump\t// in\n    tag_468:\n        /* \"#utility.yul\":24968:25214   */\n      pop\n        /* \"#utility.yul\":25281:25346   */\n      tag_469\n        /* \"#utility.yul\":25336:25345   */\n      dup2\n        /* \"#utility.yul\":25281:25346   */\n      tag_224\n      jump\t// in\n    tag_469:\n        /* \"#utility.yul\":25359:25429   */\n      tag_470\n        /* \"#utility.yul\":25423:25427   */\n      0x80\n        /* \"#utility.yul\":25418:25421   */\n      dup8\n        /* \"#utility.yul\":25414:25428   */\n      add\n        /* \"#utility.yul\":25400:25412   */\n      dup3\n        /* \"#utility.yul\":25359:25429   */\n      tag_208\n      jump\t// in\n    tag_470:\n        /* \"#utility.yul\":25224:25439   */\n      pop\n        /* \"#utility.yul\":25456:25460   */\n      dup2\n        /* \"#utility.yul\":25449:25460   */\n      swap3\n      pop\n        /* \"#utility.yul\":24144:25466   */\n      pop\n      pop\n        /* \"#utility.yul\":24033:25466   */\n      swap3\n      swap2\n      pop\n      pop\n      jump\t// out\n        /* \"#utility.yul\":25472:25819   */\n    tag_120:\n        /* \"#utility.yul\":25602:25606   */\n      0x00\n        /* \"#utility.yul\":25640:25642   */\n      0x20\n        /* \"#utility.yul\":25629:25638   */\n      dup3\n        /* \"#utility.yul\":25625:25643   */\n      add\n        /* \"#utility.yul\":25617:25643   */\n      swap1\n      pop\n        /* \"#utility.yul\":25689:25698   */\n      dup2\n        /* \"#utility.yul\":25683:25687   */\n      dup2\n        /* \"#utility.yul\":25679:25699   */\n      sub\n        /* \"#utility.yul\":25675:25676   */\n      0x00\n        /* \"#utility.yul\":25664:25673   */\n      dup4\n        /* \"#utility.yul\":25660:25677   */\n      add\n        /* \"#utility.yul\":25653:25700   */\n      mstore\n        /* \"#utility.yul\":25717:25812   */\n      tag_472\n        /* \"#utility.yul\":25807:25811   */\n      dup2\n        /* \"#utility.yul\":25798:25804   */\n      dup5\n        /* \"#utility.yul\":25717:25812   */\n      tag_225\n      jump\t// in\n    tag_472:\n        /* \"#utility.yul\":25709:25812   */\n      swap1\n      pop\n        /* \"#utility.yul\":25472:25819   */\n      swap3\n      swap2\n      pop\n      pop\n      jump\t// out\n        /* \"#utility.yul\":25825:25943   */\n    tag_226:\n        /* \"#utility.yul\":25912:25936   */\n      tag_474\n        /* \"#utility.yul\":25930:25935   */\n      dup2\n        /* \"#utility.yul\":25912:25936   */\n      tag_162\n      jump\t// in\n    tag_474:\n        /* \"#utility.yul\":25907:25910   */\n      dup3\n        /* \"#utility.yul\":25900:25937   */\n      mstore\n        /* \"#utility.yul\":25825:25943   */\n      pop\n      pop\n      jump\t// out\n        /* \"#utility.yul\":25949:26171   */\n    tag_126:\n        /* \"#utility.yul\":26042:26046   */\n      0x00\n        /* \"#utility.yul\":26080:26082   */\n      0x20\n        /* \"#utility.yul\":26069:26078   */\n      dup3\n        /* \"#utility.yul\":26065:26083   */\n      add\n        /* \"#utility.yul\":26057:26083   */\n      swap1\n      pop\n        /* \"#utility.yul\":26093:26164   */\n      tag_476\n        /* \"#utility.yul\":26161:26162   */\n      0x00\n        /* \"#utility.yul\":26150:26159   */\n      dup4\n        /* \"#utility.yul\":26146:26163   */\n      add\n        /* \"#utility.yul\":26137:26143   */\n      dup5\n        /* \"#utility.yul\":26093:26164   */\n      tag_226\n      jump\t// in\n    tag_476:\n        /* \"#utility.yul\":25949:26171   */\n      swap3\n      swap2\n      pop\n      pop\n      jump\t// out\n\n    auxdata: 0xa2646970667358221220381f57ed00552ccceedf743f4978803c3f1018cbd121e1ed9073d8f2b375030e64736f6c634300081e0033\n}\n",
				"bytecode": {
					"linkReferences": {},
					"object": "6080604052348015600e575f5ffd5b50335f5f6101000a81548173ffffffffffffffffffffffffffffffffffffffff021916908373ffffffffffffffffffffffffffffffffffffffff160217905550600160025f3373ffffffffffffffffffffffffffffffffffffffff1673ffffffffffffffffffffffffffffffffffffffff1681526020019081526020015f2081905550611a1d8061009e5f395ff3fe608060405234801561000f575f5ffd5b5060043610610055575f3560e01c8063141908dc14610059578063256d6a2b146100755780637a77801e1461009157806380cb747b146100c1578063dcfb55bf146100dd575b5f5ffd5b610073600480360381019061006e9190610c5e565b6100e7565b005b61008f600480360381019061008a9190610d44565b6103f0565b005b6100ab60048036038101906100a69190610de8565b610693565b6040516100b89190610e40565b60405180910390f35b6100db60048036038101906100d69190610e59565b6106af565b005b6100e5610a42565b005b5f60025f3373ffffffffffffffffffffffffffffffffffffffff1673ffffffffffffffffffffffffffffffffffffffff1681526020019081526020015f205411610166576040517f08c379a000000000000000000000000000000000000000000000000000000000815260040161015d90610f3d565b60405180910390fd5b3373ffffffffffffffffffffffffffffffffffffffff1660018263ffffffff168154811061019757610196610f5b565b5b905f5260205f2090600402016001015f9054906101000a900473ffffffffffffffffffffffffffffffffffffffff1673ffffffffffffffffffffffffffffffffffffffff161461021c576040517f08c379a000000000000000000000000000000000000000000000000000000000815260040161021390610ff8565b60405180910390fd5b5f600281111561022f5761022e611016565b5b60018263ffffffff168154811061024957610248610f5b565b5b905f5260205f20906004020160030160049054906101000a900460ff16600281111561027857610277611016565b5b146102b8576040517f08c379a00000000000000000000000000000000000000000000000000000000081526004016102af9061108d565b60405180910390fd5b5f61030160018363ffffffff16815481106102d6576102d5610f5b565b5b905f5260205f2090600402016003015f9054906101000a900463ffffffff1663ffffffff1642610693565b90508061035b57600260018363ffffffff168154811061032457610323610f5b565b5b905f5260205f20906004020160030160046101000a81548160ff0219169083600281111561035557610354611016565b5b02179055505b8061039b576040517f08c379a0000000000000000000000000000000000000000000000000000000008152600401610392906110f5565b60405180910390fd5b6001808363ffffffff16815481106103b6576103b5610f5b565b5b905f5260205f20906004020160030160046101000a81548160ff021916908360028111156103e7576103e6611016565b5b02179055505050565b5f5f9054906101000a900473ffffffffffffffffffffffffffffffffffffffff1673ffffffffffffffffffffffffffffffffffffffff163373ffffffffffffffffffffffffffffffffffffffff161461047e576040517f08c379a0000000000000000000000000000000000000000000000000000000008152600401610475906111a9565b60405180910390fd5b5f6040518060a0016040528060018054905081526020018673ffffffffffffffffffffffffffffffffffffffff16815260200185858080601f0160208091040260200160405190810160405280939291908181526020018383808284375f81840152601f19601f8201169050808301925050505050505081526020018363ffffffff1681526020015f600281111561051957610518611016565b5b8152509050600181908060018154018082558091505060019003905f5260205f2090600402015f909190919091505f820151815f01556020820151816001015f6101000a81548173ffffffffffffffffffffffffffffffffffffffff021916908373ffffffffffffffffffffffffffffffffffffffff16021790555060408201518160020190816105aa91906113fb565b506060820151816003015f6101000a81548163ffffffff021916908363ffffffff16021790555060808201518160030160046101000a81548160ff021916908360028111156105fc576105fb611016565b5b0217905550505060025f8673ffffffffffffffffffffffffffffffffffffffff1673ffffffffffffffffffffffffffffffffffffffff1681526020019081526020015f205f815480929190610650906114f7565b91905055507f728537006fe8b64e571fa9b822bb2a9a411dea9828b4cb2d373c79654ccc00b081604051610684919061168a565b60405180910390a15050505050565b5f818311156106a557600190506106a9565b5f90505b92915050565b5f5f9054906101000a900473ffffffffffffffffffffffffffffffffffffffff1673ffffffffffffffffffffffffffffffffffffffff163373ffffffffffffffffffffffffffffffffffffffff161461073d576040517f08c379a0000000000000000000000000000000000000000000000000000000008152600401610734906111a9565b60405180910390fd5b5f60028111156107505761074f611016565b5b60018363ffffffff168154811061076a57610769610f5b565b5b905f5260205f20906004020160030160049054906101000a900460ff16600281111561079957610798611016565b5b146107d9576040517f08c379a00000000000000000000000000000000000000000000000000000000081526004016107d0906116f4565b60405180910390fd5b8073ffffffffffffffffffffffffffffffffffffffff1660018363ffffffff168154811061080a57610809610f5b565b5b905f5260205f2090600402016001015f9054906101000a900473ffffffffffffffffffffffffffffffffffffffff1673ffffffffffffffffffffffffffffffffffffffff160361088f576040517f08c379a000000000000000000000000000000000000000000000000000000000815260040161088690611782565b60405180910390fd5b60025f60018463ffffffff16815481106108ac576108ab610f5b565b5b905f5260205f2090600402016001015f9054906101000a900473ffffffffffffffffffffffffffffffffffffffff1673ffffffffffffffffffffffffffffffffffffffff1673ffffffffffffffffffffffffffffffffffffffff1681526020019081526020015f205f815480929190610924906117a0565b91905055508060018363ffffffff168154811061094457610943610f5b565b5b905f5260205f2090600402016001015f6101000a81548173ffffffffffffffffffffffffffffffffffffffff021916908373ffffffffffffffffffffffffffffffffffffffff16021790555060025f8273ffffffffffffffffffffffffffffffffffffffff1673ffffffffffffffffffffffffffffffffffffffff1681526020019081526020015f205f8154809291906109dd906114f7565b91905055507f90a144ab2975c0d9bc27fb9709dd36427d5ceab2100d2e3b9feabc7c223bc90e60018363ffffffff1681548110610a1d57610a1c610f5b565b5b905f5260205f209060040201604051610a36919061199f565b60405180910390a15050565b5f5f9054906101000a900473ffffffffffffffffffffffffffffffffffffffff1673ffffffffffffffffffffffffffffffffffffffff163373ffffffffffffffffffffffffffffffffffffffff1614610ad0576040517f08c379a0000000000000000000000000000000000000000000000000000000008152600401610ac7906111a9565b60405180910390fd5b7f0b4add2caad05ff5854296790546c919aac848c44dcaa9c18ca0c1cf5326030042604051610aff91906119ce565b60405180910390a15f5f90505b600180549050811015610c1a575f6002811115610b2c57610b2b611016565b5b60018281548110610b4057610b3f610f5b565b5b905f5260205f20906004020160030160049054906101000a900460ff166002811115610b6f57610b6e611016565b5b148015610bbb5750610bb960018281548110610b8e57610b8d610f5b565b5b905f5260205f2090600402016003015f9054906101000a900463ffffffff1663ffffffff1642610693565b155b15610c0d57600260018281548110610bd657610bd5610f5b565b5b905f5260205f20906004020160030160046101000a81548160ff02191690836002811115610c0757610c06611016565b5b02179055505b8080600101915050610b0c565b50565b5f5ffd5b5f5ffd5b5f63ffffffff82169050919050565b610c3d81610c25565b8114610c47575f5ffd5b50565b5f81359050610c5881610c34565b92915050565b5f60208284031215610c7357610c72610c1d565b5b5f610c8084828501610c4a565b91505092915050565b5f73ffffffffffffffffffffffffffffffffffffffff82169050919050565b5f610cb282610c89565b9050919050565b610cc281610ca8565b8114610ccc575f5ffd5b50565b5f81359050610cdd81610cb9565b92915050565b5f5ffd5b5f5ffd5b5f5ffd5b5f5f83601f840112610d0457610d03610ce3565b5b8235905067ffffffffffffffff811115610d2157610d20610ce7565b5b602083019150836001820283011115610d3d57610d3c610ceb565b5b9250929050565b5f5f5f5f60608587031215610d5c57610d5b610c1d565b5b5f610d6987828801610ccf565b945050602085013567ffffffffffffffff811115610d8a57610d89610c21565b5b610d9687828801610cef565b93509350506040610da987828801610c4a565b91505092959194509250565b5f819050919050565b610dc781610db5565b8114610dd1575f5ffd5b50565b5f81359050610de281610dbe565b92915050565b5f5f60408385031215610dfe57610dfd610c1d565b5b5f610e0b85828601610dd4565b9250506020610e1c85828601610dd4565b9150509250929050565b5f8115159050919050565b610e3a81610e26565b82525050565b5f602082019050610e535f830184610e31565b92915050565b5f5f60408385031215610e6f57610e6e610c1d565b5b5f610e7c85828601610c4a565b9250506020610e8d85828601610ccf565b9150509250929050565b5f82825260208201905092915050565b7f546869732066756e6374696f6e20732063616e206265206f6e6c7920657865635f8201527f757465206279204d656d6265722c2061646472657373206973206e6f74204d6560208201527f6d6265722e000000000000000000000000000000000000000000000000000000604082015250565b5f610f27604583610e97565b9150610f3282610ea7565b606082019050919050565b5f6020820190508181035f830152610f5481610f1b565b9050919050565b7f4e487b71000000000000000000000000000000000000000000000000000000005f52603260045260245ffd5b7f41646472657373206973206e6f74207468652061737369676e6565206f6620745f8201527f6865207461736b2e000000000000000000000000000000000000000000000000602082015250565b5f610fe2602883610e97565b9150610fed82610f88565b604082019050919050565b5f6020820190508181035f83015261100f81610fd6565b9050919050565b7f4e487b71000000000000000000000000000000000000000000000000000000005f52602160045260245ffd5b7f5461736b20697320616c726561647920636f6d706c657465642e0000000000005f82015250565b5f611077601a83610e97565b915061108282611043565b602082019050919050565b5f6020820190508181035f8301526110a48161106b565b9050919050565b7f5461736b20686173207061737365642074686520646561646c696e652e0000005f82015250565b5f6110df601d83610e97565b91506110ea826110ab565b602082019050919050565b5f6020820190508181035f83015261110c816110d3565b9050919050565b7f546869732066756e6374696f6e2069732063616e206265206f6e6c79206578655f8201527f637574652062792041737369676e65722c2061646472657373206973206e6f7460208201527f2061737369676e65722e00000000000000000000000000000000000000000000604082015250565b5f611193604a83610e97565b915061119e82611113565b606082019050919050565b5f6020820190508181035f8301526111c081611187565b9050919050565b5f81519050919050565b7f4e487b71000000000000000000000000000000000000000000000000000000005f52604160045260245ffd5b7f4e487b71000000000000000000000000000000000000000000000000000000005f52602260045260245ffd5b5f600282049050600182168061124257607f821691505b602082108103611255576112546111fe565b5b50919050565b5f819050815f5260205f209050919050565b5f6020601f8301049050919050565b5f82821b905092915050565b5f600883026112b77fffffffffffffffffffffffffffffffffffffffffffffffffffffffffffffffff8261127c565b6112c1868361127c565b95508019841693508086168417925050509392505050565b5f819050919050565b5f6112fc6112f76112f284610db5565b6112d9565b610db5565b9050919050565b5f819050919050565b611315836112e2565b61132961132182611303565b848454611288565b825550505050565b5f5f905090565b611340611331565b61134b81848461130c565b505050565b5b8181101561136e576113635f82611338565b600181019050611351565b5050565b601f8211156113b3576113848161125b565b61138d8461126d565b8101602085101561139c578190505b6113b06113a88561126d565b830182611350565b50505b505050565b5f82821c905092915050565b5f6113d35f19846008026113b8565b1980831691505092915050565b5f6113eb83836113c4565b9150826002028217905092915050565b611404826111c7565b67ffffffffffffffff81111561141d5761141c6111d1565b5b611427825461122b565b611432828285611372565b5f60209050601f831160018114611463575f8415611451578287015190505b61145b85826113e0565b8655506114c2565b601f1984166114718661125b565b5f5b8281101561149857848901518255600182019150602085019450602081019050611473565b868310156114b557848901516114b1601f8916826113c4565b8355505b6001600288020188555050505b505050505050565b7f4e487b71000000000000000000000000000000000000000000000000000000005f52601160045260245ffd5b5f61150182610db5565b91507fffffffffffffffffffffffffffffffffffffffffffffffffffffffffffffffff8203611533576115326114ca565b5b600182019050919050565b61154781610db5565b82525050565b61155681610ca8565b82525050565b5f82825260208201905092915050565b8281835e5f83830152505050565b5f601f19601f8301169050919050565b5f611594826111c7565b61159e818561155c565b93506115ae81856020860161156c565b6115b78161157a565b840191505092915050565b6115cb81610c25565b82525050565b600381106115e2576115e1611016565b5b50565b5f8190506115f2826115d1565b919050565b5f611601826115e5565b9050919050565b611611816115f7565b82525050565b5f60a083015f83015161162c5f86018261153e565b50602083015161163f602086018261154d565b5060408301518482036040860152611657828261158a565b915050606083015161166c60608601826115c2565b50608083015161167f6080860182611608565b508091505092915050565b5f6020820190508181035f8301526116a28184611617565b905092915050565b7f54686973207461736b20697320616c726561647920636f6d706c657465642e005f82015250565b5f6116de601f83610e97565b91506116e9826116aa565b602082019050919050565b5f6020820190508181035f83015261170b816116d2565b9050919050565b7f5461736b2063616e27742062652061737369676e656420746f2073616d6520615f8201527f6464726573730000000000000000000000000000000000000000000000000000602082015250565b5f61176c602683610e97565b915061177782611712565b604082019050919050565b5f6020820190508181035f83015261179981611760565b9050919050565b5f6117aa82610db5565b91505f82036117bc576117bb6114ca565b5b600182039050919050565b5f815f1c9050919050565b5f819050919050565b5f6117ed6117e8836117c7565b6117d2565b9050919050565b5f73ffffffffffffffffffffffffffffffffffffffff82169050919050565b5f611825611820836117c7565b6117f4565b9050919050565b5f81546118388161122b565b611842818661155c565b9450600182165f811461185c5760018114611872576118a4565b60ff1983168652811515602002860193506118a4565b61187b8561125b565b5f5b8381101561189c5781548189015260018201915060208101905061187d565b808801955050505b50505092915050565b5f63ffffffff82169050919050565b5f6118ce6118c9836117c7565b6118ad565b9050919050565b5f8160201c9050919050565b5f60ff82169050919050565b5f6118ff6118fa836118d5565b6118e1565b9050919050565b5f60a083015f5f840154905061191b816117db565b6119275f87018261153e565b506001840154905061193881611813565b611945602087018261154d565b5060028401858303604087015261195c838261182c565b9250506003840154905061196f816118bc565b61197c60608701826115c2565b50611986816118ed565b6119936080870182611608565b50819250505092915050565b5f6020820190508181035f8301526119b78184611906565b905092915050565b6119c881610db5565b82525050565b5f6020820190506119e15f8301846119bf565b9291505056fea2646970667358221220381f57ed00552ccceedf743f4978803c3f1018cbd121e1ed9073d8f2b375030e64736f6c634300081e0033",
					"opcodes": "PUSH1 0x80 PUSH1 0x40 MSTORE CALLVALUE DUP1 ISZERO PUSH1 0xE JUMPI PUSH0 PUSH0 REVERT JUMPDEST POP CALLER PUSH0 PUSH0 PUSH2 0x100 EXP DUP2 SLOAD DUP2 PUSH20 0xFFFFFFFFFFFFFFFFFFFFFFFFFFFFFFFFFFFFFFFF MUL NOT AND SWAP1 DUP4 PUSH20 0xFFFFFFFFFFFFFFFFFFFFFFFFFFFFFFFFFFFFFFFF AND MUL OR SWAP1 SSTORE POP PUSH1 0x1 PUSH1 0x2 PUSH0 CALLER PUSH20 0xFFFFFFFFFFFFFFFFFFFFFFFFFFFFFFFFFFFFFFFF AND PUSH20 0xFFFFFFFFFFFFFFFFFFFFFFFFFFFFFFFFFFFFFFFF AND DUP2 MSTORE PUSH1 0x20 ADD SWAP1 DUP2 MSTORE PUSH1 0x20 ADD PUSH0 KECCAK256 DUP2 SWAP1 SSTORE POP PUSH2 0x1A1D DUP1 PUSH2 0x9E PUSH0 CODECOPY PUSH0 RETURN INVALID PUSH1 0x80 PUSH1 0x40 MSTORE CALLVALUE DUP1 ISZERO PUSH2 0xF JUMPI PUSH0 PUSH0 REVERT JUMPDEST POP PUSH1 0x4 CALLDATASIZE LT PUSH2 0x55 JUMPI PUSH0 CALLDATALOAD PUSH1 0xE0 SHR DUP1 PUSH4 0x141908DC EQ PUSH2 0x59 JUMPI DUP1 PUSH4 0x256D6A2B EQ PUSH2 0x75 JUMPI DUP1 PUSH4 0x7A77801E EQ PUSH2 0x91 JUMPI DUP1 PUSH4 0x80CB747B EQ PUSH2 0xC1 JUMPI DUP1 PUSH4 0xDCFB55BF EQ PUSH2 0xDD JUMPI JUMPDEST PUSH0 PUSH0 REVERT JUMPDEST PUSH2 0x73 PUSH1 0x4 DUP1 CALLDATASIZE SUB DUP2 ADD SWAP1 PUSH2 0x6E SWAP2 SWAP1 PUSH2 0xC5E JUMP JUMPDEST PUSH2 0xE7 JUMP JUMPDEST STOP JUMPDEST PUSH2 0x8F PUSH1 0x4 DUP1 CALLDATASIZE SUB DUP2 ADD SWAP1 PUSH2 0x8A SWAP2 SWAP1 PUSH2 0xD44 JUMP JUMPDEST PUSH2 0x3F0 JUMP JUMPDEST STOP JUMPDEST PUSH2 0xAB PUSH1 0x4 DUP1 CALLDATASIZE SUB DUP2 ADD SWAP1 PUSH2 0xA6 SWAP2 SWAP1 PUSH2 0xDE8 JUMP JUMPDEST PUSH2 0x693 JUMP JUMPDEST PUSH1 0x40 MLOAD PUSH2 0xB8 SWAP2 SWAP1 PUSH2 0xE40 JUMP JUMPDEST PUSH1 0x40 MLOAD DUP1 SWAP2 SUB SWAP1 RETURN JUMPDEST PUSH2 0xDB PUSH1 0x4 DUP1 CALLDATASIZE SUB DUP2 ADD SWAP1 PUSH2 0xD6 SWAP2 SWAP1 PUSH2 0xE59 JUMP JUMPDEST PUSH2 0x6AF JUMP JUMPDEST STOP JUMPDEST PUSH2 0xE5 PUSH2 0xA42 JUMP JUMPDEST STOP JUMPDEST PUSH0 PUSH1 0x2 PUSH0 CALLER PUSH20 0xFFFFFFFFFFFFFFFFFFFFFFFFFFFFFFFFFFFFFFFF AND PUSH20 0xFFFFFFFFFFFFFFFFFFFFFFFFFFFFFFFFFFFFFFFF AND DUP2 MSTORE PUSH1 0x20 ADD SWAP1 DUP2 MSTORE PUSH1 0x20 ADD PUSH0 KECCAK256 SLOAD GT PUSH2 0x166 JUMPI PUSH1 0x40 MLOAD PUSH32 0x8C379A000000000000000000000000000000000000000000000000000000000 DUP2 MSTORE PUSH1 0x4 ADD PUSH2 0x15D SWAP1 PUSH2 0xF3D JUMP JUMPDEST PUSH1 0x40 MLOAD DUP1 SWAP2 SUB SWAP1 REVERT JUMPDEST CALLER PUSH20 0xFFFFFFFFFFFFFFFFFFFFFFFFFFFFFFFFFFFFFFFF AND PUSH1 0x1 DUP3 PUSH4 0xFFFFFFFF AND DUP2 SLOAD DUP2 LT PUSH2 0x197 JUMPI PUSH2 0x196 PUSH2 0xF5B JUMP JUMPDEST JUMPDEST SWAP1 PUSH0 MSTORE PUSH1 0x20 PUSH0 KECCAK256 SWAP1 PUSH1 0x4 MUL ADD PUSH1 0x1 ADD PUSH0 SWAP1 SLOAD SWAP1 PUSH2 0x100 EXP SWAP1 DIV PUSH20 0xFFFFFFFFFFFFFFFFFFFFFFFFFFFFFFFFFFFFFFFF AND PUSH20 0xFFFFFFFFFFFFFFFFFFFFFFFFFFFFFFFFFFFFFFFF AND EQ PUSH2 0x21C JUMPI PUSH1 0x40 MLOAD PUSH32 0x8C379A000000000000000000000000000000000000000000000000000000000 DUP2 MSTORE PUSH1 0x4 ADD PUSH2 0x213 SWAP1 PUSH2 0xFF8 JUMP JUMPDEST PUSH1 0x40 MLOAD DUP1 SWAP2 SUB SWAP1 REVERT JUMPDEST PUSH0 PUSH1 0x2 DUP2 GT ISZERO PUSH2 0x22F JUMPI PUSH2 0x22E PUSH2 0x1016 JUMP JUMPDEST JUMPDEST PUSH1 0x1 DUP3 PUSH4 0xFFFFFFFF AND DUP2 SLOAD DUP2 LT PUSH2 0x249 JUMPI PUSH2 0x248 PUSH2 0xF5B JUMP JUMPDEST JUMPDEST SWAP1 PUSH0 MSTORE PUSH1 0x20 PUSH0 KECCAK256 SWAP1 PUSH1 0x4 MUL ADD PUSH1 0x3 ADD PUSH1 0x4 SWAP1 SLOAD SWAP1 PUSH2 0x100 EXP SWAP1 DIV PUSH1 0xFF AND PUSH1 0x2 DUP2 GT ISZERO PUSH2 0x278 JUMPI PUSH2 0x277 PUSH2 0x1016 JUMP JUMPDEST JUMPDEST EQ PUSH2 0x2B8 JUMPI PUSH1 0x40 MLOAD PUSH32 0x8C379A000000000000000000000000000000000000000000000000000000000 DUP2 MSTORE PUSH1 0x4 ADD PUSH2 0x2AF SWAP1 PUSH2 0x108D JUMP JUMPDEST PUSH1 0x40 MLOAD DUP1 SWAP2 SUB SWAP1 REVERT JUMPDEST PUSH0 PUSH2 0x301 PUSH1 0x1 DUP4 PUSH4 0xFFFFFFFF AND DUP2 SLOAD DUP2 LT PUSH2 0x2D6 JUMPI PUSH2 0x2D5 PUSH2 0xF5B JUMP JUMPDEST JUMPDEST SWAP1 PUSH0 MSTORE PUSH1 0x20 PUSH0 KECCAK256 SWAP1 PUSH1 0x4 MUL ADD PUSH1 0x3 ADD PUSH0 SWAP1 SLOAD SWAP1 PUSH2 0x100 EXP SWAP1 DIV PUSH4 0xFFFFFFFF AND PUSH4 0xFFFFFFFF AND TIMESTAMP PUSH2 0x693 JUMP JUMPDEST SWAP1 POP DUP1 PUSH2 0x35B JUMPI PUSH1 0x2 PUSH1 0x1 DUP4 PUSH4 0xFFFFFFFF AND DUP2 SLOAD DUP2 LT PUSH2 0x324 JUMPI PUSH2 0x323 PUSH2 0xF5B JUMP JUMPDEST JUMPDEST SWAP1 PUSH0 MSTORE PUSH1 0x20 PUSH0 KECCAK256 SWAP1 PUSH1 0x4 MUL ADD PUSH1 0x3 ADD PUSH1 0x4 PUSH2 0x100 EXP DUP2 SLOAD DUP2 PUSH1 0xFF MUL NOT AND SWAP1 DUP4 PUSH1 0x2 DUP2 GT ISZERO PUSH2 0x355 JUMPI PUSH2 0x354 PUSH2 0x1016 JUMP JUMPDEST JUMPDEST MUL OR SWAP1 SSTORE POP JUMPDEST DUP1 PUSH2 0x39B JUMPI PUSH1 0x40 MLOAD PUSH32 0x8C379A000000000000000000000000000000000000000000000000000000000 DUP2 MSTORE PUSH1 0x4 ADD PUSH2 0x392 SWAP1 PUSH2 0x10F5 JUMP JUMPDEST PUSH1 0x40 MLOAD DUP1 SWAP2 SUB SWAP1 REVERT JUMPDEST PUSH1 0x1 DUP1 DUP4 PUSH4 0xFFFFFFFF AND DUP2 SLOAD DUP2 LT PUSH2 0x3B6 JUMPI PUSH2 0x3B5 PUSH2 0xF5B JUMP JUMPDEST JUMPDEST SWAP1 PUSH0 MSTORE PUSH1 0x20 PUSH0 KECCAK256 SWAP1 PUSH1 0x4 MUL ADD PUSH1 0x3 ADD PUSH1 0x4 PUSH2 0x100 EXP DUP2 SLOAD DUP2 PUSH1 0xFF MUL NOT AND SWAP1 DUP4 PUSH1 0x2 DUP2 GT ISZERO PUSH2 0x3E7 JUMPI PUSH2 0x3E6 PUSH2 0x1016 JUMP JUMPDEST JUMPDEST MUL OR SWAP1 SSTORE POP POP POP JUMP JUMPDEST PUSH0 PUSH0 SWAP1 SLOAD SWAP1 PUSH2 0x100 EXP SWAP1 DIV PUSH20 0xFFFFFFFFFFFFFFFFFFFFFFFFFFFFFFFFFFFFFFFF AND PUSH20 0xFFFFFFFFFFFFFFFFFFFFFFFFFFFFFFFFFFFFFFFF AND CALLER PUSH20 0xFFFFFFFFFFFFFFFFFFFFFFFFFFFFFFFFFFFFFFFF AND EQ PUSH2 0x47E JUMPI PUSH1 0x40 MLOAD PUSH32 0x8C379A000000000000000000000000000000000000000000000000000000000 DUP2 MSTORE PUSH1 0x4 ADD PUSH2 0x475 SWAP1 PUSH2 0x11A9 JUMP JUMPDEST PUSH1 0x40 MLOAD DUP1 SWAP2 SUB SWAP1 REVERT JUMPDEST PUSH0 PUSH1 0x40 MLOAD DUP1 PUSH1 0xA0 ADD PUSH1 0x40 MSTORE DUP1 PUSH1 0x1 DUP1 SLOAD SWAP1 POP DUP2 MSTORE PUSH1 0x20 ADD DUP7 PUSH20 0xFFFFFFFFFFFFFFFFFFFFFFFFFFFFFFFFFFFFFFFF AND DUP2 MSTORE PUSH1 0x20 ADD DUP6 DUP6 DUP1 DUP1 PUSH1 0x1F ADD PUSH1 0x20 DUP1 SWAP2 DIV MUL PUSH1 0x20 ADD PUSH1 0x40 MLOAD SWAP1 DUP2 ADD PUSH1 0x40 MSTORE DUP1 SWAP4 SWAP3 SWAP2 SWAP1 DUP2 DUP2 MSTORE PUSH1 0x20 ADD DUP4 DUP4 DUP1 DUP3 DUP5 CALLDATACOPY PUSH0 DUP2 DUP5 ADD MSTORE PUSH1 0x1F NOT PUSH1 0x1F DUP3 ADD AND SWAP1 POP DUP1 DUP4 ADD SWAP3 POP POP POP POP POP POP POP DUP2 MSTORE PUSH1 0x20 ADD DUP4 PUSH4 0xFFFFFFFF AND DUP2 MSTORE PUSH1 0x20 ADD PUSH0 PUSH1 0x2 DUP2 GT ISZERO PUSH2 0x519 JUMPI PUSH2 0x518 PUSH2 0x1016 JUMP JUMPDEST JUMPDEST DUP2 MSTORE POP SWAP1 POP PUSH1 0x1 DUP2 SWAP1 DUP1 PUSH1 0x1 DUP2 SLOAD ADD DUP1 DUP3 SSTORE DUP1 SWAP2 POP POP PUSH1 0x1 SWAP1 SUB SWAP1 PUSH0 MSTORE PUSH1 0x20 PUSH0 KECCAK256 SWAP1 PUSH1 0x4 MUL ADD PUSH0 SWAP1 SWAP2 SWAP1 SWAP2 SWAP1 SWAP2 POP PUSH0 DUP3 ADD MLOAD DUP2 PUSH0 ADD SSTORE PUSH1 0x20 DUP3 ADD MLOAD DUP2 PUSH1 0x1 ADD PUSH0 PUSH2 0x100 EXP DUP2 SLOAD DUP2 PUSH20 0xFFFFFFFFFFFFFFFFFFFFFFFFFFFFFFFFFFFFFFFF MUL NOT AND SWAP1 DUP4 PUSH20 0xFFFFFFFFFFFFFFFFFFFFFFFFFFFFFFFFFFFFFFFF AND MUL OR SWAP1 SSTORE POP PUSH1 0x40 DUP3 ADD MLOAD DUP2 PUSH1 0x2 ADD SWAP1 DUP2 PUSH2 0x5AA SWAP2 SWAP1 PUSH2 0x13FB JUMP JUMPDEST POP PUSH1 0x60 DUP3 ADD MLOAD DUP2 PUSH1 0x3 ADD PUSH0 PUSH2 0x100 EXP DUP2 SLOAD DUP2 PUSH4 0xFFFFFFFF MUL NOT AND SWAP1 DUP4 PUSH4 0xFFFFFFFF AND MUL OR SWAP1 SSTORE POP PUSH1 0x80 DUP3 ADD MLOAD DUP2 PUSH1 0x3 ADD PUSH1 0x4 PUSH2 0x100 EXP DUP2 SLOAD DUP2 PUSH1 0xFF MUL NOT AND SWAP1 DUP4 PUSH1 0x2 DUP2 GT ISZERO PUSH2 0x5FC JUMPI PUSH2 0x5FB PUSH2 0x1016 JUMP JUMPDEST JUMPDEST MUL OR SWAP1 SSTORE POP POP POP PUSH1 0x2 PUSH0 DUP7 PUSH20 0xFFFFFFFFFFFFFFFFFFFFFFFFFFFFFFFFFFFFFFFF AND PUSH20 0xFFFFFFFFFFFFFFFFFFFFFFFFFFFFFFFFFFFFFFFF AND DUP2 MSTORE PUSH1 0x20 ADD SWAP1 DUP2 MSTORE PUSH1 0x20 ADD PUSH0 KECCAK256 PUSH0 DUP2 SLOAD DUP1 SWAP3 SWAP2 SWAP1 PUSH2 0x650 SWAP1 PUSH2 0x14F7 JUMP JUMPDEST SWAP2 SWAP1 POP SSTORE POP PUSH32 0x728537006FE8B64E571FA9B822BB2A9A411DEA9828B4CB2D373C79654CCC00B0 DUP2 PUSH1 0x40 MLOAD PUSH2 0x684 SWAP2 SWAP1 PUSH2 0x168A JUMP JUMPDEST PUSH1 0x40 MLOAD DUP1 SWAP2 SUB SWAP1 LOG1 POP POP POP POP POP JUMP JUMPDEST PUSH0 DUP2 DUP4 GT ISZERO PUSH2 0x6A5 JUMPI PUSH1 0x1 SWAP1 POP PUSH2 0x6A9 JUMP JUMPDEST PUSH0 SWAP1 POP JUMPDEST SWAP3 SWAP2 POP POP JUMP JUMPDEST PUSH0 PUSH0 SWAP1 SLOAD SWAP1 PUSH2 0x100 EXP SWAP1 DIV PUSH20 0xFFFFFFFFFFFFFFFFFFFFFFFFFFFFFFFFFFFFFFFF AND PUSH20 0xFFFFFFFFFFFFFFFFFFFFFFFFFFFFFFFFFFFFFFFF AND CALLER PUSH20 0xFFFFFFFFFFFFFFFFFFFFFFFFFFFFFFFFFFFFFFFF AND EQ PUSH2 0x73D JUMPI PUSH1 0x40 MLOAD PUSH32 0x8C379A000000000000000000000000000000000000000000000000000000000 DUP2 MSTORE PUSH1 0x4 ADD PUSH2 0x734 SWAP1 PUSH2 0x11A9 JUMP JUMPDEST PUSH1 0x40 MLOAD DUP1 SWAP2 SUB SWAP1 REVERT JUMPDEST PUSH0 PUSH1 0x2 DUP2 GT ISZERO PUSH2 0x750 JUMPI PUSH2 0x74F PUSH2 0x1016 JUMP JUMPDEST JUMPDEST PUSH1 0x1 DUP4 PUSH4 0xFFFFFFFF AND DUP2 SLOAD DUP2 LT PUSH2 0x76A JUMPI PUSH2 0x769 PUSH2 0xF5B JUMP JUMPDEST JUMPDEST SWAP1 PUSH0 MSTORE PUSH1 0x20 PUSH0 KECCAK256 SWAP1 PUSH1 0x4 MUL ADD PUSH1 0x3 ADD PUSH1 0x4 SWAP1 SLOAD SWAP1 PUSH2 0x100 EXP SWAP1 DIV PUSH1 0xFF AND PUSH1 0x2 DUP2 GT ISZERO PUSH2 0x799 JUMPI PUSH2 0x798 PUSH2 0x1016 JUMP JUMPDEST JUMPDEST EQ PUSH2 0x7D9 JUMPI PUSH1 0x40 MLOAD PUSH32 0x8C379A000000000000000000000000000000000000000000000000000000000 DUP2 MSTORE PUSH1 0x4 ADD PUSH2 0x7D0 SWAP1 PUSH2 0x16F4 JUMP JUMPDEST PUSH1 0x40 MLOAD DUP1 SWAP2 SUB SWAP1 REVERT JUMPDEST DUP1 PUSH20 0xFFFFFFFFFFFFFFFFFFFFFFFFFFFFFFFFFFFFFFFF AND PUSH1 0x1 DUP4 PUSH4 0xFFFFFFFF AND DUP2 SLOAD DUP2 LT PUSH2 0x80A JUMPI PUSH2 0x809 PUSH2 0xF5B JUMP JUMPDEST JUMPDEST SWAP1 PUSH0 MSTORE PUSH1 0x20 PUSH0 KECCAK256 SWAP1 PUSH1 0x4 MUL ADD PUSH1 0x1 ADD PUSH0 SWAP1 SLOAD SWAP1 PUSH2 0x100 EXP SWAP1 DIV PUSH20 0xFFFFFFFFFFFFFFFFFFFFFFFFFFFFFFFFFFFFFFFF AND PUSH20 0xFFFFFFFFFFFFFFFFFFFFFFFFFFFFFFFFFFFFFFFF AND SUB PUSH2 0x88F JUMPI PUSH1 0x40 MLOAD PUSH32 0x8C379A000000000000000000000000000000000000000000000000000000000 DUP2 MSTORE PUSH1 0x4 ADD PUSH2 0x886 SWAP1 PUSH2 0x1782 JUMP JUMPDEST PUSH1 0x40 MLOAD DUP1 SWAP2 SUB SWAP1 REVERT JUMPDEST PUSH1 0x2 PUSH0 PUSH1 0x1 DUP5 PUSH4 0xFFFFFFFF AND DUP2 SLOAD DUP2 LT PUSH2 0x8AC JUMPI PUSH2 0x8AB PUSH2 0xF5B JUMP JUMPDEST JUMPDEST SWAP1 PUSH0 MSTORE PUSH1 0x20 PUSH0 KECCAK256 SWAP1 PUSH1 0x4 MUL ADD PUSH1 0x1 ADD PUSH0 SWAP1 SLOAD SWAP1 PUSH2 0x100 EXP SWAP1 DIV PUSH20 0xFFFFFFFFFFFFFFFFFFFFFFFFFFFFFFFFFFFFFFFF AND PUSH20 0xFFFFFFFFFFFFFFFFFFFFFFFFFFFFFFFFFFFFFFFF AND PUSH20 0xFFFFFFFFFFFFFFFFFFFFFFFFFFFFFFFFFFFFFFFF AND DUP2 MSTORE PUSH1 0x20 ADD SWAP1 DUP2 MSTORE PUSH1 0x20 ADD PUSH0 KECCAK256 PUSH0 DUP2 SLOAD DUP1 SWAP3 SWAP2 SWAP1 PUSH2 0x924 SWAP1 PUSH2 0x17A0 JUMP JUMPDEST SWAP2 SWAP1 POP SSTORE POP DUP1 PUSH1 0x1 DUP4 PUSH4 0xFFFFFFFF AND DUP2 SLOAD DUP2 LT PUSH2 0x944 JUMPI PUSH2 0x943 PUSH2 0xF5B JUMP JUMPDEST JUMPDEST SWAP1 PUSH0 MSTORE PUSH1 0x20 PUSH0 KECCAK256 SWAP1 PUSH1 0x4 MUL ADD PUSH1 0x1 ADD PUSH0 PUSH2 0x100 EXP DUP2 SLOAD DUP2 PUSH20 0xFFFFFFFFFFFFFFFFFFFFFFFFFFFFFFFFFFFFFFFF MUL NOT AND SWAP1 DUP4 PUSH20 0xFFFFFFFFFFFFFFFFFFFFFFFFFFFFFFFFFFFFFFFF AND MUL OR SWAP1 SSTORE POP PUSH1 0x2 PUSH0 DUP3 PUSH20 0xFFFFFFFFFFFFFFFFFFFFFFFFFFFFFFFFFFFFFFFF AND PUSH20 0xFFFFFFFFFFFFFFFFFFFFFFFFFFFFFFFFFFFFFFFF AND DUP2 MSTORE PUSH1 0x20 ADD SWAP1 DUP2 MSTORE PUSH1 0x20 ADD PUSH0 KECCAK256 PUSH0 DUP2 SLOAD DUP1 SWAP3 SWAP2 SWAP1 PUSH2 0x9DD SWAP1 PUSH2 0x14F7 JUMP JUMPDEST SWAP2 SWAP1 POP SSTORE POP PUSH32 0x90A144AB2975C0D9BC27FB9709DD36427D5CEAB2100D2E3B9FEABC7C223BC90E PUSH1 0x1 DUP4 PUSH4 0xFFFFFFFF AND DUP2 SLOAD DUP2 LT PUSH2 0xA1D JUMPI PUSH2 0xA1C PUSH2 0xF5B JUMP JUMPDEST JUMPDEST SWAP1 PUSH0 MSTORE PUSH1 0x20 PUSH0 KECCAK256 SWAP1 PUSH1 0x4 MUL ADD PUSH1 0x40 MLOAD PUSH2 0xA36 SWAP2 SWAP1 PUSH2 0x199F JUMP JUMPDEST PUSH1 0x40 MLOAD DUP1 SWAP2 SUB SWAP1 LOG1 POP POP JUMP JUMPDEST PUSH0 PUSH0 SWAP1 SLOAD SWAP1 PUSH2 0x100 EXP SWAP1 DIV PUSH20 0xFFFFFFFFFFFFFFFFFFFFFFFFFFFFFFFFFFFFFFFF AND PUSH20 0xFFFFFFFFFFFFFFFFFFFFFFFFFFFFFFFFFFFFFFFF AND CALLER PUSH20 0xFFFFFFFFFFFFFFFFFFFFFFFFFFFFFFFFFFFFFFFF AND EQ PUSH2 0xAD0 JUMPI PUSH1 0x40 MLOAD PUSH32 0x8C379A000000000000000000000000000000000000000000000000000000000 DUP2 MSTORE PUSH1 0x4 ADD PUSH2 0xAC7 SWAP1 PUSH2 0x11A9 JUMP JUMPDEST PUSH1 0x40 MLOAD DUP1 SWAP2 SUB SWAP1 REVERT JUMPDEST PUSH32 0xB4ADD2CAAD05FF5854296790546C919AAC848C44DCAA9C18CA0C1CF53260300 TIMESTAMP PUSH1 0x40 MLOAD PUSH2 0xAFF SWAP2 SWAP1 PUSH2 0x19CE JUMP JUMPDEST PUSH1 0x40 MLOAD DUP1 SWAP2 SUB SWAP1 LOG1 PUSH0 PUSH0 SWAP1 POP JUMPDEST PUSH1 0x1 DUP1 SLOAD SWAP1 POP DUP2 LT ISZERO PUSH2 0xC1A JUMPI PUSH0 PUSH1 0x2 DUP2 GT ISZERO PUSH2 0xB2C JUMPI PUSH2 0xB2B PUSH2 0x1016 JUMP JUMPDEST JUMPDEST PUSH1 0x1 DUP3 DUP2 SLOAD DUP2 LT PUSH2 0xB40 JUMPI PUSH2 0xB3F PUSH2 0xF5B JUMP JUMPDEST JUMPDEST SWAP1 PUSH0 MSTORE PUSH1 0x20 PUSH0 KECCAK256 SWAP1 PUSH1 0x4 MUL ADD PUSH1 0x3 ADD PUSH1 0x4 SWAP1 SLOAD SWAP1 PUSH2 0x100 EXP SWAP1 DIV PUSH1 0xFF AND PUSH1 0x2 DUP2 GT ISZERO PUSH2 0xB6F JUMPI PUSH2 0xB6E PUSH2 0x1016 JUMP JUMPDEST JUMPDEST EQ DUP1 ISZERO PUSH2 0xBBB JUMPI POP PUSH2 0xBB9 PUSH1 0x1 DUP3 DUP2 SLOAD DUP2 LT PUSH2 0xB8E JUMPI PUSH2 0xB8D PUSH2 0xF5B JUMP JUMPDEST JUMPDEST SWAP1 PUSH0 MSTORE PUSH1 0x20 PUSH0 KECCAK256 SWAP1 PUSH1 0x4 MUL ADD PUSH1 0x3 ADD PUSH0 SWAP1 SLOAD SWAP1 PUSH2 0x100 EXP SWAP1 DIV PUSH4 0xFFFFFFFF AND PUSH4 0xFFFFFFFF AND TIMESTAMP PUSH2 0x693 JUMP JUMPDEST ISZERO JUMPDEST ISZERO PUSH2 0xC0D JUMPI PUSH1 0x2 PUSH1 0x1 DUP3 DUP2 SLOAD DUP2 LT PUSH2 0xBD6 JUMPI PUSH2 0xBD5 PUSH2 0xF5B JUMP JUMPDEST JUMPDEST SWAP1 PUSH0 MSTORE PUSH1 0x20 PUSH0 KECCAK256 SWAP1 PUSH1 0x4 MUL ADD PUSH1 0x3 ADD PUSH1 0x4 PUSH2 0x100 EXP DUP2 SLOAD DUP2 PUSH1 0xFF MUL NOT AND SWAP1 DUP4 PUSH1 0x2 DUP2 GT ISZERO PUSH2 0xC07 JUMPI PUSH2 0xC06 PUSH2 0x1016 JUMP JUMPDEST JUMPDEST MUL OR SWAP1 SSTORE POP JUMPDEST DUP1 DUP1 PUSH1 0x1 ADD SWAP2 POP POP PUSH2 0xB0C JUMP JUMPDEST POP JUMP JUMPDEST PUSH0 PUSH0 REVERT JUMPDEST PUSH0 PUSH0 REVERT JUMPDEST PUSH0 PUSH4 0xFFFFFFFF DUP3 AND SWAP1 POP SWAP2 SWAP1 POP JUMP JUMPDEST PUSH2 0xC3D DUP2 PUSH2 0xC25 JUMP JUMPDEST DUP2 EQ PUSH2 0xC47 JUMPI PUSH0 PUSH0 REVERT JUMPDEST POP JUMP JUMPDEST PUSH0 DUP2 CALLDATALOAD SWAP1 POP PUSH2 0xC58 DUP2 PUSH2 0xC34 JUMP JUMPDEST SWAP3 SWAP2 POP POP JUMP JUMPDEST PUSH0 PUSH1 0x20 DUP3 DUP5 SUB SLT ISZERO PUSH2 0xC73 JUMPI PUSH2 0xC72 PUSH2 0xC1D JUMP JUMPDEST JUMPDEST PUSH0 PUSH2 0xC80 DUP5 DUP3 DUP6 ADD PUSH2 0xC4A JUMP JUMPDEST SWAP2 POP POP SWAP3 SWAP2 POP POP JUMP JUMPDEST PUSH0 PUSH20 0xFFFFFFFFFFFFFFFFFFFFFFFFFFFFFFFFFFFFFFFF DUP3 AND SWAP1 POP SWAP2 SWAP1 POP JUMP JUMPDEST PUSH0 PUSH2 0xCB2 DUP3 PUSH2 0xC89 JUMP JUMPDEST SWAP1 POP SWAP2 SWAP1 POP JUMP JUMPDEST PUSH2 0xCC2 DUP2 PUSH2 0xCA8 JUMP JUMPDEST DUP2 EQ PUSH2 0xCCC JUMPI PUSH0 PUSH0 REVERT JUMPDEST POP JUMP JUMPDEST PUSH0 DUP2 CALLDATALOAD SWAP1 POP PUSH2 0xCDD DUP2 PUSH2 0xCB9 JUMP JUMPDEST SWAP3 SWAP2 POP POP JUMP JUMPDEST PUSH0 PUSH0 REVERT JUMPDEST PUSH0 PUSH0 REVERT JUMPDEST PUSH0 PUSH0 REVERT JUMPDEST PUSH0 PUSH0 DUP4 PUSH1 0x1F DUP5 ADD SLT PUSH2 0xD04 JUMPI PUSH2 0xD03 PUSH2 0xCE3 JUMP JUMPDEST JUMPDEST DUP3 CALLDATALOAD SWAP1 POP PUSH8 0xFFFFFFFFFFFFFFFF DUP2 GT ISZERO PUSH2 0xD21 JUMPI PUSH2 0xD20 PUSH2 0xCE7 JUMP JUMPDEST JUMPDEST PUSH1 0x20 DUP4 ADD SWAP2 POP DUP4 PUSH1 0x1 DUP3 MUL DUP4 ADD GT ISZERO PUSH2 0xD3D JUMPI PUSH2 0xD3C PUSH2 0xCEB JUMP JUMPDEST JUMPDEST SWAP3 POP SWAP3 SWAP1 POP JUMP JUMPDEST PUSH0 PUSH0 PUSH0 PUSH0 PUSH1 0x60 DUP6 DUP8 SUB SLT ISZERO PUSH2 0xD5C JUMPI PUSH2 0xD5B PUSH2 0xC1D JUMP JUMPDEST JUMPDEST PUSH0 PUSH2 0xD69 DUP8 DUP3 DUP9 ADD PUSH2 0xCCF JUMP JUMPDEST SWAP5 POP POP PUSH1 0x20 DUP6 ADD CALLDATALOAD PUSH8 0xFFFFFFFFFFFFFFFF DUP2 GT ISZERO PUSH2 0xD8A JUMPI PUSH2 0xD89 PUSH2 0xC21 JUMP JUMPDEST JUMPDEST PUSH2 0xD96 DUP8 DUP3 DUP9 ADD PUSH2 0xCEF JUMP JUMPDEST SWAP4 POP SWAP4 POP POP PUSH1 0x40 PUSH2 0xDA9 DUP8 DUP3 DUP9 ADD PUSH2 0xC4A JUMP JUMPDEST SWAP2 POP POP SWAP3 SWAP6 SWAP2 SWAP5 POP SWAP3 POP JUMP JUMPDEST PUSH0 DUP2 SWAP1 POP SWAP2 SWAP1 POP JUMP JUMPDEST PUSH2 0xDC7 DUP2 PUSH2 0xDB5 JUMP JUMPDEST DUP2 EQ PUSH2 0xDD1 JUMPI PUSH0 PUSH0 REVERT JUMPDEST POP JUMP JUMPDEST PUSH0 DUP2 CALLDATALOAD SWAP1 POP PUSH2 0xDE2 DUP2 PUSH2 0xDBE JUMP JUMPDEST SWAP3 SWAP2 POP POP JUMP JUMPDEST PUSH0 PUSH0 PUSH1 0x40 DUP4 DUP6 SUB SLT ISZERO PUSH2 0xDFE JUMPI PUSH2 0xDFD PUSH2 0xC1D JUMP JUMPDEST JUMPDEST PUSH0 PUSH2 0xE0B DUP6 DUP3 DUP7 ADD PUSH2 0xDD4 JUMP JUMPDEST SWAP3 POP POP PUSH1 0x20 PUSH2 0xE1C DUP6 DUP3 DUP7 ADD PUSH2 0xDD4 JUMP JUMPDEST SWAP2 POP POP SWAP3 POP SWAP3 SWAP1 POP JUMP JUMPDEST PUSH0 DUP2 ISZERO ISZERO SWAP1 POP SWAP2 SWAP1 POP JUMP JUMPDEST PUSH2 0xE3A DUP2 PUSH2 0xE26 JUMP JUMPDEST DUP3 MSTORE POP POP JUMP JUMPDEST PUSH0 PUSH1 0x20 DUP3 ADD SWAP1 POP PUSH2 0xE53 PUSH0 DUP4 ADD DUP5 PUSH2 0xE31 JUMP JUMPDEST SWAP3 SWAP2 POP POP JUMP JUMPDEST PUSH0 PUSH0 PUSH1 0x40 DUP4 DUP6 SUB SLT ISZERO PUSH2 0xE6F JUMPI PUSH2 0xE6E PUSH2 0xC1D JUMP JUMPDEST JUMPDEST PUSH0 PUSH2 0xE7C DUP6 DUP3 DUP7 ADD PUSH2 0xC4A JUMP JUMPDEST SWAP3 POP POP PUSH1 0x20 PUSH2 0xE8D DUP6 DUP3 DUP7 ADD PUSH2 0xCCF JUMP JUMPDEST SWAP2 POP POP SWAP3 POP SWAP3 SWAP1 POP JUMP JUMPDEST PUSH0 DUP3 DUP3 MSTORE PUSH1 0x20 DUP3 ADD SWAP1 POP SWAP3 SWAP2 POP POP JUMP JUMPDEST PUSH32 0x546869732066756E6374696F6E20732063616E206265206F6E6C792065786563 PUSH0 DUP3 ADD MSTORE PUSH32 0x757465206279204D656D6265722C2061646472657373206973206E6F74204D65 PUSH1 0x20 DUP3 ADD MSTORE PUSH32 0x6D6265722E000000000000000000000000000000000000000000000000000000 PUSH1 0x40 DUP3 ADD MSTORE POP JUMP JUMPDEST PUSH0 PUSH2 0xF27 PUSH1 0x45 DUP4 PUSH2 0xE97 JUMP JUMPDEST SWAP2 POP PUSH2 0xF32 DUP3 PUSH2 0xEA7 JUMP JUMPDEST PUSH1 0x60 DUP3 ADD SWAP1 POP SWAP2 SWAP1 POP JUMP JUMPDEST PUSH0 PUSH1 0x20 DUP3 ADD SWAP1 POP DUP2 DUP2 SUB PUSH0 DUP4 ADD MSTORE PUSH2 0xF54 DUP2 PUSH2 0xF1B JUMP JUMPDEST SWAP1 POP SWAP2 SWAP1 POP JUMP JUMPDEST PUSH32 0x4E487B7100000000000000000000000000000000000000000000000000000000 PUSH0 MSTORE PUSH1 0x32 PUSH1 0x4 MSTORE PUSH1 0x24 PUSH0 REVERT JUMPDEST PUSH32 0x41646472657373206973206E6F74207468652061737369676E6565206F662074 PUSH0 DUP3 ADD MSTORE PUSH32 0x6865207461736B2E000000000000000000000000000000000000000000000000 PUSH1 0x20 DUP3 ADD MSTORE POP JUMP JUMPDEST PUSH0 PUSH2 0xFE2 PUSH1 0x28 DUP4 PUSH2 0xE97 JUMP JUMPDEST SWAP2 POP PUSH2 0xFED DUP3 PUSH2 0xF88 JUMP JUMPDEST PUSH1 0x40 DUP3 ADD SWAP1 POP SWAP2 SWAP1 POP JUMP JUMPDEST PUSH0 PUSH1 0x20 DUP3 ADD SWAP1 POP DUP2 DUP2 SUB PUSH0 DUP4 ADD MSTORE PUSH2 0x100F DUP2 PUSH2 0xFD6 JUMP JUMPDEST SWAP1 POP SWAP2 SWAP1 POP JUMP JUMPDEST PUSH32 0x4E487B7100000000000000000000000000000000000000000000000000000000 PUSH0 MSTORE PUSH1 0x21 PUSH1 0x4 MSTORE PUSH1 0x24 PUSH0 REVERT JUMPDEST PUSH32 0x5461736B20697320616C726561647920636F6D706C657465642E000000000000 PUSH0 DUP3 ADD MSTORE POP JUMP JUMPDEST PUSH0 PUSH2 0x1077 PUSH1 0x1A DUP4 PUSH2 0xE97 JUMP JUMPDEST SWAP2 POP PUSH2 0x1082 DUP3 PUSH2 0x1043 JUMP JUMPDEST PUSH1 0x20 DUP3 ADD SWAP1 POP SWAP2 SWAP1 POP JUMP JUMPDEST PUSH0 PUSH1 0x20 DUP3 ADD SWAP1 POP DUP2 DUP2 SUB PUSH0 DUP4 ADD MSTORE PUSH2 0x10A4 DUP2 PUSH2 0x106B JUMP JUMPDEST SWAP1 POP SWAP2 SWAP1 POP JUMP JUMPDEST PUSH32 0x5461736B20686173207061737365642074686520646561646C696E652E000000 PUSH0 DUP3 ADD MSTORE POP JUMP JUMPDEST PUSH0 PUSH2 0x10DF PUSH1 0x1D DUP4 PUSH2 0xE97 JUMP JUMPDEST SWAP2 POP PUSH2 0x10EA DUP3 PUSH2 0x10AB JUMP JUMPDEST PUSH1 0x20 DUP3 ADD SWAP1 POP SWAP2 SWAP1 POP JUMP JUMPDEST PUSH0 PUSH1 0x20 DUP3 ADD SWAP1 POP DUP2 DUP2 SUB PUSH0 DUP4 ADD MSTORE PUSH2 0x110C DUP2 PUSH2 0x10D3 JUMP JUMPDEST SWAP1 POP SWAP2 SWAP1 POP JUMP JUMPDEST PUSH32 0x546869732066756E6374696F6E2069732063616E206265206F6E6C7920657865 PUSH0 DUP3 ADD MSTORE PUSH32 0x637574652062792041737369676E65722C2061646472657373206973206E6F74 PUSH1 0x20 DUP3 ADD MSTORE PUSH32 0x2061737369676E65722E00000000000000000000000000000000000000000000 PUSH1 0x40 DUP3 ADD MSTORE POP JUMP JUMPDEST PUSH0 PUSH2 0x1193 PUSH1 0x4A DUP4 PUSH2 0xE97 JUMP JUMPDEST SWAP2 POP PUSH2 0x119E DUP3 PUSH2 0x1113 JUMP JUMPDEST PUSH1 0x60 DUP3 ADD SWAP1 POP SWAP2 SWAP1 POP JUMP JUMPDEST PUSH0 PUSH1 0x20 DUP3 ADD SWAP1 POP DUP2 DUP2 SUB PUSH0 DUP4 ADD MSTORE PUSH2 0x11C0 DUP2 PUSH2 0x1187 JUMP JUMPDEST SWAP1 POP SWAP2 SWAP1 POP JUMP JUMPDEST PUSH0 DUP2 MLOAD SWAP1 POP SWAP2 SWAP1 POP JUMP JUMPDEST PUSH32 0x4E487B7100000000000000000000000000000000000000000000000000000000 PUSH0 MSTORE PUSH1 0x41 PUSH1 0x4 MSTORE PUSH1 0x24 PUSH0 REVERT JUMPDEST PUSH32 0x4E487B7100000000000000000000000000000000000000000000000000000000 PUSH0 MSTORE PUSH1 0x22 PUSH1 0x4 MSTORE PUSH1 0x24 PUSH0 REVERT JUMPDEST PUSH0 PUSH1 0x2 DUP3 DIV SWAP1 POP PUSH1 0x1 DUP3 AND DUP1 PUSH2 0x1242 JUMPI PUSH1 0x7F DUP3 AND SWAP2 POP JUMPDEST PUSH1 0x20 DUP3 LT DUP2 SUB PUSH2 0x1255 JUMPI PUSH2 0x1254 PUSH2 0x11FE JUMP JUMPDEST JUMPDEST POP SWAP2 SWAP1 POP JUMP JUMPDEST PUSH0 DUP2 SWAP1 POP DUP2 PUSH0 MSTORE PUSH1 0x20 PUSH0 KECCAK256 SWAP1 POP SWAP2 SWAP1 POP JUMP JUMPDEST PUSH0 PUSH1 0x20 PUSH1 0x1F DUP4 ADD DIV SWAP1 POP SWAP2 SWAP1 POP JUMP JUMPDEST PUSH0 DUP3 DUP3 SHL SWAP1 POP SWAP3 SWAP2 POP POP JUMP JUMPDEST PUSH0 PUSH1 0x8 DUP4 MUL PUSH2 0x12B7 PUSH32 0xFFFFFFFFFFFFFFFFFFFFFFFFFFFFFFFFFFFFFFFFFFFFFFFFFFFFFFFFFFFFFFFF DUP3 PUSH2 0x127C JUMP JUMPDEST PUSH2 0x12C1 DUP7 DUP4 PUSH2 0x127C JUMP JUMPDEST SWAP6 POP DUP1 NOT DUP5 AND SWAP4 POP DUP1 DUP7 AND DUP5 OR SWAP3 POP POP POP SWAP4 SWAP3 POP POP POP JUMP JUMPDEST PUSH0 DUP2 SWAP1 POP SWAP2 SWAP1 POP JUMP JUMPDEST PUSH0 PUSH2 0x12FC PUSH2 0x12F7 PUSH2 0x12F2 DUP5 PUSH2 0xDB5 JUMP JUMPDEST PUSH2 0x12D9 JUMP JUMPDEST PUSH2 0xDB5 JUMP JUMPDEST SWAP1 POP SWAP2 SWAP1 POP JUMP JUMPDEST PUSH0 DUP2 SWAP1 POP SWAP2 SWAP1 POP JUMP JUMPDEST PUSH2 0x1315 DUP4 PUSH2 0x12E2 JUMP JUMPDEST PUSH2 0x1329 PUSH2 0x1321 DUP3 PUSH2 0x1303 JUMP JUMPDEST DUP5 DUP5 SLOAD PUSH2 0x1288 JUMP JUMPDEST DUP3 SSTORE POP POP POP POP JUMP JUMPDEST PUSH0 PUSH0 SWAP1 POP SWAP1 JUMP JUMPDEST PUSH2 0x1340 PUSH2 0x1331 JUMP JUMPDEST PUSH2 0x134B DUP2 DUP5 DUP5 PUSH2 0x130C JUMP JUMPDEST POP POP POP JUMP JUMPDEST JUMPDEST DUP2 DUP2 LT ISZERO PUSH2 0x136E JUMPI PUSH2 0x1363 PUSH0 DUP3 PUSH2 0x1338 JUMP JUMPDEST PUSH1 0x1 DUP2 ADD SWAP1 POP PUSH2 0x1351 JUMP JUMPDEST POP POP JUMP JUMPDEST PUSH1 0x1F DUP3 GT ISZERO PUSH2 0x13B3 JUMPI PUSH2 0x1384 DUP2 PUSH2 0x125B JUMP JUMPDEST PUSH2 0x138D DUP5 PUSH2 0x126D JUMP JUMPDEST DUP2 ADD PUSH1 0x20 DUP6 LT ISZERO PUSH2 0x139C JUMPI DUP2 SWAP1 POP JUMPDEST PUSH2 0x13B0 PUSH2 0x13A8 DUP6 PUSH2 0x126D JUMP JUMPDEST DUP4 ADD DUP3 PUSH2 0x1350 JUMP JUMPDEST POP POP JUMPDEST POP POP POP JUMP JUMPDEST PUSH0 DUP3 DUP3 SHR SWAP1 POP SWAP3 SWAP2 POP POP JUMP JUMPDEST PUSH0 PUSH2 0x13D3 PUSH0 NOT DUP5 PUSH1 0x8 MUL PUSH2 0x13B8 JUMP JUMPDEST NOT DUP1 DUP4 AND SWAP2 POP POP SWAP3 SWAP2 POP POP JUMP JUMPDEST PUSH0 PUSH2 0x13EB DUP4 DUP4 PUSH2 0x13C4 JUMP JUMPDEST SWAP2 POP DUP3 PUSH1 0x2 MUL DUP3 OR SWAP1 POP SWAP3 SWAP2 POP POP JUMP JUMPDEST PUSH2 0x1404 DUP3 PUSH2 0x11C7 JUMP JUMPDEST PUSH8 0xFFFFFFFFFFFFFFFF DUP2 GT ISZERO PUSH2 0x141D JUMPI PUSH2 0x141C PUSH2 0x11D1 JUMP JUMPDEST JUMPDEST PUSH2 0x1427 DUP3 SLOAD PUSH2 0x122B JUMP JUMPDEST PUSH2 0x1432 DUP3 DUP3 DUP6 PUSH2 0x1372 JUMP JUMPDEST PUSH0 PUSH1 0x20 SWAP1 POP PUSH1 0x1F DUP4 GT PUSH1 0x1 DUP2 EQ PUSH2 0x1463 JUMPI PUSH0 DUP5 ISZERO PUSH2 0x1451 JUMPI DUP3 DUP8 ADD MLOAD SWAP1 POP JUMPDEST PUSH2 0x145B DUP6 DUP3 PUSH2 0x13E0 JUMP JUMPDEST DUP7 SSTORE POP PUSH2 0x14C2 JUMP JUMPDEST PUSH1 0x1F NOT DUP5 AND PUSH2 0x1471 DUP7 PUSH2 0x125B JUMP JUMPDEST PUSH0 JUMPDEST DUP3 DUP2 LT ISZERO PUSH2 0x1498 JUMPI DUP5 DUP10 ADD MLOAD DUP3 SSTORE PUSH1 0x1 DUP3 ADD SWAP2 POP PUSH1 0x20 DUP6 ADD SWAP5 POP PUSH1 0x20 DUP2 ADD SWAP1 POP PUSH2 0x1473 JUMP JUMPDEST DUP7 DUP4 LT ISZERO PUSH2 0x14B5 JUMPI DUP5 DUP10 ADD MLOAD PUSH2 0x14B1 PUSH1 0x1F DUP10 AND DUP3 PUSH2 0x13C4 JUMP JUMPDEST DUP4 SSTORE POP JUMPDEST PUSH1 0x1 PUSH1 0x2 DUP9 MUL ADD DUP9 SSTORE POP POP POP JUMPDEST POP POP POP POP POP POP JUMP JUMPDEST PUSH32 0x4E487B7100000000000000000000000000000000000000000000000000000000 PUSH0 MSTORE PUSH1 0x11 PUSH1 0x4 MSTORE PUSH1 0x24 PUSH0 REVERT JUMPDEST PUSH0 PUSH2 0x1501 DUP3 PUSH2 0xDB5 JUMP JUMPDEST SWAP2 POP PUSH32 0xFFFFFFFFFFFFFFFFFFFFFFFFFFFFFFFFFFFFFFFFFFFFFFFFFFFFFFFFFFFFFFFF DUP3 SUB PUSH2 0x1533 JUMPI PUSH2 0x1532 PUSH2 0x14CA JUMP JUMPDEST JUMPDEST PUSH1 0x1 DUP3 ADD SWAP1 POP SWAP2 SWAP1 POP JUMP JUMPDEST PUSH2 0x1547 DUP2 PUSH2 0xDB5 JUMP JUMPDEST DUP3 MSTORE POP POP JUMP JUMPDEST PUSH2 0x1556 DUP2 PUSH2 0xCA8 JUMP JUMPDEST DUP3 MSTORE POP POP JUMP JUMPDEST PUSH0 DUP3 DUP3 MSTORE PUSH1 0x20 DUP3 ADD SWAP1 POP SWAP3 SWAP2 POP POP JUMP JUMPDEST DUP3 DUP2 DUP4 MCOPY PUSH0 DUP4 DUP4 ADD MSTORE POP POP POP JUMP JUMPDEST PUSH0 PUSH1 0x1F NOT PUSH1 0x1F DUP4 ADD AND SWAP1 POP SWAP2 SWAP1 POP JUMP JUMPDEST PUSH0 PUSH2 0x1594 DUP3 PUSH2 0x11C7 JUMP JUMPDEST PUSH2 0x159E DUP2 DUP6 PUSH2 0x155C JUMP JUMPDEST SWAP4 POP PUSH2 0x15AE DUP2 DUP6 PUSH1 0x20 DUP7 ADD PUSH2 0x156C JUMP JUMPDEST PUSH2 0x15B7 DUP2 PUSH2 0x157A JUMP JUMPDEST DUP5 ADD SWAP2 POP POP SWAP3 SWAP2 POP POP JUMP JUMPDEST PUSH2 0x15CB DUP2 PUSH2 0xC25 JUMP JUMPDEST DUP3 MSTORE POP POP JUMP JUMPDEST PUSH1 0x3 DUP2 LT PUSH2 0x15E2 JUMPI PUSH2 0x15E1 PUSH2 0x1016 JUMP JUMPDEST JUMPDEST POP JUMP JUMPDEST PUSH0 DUP2 SWAP1 POP PUSH2 0x15F2 DUP3 PUSH2 0x15D1 JUMP JUMPDEST SWAP2 SWAP1 POP JUMP JUMPDEST PUSH0 PUSH2 0x1601 DUP3 PUSH2 0x15E5 JUMP JUMPDEST SWAP1 POP SWAP2 SWAP1 POP JUMP JUMPDEST PUSH2 0x1611 DUP2 PUSH2 0x15F7 JUMP JUMPDEST DUP3 MSTORE POP POP JUMP JUMPDEST PUSH0 PUSH1 0xA0 DUP4 ADD PUSH0 DUP4 ADD MLOAD PUSH2 0x162C PUSH0 DUP7 ADD DUP3 PUSH2 0x153E JUMP JUMPDEST POP PUSH1 0x20 DUP4 ADD MLOAD PUSH2 0x163F PUSH1 0x20 DUP7 ADD DUP3 PUSH2 0x154D JUMP JUMPDEST POP PUSH1 0x40 DUP4 ADD MLOAD DUP5 DUP3 SUB PUSH1 0x40 DUP7 ADD MSTORE PUSH2 0x1657 DUP3 DUP3 PUSH2 0x158A JUMP JUMPDEST SWAP2 POP POP PUSH1 0x60 DUP4 ADD MLOAD PUSH2 0x166C PUSH1 0x60 DUP7 ADD DUP3 PUSH2 0x15C2 JUMP JUMPDEST POP PUSH1 0x80 DUP4 ADD MLOAD PUSH2 0x167F PUSH1 0x80 DUP7 ADD DUP3 PUSH2 0x1608 JUMP JUMPDEST POP DUP1 SWAP2 POP POP SWAP3 SWAP2 POP POP JUMP JUMPDEST PUSH0 PUSH1 0x20 DUP3 ADD SWAP1 POP DUP2 DUP2 SUB PUSH0 DUP4 ADD MSTORE PUSH2 0x16A2 DUP2 DUP5 PUSH2 0x1617 JUMP JUMPDEST SWAP1 POP SWAP3 SWAP2 POP POP JUMP JUMPDEST PUSH32 0x54686973207461736B20697320616C726561647920636F6D706C657465642E00 PUSH0 DUP3 ADD MSTORE POP JUMP JUMPDEST PUSH0 PUSH2 0x16DE PUSH1 0x1F DUP4 PUSH2 0xE97 JUMP JUMPDEST SWAP2 POP PUSH2 0x16E9 DUP3 PUSH2 0x16AA JUMP JUMPDEST PUSH1 0x20 DUP3 ADD SWAP1 POP SWAP2 SWAP1 POP JUMP JUMPDEST PUSH0 PUSH1 0x20 DUP3 ADD SWAP1 POP DUP2 DUP2 SUB PUSH0 DUP4 ADD MSTORE PUSH2 0x170B DUP2 PUSH2 0x16D2 JUMP JUMPDEST SWAP1 POP SWAP2 SWAP1 POP JUMP JUMPDEST PUSH32 0x5461736B2063616E27742062652061737369676E656420746F2073616D652061 PUSH0 DUP3 ADD MSTORE PUSH32 0x6464726573730000000000000000000000000000000000000000000000000000 PUSH1 0x20 DUP3 ADD MSTORE POP JUMP JUMPDEST PUSH0 PUSH2 0x176C PUSH1 0x26 DUP4 PUSH2 0xE97 JUMP JUMPDEST SWAP2 POP PUSH2 0x1777 DUP3 PUSH2 0x1712 JUMP JUMPDEST PUSH1 0x40 DUP3 ADD SWAP1 POP SWAP2 SWAP1 POP JUMP JUMPDEST PUSH0 PUSH1 0x20 DUP3 ADD SWAP1 POP DUP2 DUP2 SUB PUSH0 DUP4 ADD MSTORE PUSH2 0x1799 DUP2 PUSH2 0x1760 JUMP JUMPDEST SWAP1 POP SWAP2 SWAP1 POP JUMP JUMPDEST PUSH0 PUSH2 0x17AA DUP3 PUSH2 0xDB5 JUMP JUMPDEST SWAP2 POP PUSH0 DUP3 SUB PUSH2 0x17BC JUMPI PUSH2 0x17BB PUSH2 0x14CA JUMP JUMPDEST JUMPDEST PUSH1 0x1 DUP3 SUB SWAP1 POP SWAP2 SWAP1 POP JUMP JUMPDEST PUSH0 DUP2 PUSH0 SHR SWAP1 POP SWAP2 SWAP1 POP JUMP JUMPDEST PUSH0 DUP2 SWAP1 POP SWAP2 SWAP1 POP JUMP JUMPDEST PUSH0 PUSH2 0x17ED PUSH2 0x17E8 DUP4 PUSH2 0x17C7 JUMP JUMPDEST PUSH2 0x17D2 JUMP JUMPDEST SWAP1 POP SWAP2 SWAP1 POP JUMP JUMPDEST PUSH0 PUSH20 0xFFFFFFFFFFFFFFFFFFFFFFFFFFFFFFFFFFFFFFFF DUP3 AND SWAP1 POP SWAP2 SWAP1 POP JUMP JUMPDEST PUSH0 PUSH2 0x1825 PUSH2 0x1820 DUP4 PUSH2 0x17C7 JUMP JUMPDEST PUSH2 0x17F4 JUMP JUMPDEST SWAP1 POP SWAP2 SWAP1 POP JUMP JUMPDEST PUSH0 DUP2 SLOAD PUSH2 0x1838 DUP2 PUSH2 0x122B JUMP JUMPDEST PUSH2 0x1842 DUP2 DUP7 PUSH2 0x155C JUMP JUMPDEST SWAP5 POP PUSH1 0x1 DUP3 AND PUSH0 DUP2 EQ PUSH2 0x185C JUMPI PUSH1 0x1 DUP2 EQ PUSH2 0x1872 JUMPI PUSH2 0x18A4 JUMP JUMPDEST PUSH1 0xFF NOT DUP4 AND DUP7 MSTORE DUP2 ISZERO ISZERO PUSH1 0x20 MUL DUP7 ADD SWAP4 POP PUSH2 0x18A4 JUMP JUMPDEST PUSH2 0x187B DUP6 PUSH2 0x125B JUMP JUMPDEST PUSH0 JUMPDEST DUP4 DUP2 LT ISZERO PUSH2 0x189C JUMPI DUP2 SLOAD DUP2 DUP10 ADD MSTORE PUSH1 0x1 DUP3 ADD SWAP2 POP PUSH1 0x20 DUP2 ADD SWAP1 POP PUSH2 0x187D JUMP JUMPDEST DUP1 DUP9 ADD SWAP6 POP POP POP JUMPDEST POP POP POP SWAP3 SWAP2 POP POP JUMP JUMPDEST PUSH0 PUSH4 0xFFFFFFFF DUP3 AND SWAP1 POP SWAP2 SWAP1 POP JUMP JUMPDEST PUSH0 PUSH2 0x18CE PUSH2 0x18C9 DUP4 PUSH2 0x17C7 JUMP JUMPDEST PUSH2 0x18AD JUMP JUMPDEST SWAP1 POP SWAP2 SWAP1 POP JUMP JUMPDEST PUSH0 DUP2 PUSH1 0x20 SHR SWAP1 POP SWAP2 SWAP1 POP JUMP JUMPDEST PUSH0 PUSH1 0xFF DUP3 AND SWAP1 POP SWAP2 SWAP1 POP JUMP JUMPDEST PUSH0 PUSH2 0x18FF PUSH2 0x18FA DUP4 PUSH2 0x18D5 JUMP JUMPDEST PUSH2 0x18E1 JUMP JUMPDEST SWAP1 POP SWAP2 SWAP1 POP JUMP JUMPDEST PUSH0 PUSH1 0xA0 DUP4 ADD PUSH0 PUSH0 DUP5 ADD SLOAD SWAP1 POP PUSH2 0x191B DUP2 PUSH2 0x17DB JUMP JUMPDEST PUSH2 0x1927 PUSH0 DUP8 ADD DUP3 PUSH2 0x153E JUMP JUMPDEST POP PUSH1 0x1 DUP5 ADD SLOAD SWAP1 POP PUSH2 0x1938 DUP2 PUSH2 0x1813 JUMP JUMPDEST PUSH2 0x1945 PUSH1 0x20 DUP8 ADD DUP3 PUSH2 0x154D JUMP JUMPDEST POP PUSH1 0x2 DUP5 ADD DUP6 DUP4 SUB PUSH1 0x40 DUP8 ADD MSTORE PUSH2 0x195C DUP4 DUP3 PUSH2 0x182C JUMP JUMPDEST SWAP3 POP POP PUSH1 0x3 DUP5 ADD SLOAD SWAP1 POP PUSH2 0x196F DUP2 PUSH2 0x18BC JUMP JUMPDEST PUSH2 0x197C PUSH1 0x60 DUP8 ADD DUP3 PUSH2 0x15C2 JUMP JUMPDEST POP PUSH2 0x1986 DUP2 PUSH2 0x18ED JUMP JUMPDEST PUSH2 0x1993 PUSH1 0x80 DUP8 ADD DUP3 PUSH2 0x1608 JUMP JUMPDEST POP DUP2 SWAP3 POP POP POP SWAP3 SWAP2 POP POP JUMP JUMPDEST PUSH0 PUSH1 0x20 DUP3 ADD SWAP1 POP DUP2 DUP2 SUB PUSH0 DUP4 ADD MSTORE PUSH2 0x19B7 DUP2 DUP5 PUSH2 0x1906 JUMP JUMPDEST SWAP1 POP SWAP3 SWAP2 POP POP JUMP JUMPDEST PUSH2 0x19C8 DUP2 PUSH2 0xDB5 JUMP JUMPDEST DUP3 MSTORE POP POP JUMP JUMPDEST PUSH0 PUSH1 0x20 DUP3 ADD SWAP1 POP PUSH2 0x19E1 PUSH0 DUP4 ADD DUP5 PUSH2 0x19BF JUMP JUMPDEST SWAP3 SWAP2 POP POP JUMP INVALID LOG2 PUSH5 0x6970667358 0x22 SLT KECCAK256 CODESIZE 0x1F JUMPI 0xED STOP SSTORE 0x2C 0xCC RETURNCONTRACT 0xDF PUSH21 0x3F4978803C3F1018CBD121E1ED9073D8F2B375030E PUSH5 0x736F6C6343 STOP ADDMOD 0x1E STOP CALLER "
				},
				"gasEstimates": {
					"creation": {
						"codeDepositCost": "1337000",
						"executionCost": "47853",
						"totalCost": "1384853"
					},
					"external": {
						"assignTask(address,string,uint32)": "infinite",
						"checkDeadlineValid(uint256,uint256)": "infinite",
						"completeTask(uint32)": "42434",
						"reassignTask(uint32,address)": "infinite",
						"refreshTask()": "infinite"
					}
				},
				"methodIdentifiers": {
					"assignTask(address,string,uint32)": "256d6a2b",
					"checkDeadlineValid(uint256,uint256)": "7a77801e",
					"completeTask(uint32)": "141908dc",
					"reassignTask(uint32,address)": "80cb747b",
					"refreshTask()": "dcfb55bf"
				}
			},
			"storageLayout": {
				"storage": [
					{
						"astId": 3,
						"contract": "contracts/3_Ballot.sol:ToDoList",
						"label": "assigner",
						"offset": 0,
						"slot": "0",
						"type": "t_address"
					},
					{
						"astId": 7,
						"contract": "contracts/3_Ballot.sol:ToDoList",
						"label": "toDos",
						"offset": 0,
						"slot": "1",
						"type": "t_array(t_struct(ToDo)23_storage)dyn_storage"
					},
					{
						"astId": 11,
						"contract": "contracts/3_Ballot.sol:ToDoList",
						"label": "addressToTaskCount",
						"offset": 0,
						"slot": "2",
						"type": "t_mapping(t_address,t_uint256)"
					}
				],
				"types": {
					"t_address": {
						"encoding": "inplace",
						"label": "address",
						"numberOfBytes": "20"
					},
					"t_array(t_struct(ToDo)23_storage)dyn_storage": {
						"base": "t_struct(ToDo)23_storage",
						"encoding": "dynamic_array",
						"label": "struct ToDoList.ToDo[]",
						"numberOfBytes": "32"
					},
					"t_enum(STATUS)27": {
						"encoding": "inplace",
						"label": "enum ToDoList.STATUS",
						"numberOfBytes": "1"
					},
					"t_mapping(t_address,t_uint256)": {
						"encoding": "mapping",
						"key": "t_address",
						"label": "mapping(address => uint256)",
						"numberOfBytes": "32",
						"value": "t_uint256"
					},
					"t_string_storage": {
						"encoding": "bytes",
						"label": "string",
						"numberOfBytes": "32"
					},
					"t_struct(ToDo)23_storage": {
						"encoding": "inplace",
						"label": "struct ToDoList.ToDo",
						"members": [
							{
								"astId": 13,
								"contract": "contracts/3_Ballot.sol:ToDoList",
								"label": "taskId",
								"offset": 0,
								"slot": "0",
								"type": "t_uint256"
							},
							{
								"astId": 15,
								"contract": "contracts/3_Ballot.sol:ToDoList",
								"label": "assignee",
								"offset": 0,
								"slot": "1",
								"type": "t_address"
							},
							{
								"astId": 17,
								"contract": "contracts/3_Ballot.sol:ToDoList",
								"label": "task",
								"offset": 0,
								"slot": "2",
								"type": "t_string_storage"
							},
							{
								"astId": 19,
								"contract": "contracts/3_Ballot.sol:ToDoList",
								"label": "deadline",
								"offset": 0,
								"slot": "3",
								"type": "t_uint32"
							},
							{
								"astId": 22,
								"contract": "contracts/3_Ballot.sol:ToDoList",
								"label": "status",
								"offset": 4,
								"slot": "3",
								"type": "t_enum(STATUS)27"
							}
						],
						"numberOfBytes": "128"
					},
					"t_uint256": {
						"encoding": "inplace",
						"label": "uint256",
						"numberOfBytes": "32"
					},
					"t_uint32": {
						"encoding": "inplace",
						"label": "uint32",
						"numberOfBytes": "4"
					}
				}
			},
			"userdoc": {
				"kind": "user",
				"methods": {},
				"version": 1
			}
		}
	}
}