{
	"contracts/3_Ballot.sol": {
		"ToDoList": {
			"abi": [
				{
					"anonymous": false,
					"inputs": [
						{
							"indexed": true,
							"internalType": "address",
							"name": "assignee",
							"type": "address"
						},
						{
							"indexed": true,
							"internalType": "uint256",
							"name": "taskId",
							"type": "uint256"
						}
					],
					"name": "TaskAdded",
					"type": "event"
				},
				{
					"anonymous": false,
					"inputs": [
						{
							"indexed": true,
							"internalType": "address",
							"name": "assignee",
							"type": "address"
						},
						{
							"indexed": true,
							"internalType": "uint256",
							"name": "taskId",
							"type": "uint256"
						}
					],
					"name": "TaskCompleted",
					"type": "event"
				},
				{
					"anonymous": false,
					"inputs": [
						{
							"indexed": true,
							"internalType": "address",
							"name": "assignee",
							"type": "address"
						},
						{
							"indexed": true,
							"internalType": "uint256",
							"name": "taskId",
							"type": "uint256"
						}
					],
					"name": "TaskDeleted",
					"type": "event"
				},
				{
					"anonymous": false,
					"inputs": [
						{
							"indexed": true,
							"internalType": "address",
							"name": "assignee",
							"type": "address"
						},
						{
							"indexed": true,
							"internalType": "uint256",
							"name": "taskId",
							"type": "uint256"
						}
					],
					"name": "TaskOverdue",
					"type": "event"
				},
				{
					"inputs": [
						{
							"internalType": "string",
							"name": "_title",
							"type": "string"
						},
						{
							"internalType": "string",
							"name": "_task",
							"type": "string"
						},
						{
							"internalType": "uint256",
							"name": "_deadline",
							"type": "uint256"
						}
					],
					"name": "addTask",
					"outputs": [],
					"stateMutability": "nonpayable",
					"type": "function"
				},
				{
					"inputs": [
						{
							"internalType": "uint256",
							"name": "_taskId",
							"type": "uint256"
						}
					],
					"name": "completeTask",
					"outputs": [],
					"stateMutability": "nonpayable",
					"type": "function"
				},
				{
					"inputs": [
						{
							"internalType": "uint256",
							"name": "_taskId",
							"type": "uint256"
						}
					],
					"name": "deleteTask",
					"outputs": [],
					"stateMutability": "nonpayable",
					"type": "function"
				},
				{
					"inputs": [],
					"name": "getTaskCount",
					"outputs": [
						{
							"internalType": "uint256",
							"name": "",
							"type": "uint256"
						}
					],
					"stateMutability": "view",
					"type": "function"
				},
				{
					"inputs": [],
					"name": "getTasks",
					"outputs": [
						{
							"components": [
								{
									"internalType": "string",
									"name": "title",
									"type": "string"
								},
								{
									"internalType": "string",
									"name": "task",
									"type": "string"
								},
								{
									"internalType": "uint256",
									"name": "createdAt",
									"type": "uint256"
								},
								{
									"internalType": "uint256",
									"name": "deadline",
									"type": "uint256"
								},
								{
									"internalType": "enum ToDoList.STATUS",
									"name": "status",
									"type": "uint8"
								}
							],
							"internalType": "struct ToDoList.Task[]",
							"name": "",
							"type": "tuple[]"
						}
					],
					"stateMutability": "view",
					"type": "function"
				},
				{
					"inputs": [
						{
							"internalType": "uint256",
							"name": "_taskId",
							"type": "uint256"
						}
					],
					"name": "setOverdueTask",
					"outputs": [],
					"stateMutability": "nonpayable",
					"type": "function"
				}
			],
			"devdoc": {
				"kind": "dev",
				"methods": {},
				"version": 1
			},
			"evm": {
				"assembly": "    /* \"contracts/3_Ballot.sol\":70:3150  contract ToDoList {... */\n  mstore(0x40, 0x80)\n  callvalue\n  dup1\n  iszero\n  tag_1\n  jumpi\n  revert(0x00, 0x00)\ntag_1:\n  pop\n  dataSize(sub_0)\n  dup1\n  dataOffset(sub_0)\n  0x00\n  codecopy\n  0x00\n  return\nstop\n\nsub_0: assembly {\n        /* \"contracts/3_Ballot.sol\":70:3150  contract ToDoList {... */\n      mstore(0x40, 0x80)\n      callvalue\n      dup1\n      iszero\n      tag_1\n      jumpi\n      revert(0x00, 0x00)\n    tag_1:\n      pop\n      jumpi(tag_2, lt(calldatasize, 0x04))\n      shr(0xe0, calldataload(0x00))\n      dup1\n      0x04a87e38\n      eq\n      tag_3\n      jumpi\n      dup1\n      0x18688290\n      eq\n      tag_4\n      jumpi\n      dup1\n      0x560f3192\n      eq\n      tag_5\n      jumpi\n      dup1\n      0x7cbc9ae9\n      eq\n      tag_6\n      jumpi\n      dup1\n      0xc17a340e\n      eq\n      tag_7\n      jumpi\n      dup1\n      0xe1e29558\n      eq\n      tag_8\n      jumpi\n    tag_2:\n      revert(0x00, 0x00)\n        /* \"contracts/3_Ballot.sol\":2729:2826  function getTasks() public view returns (Task[] memory) {... */\n    tag_3:\n      tag_9\n      tag_10\n      jump\t// in\n    tag_9:\n      mload(0x40)\n      tag_11\n      swap2\n      swap1\n      tag_12\n      jump\t// in\n    tag_11:\n      mload(0x40)\n      dup1\n      swap2\n      sub\n      swap1\n      return\n        /* \"contracts/3_Ballot.sol\":2010:2380  function setOverdueTask(uint256 _taskId) external validTaskId(_taskId) {... */\n    tag_4:\n      tag_13\n      0x04\n      dup1\n      calldatasize\n      sub\n      dup2\n      add\n      swap1\n      tag_14\n      swap2\n      swap1\n      tag_15\n      jump\t// in\n    tag_14:\n      tag_16\n      jump\t// in\n    tag_13:\n      stop\n        /* \"contracts/3_Ballot.sol\":2387:2723  function deleteTask(uint256 _taskId) external validTaskId(_taskId) {... */\n    tag_5:\n      tag_17\n      0x04\n      dup1\n      calldatasize\n      sub\n      dup2\n      add\n      swap1\n      tag_18\n      swap2\n      swap1\n      tag_15\n      jump\t// in\n    tag_18:\n      tag_19\n      jump\t// in\n    tag_17:\n      stop\n        /* \"contracts/3_Ballot.sol\":757:1317  function addTask(string calldata _title, string calldata _task, uint256 _deadline) external {... */\n    tag_6:\n      tag_20\n      0x04\n      dup1\n      calldatasize\n      sub\n      dup2\n      add\n      swap1\n      tag_21\n      swap2\n      swap1\n      tag_22\n      jump\t// in\n    tag_21:\n      tag_23\n      jump\t// in\n    tag_20:\n      stop\n        /* \"contracts/3_Ballot.sol\":2914:3013  function getTaskCount() public view returns (uint) {... */\n    tag_7:\n      tag_24\n      tag_25\n      jump\t// in\n    tag_24:\n      mload(0x40)\n      tag_26\n      swap2\n      swap1\n      tag_27\n      jump\t// in\n    tag_26:\n      mload(0x40)\n      dup1\n      swap2\n      sub\n      swap1\n      return\n        /* \"contracts/3_Ballot.sol\":1323:1778  function completeTask(uint256 _taskId) external validTaskId(_taskId) {... */\n    tag_8:\n      tag_28\n      0x04\n      dup1\n      calldatasize\n      sub\n      dup2\n      add\n      swap1\n      tag_29\n      swap2\n      swap1\n      tag_15\n      jump\t// in\n    tag_29:\n      tag_30\n      jump\t// in\n    tag_28:\n      stop\n        /* \"contracts/3_Ballot.sol\":2729:2826  function getTasks() public view returns (Task[] memory) {... */\n    tag_10:\n        /* \"contracts/3_Ballot.sol\":2770:2783  Task[] memory */\n      0x60\n        /* \"contracts/3_Ballot.sol\":2802:2807  tasks */\n      0x01\n        /* \"contracts/3_Ballot.sol\":2802:2819  tasks[msg.sender] */\n      0x00\n        /* \"contracts/3_Ballot.sol\":2808:2818  msg.sender */\n      caller\n        /* \"contracts/3_Ballot.sol\":2802:2819  tasks[msg.sender] */\n      0xffffffffffffffffffffffffffffffffffffffff\n      and\n      0xffffffffffffffffffffffffffffffffffffffff\n      and\n      dup2\n      mstore\n      0x20\n      add\n      swap1\n      dup2\n      mstore\n      0x20\n      add\n      0x00\n      keccak256\n        /* \"contracts/3_Ballot.sol\":2795:2819  return tasks[msg.sender] */\n      dup1\n      sload\n      dup1\n      0x20\n      mul\n      0x20\n      add\n      mload(0x40)\n      swap1\n      dup2\n      add\n      0x40\n      mstore\n      dup1\n      swap3\n      swap2\n      swap1\n      dup2\n      dup2\n      mstore\n      0x20\n      add\n      0x00\n      swap1\n    tag_32:\n      dup3\n      dup3\n      lt\n      iszero\n      tag_33\n      jumpi\n      dup4\n      dup3\n      swap1\n      0x00\n      mstore\n      keccak256(0x00, 0x20)\n      swap1\n      0x05\n      mul\n      add\n      mload(0x40)\n      dup1\n      0xa0\n      add\n      0x40\n      mstore\n      swap1\n      dup2\n      0x00\n      dup3\n      add\n      dup1\n      sload\n      tag_35\n      swap1\n      tag_36\n      jump\t// in\n    tag_35:\n      dup1\n      0x1f\n      add\n      0x20\n      dup1\n      swap2\n      div\n      mul\n      0x20\n      add\n      mload(0x40)\n      swap1\n      dup2\n      add\n      0x40\n      mstore\n      dup1\n      swap3\n      swap2\n      swap1\n      dup2\n      dup2\n      mstore\n      0x20\n      add\n      dup3\n      dup1\n      sload\n      tag_37\n      swap1\n      tag_36\n      jump\t// in\n    tag_37:\n      dup1\n      iszero\n      tag_38\n      jumpi\n      dup1\n      0x1f\n      lt\n      tag_39\n      jumpi\n      0x0100\n      dup1\n      dup4\n      sload\n      div\n      mul\n      dup4\n      mstore\n      swap2\n      0x20\n      add\n      swap2\n      jump(tag_38)\n    tag_39:\n      dup3\n      add\n      swap2\n      swap1\n      0x00\n      mstore\n      keccak256(0x00, 0x20)\n      swap1\n    tag_40:\n      dup2\n      sload\n      dup2\n      mstore\n      swap1\n      0x01\n      add\n      swap1\n      0x20\n      add\n      dup1\n      dup4\n      gt\n      tag_40\n      jumpi\n      dup3\n      swap1\n      sub\n      0x1f\n      and\n      dup3\n      add\n      swap2\n    tag_38:\n      pop\n      pop\n      pop\n      pop\n      pop\n      dup2\n      mstore\n      0x20\n      add\n      0x01\n      dup3\n      add\n      dup1\n      sload\n      tag_41\n      swap1\n      tag_36\n      jump\t// in\n    tag_41:\n      dup1\n      0x1f\n      add\n      0x20\n      dup1\n      swap2\n      div\n      mul\n      0x20\n      add\n      mload(0x40)\n      swap1\n      dup2\n      add\n      0x40\n      mstore\n      dup1\n      swap3\n      swap2\n      swap1\n      dup2\n      dup2\n      mstore\n      0x20\n      add\n      dup3\n      dup1\n      sload\n      tag_42\n      swap1\n      tag_36\n      jump\t// in\n    tag_42:\n      dup1\n      iszero\n      tag_43\n      jumpi\n      dup1\n      0x1f\n      lt\n      tag_44\n      jumpi\n      0x0100\n      dup1\n      dup4\n      sload\n      div\n      mul\n      dup4\n      mstore\n      swap2\n      0x20\n      add\n      swap2\n      jump(tag_43)\n    tag_44:\n      dup3\n      add\n      swap2\n      swap1\n      0x00\n      mstore\n      keccak256(0x00, 0x20)\n      swap1\n    tag_45:\n      dup2\n      sload\n      dup2\n      mstore\n      swap1\n      0x01\n      add\n      swap1\n      0x20\n      add\n      dup1\n      dup4\n      gt\n      tag_45\n      jumpi\n      dup3\n      swap1\n      sub\n      0x1f\n      and\n      dup3\n      add\n      swap2\n    tag_43:\n      pop\n      pop\n      pop\n      pop\n      pop\n      dup2\n      mstore\n      0x20\n      add\n      0x02\n      dup3\n      add\n      sload\n      dup2\n      mstore\n      0x20\n      add\n      0x03\n      dup3\n      add\n      sload\n      dup2\n      mstore\n      0x20\n      add\n      0x04\n      dup3\n      add\n      0x00\n      swap1\n      sload\n      swap1\n      0x0100\n      exp\n      swap1\n      div\n      0xff\n      and\n      0x02\n      dup2\n      gt\n      iszero\n      tag_46\n      jumpi\n      tag_47\n      tag_48\n      jump\t// in\n    tag_47:\n    tag_46:\n      0x02\n      dup2\n      gt\n      iszero\n      tag_49\n      jumpi\n      tag_50\n      tag_48\n      jump\t// in\n    tag_50:\n    tag_49:\n      dup2\n      mstore\n      pop\n      pop\n      dup2\n      mstore\n      0x20\n      add\n      swap1\n      0x01\n      add\n      swap1\n      jump(tag_32)\n    tag_33:\n      pop\n      pop\n      pop\n      pop\n      swap1\n      pop\n        /* \"contracts/3_Ballot.sol\":2729:2826  function getTasks() public view returns (Task[] memory) {... */\n      swap1\n      jump\t// out\n        /* \"contracts/3_Ballot.sol\":2010:2380  function setOverdueTask(uint256 _taskId) external validTaskId(_taskId) {... */\n    tag_16:\n        /* \"contracts/3_Ballot.sol\":2072:2079  _taskId */\n      dup1\n        /* \"contracts/3_Ballot.sol\":3085:3090  tasks */\n      0x01\n        /* \"contracts/3_Ballot.sol\":3085:3102  tasks[msg.sender] */\n      0x00\n        /* \"contracts/3_Ballot.sol\":3091:3101  msg.sender */\n      caller\n        /* \"contracts/3_Ballot.sol\":3085:3102  tasks[msg.sender] */\n      0xffffffffffffffffffffffffffffffffffffffff\n      and\n      0xffffffffffffffffffffffffffffffffffffffff\n      and\n      dup2\n      mstore\n      0x20\n      add\n      swap1\n      dup2\n      mstore\n      0x20\n      add\n      0x00\n      keccak256\n        /* \"contracts/3_Ballot.sol\":3085:3109  tasks[msg.sender].length */\n      dup1\n      sload\n      swap1\n      pop\n        /* \"contracts/3_Ballot.sol\":3075:3082  _taskId */\n      dup2\n        /* \"contracts/3_Ballot.sol\":3075:3109  _taskId < tasks[msg.sender].length */\n      lt\n        /* \"contracts/3_Ballot.sol\":3067:3130  require(_taskId < tasks[msg.sender].length, \"Invalide task ID\") */\n      tag_52\n      jumpi\n      mload(0x40)\n      0x08c379a000000000000000000000000000000000000000000000000000000000\n      dup2\n      mstore\n      0x04\n      add\n      tag_53\n      swap1\n      tag_54\n      jump\t// in\n    tag_53:\n      mload(0x40)\n      dup1\n      swap2\n      sub\n      swap1\n      revert\n    tag_52:\n        /* \"contracts/3_Ballot.sol\":2091:2108  Task storage task */\n      0x00\n        /* \"contracts/3_Ballot.sol\":2111:2116  tasks */\n      0x01\n        /* \"contracts/3_Ballot.sol\":2111:2128  tasks[msg.sender] */\n      0x00\n        /* \"contracts/3_Ballot.sol\":2117:2127  msg.sender */\n      caller\n        /* \"contracts/3_Ballot.sol\":2111:2128  tasks[msg.sender] */\n      0xffffffffffffffffffffffffffffffffffffffff\n      and\n      0xffffffffffffffffffffffffffffffffffffffff\n      and\n      dup2\n      mstore\n      0x20\n      add\n      swap1\n      dup2\n      mstore\n      0x20\n      add\n      0x00\n      keccak256\n        /* \"contracts/3_Ballot.sol\":2129:2136  _taskId */\n      dup4\n        /* \"contracts/3_Ballot.sol\":2111:2137  tasks[msg.sender][_taskId] */\n      dup2\n      sload\n      dup2\n      lt\n      tag_56\n      jumpi\n      tag_57\n      tag_58\n      jump\t// in\n    tag_57:\n    tag_56:\n      swap1\n      0x00\n      mstore\n      keccak256(0x00, 0x20)\n      swap1\n      0x05\n      mul\n      add\n        /* \"contracts/3_Ballot.sol\":2091:2137  Task storage task = tasks[msg.sender][_taskId] */\n      swap1\n      pop\n        /* \"contracts/3_Ballot.sol\":2171:2185  STATUS.PENDING */\n      0x00\n        /* \"contracts/3_Ballot.sol\":2156:2185  task.status == STATUS.PENDING */\n      0x02\n      dup2\n      gt\n      iszero\n      tag_60\n      jumpi\n      tag_61\n      tag_48\n      jump\t// in\n    tag_61:\n    tag_60:\n        /* \"contracts/3_Ballot.sol\":2156:2160  task */\n      dup2\n        /* \"contracts/3_Ballot.sol\":2156:2167  task.status */\n      0x04\n      add\n      0x00\n      swap1\n      sload\n      swap1\n      0x0100\n      exp\n      swap1\n      div\n      0xff\n      and\n        /* \"contracts/3_Ballot.sol\":2156:2185  task.status == STATUS.PENDING */\n      0x02\n      dup2\n      gt\n      iszero\n      tag_62\n      jumpi\n      tag_63\n      tag_48\n      jump\t// in\n    tag_63:\n    tag_62:\n      eq\n        /* \"contracts/3_Ballot.sol\":2148:2210  require(task.status == STATUS.PENDING, \"Task must be Pending\") */\n      tag_64\n      jumpi\n      mload(0x40)\n      0x08c379a000000000000000000000000000000000000000000000000000000000\n      dup2\n      mstore\n      0x04\n      add\n      tag_65\n      swap1\n      tag_66\n      jump\t// in\n    tag_65:\n      mload(0x40)\n      dup1\n      swap2\n      sub\n      swap1\n      revert\n    tag_64:\n        /* \"contracts/3_Ballot.sol\":2244:2259  block.timestamp */\n      timestamp\n        /* \"contracts/3_Ballot.sol\":2228:2232  task */\n      dup2\n        /* \"contracts/3_Ballot.sol\":2228:2241  task.deadline */\n      0x03\n      add\n      sload\n        /* \"contracts/3_Ballot.sol\":2228:2259  task.deadline < block.timestamp */\n      lt\n        /* \"contracts/3_Ballot.sol\":2220:2287  require(task.deadline < block.timestamp, \"Task is not overdue yet\") */\n      tag_67\n      jumpi\n      mload(0x40)\n      0x08c379a000000000000000000000000000000000000000000000000000000000\n      dup2\n      mstore\n      0x04\n      add\n      tag_68\n      swap1\n      tag_69\n      jump\t// in\n    tag_68:\n      mload(0x40)\n      dup1\n      swap2\n      sub\n      swap1\n      revert\n    tag_67:\n        /* \"contracts/3_Ballot.sol\":2312:2326  STATUS.OVERDUE */\n      0x02\n        /* \"contracts/3_Ballot.sol\":2298:2302  task */\n      dup2\n        /* \"contracts/3_Ballot.sol\":2298:2309  task.status */\n      0x04\n      add\n      0x00\n        /* \"contracts/3_Ballot.sol\":2298:2326  task.status = STATUS.OVERDUE */\n      0x0100\n      exp\n      dup2\n      sload\n      dup2\n      0xff\n      mul\n      not\n      and\n      swap1\n      dup4\n      0x02\n      dup2\n      gt\n      iszero\n      tag_70\n      jumpi\n      tag_71\n      tag_48\n      jump\t// in\n    tag_71:\n    tag_70:\n      mul\n      or\n      swap1\n      sstore\n      pop\n        /* \"contracts/3_Ballot.sol\":2365:2372  _taskId */\n      dup3\n        /* \"contracts/3_Ballot.sol\":2353:2363  msg.sender */\n      caller\n        /* \"contracts/3_Ballot.sol\":2341:2373  TaskOverdue(msg.sender, _taskId) */\n      0xffffffffffffffffffffffffffffffffffffffff\n      and\n      0xc5c09e6ef32e79ce08770ecea60cd5e7915b242a238f0ac57fc39c0b3ba58d19\n      mload(0x40)\n      mload(0x40)\n      dup1\n      swap2\n      sub\n      swap1\n      log3\n        /* \"contracts/3_Ballot.sol\":2081:2380  {... */\n      pop\n        /* \"contracts/3_Ballot.sol\":2010:2380  function setOverdueTask(uint256 _taskId) external validTaskId(_taskId) {... */\n      pop\n      pop\n      jump\t// out\n        /* \"contracts/3_Ballot.sol\":2387:2723  function deleteTask(uint256 _taskId) external validTaskId(_taskId) {... */\n    tag_19:\n        /* \"contracts/3_Ballot.sol\":2445:2452  _taskId */\n      dup1\n        /* \"contracts/3_Ballot.sol\":3085:3090  tasks */\n      0x01\n        /* \"contracts/3_Ballot.sol\":3085:3102  tasks[msg.sender] */\n      0x00\n        /* \"contracts/3_Ballot.sol\":3091:3101  msg.sender */\n      caller\n        /* \"contracts/3_Ballot.sol\":3085:3102  tasks[msg.sender] */\n      0xffffffffffffffffffffffffffffffffffffffff\n      and\n      0xffffffffffffffffffffffffffffffffffffffff\n      and\n      dup2\n      mstore\n      0x20\n      add\n      swap1\n      dup2\n      mstore\n      0x20\n      add\n      0x00\n      keccak256\n        /* \"contracts/3_Ballot.sol\":3085:3109  tasks[msg.sender].length */\n      dup1\n      sload\n      swap1\n      pop\n        /* \"contracts/3_Ballot.sol\":3075:3082  _taskId */\n      dup2\n        /* \"contracts/3_Ballot.sol\":3075:3109  _taskId < tasks[msg.sender].length */\n      lt\n        /* \"contracts/3_Ballot.sol\":3067:3130  require(_taskId < tasks[msg.sender].length, \"Invalide task ID\") */\n      tag_73\n      jumpi\n      mload(0x40)\n      0x08c379a000000000000000000000000000000000000000000000000000000000\n      dup2\n      mstore\n      0x04\n      add\n      tag_74\n      swap1\n      tag_54\n      jump\t// in\n    tag_74:\n      mload(0x40)\n      dup1\n      swap2\n      sub\n      swap1\n      revert\n    tag_73:\n        /* \"contracts/3_Ballot.sol\":2464:2481  uint256 taskCount */\n      0x00\n        /* \"contracts/3_Ballot.sol\":2484:2489  tasks */\n      0x01\n        /* \"contracts/3_Ballot.sol\":2484:2501  tasks[msg.sender] */\n      0x00\n        /* \"contracts/3_Ballot.sol\":2490:2500  msg.sender */\n      caller\n        /* \"contracts/3_Ballot.sol\":2484:2501  tasks[msg.sender] */\n      0xffffffffffffffffffffffffffffffffffffffff\n      and\n      0xffffffffffffffffffffffffffffffffffffffff\n      and\n      dup2\n      mstore\n      0x20\n      add\n      swap1\n      dup2\n      mstore\n      0x20\n      add\n      0x00\n      keccak256\n        /* \"contracts/3_Ballot.sol\":2484:2508  tasks[msg.sender].length */\n      dup1\n      sload\n      swap1\n      pop\n        /* \"contracts/3_Ballot.sol\":2464:2508  uint256 taskCount = tasks[msg.sender].length */\n      swap1\n      pop\n        /* \"contracts/3_Ballot.sol\":2546:2547  1 */\n      0x01\n        /* \"contracts/3_Ballot.sol\":2534:2543  taskCount */\n      dup2\n        /* \"contracts/3_Ballot.sol\":2534:2547  taskCount - 1 */\n      tag_76\n      swap2\n      swap1\n      tag_77\n      jump\t// in\n    tag_76:\n        /* \"contracts/3_Ballot.sol\":2523:2530  _taskId */\n      dup4\n        /* \"contracts/3_Ballot.sol\":2523:2547  _taskId != taskCount - 1 */\n      eq\n        /* \"contracts/3_Ballot.sol\":2519:2635  if (_taskId != taskCount - 1) {... */\n      tag_78\n      jumpi\n        /* \"contracts/3_Ballot.sol\":2592:2597  tasks */\n      0x01\n        /* \"contracts/3_Ballot.sol\":2592:2609  tasks[msg.sender] */\n      0x00\n        /* \"contracts/3_Ballot.sol\":2598:2608  msg.sender */\n      caller\n        /* \"contracts/3_Ballot.sol\":2592:2609  tasks[msg.sender] */\n      0xffffffffffffffffffffffffffffffffffffffff\n      and\n      0xffffffffffffffffffffffffffffffffffffffff\n      and\n      dup2\n      mstore\n      0x20\n      add\n      swap1\n      dup2\n      mstore\n      0x20\n      add\n      0x00\n      keccak256\n        /* \"contracts/3_Ballot.sol\":2622:2623  1 */\n      0x01\n        /* \"contracts/3_Ballot.sol\":2610:2619  taskCount */\n      dup3\n        /* \"contracts/3_Ballot.sol\":2610:2623  taskCount - 1 */\n      tag_79\n      swap2\n      swap1\n      tag_77\n      jump\t// in\n    tag_79:\n        /* \"contracts/3_Ballot.sol\":2592:2624  tasks[msg.sender][taskCount - 1] */\n      dup2\n      sload\n      dup2\n      lt\n      tag_80\n      jumpi\n      tag_81\n      tag_58\n      jump\t// in\n    tag_81:\n    tag_80:\n      swap1\n      0x00\n      mstore\n      keccak256(0x00, 0x20)\n      swap1\n      0x05\n      mul\n      add\n        /* \"contracts/3_Ballot.sol\":2563:2568  tasks */\n      0x01\n        /* \"contracts/3_Ballot.sol\":2563:2580  tasks[msg.sender] */\n      0x00\n        /* \"contracts/3_Ballot.sol\":2569:2579  msg.sender */\n      caller\n        /* \"contracts/3_Ballot.sol\":2563:2580  tasks[msg.sender] */\n      0xffffffffffffffffffffffffffffffffffffffff\n      and\n      0xffffffffffffffffffffffffffffffffffffffff\n      and\n      dup2\n      mstore\n      0x20\n      add\n      swap1\n      dup2\n      mstore\n      0x20\n      add\n      0x00\n      keccak256\n        /* \"contracts/3_Ballot.sol\":2581:2588  _taskId */\n      dup5\n        /* \"contracts/3_Ballot.sol\":2563:2589  tasks[msg.sender][_taskId] */\n      dup2\n      sload\n      dup2\n      lt\n      tag_83\n      jumpi\n      tag_84\n      tag_58\n      jump\t// in\n    tag_84:\n    tag_83:\n      swap1\n      0x00\n      mstore\n      keccak256(0x00, 0x20)\n      swap1\n      0x05\n      mul\n      add\n        /* \"contracts/3_Ballot.sol\":2563:2624  tasks[msg.sender][_taskId] = tasks[msg.sender][taskCount - 1] */\n      0x00\n      dup3\n      add\n      dup2\n      0x00\n      add\n      swap1\n      dup2\n      tag_86\n      swap2\n      swap1\n      tag_87\n      jump\t// in\n    tag_86:\n      pop\n      0x01\n      dup3\n      add\n      dup2\n      0x01\n      add\n      swap1\n      dup2\n      tag_88\n      swap2\n      swap1\n      tag_87\n      jump\t// in\n    tag_88:\n      pop\n      0x02\n      dup3\n      add\n      sload\n      dup2\n      0x02\n      add\n      sstore\n      0x03\n      dup3\n      add\n      sload\n      dup2\n      0x03\n      add\n      sstore\n      0x04\n      dup3\n      add\n      0x00\n      swap1\n      sload\n      swap1\n      0x0100\n      exp\n      swap1\n      div\n      0xff\n      and\n      dup2\n      0x04\n      add\n      exp(0x0100, 0x00)\n      dup2\n      sload\n      dup2\n      0xff\n      mul\n      not\n      and\n      swap1\n      dup4\n      0x02\n      dup2\n      gt\n      iszero\n      tag_89\n      jumpi\n      tag_90\n      tag_48\n      jump\t// in\n    tag_90:\n    tag_89:\n      mul\n      or\n      swap1\n      sstore\n      pop\n      swap1\n      pop\n      pop\n        /* \"contracts/3_Ballot.sol\":2519:2635  if (_taskId != taskCount - 1) {... */\n    tag_78:\n        /* \"contracts/3_Ballot.sol\":2645:2650  tasks */\n      0x01\n        /* \"contracts/3_Ballot.sol\":2645:2662  tasks[msg.sender] */\n      0x00\n        /* \"contracts/3_Ballot.sol\":2651:2661  msg.sender */\n      caller\n        /* \"contracts/3_Ballot.sol\":2645:2662  tasks[msg.sender] */\n      0xffffffffffffffffffffffffffffffffffffffff\n      and\n      0xffffffffffffffffffffffffffffffffffffffff\n      and\n      dup2\n      mstore\n      0x20\n      add\n      swap1\n      dup2\n      mstore\n      0x20\n      add\n      0x00\n      keccak256\n        /* \"contracts/3_Ballot.sol\":2645:2668  tasks[msg.sender].pop() */\n      dup1\n      sload\n      dup1\n      tag_91\n      jumpi\n      tag_92\n      tag_93\n      jump\t// in\n    tag_92:\n    tag_91:\n      0x01\n      swap1\n      sub\n      dup2\n      dup2\n      swap1\n      0x00\n      mstore\n      keccak256(0x00, 0x20)\n      swap1\n      0x05\n      mul\n      add\n      0x00\n      0x00\n      dup3\n      add\n      0x00\n      tag_95\n      swap2\n      swap1\n      tag_96\n      jump\t// in\n    tag_95:\n      0x01\n      dup3\n      add\n      0x00\n      tag_97\n      swap2\n      swap1\n      tag_96\n      jump\t// in\n    tag_97:\n      0x02\n      dup3\n      add\n      0x00\n      swap1\n      sstore\n      0x03\n      dup3\n      add\n      0x00\n      swap1\n      sstore\n      0x04\n      dup3\n      add\n      exp(0x0100, 0x00)\n      dup2\n      sload\n      swap1\n      0xff\n      mul\n      not\n      and\n      swap1\n      sstore\n      pop\n      pop\n      swap1\n      sstore\n        /* \"contracts/3_Ballot.sol\":2708:2715  _taskId */\n      dup3\n        /* \"contracts/3_Ballot.sol\":2696:2706  msg.sender */\n      caller\n        /* \"contracts/3_Ballot.sol\":2684:2716  TaskDeleted(msg.sender, _taskId) */\n      0xffffffffffffffffffffffffffffffffffffffff\n      and\n      0xd1bc87501afcaa22b7f6481dac99ed45fbe02321873ca9b55c1f41b9d78b8fb3\n      mload(0x40)\n      mload(0x40)\n      dup1\n      swap2\n      sub\n      swap1\n      log3\n        /* \"contracts/3_Ballot.sol\":2454:2723  {... */\n      pop\n        /* \"contracts/3_Ballot.sol\":2387:2723  function deleteTask(uint256 _taskId) external validTaskId(_taskId) {... */\n      pop\n      pop\n      jump\t// out\n        /* \"contracts/3_Ballot.sol\":757:1317  function addTask(string calldata _title, string calldata _task, uint256 _deadline) external {... */\n    tag_23:\n        /* \"contracts/3_Ballot.sol\":890:891  0 */\n      0x00\n        /* \"contracts/3_Ballot.sol\":873:879  _title */\n      dup6\n      dup6\n        /* \"contracts/3_Ballot.sol\":867:887  bytes(_title).length */\n      swap1\n      pop\n        /* \"contracts/3_Ballot.sol\":867:891  bytes(_title).length > 0 */\n      gt\n        /* \"contracts/3_Ballot.sol\":859:918  require(bytes(_title).length > 0, \"Title must be provided\") */\n      tag_99\n      jumpi\n      mload(0x40)\n      0x08c379a000000000000000000000000000000000000000000000000000000000\n      dup2\n      mstore\n      0x04\n      add\n      tag_100\n      swap1\n      tag_101\n      jump\t// in\n    tag_100:\n      mload(0x40)\n      dup1\n      swap2\n      sub\n      swap1\n      revert\n    tag_99:\n        /* \"contracts/3_Ballot.sol\":948:963  block.timestamp */\n      timestamp\n        /* \"contracts/3_Ballot.sol\":936:945  _deadline */\n      dup2\n        /* \"contracts/3_Ballot.sol\":936:963  _deadline > block.timestamp */\n      gt\n        /* \"contracts/3_Ballot.sol\":928:998  require(_deadline > block.timestamp, \"Deadline must be in the future\") */\n      tag_102\n      jumpi\n      mload(0x40)\n      0x08c379a000000000000000000000000000000000000000000000000000000000\n      dup2\n      mstore\n      0x04\n      add\n      tag_103\n      swap1\n      tag_104\n      jump\t// in\n    tag_103:\n      mload(0x40)\n      dup1\n      swap2\n      sub\n      swap1\n      revert\n    tag_102:\n        /* \"contracts/3_Ballot.sol\":1009:1014  tasks */\n      0x01\n        /* \"contracts/3_Ballot.sol\":1009:1026  tasks[msg.sender] */\n      0x00\n        /* \"contracts/3_Ballot.sol\":1015:1025  msg.sender */\n      caller\n        /* \"contracts/3_Ballot.sol\":1009:1026  tasks[msg.sender] */\n      0xffffffffffffffffffffffffffffffffffffffff\n      and\n      0xffffffffffffffffffffffffffffffffffffffff\n      and\n      dup2\n      mstore\n      0x20\n      add\n      swap1\n      dup2\n      mstore\n      0x20\n      add\n      0x00\n      keccak256\n        /* \"contracts/3_Ballot.sol\":1032:1209  Task({... */\n      mload(0x40)\n      dup1\n      0xa0\n      add\n      0x40\n      mstore\n      dup1\n        /* \"contracts/3_Ballot.sol\":1058:1064  _title */\n      dup8\n      dup8\n        /* \"contracts/3_Ballot.sol\":1032:1209  Task({... */\n      dup1\n      dup1\n      0x1f\n      add\n      0x20\n      dup1\n      swap2\n      div\n      mul\n      0x20\n      add\n      mload(0x40)\n      swap1\n      dup2\n      add\n      0x40\n      mstore\n      dup1\n      swap4\n      swap3\n      swap2\n      swap1\n      dup2\n      dup2\n      mstore\n      0x20\n      add\n      dup4\n      dup4\n      dup1\n      dup3\n      dup5\n      calldatacopy\n      0x00\n      dup2\n      dup5\n      add\n      mstore\n      not(0x1f)\n      0x1f\n      dup3\n      add\n      and\n      swap1\n      pop\n      dup1\n      dup4\n      add\n      swap3\n      pop\n      pop\n      pop\n      pop\n      pop\n      pop\n      pop\n      dup2\n      mstore\n      0x20\n      add\n        /* \"contracts/3_Ballot.sol\":1084:1089  _task */\n      dup6\n      dup6\n        /* \"contracts/3_Ballot.sol\":1032:1209  Task({... */\n      dup1\n      dup1\n      0x1f\n      add\n      0x20\n      dup1\n      swap2\n      div\n      mul\n      0x20\n      add\n      mload(0x40)\n      swap1\n      dup2\n      add\n      0x40\n      mstore\n      dup1\n      swap4\n      swap3\n      swap2\n      swap1\n      dup2\n      dup2\n      mstore\n      0x20\n      add\n      dup4\n      dup4\n      dup1\n      dup3\n      dup5\n      calldatacopy\n      0x00\n      dup2\n      dup5\n      add\n      mstore\n      not(0x1f)\n      0x1f\n      dup3\n      add\n      and\n      swap1\n      pop\n      dup1\n      dup4\n      add\n      swap3\n      pop\n      pop\n      pop\n      pop\n      pop\n      pop\n      pop\n      dup2\n      mstore\n      0x20\n      add\n        /* \"contracts/3_Ballot.sol\":1114:1129  block.timestamp */\n      timestamp\n        /* \"contracts/3_Ballot.sol\":1032:1209  Task({... */\n      dup2\n      mstore\n      0x20\n      add\n        /* \"contracts/3_Ballot.sol\":1153:1162  _deadline */\n      dup4\n        /* \"contracts/3_Ballot.sol\":1032:1209  Task({... */\n      dup2\n      mstore\n      0x20\n      add\n        /* \"contracts/3_Ballot.sol\":1184:1198  STATUS.PENDING */\n      0x00\n        /* \"contracts/3_Ballot.sol\":1032:1209  Task({... */\n      0x02\n      dup2\n      gt\n      iszero\n      tag_105\n      jumpi\n      tag_106\n      tag_48\n      jump\t// in\n    tag_106:\n    tag_105:\n      dup2\n      mstore\n      pop\n        /* \"contracts/3_Ballot.sol\":1009:1210  tasks[msg.sender].push(Task({... */\n      swap1\n      dup1\n      0x01\n      dup2\n      sload\n      add\n      dup1\n      dup3\n      sstore\n      dup1\n      swap2\n      pop\n      pop\n      0x01\n      swap1\n      sub\n      swap1\n      0x00\n      mstore\n      keccak256(0x00, 0x20)\n      swap1\n      0x05\n      mul\n      add\n      0x00\n      swap1\n      swap2\n      swap1\n      swap2\n      swap1\n      swap2\n      pop\n      0x00\n      dup3\n      add\n      mload\n      dup2\n      0x00\n      add\n      swap1\n      dup2\n      tag_108\n      swap2\n      swap1\n      tag_109\n      jump\t// in\n    tag_108:\n      pop\n      0x20\n      dup3\n      add\n      mload\n      dup2\n      0x01\n      add\n      swap1\n      dup2\n      tag_110\n      swap2\n      swap1\n      tag_109\n      jump\t// in\n    tag_110:\n      pop\n      0x40\n      dup3\n      add\n      mload\n      dup2\n      0x02\n      add\n      sstore\n      0x60\n      dup3\n      add\n      mload\n      dup2\n      0x03\n      add\n      sstore\n      0x80\n      dup3\n      add\n      mload\n      dup2\n      0x04\n      add\n      exp(0x0100, 0x00)\n      dup2\n      sload\n      dup2\n      0xff\n      mul\n      not\n      and\n      swap1\n      dup4\n      0x02\n      dup2\n      gt\n      iszero\n      tag_111\n      jumpi\n      tag_112\n      tag_48\n      jump\t// in\n    tag_112:\n    tag_111:\n      mul\n      or\n      swap1\n      sstore\n      pop\n      pop\n      pop\n        /* \"contracts/3_Ballot.sol\":1221:1235  uint256 taskId */\n      0x00\n        /* \"contracts/3_Ballot.sol\":1265:1266  1 */\n      0x01\n        /* \"contracts/3_Ballot.sol\":1238:1243  tasks */\n      dup1\n        /* \"contracts/3_Ballot.sol\":1238:1255  tasks[msg.sender] */\n      0x00\n        /* \"contracts/3_Ballot.sol\":1244:1254  msg.sender */\n      caller\n        /* \"contracts/3_Ballot.sol\":1238:1255  tasks[msg.sender] */\n      0xffffffffffffffffffffffffffffffffffffffff\n      and\n      0xffffffffffffffffffffffffffffffffffffffff\n      and\n      dup2\n      mstore\n      0x20\n      add\n      swap1\n      dup2\n      mstore\n      0x20\n      add\n      0x00\n      keccak256\n        /* \"contracts/3_Ballot.sol\":1238:1262  tasks[msg.sender].length */\n      dup1\n      sload\n      swap1\n      pop\n        /* \"contracts/3_Ballot.sol\":1238:1266  tasks[msg.sender].length - 1 */\n      tag_113\n      swap2\n      swap1\n      tag_77\n      jump\t// in\n    tag_113:\n        /* \"contracts/3_Ballot.sol\":1221:1266  uint256 taskId = tasks[msg.sender].length - 1 */\n      swap1\n      pop\n        /* \"contracts/3_Ballot.sol\":1303:1309  taskId */\n      dup1\n        /* \"contracts/3_Ballot.sol\":1291:1301  msg.sender */\n      caller\n        /* \"contracts/3_Ballot.sol\":1281:1310  TaskAdded(msg.sender, taskId) */\n      0xffffffffffffffffffffffffffffffffffffffff\n      and\n      0xf2ba834cb120f28cac9129d80d6990b8d99d9a0a71487cec7d88bd8a2ba45cb9\n      mload(0x40)\n      mload(0x40)\n      dup1\n      swap2\n      sub\n      swap1\n      log3\n        /* \"contracts/3_Ballot.sol\":849:1317  {... */\n      pop\n        /* \"contracts/3_Ballot.sol\":757:1317  function addTask(string calldata _title, string calldata _task, uint256 _deadline) external {... */\n      pop\n      pop\n      pop\n      pop\n      pop\n      jump\t// out\n        /* \"contracts/3_Ballot.sol\":2914:3013  function getTaskCount() public view returns (uint) {... */\n    tag_25:\n        /* \"contracts/3_Ballot.sol\":2959:2963  uint */\n      0x00\n        /* \"contracts/3_Ballot.sol\":2982:2987  tasks */\n      0x01\n        /* \"contracts/3_Ballot.sol\":2982:2999  tasks[msg.sender] */\n      0x00\n        /* \"contracts/3_Ballot.sol\":2988:2998  msg.sender */\n      caller\n        /* \"contracts/3_Ballot.sol\":2982:2999  tasks[msg.sender] */\n      0xffffffffffffffffffffffffffffffffffffffff\n      and\n      0xffffffffffffffffffffffffffffffffffffffff\n      and\n      dup2\n      mstore\n      0x20\n      add\n      swap1\n      dup2\n      mstore\n      0x20\n      add\n      0x00\n      keccak256\n        /* \"contracts/3_Ballot.sol\":2982:3006  tasks[msg.sender].length */\n      dup1\n      sload\n      swap1\n      pop\n        /* \"contracts/3_Ballot.sol\":2975:3006  return tasks[msg.sender].length */\n      swap1\n      pop\n        /* \"contracts/3_Ballot.sol\":2914:3013  function getTaskCount() public view returns (uint) {... */\n      swap1\n      jump\t// out\n        /* \"contracts/3_Ballot.sol\":1323:1778  function completeTask(uint256 _taskId) external validTaskId(_taskId) {... */\n    tag_30:\n        /* \"contracts/3_Ballot.sol\":1383:1390  _taskId */\n      dup1\n        /* \"contracts/3_Ballot.sol\":3085:3090  tasks */\n      0x01\n        /* \"contracts/3_Ballot.sol\":3085:3102  tasks[msg.sender] */\n      0x00\n        /* \"contracts/3_Ballot.sol\":3091:3101  msg.sender */\n      caller\n        /* \"contracts/3_Ballot.sol\":3085:3102  tasks[msg.sender] */\n      0xffffffffffffffffffffffffffffffffffffffff\n      and\n      0xffffffffffffffffffffffffffffffffffffffff\n      and\n      dup2\n      mstore\n      0x20\n      add\n      swap1\n      dup2\n      mstore\n      0x20\n      add\n      0x00\n      keccak256\n        /* \"contracts/3_Ballot.sol\":3085:3109  tasks[msg.sender].length */\n      dup1\n      sload\n      swap1\n      pop\n        /* \"contracts/3_Ballot.sol\":3075:3082  _taskId */\n      dup2\n        /* \"contracts/3_Ballot.sol\":3075:3109  _taskId < tasks[msg.sender].length */\n      lt\n        /* \"contracts/3_Ballot.sol\":3067:3130  require(_taskId < tasks[msg.sender].length, \"Invalide task ID\") */\n      tag_116\n      jumpi\n      mload(0x40)\n      0x08c379a000000000000000000000000000000000000000000000000000000000\n      dup2\n      mstore\n      0x04\n      add\n      tag_117\n      swap1\n      tag_54\n      jump\t// in\n    tag_117:\n      mload(0x40)\n      dup1\n      swap2\n      sub\n      swap1\n      revert\n    tag_116:\n        /* \"contracts/3_Ballot.sol\":1403:1420  Task storage task */\n      0x00\n        /* \"contracts/3_Ballot.sol\":1423:1428  tasks */\n      0x01\n        /* \"contracts/3_Ballot.sol\":1423:1440  tasks[msg.sender] */\n      0x00\n        /* \"contracts/3_Ballot.sol\":1429:1439  msg.sender */\n      caller\n        /* \"contracts/3_Ballot.sol\":1423:1440  tasks[msg.sender] */\n      0xffffffffffffffffffffffffffffffffffffffff\n      and\n      0xffffffffffffffffffffffffffffffffffffffff\n      and\n      dup2\n      mstore\n      0x20\n      add\n      swap1\n      dup2\n      mstore\n      0x20\n      add\n      0x00\n      keccak256\n        /* \"contracts/3_Ballot.sol\":1441:1448  _taskId */\n      dup4\n        /* \"contracts/3_Ballot.sol\":1423:1449  tasks[msg.sender][_taskId] */\n      dup2\n      sload\n      dup2\n      lt\n      tag_119\n      jumpi\n      tag_120\n      tag_58\n      jump\t// in\n    tag_120:\n    tag_119:\n      swap1\n      0x00\n      mstore\n      keccak256(0x00, 0x20)\n      swap1\n      0x05\n      mul\n      add\n        /* \"contracts/3_Ballot.sol\":1403:1449  Task storage task = tasks[msg.sender][_taskId] */\n      swap1\n      pop\n        /* \"contracts/3_Ballot.sol\":1483:1497  STATUS.PENDING */\n      0x00\n        /* \"contracts/3_Ballot.sol\":1468:1497  task.status == STATUS.PENDING */\n      0x02\n      dup2\n      gt\n      iszero\n      tag_122\n      jumpi\n      tag_123\n      tag_48\n      jump\t// in\n    tag_123:\n    tag_122:\n        /* \"contracts/3_Ballot.sol\":1468:1472  task */\n      dup2\n        /* \"contracts/3_Ballot.sol\":1468:1479  task.status */\n      0x04\n      add\n      0x00\n      swap1\n      sload\n      swap1\n      0x0100\n      exp\n      swap1\n      div\n      0xff\n      and\n        /* \"contracts/3_Ballot.sol\":1468:1497  task.status == STATUS.PENDING */\n      0x02\n      dup2\n      gt\n      iszero\n      tag_124\n      jumpi\n      tag_125\n      tag_48\n      jump\t// in\n    tag_125:\n    tag_124:\n      eq\n        /* \"contracts/3_Ballot.sol\":1460:1522  require(task.status == STATUS.PENDING, \"Task must be Pending\") */\n      tag_126\n      jumpi\n      mload(0x40)\n      0x08c379a000000000000000000000000000000000000000000000000000000000\n      dup2\n      mstore\n      0x04\n      add\n      tag_127\n      swap1\n      tag_66\n      jump\t// in\n    tag_127:\n      mload(0x40)\n      dup1\n      swap2\n      sub\n      swap1\n      revert\n    tag_126:\n        /* \"contracts/3_Ballot.sol\":1563:1567  task */\n      dup1\n        /* \"contracts/3_Ballot.sol\":1563:1576  task.deadline */\n      0x03\n      add\n      sload\n        /* \"contracts/3_Ballot.sol\":1545:1560  block.timestamp */\n      timestamp\n        /* \"contracts/3_Ballot.sol\":1545:1576  block.timestamp > task.deadline */\n      gt\n        /* \"contracts/3_Ballot.sol\":1541:1682  if (block.timestamp > task.deadline) {... */\n      iszero\n      tag_128\n      jumpi\n        /* \"contracts/3_Ballot.sol\":1606:1620  STATUS.OVERDUE */\n      0x02\n        /* \"contracts/3_Ballot.sol\":1592:1596  task */\n      dup2\n        /* \"contracts/3_Ballot.sol\":1592:1603  task.status */\n      0x04\n      add\n      0x00\n        /* \"contracts/3_Ballot.sol\":1592:1620  task.status = STATUS.OVERDUE */\n      0x0100\n      exp\n      dup2\n      sload\n      dup2\n      0xff\n      mul\n      not\n      and\n      swap1\n      dup4\n      0x02\n      dup2\n      gt\n      iszero\n      tag_129\n      jumpi\n      tag_130\n      tag_48\n      jump\t// in\n    tag_130:\n    tag_129:\n      mul\n      or\n      swap1\n      sstore\n      pop\n        /* \"contracts/3_Ballot.sol\":1663:1670  _taskId */\n      dup3\n        /* \"contracts/3_Ballot.sol\":1651:1661  msg.sender */\n      caller\n        /* \"contracts/3_Ballot.sol\":1639:1671  TaskOverdue(msg.sender, _taskId) */\n      0xffffffffffffffffffffffffffffffffffffffff\n      and\n      0xc5c09e6ef32e79ce08770ecea60cd5e7915b242a238f0ac57fc39c0b3ba58d19\n      mload(0x40)\n      mload(0x40)\n      dup1\n      swap2\n      sub\n      swap1\n      log3\n        /* \"contracts/3_Ballot.sol\":1541:1682  if (block.timestamp > task.deadline) {... */\n    tag_128:\n        /* \"contracts/3_Ballot.sol\":1706:1722  STATUS.COMPLETED */\n      0x01\n        /* \"contracts/3_Ballot.sol\":1692:1696  task */\n      dup2\n        /* \"contracts/3_Ballot.sol\":1692:1703  task.status */\n      0x04\n      add\n      0x00\n        /* \"contracts/3_Ballot.sol\":1692:1722  task.status = STATUS.COMPLETED */\n      0x0100\n      exp\n      dup2\n      sload\n      dup2\n      0xff\n      mul\n      not\n      and\n      swap1\n      dup4\n      0x02\n      dup2\n      gt\n      iszero\n      tag_131\n      jumpi\n      tag_132\n      tag_48\n      jump\t// in\n    tag_132:\n    tag_131:\n      mul\n      or\n      swap1\n      sstore\n      pop\n        /* \"contracts/3_Ballot.sol\":1763:1770  _taskId */\n      dup3\n        /* \"contracts/3_Ballot.sol\":1751:1761  msg.sender */\n      caller\n        /* \"contracts/3_Ballot.sol\":1737:1771  TaskCompleted(msg.sender, _taskId) */\n      0xffffffffffffffffffffffffffffffffffffffff\n      and\n      0xf684d89bb0f42287bf32838774e4b7f8a60c11804b3c6d1791fa55f306792643\n      mload(0x40)\n      mload(0x40)\n      dup1\n      swap2\n      sub\n      swap1\n      log3\n        /* \"contracts/3_Ballot.sol\":1392:1778  {... */\n      pop\n        /* \"contracts/3_Ballot.sol\":1323:1778  function completeTask(uint256 _taskId) external validTaskId(_taskId) {... */\n      pop\n      pop\n      jump\t// out\n    tag_96:\n      pop\n      dup1\n      sload\n      tag_133\n      swap1\n      tag_36\n      jump\t// in\n    tag_133:\n      0x00\n      dup3\n      sstore\n      dup1\n      0x1f\n      lt\n      tag_135\n      jumpi\n      pop\n      jump(tag_134)\n    tag_135:\n      0x1f\n      add\n      0x20\n      swap1\n      div\n      swap1\n      0x00\n      mstore\n      keccak256(0x00, 0x20)\n      swap1\n      dup2\n      add\n      swap1\n      tag_136\n      swap2\n      swap1\n      tag_137\n      jump\t// in\n    tag_136:\n    tag_134:\n      pop\n      jump\t// out\n    tag_137:\n    tag_138:\n      dup1\n      dup3\n      gt\n      iszero\n      tag_139\n      jumpi\n      0x00\n      dup2\n      0x00\n      swap1\n      sstore\n      pop\n      0x01\n      add\n      jump(tag_138)\n    tag_139:\n      pop\n      swap1\n      jump\t// out\n        /* \"#utility.yul\":7:141   */\n    tag_140:\n        /* \"#utility.yul\":94:100   */\n      0x00\n        /* \"#utility.yul\":128:133   */\n      dup2\n        /* \"#utility.yul\":122:134   */\n      mload\n        /* \"#utility.yul\":112:134   */\n      swap1\n      pop\n        /* \"#utility.yul\":7:141   */\n      swap2\n      swap1\n      pop\n      jump\t// out\n        /* \"#utility.yul\":147:351   */\n    tag_141:\n        /* \"#utility.yul\":266:277   */\n      0x00\n        /* \"#utility.yul\":300:306   */\n      dup3\n        /* \"#utility.yul\":295:298   */\n      dup3\n        /* \"#utility.yul\":288:307   */\n      mstore\n        /* \"#utility.yul\":340:344   */\n      0x20\n        /* \"#utility.yul\":335:338   */\n      dup3\n        /* \"#utility.yul\":331:345   */\n      add\n        /* \"#utility.yul\":316:345   */\n      swap1\n      pop\n        /* \"#utility.yul\":147:351   */\n      swap3\n      swap2\n      pop\n      pop\n      jump\t// out\n        /* \"#utility.yul\":357:509   */\n    tag_142:\n        /* \"#utility.yul\":444:448   */\n      0x00\n        /* \"#utility.yul\":467:470   */\n      dup2\n        /* \"#utility.yul\":459:470   */\n      swap1\n      pop\n        /* \"#utility.yul\":497:501   */\n      0x20\n        /* \"#utility.yul\":492:495   */\n      dup3\n        /* \"#utility.yul\":488:502   */\n      add\n        /* \"#utility.yul\":480:502   */\n      swap1\n      pop\n        /* \"#utility.yul\":357:509   */\n      swap2\n      swap1\n      pop\n      jump\t// out\n        /* \"#utility.yul\":515:614   */\n    tag_143:\n        /* \"#utility.yul\":567:573   */\n      0x00\n        /* \"#utility.yul\":601:606   */\n      dup2\n        /* \"#utility.yul\":595:607   */\n      mload\n        /* \"#utility.yul\":585:607   */\n      swap1\n      pop\n        /* \"#utility.yul\":515:614   */\n      swap2\n      swap1\n      pop\n      jump\t// out\n        /* \"#utility.yul\":620:779   */\n    tag_144:\n        /* \"#utility.yul\":694:705   */\n      0x00\n        /* \"#utility.yul\":728:734   */\n      dup3\n        /* \"#utility.yul\":723:726   */\n      dup3\n        /* \"#utility.yul\":716:735   */\n      mstore\n        /* \"#utility.yul\":768:772   */\n      0x20\n        /* \"#utility.yul\":763:766   */\n      dup3\n        /* \"#utility.yul\":759:773   */\n      add\n        /* \"#utility.yul\":744:773   */\n      swap1\n      pop\n        /* \"#utility.yul\":620:779   */\n      swap3\n      swap2\n      pop\n      pop\n      jump\t// out\n        /* \"#utility.yul\":785:924   */\n    tag_145:\n        /* \"#utility.yul\":874:880   */\n      dup3\n        /* \"#utility.yul\":869:872   */\n      dup2\n        /* \"#utility.yul\":864:867   */\n      dup4\n        /* \"#utility.yul\":858:881   */\n      mcopy\n        /* \"#utility.yul\":915:916   */\n      0x00\n        /* \"#utility.yul\":906:912   */\n      dup4\n        /* \"#utility.yul\":901:904   */\n      dup4\n        /* \"#utility.yul\":897:913   */\n      add\n        /* \"#utility.yul\":890:917   */\n      mstore\n        /* \"#utility.yul\":785:924   */\n      pop\n      pop\n      pop\n      jump\t// out\n        /* \"#utility.yul\":930:1032   */\n    tag_146:\n        /* \"#utility.yul\":971:977   */\n      0x00\n        /* \"#utility.yul\":1022:1024   */\n      0x1f\n        /* \"#utility.yul\":1018:1025   */\n      not\n        /* \"#utility.yul\":1013:1015   */\n      0x1f\n        /* \"#utility.yul\":1006:1011   */\n      dup4\n        /* \"#utility.yul\":1002:1016   */\n      add\n        /* \"#utility.yul\":998:1026   */\n      and\n        /* \"#utility.yul\":988:1026   */\n      swap1\n      pop\n        /* \"#utility.yul\":930:1032   */\n      swap2\n      swap1\n      pop\n      jump\t// out\n        /* \"#utility.yul\":1038:1395   */\n    tag_147:\n        /* \"#utility.yul\":1116:1119   */\n      0x00\n        /* \"#utility.yul\":1144:1183   */\n      tag_207\n        /* \"#utility.yul\":1177:1182   */\n      dup3\n        /* \"#utility.yul\":1144:1183   */\n      tag_143\n      jump\t// in\n    tag_207:\n        /* \"#utility.yul\":1199:1260   */\n      tag_208\n        /* \"#utility.yul\":1253:1259   */\n      dup2\n        /* \"#utility.yul\":1248:1251   */\n      dup6\n        /* \"#utility.yul\":1199:1260   */\n      tag_144\n      jump\t// in\n    tag_208:\n        /* \"#utility.yul\":1192:1260   */\n      swap4\n      pop\n        /* \"#utility.yul\":1269:1334   */\n      tag_209\n        /* \"#utility.yul\":1327:1333   */\n      dup2\n        /* \"#utility.yul\":1322:1325   */\n      dup6\n        /* \"#utility.yul\":1315:1319   */\n      0x20\n        /* \"#utility.yul\":1308:1313   */\n      dup7\n        /* \"#utility.yul\":1304:1320   */\n      add\n        /* \"#utility.yul\":1269:1334   */\n      tag_145\n      jump\t// in\n    tag_209:\n        /* \"#utility.yul\":1359:1388   */\n      tag_210\n        /* \"#utility.yul\":1381:1387   */\n      dup2\n        /* \"#utility.yul\":1359:1388   */\n      tag_146\n      jump\t// in\n    tag_210:\n        /* \"#utility.yul\":1354:1357   */\n      dup5\n        /* \"#utility.yul\":1350:1389   */\n      add\n        /* \"#utility.yul\":1343:1389   */\n      swap2\n      pop\n        /* \"#utility.yul\":1120:1395   */\n      pop\n        /* \"#utility.yul\":1038:1395   */\n      swap3\n      swap2\n      pop\n      pop\n      jump\t// out\n        /* \"#utility.yul\":1401:1478   */\n    tag_148:\n        /* \"#utility.yul\":1438:1445   */\n      0x00\n        /* \"#utility.yul\":1467:1472   */\n      dup2\n        /* \"#utility.yul\":1456:1472   */\n      swap1\n      pop\n        /* \"#utility.yul\":1401:1478   */\n      swap2\n      swap1\n      pop\n      jump\t// out\n        /* \"#utility.yul\":1484:1592   */\n    tag_149:\n        /* \"#utility.yul\":1561:1585   */\n      tag_213\n        /* \"#utility.yul\":1579:1584   */\n      dup2\n        /* \"#utility.yul\":1561:1585   */\n      tag_148\n      jump\t// in\n    tag_213:\n        /* \"#utility.yul\":1556:1559   */\n      dup3\n        /* \"#utility.yul\":1549:1586   */\n      mstore\n        /* \"#utility.yul\":1484:1592   */\n      pop\n      pop\n      jump\t// out\n        /* \"#utility.yul\":1598:1778   */\n    tag_48:\n        /* \"#utility.yul\":1646:1723   */\n      0x4e487b7100000000000000000000000000000000000000000000000000000000\n        /* \"#utility.yul\":1643:1644   */\n      0x00\n        /* \"#utility.yul\":1636:1724   */\n      mstore\n        /* \"#utility.yul\":1743:1747   */\n      0x21\n        /* \"#utility.yul\":1740:1741   */\n      0x04\n        /* \"#utility.yul\":1733:1748   */\n      mstore\n        /* \"#utility.yul\":1767:1771   */\n      0x24\n        /* \"#utility.yul\":1764:1765   */\n      0x00\n        /* \"#utility.yul\":1757:1772   */\n      revert\n        /* \"#utility.yul\":1784:1897   */\n    tag_150:\n        /* \"#utility.yul\":1865:1866   */\n      0x03\n        /* \"#utility.yul\":1858:1863   */\n      dup2\n        /* \"#utility.yul\":1855:1867   */\n      lt\n        /* \"#utility.yul\":1845:1891   */\n      tag_216\n      jumpi\n        /* \"#utility.yul\":1871:1889   */\n      tag_217\n      tag_48\n      jump\t// in\n    tag_217:\n        /* \"#utility.yul\":1845:1891   */\n    tag_216:\n        /* \"#utility.yul\":1784:1897   */\n      pop\n      jump\t// out\n        /* \"#utility.yul\":1903:2030   */\n    tag_151:\n        /* \"#utility.yul\":1948:1955   */\n      0x00\n        /* \"#utility.yul\":1977:1982   */\n      dup2\n        /* \"#utility.yul\":1966:1982   */\n      swap1\n      pop\n        /* \"#utility.yul\":1983:2024   */\n      tag_219\n        /* \"#utility.yul\":2018:2023   */\n      dup3\n        /* \"#utility.yul\":1983:2024   */\n      tag_150\n      jump\t// in\n    tag_219:\n        /* \"#utility.yul\":1903:2030   */\n      swap2\n      swap1\n      pop\n      jump\t// out\n        /* \"#utility.yul\":2036:2163   */\n    tag_152:\n        /* \"#utility.yul\":2092:2101   */\n      0x00\n        /* \"#utility.yul\":2125:2157   */\n      tag_221\n        /* \"#utility.yul\":2151:2156   */\n      dup3\n        /* \"#utility.yul\":2125:2157   */\n      tag_151\n      jump\t// in\n    tag_221:\n        /* \"#utility.yul\":2112:2157   */\n      swap1\n      pop\n        /* \"#utility.yul\":2036:2163   */\n      swap2\n      swap1\n      pop\n      jump\t// out\n        /* \"#utility.yul\":2169:2302   */\n    tag_153:\n        /* \"#utility.yul\":2252:2295   */\n      tag_223\n        /* \"#utility.yul\":2289:2294   */\n      dup2\n        /* \"#utility.yul\":2252:2295   */\n      tag_152\n      jump\t// in\n    tag_223:\n        /* \"#utility.yul\":2247:2250   */\n      dup3\n        /* \"#utility.yul\":2240:2296   */\n      mstore\n        /* \"#utility.yul\":2169:2302   */\n      pop\n      pop\n      jump\t// out\n        /* \"#utility.yul\":2360:3557   */\n    tag_154:\n        /* \"#utility.yul\":2459:2462   */\n      0x00\n        /* \"#utility.yul\":2495:2499   */\n      0xa0\n        /* \"#utility.yul\":2490:2493   */\n      dup4\n        /* \"#utility.yul\":2486:2500   */\n      add\n        /* \"#utility.yul\":2583:2587   */\n      0x00\n        /* \"#utility.yul\":2576:2581   */\n      dup4\n        /* \"#utility.yul\":2572:2588   */\n      add\n        /* \"#utility.yul\":2566:2589   */\n      mload\n        /* \"#utility.yul\":2636:2639   */\n      dup5\n        /* \"#utility.yul\":2630:2634   */\n      dup3\n        /* \"#utility.yul\":2626:2640   */\n      sub\n        /* \"#utility.yul\":2619:2623   */\n      0x00\n        /* \"#utility.yul\":2614:2617   */\n      dup7\n        /* \"#utility.yul\":2610:2624   */\n      add\n        /* \"#utility.yul\":2603:2641   */\n      mstore\n        /* \"#utility.yul\":2662:2735   */\n      tag_225\n        /* \"#utility.yul\":2730:2734   */\n      dup3\n        /* \"#utility.yul\":2716:2728   */\n      dup3\n        /* \"#utility.yul\":2662:2735   */\n      tag_147\n      jump\t// in\n    tag_225:\n        /* \"#utility.yul\":2654:2735   */\n      swap2\n      pop\n        /* \"#utility.yul\":2510:2746   */\n      pop\n        /* \"#utility.yul\":2828:2832   */\n      0x20\n        /* \"#utility.yul\":2821:2826   */\n      dup4\n        /* \"#utility.yul\":2817:2833   */\n      add\n        /* \"#utility.yul\":2811:2834   */\n      mload\n        /* \"#utility.yul\":2881:2884   */\n      dup5\n        /* \"#utility.yul\":2875:2879   */\n      dup3\n        /* \"#utility.yul\":2871:2885   */\n      sub\n        /* \"#utility.yul\":2864:2868   */\n      0x20\n        /* \"#utility.yul\":2859:2862   */\n      dup7\n        /* \"#utility.yul\":2855:2869   */\n      add\n        /* \"#utility.yul\":2848:2886   */\n      mstore\n        /* \"#utility.yul\":2907:2980   */\n      tag_226\n        /* \"#utility.yul\":2975:2979   */\n      dup3\n        /* \"#utility.yul\":2961:2973   */\n      dup3\n        /* \"#utility.yul\":2907:2980   */\n      tag_147\n      jump\t// in\n    tag_226:\n        /* \"#utility.yul\":2899:2980   */\n      swap2\n      pop\n        /* \"#utility.yul\":2756:2991   */\n      pop\n        /* \"#utility.yul\":3078:3082   */\n      0x40\n        /* \"#utility.yul\":3071:3076   */\n      dup4\n        /* \"#utility.yul\":3067:3083   */\n      add\n        /* \"#utility.yul\":3061:3084   */\n      mload\n        /* \"#utility.yul\":3097:3160   */\n      tag_227\n        /* \"#utility.yul\":3154:3158   */\n      0x40\n        /* \"#utility.yul\":3149:3152   */\n      dup7\n        /* \"#utility.yul\":3145:3159   */\n      add\n        /* \"#utility.yul\":3131:3143   */\n      dup3\n        /* \"#utility.yul\":3097:3160   */\n      tag_149\n      jump\t// in\n    tag_227:\n        /* \"#utility.yul\":3001:3170   */\n      pop\n        /* \"#utility.yul\":3256:3260   */\n      0x60\n        /* \"#utility.yul\":3249:3254   */\n      dup4\n        /* \"#utility.yul\":3245:3261   */\n      add\n        /* \"#utility.yul\":3239:3262   */\n      mload\n        /* \"#utility.yul\":3275:3338   */\n      tag_228\n        /* \"#utility.yul\":3332:3336   */\n      0x60\n        /* \"#utility.yul\":3327:3330   */\n      dup7\n        /* \"#utility.yul\":3323:3337   */\n      add\n        /* \"#utility.yul\":3309:3321   */\n      dup3\n        /* \"#utility.yul\":3275:3338   */\n      tag_149\n      jump\t// in\n    tag_228:\n        /* \"#utility.yul\":3180:3348   */\n      pop\n        /* \"#utility.yul\":3432:3436   */\n      0x80\n        /* \"#utility.yul\":3425:3430   */\n      dup4\n        /* \"#utility.yul\":3421:3437   */\n      add\n        /* \"#utility.yul\":3415:3438   */\n      mload\n        /* \"#utility.yul\":3451:3520   */\n      tag_229\n        /* \"#utility.yul\":3514:3518   */\n      0x80\n        /* \"#utility.yul\":3509:3512   */\n      dup7\n        /* \"#utility.yul\":3505:3519   */\n      add\n        /* \"#utility.yul\":3491:3503   */\n      dup3\n        /* \"#utility.yul\":3451:3520   */\n      tag_153\n      jump\t// in\n    tag_229:\n        /* \"#utility.yul\":3358:3530   */\n      pop\n        /* \"#utility.yul\":3547:3551   */\n      dup1\n        /* \"#utility.yul\":3540:3551   */\n      swap2\n      pop\n        /* \"#utility.yul\":2464:3557   */\n      pop\n        /* \"#utility.yul\":2360:3557   */\n      swap3\n      swap2\n      pop\n      pop\n      jump\t// out\n        /* \"#utility.yul\":3563:3799   */\n    tag_155:\n        /* \"#utility.yul\":3672:3682   */\n      0x00\n        /* \"#utility.yul\":3707:3793   */\n      tag_231\n        /* \"#utility.yul\":3789:3792   */\n      dup4\n        /* \"#utility.yul\":3781:3787   */\n      dup4\n        /* \"#utility.yul\":3707:3793   */\n      tag_154\n      jump\t// in\n    tag_231:\n        /* \"#utility.yul\":3693:3793   */\n      swap1\n      pop\n        /* \"#utility.yul\":3563:3799   */\n      swap3\n      swap2\n      pop\n      pop\n      jump\t// out\n        /* \"#utility.yul\":3805:3938   */\n    tag_156:\n        /* \"#utility.yul\":3895:3899   */\n      0x00\n        /* \"#utility.yul\":3927:3931   */\n      0x20\n        /* \"#utility.yul\":3922:3925   */\n      dup3\n        /* \"#utility.yul\":3918:3932   */\n      add\n        /* \"#utility.yul\":3910:3932   */\n      swap1\n      pop\n        /* \"#utility.yul\":3805:3938   */\n      swap2\n      swap1\n      pop\n      jump\t// out\n        /* \"#utility.yul\":4000:5071   */\n    tag_157:\n        /* \"#utility.yul\":4159:4162   */\n      0x00\n        /* \"#utility.yul\":4188:4262   */\n      tag_234\n        /* \"#utility.yul\":4256:4261   */\n      dup3\n        /* \"#utility.yul\":4188:4262   */\n      tag_140\n      jump\t// in\n    tag_234:\n        /* \"#utility.yul\":4278:4384   */\n      tag_235\n        /* \"#utility.yul\":4377:4383   */\n      dup2\n        /* \"#utility.yul\":4372:4375   */\n      dup6\n        /* \"#utility.yul\":4278:4384   */\n      tag_141\n      jump\t// in\n    tag_235:\n        /* \"#utility.yul\":4271:4384   */\n      swap4\n      pop\n        /* \"#utility.yul\":4410:4413   */\n      dup4\n        /* \"#utility.yul\":4455:4459   */\n      0x20\n        /* \"#utility.yul\":4447:4453   */\n      dup3\n        /* \"#utility.yul\":4443:4460   */\n      mul\n        /* \"#utility.yul\":4438:4441   */\n      dup6\n        /* \"#utility.yul\":4434:4461   */\n      add\n        /* \"#utility.yul\":4485:4561   */\n      tag_236\n        /* \"#utility.yul\":4555:4560   */\n      dup6\n        /* \"#utility.yul\":4485:4561   */\n      tag_142\n      jump\t// in\n    tag_236:\n        /* \"#utility.yul\":4584:4591   */\n      dup1\n        /* \"#utility.yul\":4615:4616   */\n      0x00\n        /* \"#utility.yul\":4600:5026   */\n    tag_237:\n        /* \"#utility.yul\":4625:4631   */\n      dup6\n        /* \"#utility.yul\":4622:4623   */\n      dup2\n        /* \"#utility.yul\":4619:4632   */\n      lt\n        /* \"#utility.yul\":4600:5026   */\n      iszero\n      tag_239\n      jumpi\n        /* \"#utility.yul\":4696:4705   */\n      dup5\n        /* \"#utility.yul\":4690:4694   */\n      dup5\n        /* \"#utility.yul\":4686:4706   */\n      sub\n        /* \"#utility.yul\":4681:4684   */\n      dup10\n        /* \"#utility.yul\":4674:4707   */\n      mstore\n        /* \"#utility.yul\":4747:4753   */\n      dup2\n        /* \"#utility.yul\":4741:4754   */\n      mload\n        /* \"#utility.yul\":4775:4879   */\n      tag_240\n        /* \"#utility.yul\":4874:4878   */\n      dup6\n        /* \"#utility.yul\":4859:4872   */\n      dup3\n        /* \"#utility.yul\":4775:4879   */\n      tag_155\n      jump\t// in\n    tag_240:\n        /* \"#utility.yul\":4767:4879   */\n      swap5\n      pop\n        /* \"#utility.yul\":4902:4982   */\n      tag_241\n        /* \"#utility.yul\":4975:4981   */\n      dup4\n        /* \"#utility.yul\":4902:4982   */\n      tag_156\n      jump\t// in\n    tag_241:\n        /* \"#utility.yul\":4892:4982   */\n      swap3\n      pop\n        /* \"#utility.yul\":5011:5015   */\n      0x20\n        /* \"#utility.yul\":5006:5009   */\n      dup11\n        /* \"#utility.yul\":5002:5016   */\n      add\n        /* \"#utility.yul\":4995:5016   */\n      swap10\n      pop\n        /* \"#utility.yul\":4660:5026   */\n      pop\n        /* \"#utility.yul\":4647:4648   */\n      0x01\n        /* \"#utility.yul\":4644:4645   */\n      dup2\n        /* \"#utility.yul\":4640:4649   */\n      add\n        /* \"#utility.yul\":4635:4649   */\n      swap1\n      pop\n        /* \"#utility.yul\":4600:5026   */\n      jump(tag_237)\n    tag_239:\n        /* \"#utility.yul\":4604:4618   */\n      pop\n        /* \"#utility.yul\":5042:5046   */\n      dup3\n        /* \"#utility.yul\":5035:5046   */\n      swap8\n      pop\n        /* \"#utility.yul\":5062:5065   */\n      dup8\n        /* \"#utility.yul\":5055:5065   */\n      swap6\n      pop\n        /* \"#utility.yul\":4164:5071   */\n      pop\n      pop\n      pop\n      pop\n      pop\n        /* \"#utility.yul\":4000:5071   */\n      swap3\n      swap2\n      pop\n      pop\n      jump\t// out\n        /* \"#utility.yul\":5077:5530   */\n    tag_12:\n        /* \"#utility.yul\":5260:5264   */\n      0x00\n        /* \"#utility.yul\":5298:5300   */\n      0x20\n        /* \"#utility.yul\":5287:5296   */\n      dup3\n        /* \"#utility.yul\":5283:5301   */\n      add\n        /* \"#utility.yul\":5275:5301   */\n      swap1\n      pop\n        /* \"#utility.yul\":5347:5356   */\n      dup2\n        /* \"#utility.yul\":5341:5345   */\n      dup2\n        /* \"#utility.yul\":5337:5357   */\n      sub\n        /* \"#utility.yul\":5333:5334   */\n      0x00\n        /* \"#utility.yul\":5322:5331   */\n      dup4\n        /* \"#utility.yul\":5318:5335   */\n      add\n        /* \"#utility.yul\":5311:5358   */\n      mstore\n        /* \"#utility.yul\":5375:5523   */\n      tag_243\n        /* \"#utility.yul\":5518:5522   */\n      dup2\n        /* \"#utility.yul\":5509:5515   */\n      dup5\n        /* \"#utility.yul\":5375:5523   */\n      tag_157\n      jump\t// in\n    tag_243:\n        /* \"#utility.yul\":5367:5523   */\n      swap1\n      pop\n        /* \"#utility.yul\":5077:5530   */\n      swap3\n      swap2\n      pop\n      pop\n      jump\t// out\n        /* \"#utility.yul\":5617:5734   */\n    tag_159:\n        /* \"#utility.yul\":5726:5727   */\n      0x00\n        /* \"#utility.yul\":5723:5724   */\n      0x00\n        /* \"#utility.yul\":5716:5728   */\n      revert\n        /* \"#utility.yul\":5740:5857   */\n    tag_160:\n        /* \"#utility.yul\":5849:5850   */\n      0x00\n        /* \"#utility.yul\":5846:5847   */\n      0x00\n        /* \"#utility.yul\":5839:5851   */\n      revert\n        /* \"#utility.yul\":5863:5985   */\n    tag_161:\n        /* \"#utility.yul\":5936:5960   */\n      tag_248\n        /* \"#utility.yul\":5954:5959   */\n      dup2\n        /* \"#utility.yul\":5936:5960   */\n      tag_148\n      jump\t// in\n    tag_248:\n        /* \"#utility.yul\":5929:5934   */\n      dup2\n        /* \"#utility.yul\":5926:5961   */\n      eq\n        /* \"#utility.yul\":5916:5979   */\n      tag_249\n      jumpi\n        /* \"#utility.yul\":5975:5976   */\n      0x00\n        /* \"#utility.yul\":5972:5973   */\n      0x00\n        /* \"#utility.yul\":5965:5977   */\n      revert\n        /* \"#utility.yul\":5916:5979   */\n    tag_249:\n        /* \"#utility.yul\":5863:5985   */\n      pop\n      jump\t// out\n        /* \"#utility.yul\":5991:6130   */\n    tag_162:\n        /* \"#utility.yul\":6037:6042   */\n      0x00\n        /* \"#utility.yul\":6075:6081   */\n      dup2\n        /* \"#utility.yul\":6062:6082   */\n      calldataload\n        /* \"#utility.yul\":6053:6082   */\n      swap1\n      pop\n        /* \"#utility.yul\":6091:6124   */\n      tag_251\n        /* \"#utility.yul\":6118:6123   */\n      dup2\n        /* \"#utility.yul\":6091:6124   */\n      tag_161\n      jump\t// in\n    tag_251:\n        /* \"#utility.yul\":5991:6130   */\n      swap3\n      swap2\n      pop\n      pop\n      jump\t// out\n        /* \"#utility.yul\":6136:6465   */\n    tag_15:\n        /* \"#utility.yul\":6195:6201   */\n      0x00\n        /* \"#utility.yul\":6244:6246   */\n      0x20\n        /* \"#utility.yul\":6232:6241   */\n      dup3\n        /* \"#utility.yul\":6223:6230   */\n      dup5\n        /* \"#utility.yul\":6219:6242   */\n      sub\n        /* \"#utility.yul\":6215:6247   */\n      slt\n        /* \"#utility.yul\":6212:6331   */\n      iszero\n      tag_253\n      jumpi\n        /* \"#utility.yul\":6250:6329   */\n      tag_254\n      tag_159\n      jump\t// in\n    tag_254:\n        /* \"#utility.yul\":6212:6331   */\n    tag_253:\n        /* \"#utility.yul\":6370:6371   */\n      0x00\n        /* \"#utility.yul\":6395:6448   */\n      tag_255\n        /* \"#utility.yul\":6440:6447   */\n      dup5\n        /* \"#utility.yul\":6431:6437   */\n      dup3\n        /* \"#utility.yul\":6420:6429   */\n      dup6\n        /* \"#utility.yul\":6416:6438   */\n      add\n        /* \"#utility.yul\":6395:6448   */\n      tag_162\n      jump\t// in\n    tag_255:\n        /* \"#utility.yul\":6385:6448   */\n      swap2\n      pop\n        /* \"#utility.yul\":6341:6458   */\n      pop\n        /* \"#utility.yul\":6136:6465   */\n      swap3\n      swap2\n      pop\n      pop\n      jump\t// out\n        /* \"#utility.yul\":6471:6588   */\n    tag_163:\n        /* \"#utility.yul\":6580:6581   */\n      0x00\n        /* \"#utility.yul\":6577:6578   */\n      0x00\n        /* \"#utility.yul\":6570:6582   */\n      revert\n        /* \"#utility.yul\":6594:6711   */\n    tag_164:\n        /* \"#utility.yul\":6703:6704   */\n      0x00\n        /* \"#utility.yul\":6700:6701   */\n      0x00\n        /* \"#utility.yul\":6693:6705   */\n      revert\n        /* \"#utility.yul\":6717:6834   */\n    tag_165:\n        /* \"#utility.yul\":6826:6827   */\n      0x00\n        /* \"#utility.yul\":6823:6824   */\n      0x00\n        /* \"#utility.yul\":6816:6828   */\n      revert\n        /* \"#utility.yul\":6854:7407   */\n    tag_166:\n        /* \"#utility.yul\":6912:6920   */\n      0x00\n        /* \"#utility.yul\":6922:6928   */\n      0x00\n        /* \"#utility.yul\":6972:6975   */\n      dup4\n        /* \"#utility.yul\":6965:6969   */\n      0x1f\n        /* \"#utility.yul\":6957:6963   */\n      dup5\n        /* \"#utility.yul\":6953:6970   */\n      add\n        /* \"#utility.yul\":6949:6976   */\n      slt\n        /* \"#utility.yul\":6939:7061   */\n      tag_260\n      jumpi\n        /* \"#utility.yul\":6980:7059   */\n      tag_261\n      tag_163\n      jump\t// in\n    tag_261:\n        /* \"#utility.yul\":6939:7061   */\n    tag_260:\n        /* \"#utility.yul\":7093:7099   */\n      dup3\n        /* \"#utility.yul\":7080:7100   */\n      calldataload\n        /* \"#utility.yul\":7070:7100   */\n      swap1\n      pop\n        /* \"#utility.yul\":7123:7141   */\n      0xffffffffffffffff\n        /* \"#utility.yul\":7115:7121   */\n      dup2\n        /* \"#utility.yul\":7112:7142   */\n      gt\n        /* \"#utility.yul\":7109:7226   */\n      iszero\n      tag_262\n      jumpi\n        /* \"#utility.yul\":7145:7224   */\n      tag_263\n      tag_164\n      jump\t// in\n    tag_263:\n        /* \"#utility.yul\":7109:7226   */\n    tag_262:\n        /* \"#utility.yul\":7259:7263   */\n      0x20\n        /* \"#utility.yul\":7251:7257   */\n      dup4\n        /* \"#utility.yul\":7247:7264   */\n      add\n        /* \"#utility.yul\":7235:7264   */\n      swap2\n      pop\n        /* \"#utility.yul\":7313:7316   */\n      dup4\n        /* \"#utility.yul\":7305:7309   */\n      0x01\n        /* \"#utility.yul\":7297:7303   */\n      dup3\n        /* \"#utility.yul\":7293:7310   */\n      mul\n        /* \"#utility.yul\":7283:7291   */\n      dup4\n        /* \"#utility.yul\":7279:7311   */\n      add\n        /* \"#utility.yul\":7276:7317   */\n      gt\n        /* \"#utility.yul\":7273:7401   */\n      iszero\n      tag_264\n      jumpi\n        /* \"#utility.yul\":7320:7399   */\n      tag_265\n      tag_165\n      jump\t// in\n    tag_265:\n        /* \"#utility.yul\":7273:7401   */\n    tag_264:\n        /* \"#utility.yul\":6854:7407   */\n      swap3\n      pop\n      swap3\n      swap1\n      pop\n      jump\t// out\n        /* \"#utility.yul\":7413:8432   */\n    tag_22:\n        /* \"#utility.yul\":7514:7520   */\n      0x00\n        /* \"#utility.yul\":7522:7528   */\n      0x00\n        /* \"#utility.yul\":7530:7536   */\n      0x00\n        /* \"#utility.yul\":7538:7544   */\n      0x00\n        /* \"#utility.yul\":7546:7552   */\n      0x00\n        /* \"#utility.yul\":7595:7597   */\n      0x60\n        /* \"#utility.yul\":7583:7592   */\n      dup7\n        /* \"#utility.yul\":7574:7581   */\n      dup9\n        /* \"#utility.yul\":7570:7593   */\n      sub\n        /* \"#utility.yul\":7566:7598   */\n      slt\n        /* \"#utility.yul\":7563:7682   */\n      iszero\n      tag_267\n      jumpi\n        /* \"#utility.yul\":7601:7680   */\n      tag_268\n      tag_159\n      jump\t// in\n    tag_268:\n        /* \"#utility.yul\":7563:7682   */\n    tag_267:\n        /* \"#utility.yul\":7749:7750   */\n      0x00\n        /* \"#utility.yul\":7738:7747   */\n      dup7\n        /* \"#utility.yul\":7734:7751   */\n      add\n        /* \"#utility.yul\":7721:7752   */\n      calldataload\n        /* \"#utility.yul\":7779:7797   */\n      0xffffffffffffffff\n        /* \"#utility.yul\":7771:7777   */\n      dup2\n        /* \"#utility.yul\":7768:7798   */\n      gt\n        /* \"#utility.yul\":7765:7882   */\n      iszero\n      tag_269\n      jumpi\n        /* \"#utility.yul\":7801:7880   */\n      tag_270\n      tag_160\n      jump\t// in\n    tag_270:\n        /* \"#utility.yul\":7765:7882   */\n    tag_269:\n        /* \"#utility.yul\":7914:7979   */\n      tag_271\n        /* \"#utility.yul\":7971:7978   */\n      dup9\n        /* \"#utility.yul\":7962:7968   */\n      dup3\n        /* \"#utility.yul\":7951:7960   */\n      dup10\n        /* \"#utility.yul\":7947:7969   */\n      add\n        /* \"#utility.yul\":7914:7979   */\n      tag_166\n      jump\t// in\n    tag_271:\n        /* \"#utility.yul\":7896:7979   */\n      swap6\n      pop\n      swap6\n      pop\n        /* \"#utility.yul\":7692:7989   */\n      pop\n        /* \"#utility.yul\":8056:8058   */\n      0x20\n        /* \"#utility.yul\":8045:8054   */\n      dup7\n        /* \"#utility.yul\":8041:8059   */\n      add\n        /* \"#utility.yul\":8028:8060   */\n      calldataload\n        /* \"#utility.yul\":8087:8105   */\n      0xffffffffffffffff\n        /* \"#utility.yul\":8079:8085   */\n      dup2\n        /* \"#utility.yul\":8076:8106   */\n      gt\n        /* \"#utility.yul\":8073:8190   */\n      iszero\n      tag_272\n      jumpi\n        /* \"#utility.yul\":8109:8188   */\n      tag_273\n      tag_160\n      jump\t// in\n    tag_273:\n        /* \"#utility.yul\":8073:8190   */\n    tag_272:\n        /* \"#utility.yul\":8222:8287   */\n      tag_274\n        /* \"#utility.yul\":8279:8286   */\n      dup9\n        /* \"#utility.yul\":8270:8276   */\n      dup3\n        /* \"#utility.yul\":8259:8268   */\n      dup10\n        /* \"#utility.yul\":8255:8277   */\n      add\n        /* \"#utility.yul\":8222:8287   */\n      tag_166\n      jump\t// in\n    tag_274:\n        /* \"#utility.yul\":8204:8287   */\n      swap4\n      pop\n      swap4\n      pop\n        /* \"#utility.yul\":7999:8297   */\n      pop\n        /* \"#utility.yul\":8336:8338   */\n      0x40\n        /* \"#utility.yul\":8362:8415   */\n      tag_275\n        /* \"#utility.yul\":8407:8414   */\n      dup9\n        /* \"#utility.yul\":8398:8404   */\n      dup3\n        /* \"#utility.yul\":8387:8396   */\n      dup10\n        /* \"#utility.yul\":8383:8405   */\n      add\n        /* \"#utility.yul\":8362:8415   */\n      tag_162\n      jump\t// in\n    tag_275:\n        /* \"#utility.yul\":8352:8415   */\n      swap2\n      pop\n        /* \"#utility.yul\":8307:8425   */\n      pop\n        /* \"#utility.yul\":7413:8432   */\n      swap3\n      swap6\n      pop\n      swap3\n      swap6\n      swap1\n      swap4\n      pop\n      jump\t// out\n        /* \"#utility.yul\":8438:8556   */\n    tag_167:\n        /* \"#utility.yul\":8525:8549   */\n      tag_277\n        /* \"#utility.yul\":8543:8548   */\n      dup2\n        /* \"#utility.yul\":8525:8549   */\n      tag_148\n      jump\t// in\n    tag_277:\n        /* \"#utility.yul\":8520:8523   */\n      dup3\n        /* \"#utility.yul\":8513:8550   */\n      mstore\n        /* \"#utility.yul\":8438:8556   */\n      pop\n      pop\n      jump\t// out\n        /* \"#utility.yul\":8562:8784   */\n    tag_27:\n        /* \"#utility.yul\":8655:8659   */\n      0x00\n        /* \"#utility.yul\":8693:8695   */\n      0x20\n        /* \"#utility.yul\":8682:8691   */\n      dup3\n        /* \"#utility.yul\":8678:8696   */\n      add\n        /* \"#utility.yul\":8670:8696   */\n      swap1\n      pop\n        /* \"#utility.yul\":8706:8777   */\n      tag_279\n        /* \"#utility.yul\":8774:8775   */\n      0x00\n        /* \"#utility.yul\":8763:8772   */\n      dup4\n        /* \"#utility.yul\":8759:8776   */\n      add\n        /* \"#utility.yul\":8750:8756   */\n      dup5\n        /* \"#utility.yul\":8706:8777   */\n      tag_167\n      jump\t// in\n    tag_279:\n        /* \"#utility.yul\":8562:8784   */\n      swap3\n      swap2\n      pop\n      pop\n      jump\t// out\n        /* \"#utility.yul\":8790:8970   */\n    tag_168:\n        /* \"#utility.yul\":8838:8915   */\n      0x4e487b7100000000000000000000000000000000000000000000000000000000\n        /* \"#utility.yul\":8835:8836   */\n      0x00\n        /* \"#utility.yul\":8828:8916   */\n      mstore\n        /* \"#utility.yul\":8935:8939   */\n      0x22\n        /* \"#utility.yul\":8932:8933   */\n      0x04\n        /* \"#utility.yul\":8925:8940   */\n      mstore\n        /* \"#utility.yul\":8959:8963   */\n      0x24\n        /* \"#utility.yul\":8956:8957   */\n      0x00\n        /* \"#utility.yul\":8949:8964   */\n      revert\n        /* \"#utility.yul\":8976:9296   */\n    tag_36:\n        /* \"#utility.yul\":9020:9026   */\n      0x00\n        /* \"#utility.yul\":9057:9058   */\n      0x02\n        /* \"#utility.yul\":9051:9055   */\n      dup3\n        /* \"#utility.yul\":9047:9059   */\n      div\n        /* \"#utility.yul\":9037:9059   */\n      swap1\n      pop\n        /* \"#utility.yul\":9104:9105   */\n      0x01\n        /* \"#utility.yul\":9098:9102   */\n      dup3\n        /* \"#utility.yul\":9094:9106   */\n      and\n        /* \"#utility.yul\":9125:9143   */\n      dup1\n        /* \"#utility.yul\":9115:9196   */\n      tag_282\n      jumpi\n        /* \"#utility.yul\":9181:9185   */\n      0x7f\n        /* \"#utility.yul\":9173:9179   */\n      dup3\n        /* \"#utility.yul\":9169:9186   */\n      and\n        /* \"#utility.yul\":9159:9186   */\n      swap2\n      pop\n        /* \"#utility.yul\":9115:9196   */\n    tag_282:\n        /* \"#utility.yul\":9243:9245   */\n      0x20\n        /* \"#utility.yul\":9235:9241   */\n      dup3\n        /* \"#utility.yul\":9232:9246   */\n      lt\n        /* \"#utility.yul\":9212:9230   */\n      dup2\n        /* \"#utility.yul\":9209:9247   */\n      sub\n        /* \"#utility.yul\":9206:9290   */\n      tag_283\n      jumpi\n        /* \"#utility.yul\":9262:9280   */\n      tag_284\n      tag_168\n      jump\t// in\n    tag_284:\n        /* \"#utility.yul\":9206:9290   */\n    tag_283:\n        /* \"#utility.yul\":9027:9296   */\n      pop\n        /* \"#utility.yul\":8976:9296   */\n      swap2\n      swap1\n      pop\n      jump\t// out\n        /* \"#utility.yul\":9302:9471   */\n    tag_169:\n        /* \"#utility.yul\":9386:9397   */\n      0x00\n        /* \"#utility.yul\":9420:9426   */\n      dup3\n        /* \"#utility.yul\":9415:9418   */\n      dup3\n        /* \"#utility.yul\":9408:9427   */\n      mstore\n        /* \"#utility.yul\":9460:9464   */\n      0x20\n        /* \"#utility.yul\":9455:9458   */\n      dup3\n        /* \"#utility.yul\":9451:9465   */\n      add\n        /* \"#utility.yul\":9436:9465   */\n      swap1\n      pop\n        /* \"#utility.yul\":9302:9471   */\n      swap3\n      swap2\n      pop\n      pop\n      jump\t// out\n        /* \"#utility.yul\":9477:9643   */\n    tag_170:\n        /* \"#utility.yul\":9617:9635   */\n      0x496e76616c696465207461736b20494400000000000000000000000000000000\n        /* \"#utility.yul\":9613:9614   */\n      0x00\n        /* \"#utility.yul\":9605:9611   */\n      dup3\n        /* \"#utility.yul\":9601:9615   */\n      add\n        /* \"#utility.yul\":9594:9636   */\n      mstore\n        /* \"#utility.yul\":9477:9643   */\n      pop\n      jump\t// out\n        /* \"#utility.yul\":9649:10015   */\n    tag_171:\n        /* \"#utility.yul\":9791:9794   */\n      0x00\n        /* \"#utility.yul\":9812:9879   */\n      tag_288\n        /* \"#utility.yul\":9876:9878   */\n      0x10\n        /* \"#utility.yul\":9871:9874   */\n      dup4\n        /* \"#utility.yul\":9812:9879   */\n      tag_169\n      jump\t// in\n    tag_288:\n        /* \"#utility.yul\":9805:9879   */\n      swap2\n      pop\n        /* \"#utility.yul\":9888:9981   */\n      tag_289\n        /* \"#utility.yul\":9977:9980   */\n      dup3\n        /* \"#utility.yul\":9888:9981   */\n      tag_170\n      jump\t// in\n    tag_289:\n        /* \"#utility.yul\":10006:10008   */\n      0x20\n        /* \"#utility.yul\":10001:10004   */\n      dup3\n        /* \"#utility.yul\":9997:10009   */\n      add\n        /* \"#utility.yul\":9990:10009   */\n      swap1\n      pop\n        /* \"#utility.yul\":9649:10015   */\n      swap2\n      swap1\n      pop\n      jump\t// out\n        /* \"#utility.yul\":10021:10440   */\n    tag_54:\n        /* \"#utility.yul\":10187:10191   */\n      0x00\n        /* \"#utility.yul\":10225:10227   */\n      0x20\n        /* \"#utility.yul\":10214:10223   */\n      dup3\n        /* \"#utility.yul\":10210:10228   */\n      add\n        /* \"#utility.yul\":10202:10228   */\n      swap1\n      pop\n        /* \"#utility.yul\":10274:10283   */\n      dup2\n        /* \"#utility.yul\":10268:10272   */\n      dup2\n        /* \"#utility.yul\":10264:10284   */\n      sub\n        /* \"#utility.yul\":10260:10261   */\n      0x00\n        /* \"#utility.yul\":10249:10258   */\n      dup4\n        /* \"#utility.yul\":10245:10262   */\n      add\n        /* \"#utility.yul\":10238:10285   */\n      mstore\n        /* \"#utility.yul\":10302:10433   */\n      tag_291\n        /* \"#utility.yul\":10428:10432   */\n      dup2\n        /* \"#utility.yul\":10302:10433   */\n      tag_171\n      jump\t// in\n    tag_291:\n        /* \"#utility.yul\":10294:10433   */\n      swap1\n      pop\n        /* \"#utility.yul\":10021:10440   */\n      swap2\n      swap1\n      pop\n      jump\t// out\n        /* \"#utility.yul\":10446:10626   */\n    tag_58:\n        /* \"#utility.yul\":10494:10571   */\n      0x4e487b7100000000000000000000000000000000000000000000000000000000\n        /* \"#utility.yul\":10491:10492   */\n      0x00\n        /* \"#utility.yul\":10484:10572   */\n      mstore\n        /* \"#utility.yul\":10591:10595   */\n      0x32\n        /* \"#utility.yul\":10588:10589   */\n      0x04\n        /* \"#utility.yul\":10581:10596   */\n      mstore\n        /* \"#utility.yul\":10615:10619   */\n      0x24\n        /* \"#utility.yul\":10612:10613   */\n      0x00\n        /* \"#utility.yul\":10605:10620   */\n      revert\n        /* \"#utility.yul\":10632:10802   */\n    tag_172:\n        /* \"#utility.yul\":10772:10794   */\n      0x5461736b206d7573742062652050656e64696e67000000000000000000000000\n        /* \"#utility.yul\":10768:10769   */\n      0x00\n        /* \"#utility.yul\":10760:10766   */\n      dup3\n        /* \"#utility.yul\":10756:10770   */\n      add\n        /* \"#utility.yul\":10749:10795   */\n      mstore\n        /* \"#utility.yul\":10632:10802   */\n      pop\n      jump\t// out\n        /* \"#utility.yul\":10808:11174   */\n    tag_173:\n        /* \"#utility.yul\":10950:10953   */\n      0x00\n        /* \"#utility.yul\":10971:11038   */\n      tag_295\n        /* \"#utility.yul\":11035:11037   */\n      0x14\n        /* \"#utility.yul\":11030:11033   */\n      dup4\n        /* \"#utility.yul\":10971:11038   */\n      tag_169\n      jump\t// in\n    tag_295:\n        /* \"#utility.yul\":10964:11038   */\n      swap2\n      pop\n        /* \"#utility.yul\":11047:11140   */\n      tag_296\n        /* \"#utility.yul\":11136:11139   */\n      dup3\n        /* \"#utility.yul\":11047:11140   */\n      tag_172\n      jump\t// in\n    tag_296:\n        /* \"#utility.yul\":11165:11167   */\n      0x20\n        /* \"#utility.yul\":11160:11163   */\n      dup3\n        /* \"#utility.yul\":11156:11168   */\n      add\n        /* \"#utility.yul\":11149:11168   */\n      swap1\n      pop\n        /* \"#utility.yul\":10808:11174   */\n      swap2\n      swap1\n      pop\n      jump\t// out\n        /* \"#utility.yul\":11180:11599   */\n    tag_66:\n        /* \"#utility.yul\":11346:11350   */\n      0x00\n        /* \"#utility.yul\":11384:11386   */\n      0x20\n        /* \"#utility.yul\":11373:11382   */\n      dup3\n        /* \"#utility.yul\":11369:11387   */\n      add\n        /* \"#utility.yul\":11361:11387   */\n      swap1\n      pop\n        /* \"#utility.yul\":11433:11442   */\n      dup2\n        /* \"#utility.yul\":11427:11431   */\n      dup2\n        /* \"#utility.yul\":11423:11443   */\n      sub\n        /* \"#utility.yul\":11419:11420   */\n      0x00\n        /* \"#utility.yul\":11408:11417   */\n      dup4\n        /* \"#utility.yul\":11404:11421   */\n      add\n        /* \"#utility.yul\":11397:11444   */\n      mstore\n        /* \"#utility.yul\":11461:11592   */\n      tag_298\n        /* \"#utility.yul\":11587:11591   */\n      dup2\n        /* \"#utility.yul\":11461:11592   */\n      tag_173\n      jump\t// in\n    tag_298:\n        /* \"#utility.yul\":11453:11592   */\n      swap1\n      pop\n        /* \"#utility.yul\":11180:11599   */\n      swap2\n      swap1\n      pop\n      jump\t// out\n        /* \"#utility.yul\":11605:11778   */\n    tag_174:\n        /* \"#utility.yul\":11745:11770   */\n      0x5461736b206973206e6f74206f76657264756520796574000000000000000000\n        /* \"#utility.yul\":11741:11742   */\n      0x00\n        /* \"#utility.yul\":11733:11739   */\n      dup3\n        /* \"#utility.yul\":11729:11743   */\n      add\n        /* \"#utility.yul\":11722:11771   */\n      mstore\n        /* \"#utility.yul\":11605:11778   */\n      pop\n      jump\t// out\n        /* \"#utility.yul\":11784:12150   */\n    tag_175:\n        /* \"#utility.yul\":11926:11929   */\n      0x00\n        /* \"#utility.yul\":11947:12014   */\n      tag_301\n        /* \"#utility.yul\":12011:12013   */\n      0x17\n        /* \"#utility.yul\":12006:12009   */\n      dup4\n        /* \"#utility.yul\":11947:12014   */\n      tag_169\n      jump\t// in\n    tag_301:\n        /* \"#utility.yul\":11940:12014   */\n      swap2\n      pop\n        /* \"#utility.yul\":12023:12116   */\n      tag_302\n        /* \"#utility.yul\":12112:12115   */\n      dup3\n        /* \"#utility.yul\":12023:12116   */\n      tag_174\n      jump\t// in\n    tag_302:\n        /* \"#utility.yul\":12141:12143   */\n      0x20\n        /* \"#utility.yul\":12136:12139   */\n      dup3\n        /* \"#utility.yul\":12132:12144   */\n      add\n        /* \"#utility.yul\":12125:12144   */\n      swap1\n      pop\n        /* \"#utility.yul\":11784:12150   */\n      swap2\n      swap1\n      pop\n      jump\t// out\n        /* \"#utility.yul\":12156:12575   */\n    tag_69:\n        /* \"#utility.yul\":12322:12326   */\n      0x00\n        /* \"#utility.yul\":12360:12362   */\n      0x20\n        /* \"#utility.yul\":12349:12358   */\n      dup3\n        /* \"#utility.yul\":12345:12363   */\n      add\n        /* \"#utility.yul\":12337:12363   */\n      swap1\n      pop\n        /* \"#utility.yul\":12409:12418   */\n      dup2\n        /* \"#utility.yul\":12403:12407   */\n      dup2\n        /* \"#utility.yul\":12399:12419   */\n      sub\n        /* \"#utility.yul\":12395:12396   */\n      0x00\n        /* \"#utility.yul\":12384:12393   */\n      dup4\n        /* \"#utility.yul\":12380:12397   */\n      add\n        /* \"#utility.yul\":12373:12420   */\n      mstore\n        /* \"#utility.yul\":12437:12568   */\n      tag_304\n        /* \"#utility.yul\":12563:12567   */\n      dup2\n        /* \"#utility.yul\":12437:12568   */\n      tag_175\n      jump\t// in\n    tag_304:\n        /* \"#utility.yul\":12429:12568   */\n      swap1\n      pop\n        /* \"#utility.yul\":12156:12575   */\n      swap2\n      swap1\n      pop\n      jump\t// out\n        /* \"#utility.yul\":12581:12761   */\n    tag_176:\n        /* \"#utility.yul\":12629:12706   */\n      0x4e487b7100000000000000000000000000000000000000000000000000000000\n        /* \"#utility.yul\":12626:12627   */\n      0x00\n        /* \"#utility.yul\":12619:12707   */\n      mstore\n        /* \"#utility.yul\":12726:12730   */\n      0x11\n        /* \"#utility.yul\":12723:12724   */\n      0x04\n        /* \"#utility.yul\":12716:12731   */\n      mstore\n        /* \"#utility.yul\":12750:12754   */\n      0x24\n        /* \"#utility.yul\":12747:12748   */\n      0x00\n        /* \"#utility.yul\":12740:12755   */\n      revert\n        /* \"#utility.yul\":12767:12961   */\n    tag_77:\n        /* \"#utility.yul\":12807:12811   */\n      0x00\n        /* \"#utility.yul\":12827:12847   */\n      tag_307\n        /* \"#utility.yul\":12845:12846   */\n      dup3\n        /* \"#utility.yul\":12827:12847   */\n      tag_148\n      jump\t// in\n    tag_307:\n        /* \"#utility.yul\":12822:12847   */\n      swap2\n      pop\n        /* \"#utility.yul\":12861:12881   */\n      tag_308\n        /* \"#utility.yul\":12879:12880   */\n      dup4\n        /* \"#utility.yul\":12861:12881   */\n      tag_148\n      jump\t// in\n    tag_308:\n        /* \"#utility.yul\":12856:12881   */\n      swap3\n      pop\n        /* \"#utility.yul\":12905:12906   */\n      dup3\n        /* \"#utility.yul\":12902:12903   */\n      dup3\n        /* \"#utility.yul\":12898:12907   */\n      sub\n        /* \"#utility.yul\":12890:12907   */\n      swap1\n      pop\n        /* \"#utility.yul\":12929:12930   */\n      dup2\n        /* \"#utility.yul\":12923:12927   */\n      dup2\n        /* \"#utility.yul\":12920:12931   */\n      gt\n        /* \"#utility.yul\":12917:12954   */\n      iszero\n      tag_309\n      jumpi\n        /* \"#utility.yul\":12934:12952   */\n      tag_310\n      tag_176\n      jump\t// in\n    tag_310:\n        /* \"#utility.yul\":12917:12954   */\n    tag_309:\n        /* \"#utility.yul\":12767:12961   */\n      swap3\n      swap2\n      pop\n      pop\n      jump\t// out\n        /* \"#utility.yul\":12967:13116   */\n    tag_177:\n        /* \"#utility.yul\":13016:13022   */\n      0x00\n        /* \"#utility.yul\":13050:13055   */\n      dup2\n        /* \"#utility.yul\":13044:13056   */\n      sload\n        /* \"#utility.yul\":13034:13056   */\n      swap1\n      pop\n        /* \"#utility.yul\":13076:13109   */\n      tag_312\n        /* \"#utility.yul\":13102:13108   */\n      dup2\n        /* \"#utility.yul\":13076:13109   */\n      tag_36\n      jump\t// in\n    tag_312:\n        /* \"#utility.yul\":13066:13109   */\n      swap1\n      pop\n        /* \"#utility.yul\":12967:13116   */\n      swap2\n      swap1\n      pop\n      jump\t// out\n        /* \"#utility.yul\":13122:13302   */\n    tag_178:\n        /* \"#utility.yul\":13170:13247   */\n      0x4e487b7100000000000000000000000000000000000000000000000000000000\n        /* \"#utility.yul\":13167:13168   */\n      0x00\n        /* \"#utility.yul\":13160:13248   */\n      mstore\n        /* \"#utility.yul\":13267:13271   */\n      0x41\n        /* \"#utility.yul\":13264:13265   */\n      0x04\n        /* \"#utility.yul\":13257:13272   */\n      mstore\n        /* \"#utility.yul\":13291:13295   */\n      0x24\n        /* \"#utility.yul\":13288:13289   */\n      0x00\n        /* \"#utility.yul\":13281:13296   */\n      revert\n        /* \"#utility.yul\":13308:13449   */\n    tag_179:\n        /* \"#utility.yul\":13357:13361   */\n      0x00\n        /* \"#utility.yul\":13380:13383   */\n      dup2\n        /* \"#utility.yul\":13372:13383   */\n      swap1\n      pop\n        /* \"#utility.yul\":13403:13406   */\n      dup2\n        /* \"#utility.yul\":13400:13401   */\n      0x00\n        /* \"#utility.yul\":13393:13407   */\n      mstore\n        /* \"#utility.yul\":13437:13441   */\n      0x20\n        /* \"#utility.yul\":13434:13435   */\n      0x00\n        /* \"#utility.yul\":13424:13442   */\n      keccak256\n        /* \"#utility.yul\":13416:13442   */\n      swap1\n      pop\n        /* \"#utility.yul\":13308:13449   */\n      swap2\n      swap1\n      pop\n      jump\t// out\n        /* \"#utility.yul\":13455:13548   */\n    tag_180:\n        /* \"#utility.yul\":13492:13498   */\n      0x00\n        /* \"#utility.yul\":13539:13541   */\n      0x20\n        /* \"#utility.yul\":13534:13536   */\n      0x1f\n        /* \"#utility.yul\":13527:13532   */\n      dup4\n        /* \"#utility.yul\":13523:13537   */\n      add\n        /* \"#utility.yul\":13519:13542   */\n      div\n        /* \"#utility.yul\":13509:13542   */\n      swap1\n      pop\n        /* \"#utility.yul\":13455:13548   */\n      swap2\n      swap1\n      pop\n      jump\t// out\n        /* \"#utility.yul\":13554:13661   */\n    tag_181:\n        /* \"#utility.yul\":13598:13606   */\n      0x00\n        /* \"#utility.yul\":13648:13653   */\n      dup3\n        /* \"#utility.yul\":13642:13646   */\n      dup3\n        /* \"#utility.yul\":13638:13654   */\n      shl\n        /* \"#utility.yul\":13617:13654   */\n      swap1\n      pop\n        /* \"#utility.yul\":13554:13661   */\n      swap3\n      swap2\n      pop\n      pop\n      jump\t// out\n        /* \"#utility.yul\":13667:14060   */\n    tag_182:\n        /* \"#utility.yul\":13736:13742   */\n      0x00\n        /* \"#utility.yul\":13786:13787   */\n      0x08\n        /* \"#utility.yul\":13774:13784   */\n      dup4\n        /* \"#utility.yul\":13770:13788   */\n      mul\n        /* \"#utility.yul\":13809:13906   */\n      tag_318\n        /* \"#utility.yul\":13839:13905   */\n      0xffffffffffffffffffffffffffffffffffffffffffffffffffffffffffffffff\n        /* \"#utility.yul\":13828:13837   */\n      dup3\n        /* \"#utility.yul\":13809:13906   */\n      tag_181\n      jump\t// in\n    tag_318:\n        /* \"#utility.yul\":13927:13966   */\n      tag_319\n        /* \"#utility.yul\":13957:13965   */\n      dup7\n        /* \"#utility.yul\":13946:13955   */\n      dup4\n        /* \"#utility.yul\":13927:13966   */\n      tag_181\n      jump\t// in\n    tag_319:\n        /* \"#utility.yul\":13915:13966   */\n      swap6\n      pop\n        /* \"#utility.yul\":13999:14003   */\n      dup1\n        /* \"#utility.yul\":13995:14004   */\n      not\n        /* \"#utility.yul\":13988:13993   */\n      dup5\n        /* \"#utility.yul\":13984:14005   */\n      and\n        /* \"#utility.yul\":13975:14005   */\n      swap4\n      pop\n        /* \"#utility.yul\":14048:14052   */\n      dup1\n        /* \"#utility.yul\":14038:14046   */\n      dup7\n        /* \"#utility.yul\":14034:14053   */\n      and\n        /* \"#utility.yul\":14027:14032   */\n      dup5\n        /* \"#utility.yul\":14024:14054   */\n      or\n        /* \"#utility.yul\":14014:14054   */\n      swap3\n      pop\n        /* \"#utility.yul\":13743:14060   */\n      pop\n      pop\n        /* \"#utility.yul\":13667:14060   */\n      swap4\n      swap3\n      pop\n      pop\n      pop\n      jump\t// out\n        /* \"#utility.yul\":14066:14126   */\n    tag_183:\n        /* \"#utility.yul\":14094:14097   */\n      0x00\n        /* \"#utility.yul\":14115:14120   */\n      dup2\n        /* \"#utility.yul\":14108:14120   */\n      swap1\n      pop\n        /* \"#utility.yul\":14066:14126   */\n      swap2\n      swap1\n      pop\n      jump\t// out\n        /* \"#utility.yul\":14132:14274   */\n    tag_184:\n        /* \"#utility.yul\":14182:14191   */\n      0x00\n        /* \"#utility.yul\":14215:14268   */\n      tag_322\n        /* \"#utility.yul\":14233:14267   */\n      tag_323\n        /* \"#utility.yul\":14242:14266   */\n      tag_324\n        /* \"#utility.yul\":14260:14265   */\n      dup5\n        /* \"#utility.yul\":14242:14266   */\n      tag_148\n      jump\t// in\n    tag_324:\n        /* \"#utility.yul\":14233:14267   */\n      tag_183\n      jump\t// in\n    tag_323:\n        /* \"#utility.yul\":14215:14268   */\n      tag_148\n      jump\t// in\n    tag_322:\n        /* \"#utility.yul\":14202:14268   */\n      swap1\n      pop\n        /* \"#utility.yul\":14132:14274   */\n      swap2\n      swap1\n      pop\n      jump\t// out\n        /* \"#utility.yul\":14280:14355   */\n    tag_185:\n        /* \"#utility.yul\":14323:14326   */\n      0x00\n        /* \"#utility.yul\":14344:14349   */\n      dup2\n        /* \"#utility.yul\":14337:14349   */\n      swap1\n      pop\n        /* \"#utility.yul\":14280:14355   */\n      swap2\n      swap1\n      pop\n      jump\t// out\n        /* \"#utility.yul\":14361:14630   */\n    tag_186:\n        /* \"#utility.yul\":14471:14510   */\n      tag_327\n        /* \"#utility.yul\":14502:14509   */\n      dup4\n        /* \"#utility.yul\":14471:14510   */\n      tag_184\n      jump\t// in\n    tag_327:\n        /* \"#utility.yul\":14532:14623   */\n      tag_328\n        /* \"#utility.yul\":14581:14622   */\n      tag_329\n        /* \"#utility.yul\":14605:14621   */\n      dup3\n        /* \"#utility.yul\":14581:14622   */\n      tag_185\n      jump\t// in\n    tag_329:\n        /* \"#utility.yul\":14573:14579   */\n      dup5\n        /* \"#utility.yul\":14566:14570   */\n      dup5\n        /* \"#utility.yul\":14560:14571   */\n      sload\n        /* \"#utility.yul\":14532:14623   */\n      tag_182\n      jump\t// in\n    tag_328:\n        /* \"#utility.yul\":14526:14530   */\n      dup3\n        /* \"#utility.yul\":14519:14624   */\n      sstore\n        /* \"#utility.yul\":14437:14630   */\n      pop\n        /* \"#utility.yul\":14361:14630   */\n      pop\n      pop\n      pop\n      jump\t// out\n        /* \"#utility.yul\":14636:14709   */\n    tag_187:\n        /* \"#utility.yul\":14681:14684   */\n      0x00\n        /* \"#utility.yul\":14702:14703   */\n      0x00\n        /* \"#utility.yul\":14695:14703   */\n      swap1\n      pop\n        /* \"#utility.yul\":14636:14709   */\n      swap1\n      jump\t// out\n        /* \"#utility.yul\":14715:14904   */\n    tag_188:\n        /* \"#utility.yul\":14792:14824   */\n      tag_332\n      tag_187\n      jump\t// in\n    tag_332:\n        /* \"#utility.yul\":14833:14898   */\n      tag_333\n        /* \"#utility.yul\":14891:14897   */\n      dup2\n        /* \"#utility.yul\":14883:14889   */\n      dup5\n        /* \"#utility.yul\":14877:14881   */\n      dup5\n        /* \"#utility.yul\":14833:14898   */\n      tag_186\n      jump\t// in\n    tag_333:\n        /* \"#utility.yul\":14768:14904   */\n      pop\n        /* \"#utility.yul\":14715:14904   */\n      pop\n      pop\n      jump\t// out\n        /* \"#utility.yul\":14910:15096   */\n    tag_189:\n        /* \"#utility.yul\":14970:15090   */\n    tag_335:\n        /* \"#utility.yul\":14987:14990   */\n      dup2\n        /* \"#utility.yul\":14980:14985   */\n      dup2\n        /* \"#utility.yul\":14977:14991   */\n      lt\n        /* \"#utility.yul\":14970:15090   */\n      iszero\n      tag_337\n      jumpi\n        /* \"#utility.yul\":15041:15080   */\n      tag_338\n        /* \"#utility.yul\":15078:15079   */\n      0x00\n        /* \"#utility.yul\":15071:15076   */\n      dup3\n        /* \"#utility.yul\":15041:15080   */\n      tag_188\n      jump\t// in\n    tag_338:\n        /* \"#utility.yul\":15014:15015   */\n      0x01\n        /* \"#utility.yul\":15007:15012   */\n      dup2\n        /* \"#utility.yul\":15003:15016   */\n      add\n        /* \"#utility.yul\":14994:15016   */\n      swap1\n      pop\n        /* \"#utility.yul\":14970:15090   */\n      jump(tag_335)\n    tag_337:\n        /* \"#utility.yul\":14910:15096   */\n      pop\n      pop\n      jump\t// out\n        /* \"#utility.yul\":15102:15645   */\n    tag_190:\n        /* \"#utility.yul\":15203:15205   */\n      0x1f\n        /* \"#utility.yul\":15198:15201   */\n      dup3\n        /* \"#utility.yul\":15195:15206   */\n      gt\n        /* \"#utility.yul\":15192:15638   */\n      iszero\n      tag_340\n      jumpi\n        /* \"#utility.yul\":15237:15275   */\n      tag_341\n        /* \"#utility.yul\":15269:15274   */\n      dup2\n        /* \"#utility.yul\":15237:15275   */\n      tag_179\n      jump\t// in\n    tag_341:\n        /* \"#utility.yul\":15321:15350   */\n      tag_342\n        /* \"#utility.yul\":15339:15349   */\n      dup5\n        /* \"#utility.yul\":15321:15350   */\n      tag_180\n      jump\t// in\n    tag_342:\n        /* \"#utility.yul\":15311:15319   */\n      dup2\n        /* \"#utility.yul\":15307:15351   */\n      add\n        /* \"#utility.yul\":15504:15506   */\n      0x20\n        /* \"#utility.yul\":15492:15502   */\n      dup6\n        /* \"#utility.yul\":15489:15507   */\n      lt\n        /* \"#utility.yul\":15486:15535   */\n      iszero\n      tag_343\n      jumpi\n        /* \"#utility.yul\":15525:15533   */\n      dup2\n        /* \"#utility.yul\":15510:15533   */\n      swap1\n      pop\n        /* \"#utility.yul\":15486:15535   */\n    tag_343:\n        /* \"#utility.yul\":15548:15628   */\n      tag_344\n        /* \"#utility.yul\":15604:15626   */\n      tag_345\n        /* \"#utility.yul\":15622:15625   */\n      dup6\n        /* \"#utility.yul\":15604:15626   */\n      tag_180\n      jump\t// in\n    tag_345:\n        /* \"#utility.yul\":15594:15602   */\n      dup4\n        /* \"#utility.yul\":15590:15627   */\n      add\n        /* \"#utility.yul\":15577:15588   */\n      dup3\n        /* \"#utility.yul\":15548:15628   */\n      tag_189\n      jump\t// in\n    tag_344:\n        /* \"#utility.yul\":15207:15638   */\n      pop\n      pop\n        /* \"#utility.yul\":15192:15638   */\n    tag_340:\n        /* \"#utility.yul\":15102:15645   */\n      pop\n      pop\n      pop\n      jump\t// out\n        /* \"#utility.yul\":15651:15768   */\n    tag_191:\n        /* \"#utility.yul\":15705:15713   */\n      0x00\n        /* \"#utility.yul\":15755:15760   */\n      dup3\n        /* \"#utility.yul\":15749:15753   */\n      dup3\n        /* \"#utility.yul\":15745:15761   */\n      shr\n        /* \"#utility.yul\":15724:15761   */\n      swap1\n      pop\n        /* \"#utility.yul\":15651:15768   */\n      swap3\n      swap2\n      pop\n      pop\n      jump\t// out\n        /* \"#utility.yul\":15774:15943   */\n    tag_192:\n        /* \"#utility.yul\":15818:15824   */\n      0x00\n        /* \"#utility.yul\":15851:15902   */\n      tag_348\n        /* \"#utility.yul\":15899:15900   */\n      0x00\n        /* \"#utility.yul\":15895:15901   */\n      not\n        /* \"#utility.yul\":15887:15892   */\n      dup5\n        /* \"#utility.yul\":15884:15885   */\n      0x08\n        /* \"#utility.yul\":15880:15893   */\n      mul\n        /* \"#utility.yul\":15851:15902   */\n      tag_191\n      jump\t// in\n    tag_348:\n        /* \"#utility.yul\":15847:15903   */\n      not\n        /* \"#utility.yul\":15932:15936   */\n      dup1\n        /* \"#utility.yul\":15926:15930   */\n      dup4\n        /* \"#utility.yul\":15922:15937   */\n      and\n        /* \"#utility.yul\":15912:15937   */\n      swap2\n      pop\n        /* \"#utility.yul\":15825:15943   */\n      pop\n        /* \"#utility.yul\":15774:15943   */\n      swap3\n      swap2\n      pop\n      pop\n      jump\t// out\n        /* \"#utility.yul\":15948:16243   */\n    tag_193:\n        /* \"#utility.yul\":16024:16028   */\n      0x00\n        /* \"#utility.yul\":16170:16199   */\n      tag_350\n        /* \"#utility.yul\":16195:16198   */\n      dup4\n        /* \"#utility.yul\":16189:16193   */\n      dup4\n        /* \"#utility.yul\":16170:16199   */\n      tag_192\n      jump\t// in\n    tag_350:\n        /* \"#utility.yul\":16162:16199   */\n      swap2\n      pop\n        /* \"#utility.yul\":16232:16235   */\n      dup3\n        /* \"#utility.yul\":16229:16230   */\n      0x02\n        /* \"#utility.yul\":16225:16236   */\n      mul\n        /* \"#utility.yul\":16219:16223   */\n      dup3\n        /* \"#utility.yul\":16216:16237   */\n      or\n        /* \"#utility.yul\":16208:16237   */\n      swap1\n      pop\n        /* \"#utility.yul\":15948:16243   */\n      swap3\n      swap2\n      pop\n      pop\n      jump\t// out\n        /* \"#utility.yul\":16248:17699   */\n    tag_87:\n        /* \"#utility.yul\":16359:16362   */\n      dup2\n        /* \"#utility.yul\":16353:16357   */\n      dup2\n        /* \"#utility.yul\":16350:16363   */\n      sub\n        /* \"#utility.yul\":16347:16373   */\n      tag_352\n      jumpi\n        /* \"#utility.yul\":16366:16371   */\n      pop\n      pop\n      jump(tag_351)\n        /* \"#utility.yul\":16347:16373   */\n    tag_352:\n        /* \"#utility.yul\":16397:16431   */\n      tag_353\n        /* \"#utility.yul\":16427:16430   */\n      dup3\n        /* \"#utility.yul\":16397:16431   */\n      tag_177\n      jump\t// in\n    tag_353:\n        /* \"#utility.yul\":16496:16514   */\n      0xffffffffffffffff\n        /* \"#utility.yul\":16488:16494   */\n      dup2\n        /* \"#utility.yul\":16485:16515   */\n      gt\n        /* \"#utility.yul\":16482:16538   */\n      iszero\n      tag_354\n      jumpi\n        /* \"#utility.yul\":16518:16536   */\n      tag_355\n      tag_178\n      jump\t// in\n    tag_355:\n        /* \"#utility.yul\":16482:16538   */\n    tag_354:\n        /* \"#utility.yul\":16562:16600   */\n      tag_356\n        /* \"#utility.yul\":16594:16598   */\n      dup3\n        /* \"#utility.yul\":16588:16599   */\n      sload\n        /* \"#utility.yul\":16562:16600   */\n      tag_36\n      jump\t// in\n    tag_356:\n        /* \"#utility.yul\":16647:16714   */\n      tag_357\n        /* \"#utility.yul\":16707:16713   */\n      dup3\n        /* \"#utility.yul\":16699:16705   */\n      dup3\n        /* \"#utility.yul\":16693:16697   */\n      dup6\n        /* \"#utility.yul\":16647:16714   */\n      tag_190\n      jump\t// in\n    tag_357:\n        /* \"#utility.yul\":16741:16742   */\n      0x00\n        /* \"#utility.yul\":16770:16772   */\n      0x1f\n        /* \"#utility.yul\":16762:16768   */\n      dup4\n        /* \"#utility.yul\":16759:16773   */\n      gt\n        /* \"#utility.yul\":16787:16788   */\n      0x01\n        /* \"#utility.yul\":16782:17454   */\n      dup2\n      eq\n      tag_359\n      jumpi\n        /* \"#utility.yul\":17498:17499   */\n      0x00\n        /* \"#utility.yul\":17515:17521   */\n      dup5\n        /* \"#utility.yul\":17512:17589   */\n      iszero\n      tag_360\n      jumpi\n        /* \"#utility.yul\":17564:17573   */\n      dup3\n        /* \"#utility.yul\":17559:17562   */\n      dup8\n        /* \"#utility.yul\":17555:17574   */\n      add\n        /* \"#utility.yul\":17549:17575   */\n      sload\n        /* \"#utility.yul\":17540:17575   */\n      swap1\n      pop\n        /* \"#utility.yul\":17512:17589   */\n    tag_360:\n        /* \"#utility.yul\":17615:17682   */\n      tag_361\n        /* \"#utility.yul\":17675:17681   */\n      dup6\n        /* \"#utility.yul\":17668:17673   */\n      dup3\n        /* \"#utility.yul\":17615:17682   */\n      tag_193\n      jump\t// in\n    tag_361:\n        /* \"#utility.yul\":17609:17613   */\n      dup7\n        /* \"#utility.yul\":17602:17683   */\n      sstore\n        /* \"#utility.yul\":17471:17693   */\n      pop\n        /* \"#utility.yul\":16752:17693   */\n      jump(tag_358)\n        /* \"#utility.yul\":16782:17454   */\n    tag_359:\n        /* \"#utility.yul\":16834:16838   */\n      0x1f\n        /* \"#utility.yul\":16830:16839   */\n      not\n        /* \"#utility.yul\":16822:16828   */\n      dup5\n        /* \"#utility.yul\":16818:16840   */\n      and\n        /* \"#utility.yul\":16860:16896   */\n      tag_362\n        /* \"#utility.yul\":16892:16895   */\n      dup8\n        /* \"#utility.yul\":16860:16896   */\n      tag_179\n      jump\t// in\n    tag_362:\n        /* \"#utility.yul\":16853:16896   */\n      swap7\n      pop\n        /* \"#utility.yul\":16923:16960   */\n      tag_363\n        /* \"#utility.yul\":16955:16959   */\n      dup7\n        /* \"#utility.yul\":16923:16960   */\n      tag_179\n      jump\t// in\n    tag_363:\n        /* \"#utility.yul\":16982:16983   */\n      0x00\n        /* \"#utility.yul\":16996:17203   */\n    tag_364:\n        /* \"#utility.yul\":17010:17017   */\n      dup3\n        /* \"#utility.yul\":17007:17008   */\n      dup2\n        /* \"#utility.yul\":17004:17018   */\n      lt\n        /* \"#utility.yul\":16996:17203   */\n      iszero\n      tag_366\n      jumpi\n        /* \"#utility.yul\":17089:17098   */\n      dup5\n        /* \"#utility.yul\":17084:17087   */\n      dup10\n        /* \"#utility.yul\":17080:17099   */\n      add\n        /* \"#utility.yul\":17074:17100   */\n      sload\n        /* \"#utility.yul\":17066:17072   */\n      dup3\n        /* \"#utility.yul\":17059:17101   */\n      sstore\n        /* \"#utility.yul\":17140:17141   */\n      0x01\n        /* \"#utility.yul\":17132:17138   */\n      dup3\n        /* \"#utility.yul\":17128:17142   */\n      add\n        /* \"#utility.yul\":17118:17142   */\n      swap2\n      pop\n        /* \"#utility.yul\":17187:17188   */\n      0x01\n        /* \"#utility.yul\":17176:17185   */\n      dup6\n        /* \"#utility.yul\":17172:17189   */\n      add\n        /* \"#utility.yul\":17159:17189   */\n      swap5\n      pop\n        /* \"#utility.yul\":17033:17037   */\n      0x20\n        /* \"#utility.yul\":17030:17031   */\n      dup2\n        /* \"#utility.yul\":17026:17038   */\n      add\n        /* \"#utility.yul\":17021:17038   */\n      swap1\n      pop\n        /* \"#utility.yul\":16996:17203   */\n      jump(tag_364)\n    tag_366:\n        /* \"#utility.yul\":17231:17237   */\n      dup7\n        /* \"#utility.yul\":17222:17229   */\n      dup4\n        /* \"#utility.yul\":17219:17238   */\n      lt\n        /* \"#utility.yul\":17216:17395   */\n      iszero\n      tag_367\n      jumpi\n        /* \"#utility.yul\":17289:17298   */\n      dup5\n        /* \"#utility.yul\":17284:17287   */\n      dup10\n        /* \"#utility.yul\":17280:17299   */\n      add\n        /* \"#utility.yul\":17274:17300   */\n      sload\n        /* \"#utility.yul\":17332:17380   */\n      tag_368\n        /* \"#utility.yul\":17374:17378   */\n      0x1f\n        /* \"#utility.yul\":17366:17372   */\n      dup10\n        /* \"#utility.yul\":17362:17379   */\n      and\n        /* \"#utility.yul\":17351:17360   */\n      dup3\n        /* \"#utility.yul\":17332:17380   */\n      tag_192\n      jump\t// in\n    tag_368:\n        /* \"#utility.yul\":17324:17330   */\n      dup4\n        /* \"#utility.yul\":17317:17381   */\n      sstore\n        /* \"#utility.yul\":17239:17395   */\n      pop\n        /* \"#utility.yul\":17216:17395   */\n    tag_367:\n        /* \"#utility.yul\":17441:17442   */\n      0x01\n        /* \"#utility.yul\":17437:17438   */\n      0x02\n        /* \"#utility.yul\":17429:17435   */\n      dup9\n        /* \"#utility.yul\":17425:17439   */\n      mul\n        /* \"#utility.yul\":17421:17443   */\n      add\n        /* \"#utility.yul\":17415:17419   */\n      dup9\n        /* \"#utility.yul\":17408:17444   */\n      sstore\n        /* \"#utility.yul\":16789:17454   */\n      pop\n      pop\n      pop\n        /* \"#utility.yul\":16752:17693   */\n    tag_358:\n      pop\n        /* \"#utility.yul\":16337:17699   */\n      pop\n      pop\n      pop\n        /* \"#utility.yul\":16248:17699   */\n      pop\n      pop\n    tag_351:\n      jump\t// out\n        /* \"#utility.yul\":17705:17885   */\n    tag_93:\n        /* \"#utility.yul\":17753:17830   */\n      0x4e487b7100000000000000000000000000000000000000000000000000000000\n        /* \"#utility.yul\":17750:17751   */\n      0x00\n        /* \"#utility.yul\":17743:17831   */\n      mstore\n        /* \"#utility.yul\":17850:17854   */\n      0x31\n        /* \"#utility.yul\":17847:17848   */\n      0x04\n        /* \"#utility.yul\":17840:17855   */\n      mstore\n        /* \"#utility.yul\":17874:17878   */\n      0x24\n        /* \"#utility.yul\":17871:17872   */\n      0x00\n        /* \"#utility.yul\":17864:17879   */\n      revert\n        /* \"#utility.yul\":17891:18063   */\n    tag_194:\n        /* \"#utility.yul\":18031:18055   */\n      0x5469746c65206d7573742062652070726f766964656400000000000000000000\n        /* \"#utility.yul\":18027:18028   */\n      0x00\n        /* \"#utility.yul\":18019:18025   */\n      dup3\n        /* \"#utility.yul\":18015:18029   */\n      add\n        /* \"#utility.yul\":18008:18056   */\n      mstore\n        /* \"#utility.yul\":17891:18063   */\n      pop\n      jump\t// out\n        /* \"#utility.yul\":18069:18435   */\n    tag_195:\n        /* \"#utility.yul\":18211:18214   */\n      0x00\n        /* \"#utility.yul\":18232:18299   */\n      tag_372\n        /* \"#utility.yul\":18296:18298   */\n      0x16\n        /* \"#utility.yul\":18291:18294   */\n      dup4\n        /* \"#utility.yul\":18232:18299   */\n      tag_169\n      jump\t// in\n    tag_372:\n        /* \"#utility.yul\":18225:18299   */\n      swap2\n      pop\n        /* \"#utility.yul\":18308:18401   */\n      tag_373\n        /* \"#utility.yul\":18397:18400   */\n      dup3\n        /* \"#utility.yul\":18308:18401   */\n      tag_194\n      jump\t// in\n    tag_373:\n        /* \"#utility.yul\":18426:18428   */\n      0x20\n        /* \"#utility.yul\":18421:18424   */\n      dup3\n        /* \"#utility.yul\":18417:18429   */\n      add\n        /* \"#utility.yul\":18410:18429   */\n      swap1\n      pop\n        /* \"#utility.yul\":18069:18435   */\n      swap2\n      swap1\n      pop\n      jump\t// out\n        /* \"#utility.yul\":18441:18860   */\n    tag_101:\n        /* \"#utility.yul\":18607:18611   */\n      0x00\n        /* \"#utility.yul\":18645:18647   */\n      0x20\n        /* \"#utility.yul\":18634:18643   */\n      dup3\n        /* \"#utility.yul\":18630:18648   */\n      add\n        /* \"#utility.yul\":18622:18648   */\n      swap1\n      pop\n        /* \"#utility.yul\":18694:18703   */\n      dup2\n        /* \"#utility.yul\":18688:18692   */\n      dup2\n        /* \"#utility.yul\":18684:18704   */\n      sub\n        /* \"#utility.yul\":18680:18681   */\n      0x00\n        /* \"#utility.yul\":18669:18678   */\n      dup4\n        /* \"#utility.yul\":18665:18682   */\n      add\n        /* \"#utility.yul\":18658:18705   */\n      mstore\n        /* \"#utility.yul\":18722:18853   */\n      tag_375\n        /* \"#utility.yul\":18848:18852   */\n      dup2\n        /* \"#utility.yul\":18722:18853   */\n      tag_195\n      jump\t// in\n    tag_375:\n        /* \"#utility.yul\":18714:18853   */\n      swap1\n      pop\n        /* \"#utility.yul\":18441:18860   */\n      swap2\n      swap1\n      pop\n      jump\t// out\n        /* \"#utility.yul\":18866:19046   */\n    tag_196:\n        /* \"#utility.yul\":19006:19038   */\n      0x446561646c696e65206d75737420626520696e20746865206675747572650000\n        /* \"#utility.yul\":19002:19003   */\n      0x00\n        /* \"#utility.yul\":18994:19000   */\n      dup3\n        /* \"#utility.yul\":18990:19004   */\n      add\n        /* \"#utility.yul\":18983:19039   */\n      mstore\n        /* \"#utility.yul\":18866:19046   */\n      pop\n      jump\t// out\n        /* \"#utility.yul\":19052:19418   */\n    tag_197:\n        /* \"#utility.yul\":19194:19197   */\n      0x00\n        /* \"#utility.yul\":19215:19282   */\n      tag_378\n        /* \"#utility.yul\":19279:19281   */\n      0x1e\n        /* \"#utility.yul\":19274:19277   */\n      dup4\n        /* \"#utility.yul\":19215:19282   */\n      tag_169\n      jump\t// in\n    tag_378:\n        /* \"#utility.yul\":19208:19282   */\n      swap2\n      pop\n        /* \"#utility.yul\":19291:19384   */\n      tag_379\n        /* \"#utility.yul\":19380:19383   */\n      dup3\n        /* \"#utility.yul\":19291:19384   */\n      tag_196\n      jump\t// in\n    tag_379:\n        /* \"#utility.yul\":19409:19411   */\n      0x20\n        /* \"#utility.yul\":19404:19407   */\n      dup3\n        /* \"#utility.yul\":19400:19412   */\n      add\n        /* \"#utility.yul\":19393:19412   */\n      swap1\n      pop\n        /* \"#utility.yul\":19052:19418   */\n      swap2\n      swap1\n      pop\n      jump\t// out\n        /* \"#utility.yul\":19424:19843   */\n    tag_104:\n        /* \"#utility.yul\":19590:19594   */\n      0x00\n        /* \"#utility.yul\":19628:19630   */\n      0x20\n        /* \"#utility.yul\":19617:19626   */\n      dup3\n        /* \"#utility.yul\":19613:19631   */\n      add\n        /* \"#utility.yul\":19605:19631   */\n      swap1\n      pop\n        /* \"#utility.yul\":19677:19686   */\n      dup2\n        /* \"#utility.yul\":19671:19675   */\n      dup2\n        /* \"#utility.yul\":19667:19687   */\n      sub\n        /* \"#utility.yul\":19663:19664   */\n      0x00\n        /* \"#utility.yul\":19652:19661   */\n      dup4\n        /* \"#utility.yul\":19648:19665   */\n      add\n        /* \"#utility.yul\":19641:19688   */\n      mstore\n        /* \"#utility.yul\":19705:19836   */\n      tag_381\n        /* \"#utility.yul\":19831:19835   */\n      dup2\n        /* \"#utility.yul\":19705:19836   */\n      tag_197\n      jump\t// in\n    tag_381:\n        /* \"#utility.yul\":19697:19836   */\n      swap1\n      pop\n        /* \"#utility.yul\":19424:19843   */\n      swap2\n      swap1\n      pop\n      jump\t// out\n        /* \"#utility.yul\":19849:21244   */\n    tag_109:\n        /* \"#utility.yul\":19966:20003   */\n      tag_383\n        /* \"#utility.yul\":19999:20002   */\n      dup3\n        /* \"#utility.yul\":19966:20003   */\n      tag_143\n      jump\t// in\n    tag_383:\n        /* \"#utility.yul\":20068:20086   */\n      0xffffffffffffffff\n        /* \"#utility.yul\":20060:20066   */\n      dup2\n        /* \"#utility.yul\":20057:20087   */\n      gt\n        /* \"#utility.yul\":20054:20110   */\n      iszero\n      tag_384\n      jumpi\n        /* \"#utility.yul\":20090:20108   */\n      tag_385\n      tag_178\n      jump\t// in\n    tag_385:\n        /* \"#utility.yul\":20054:20110   */\n    tag_384:\n        /* \"#utility.yul\":20134:20172   */\n      tag_386\n        /* \"#utility.yul\":20166:20170   */\n      dup3\n        /* \"#utility.yul\":20160:20171   */\n      sload\n        /* \"#utility.yul\":20134:20172   */\n      tag_36\n      jump\t// in\n    tag_386:\n        /* \"#utility.yul\":20219:20286   */\n      tag_387\n        /* \"#utility.yul\":20279:20285   */\n      dup3\n        /* \"#utility.yul\":20271:20277   */\n      dup3\n        /* \"#utility.yul\":20265:20269   */\n      dup6\n        /* \"#utility.yul\":20219:20286   */\n      tag_190\n      jump\t// in\n    tag_387:\n        /* \"#utility.yul\":20313:20314   */\n      0x00\n        /* \"#utility.yul\":20337:20341   */\n      0x20\n        /* \"#utility.yul\":20324:20341   */\n      swap1\n      pop\n        /* \"#utility.yul\":20369:20371   */\n      0x1f\n        /* \"#utility.yul\":20361:20367   */\n      dup4\n        /* \"#utility.yul\":20358:20372   */\n      gt\n        /* \"#utility.yul\":20386:20387   */\n      0x01\n        /* \"#utility.yul\":20381:20999   */\n      dup2\n      eq\n      tag_389\n      jumpi\n        /* \"#utility.yul\":21043:21044   */\n      0x00\n        /* \"#utility.yul\":21060:21066   */\n      dup5\n        /* \"#utility.yul\":21057:21134   */\n      iszero\n      tag_390\n      jumpi\n        /* \"#utility.yul\":21109:21118   */\n      dup3\n        /* \"#utility.yul\":21104:21107   */\n      dup8\n        /* \"#utility.yul\":21100:21119   */\n      add\n        /* \"#utility.yul\":21094:21120   */\n      mload\n        /* \"#utility.yul\":21085:21120   */\n      swap1\n      pop\n        /* \"#utility.yul\":21057:21134   */\n    tag_390:\n        /* \"#utility.yul\":21160:21227   */\n      tag_391\n        /* \"#utility.yul\":21220:21226   */\n      dup6\n        /* \"#utility.yul\":21213:21218   */\n      dup3\n        /* \"#utility.yul\":21160:21227   */\n      tag_193\n      jump\t// in\n    tag_391:\n        /* \"#utility.yul\":21154:21158   */\n      dup7\n        /* \"#utility.yul\":21147:21228   */\n      sstore\n        /* \"#utility.yul\":21016:21238   */\n      pop\n        /* \"#utility.yul\":20351:21238   */\n      jump(tag_388)\n        /* \"#utility.yul\":20381:20999   */\n    tag_389:\n        /* \"#utility.yul\":20433:20437   */\n      0x1f\n        /* \"#utility.yul\":20429:20438   */\n      not\n        /* \"#utility.yul\":20421:20427   */\n      dup5\n        /* \"#utility.yul\":20417:20439   */\n      and\n        /* \"#utility.yul\":20467:20504   */\n      tag_392\n        /* \"#utility.yul\":20499:20503   */\n      dup7\n        /* \"#utility.yul\":20467:20504   */\n      tag_179\n      jump\t// in\n    tag_392:\n        /* \"#utility.yul\":20526:20527   */\n      0x00\n        /* \"#utility.yul\":20540:20748   */\n    tag_393:\n        /* \"#utility.yul\":20554:20561   */\n      dup3\n        /* \"#utility.yul\":20551:20552   */\n      dup2\n        /* \"#utility.yul\":20548:20562   */\n      lt\n        /* \"#utility.yul\":20540:20748   */\n      iszero\n      tag_395\n      jumpi\n        /* \"#utility.yul\":20633:20642   */\n      dup5\n        /* \"#utility.yul\":20628:20631   */\n      dup10\n        /* \"#utility.yul\":20624:20643   */\n      add\n        /* \"#utility.yul\":20618:20644   */\n      mload\n        /* \"#utility.yul\":20610:20616   */\n      dup3\n        /* \"#utility.yul\":20603:20645   */\n      sstore\n        /* \"#utility.yul\":20684:20685   */\n      0x01\n        /* \"#utility.yul\":20676:20682   */\n      dup3\n        /* \"#utility.yul\":20672:20686   */\n      add\n        /* \"#utility.yul\":20662:20686   */\n      swap2\n      pop\n        /* \"#utility.yul\":20731:20733   */\n      0x20\n        /* \"#utility.yul\":20720:20729   */\n      dup6\n        /* \"#utility.yul\":20716:20734   */\n      add\n        /* \"#utility.yul\":20703:20734   */\n      swap5\n      pop\n        /* \"#utility.yul\":20577:20581   */\n      0x20\n        /* \"#utility.yul\":20574:20575   */\n      dup2\n        /* \"#utility.yul\":20570:20582   */\n      add\n        /* \"#utility.yul\":20565:20582   */\n      swap1\n      pop\n        /* \"#utility.yul\":20540:20748   */\n      jump(tag_393)\n    tag_395:\n        /* \"#utility.yul\":20776:20782   */\n      dup7\n        /* \"#utility.yul\":20767:20774   */\n      dup4\n        /* \"#utility.yul\":20764:20783   */\n      lt\n        /* \"#utility.yul\":20761:20940   */\n      iszero\n      tag_396\n      jumpi\n        /* \"#utility.yul\":20834:20843   */\n      dup5\n        /* \"#utility.yul\":20829:20832   */\n      dup10\n        /* \"#utility.yul\":20825:20844   */\n      add\n        /* \"#utility.yul\":20819:20845   */\n      mload\n        /* \"#utility.yul\":20877:20925   */\n      tag_397\n        /* \"#utility.yul\":20919:20923   */\n      0x1f\n        /* \"#utility.yul\":20911:20917   */\n      dup10\n        /* \"#utility.yul\":20907:20924   */\n      and\n        /* \"#utility.yul\":20896:20905   */\n      dup3\n        /* \"#utility.yul\":20877:20925   */\n      tag_192\n      jump\t// in\n    tag_397:\n        /* \"#utility.yul\":20869:20875   */\n      dup4\n        /* \"#utility.yul\":20862:20926   */\n      sstore\n        /* \"#utility.yul\":20784:20940   */\n      pop\n        /* \"#utility.yul\":20761:20940   */\n    tag_396:\n        /* \"#utility.yul\":20986:20987   */\n      0x01\n        /* \"#utility.yul\":20982:20983   */\n      0x02\n        /* \"#utility.yul\":20974:20980   */\n      dup9\n        /* \"#utility.yul\":20970:20984   */\n      mul\n        /* \"#utility.yul\":20966:20988   */\n      add\n        /* \"#utility.yul\":20960:20964   */\n      dup9\n        /* \"#utility.yul\":20953:20989   */\n      sstore\n        /* \"#utility.yul\":20388:20999   */\n      pop\n      pop\n      pop\n        /* \"#utility.yul\":20351:21238   */\n    tag_388:\n      pop\n        /* \"#utility.yul\":19941:21244   */\n      pop\n      pop\n      pop\n        /* \"#utility.yul\":19849:21244   */\n      pop\n      pop\n      jump\t// out\n\n    auxdata: 0xa2646970667358221220a961bbbfe5bfaf75556f62840facf3d9434794d42e1f7fd3fe0694fa98d0676c64736f6c634300081e0033\n}\n",
				"bytecode": {
					"linkReferences": {},
					"object": "6080604052348015600e575f5ffd5b506118858061001c5f395ff3fe608060405234801561000f575f5ffd5b5060043610610060575f3560e01c806304a87e38146100645780631868829014610082578063560f31921461009e5780637cbc9ae9146100ba578063c17a340e146100d6578063e1e29558146100f4575b5f5ffd5b61006c610110565b6040516100799190610ff3565b60405180910390f35b61009c60048036038101906100979190611045565b610314565b005b6100b860048036038101906100b39190611045565b610526565b005b6100d460048036038101906100cf91906110d1565b610828565b005b6100de610adb565b6040516100eb9190611171565b60405180910390f35b61010e60048036038101906101099190611045565b610b22565b005b606060015f3373ffffffffffffffffffffffffffffffffffffffff1673ffffffffffffffffffffffffffffffffffffffff1681526020019081526020015f20805480602002602001604051908101604052809291908181526020015f905b8282101561030b578382905f5260205f2090600502016040518060a00160405290815f8201805461019e906111b7565b80601f01602080910402602001604051908101604052809291908181526020018280546101ca906111b7565b80156102155780601f106101ec57610100808354040283529160200191610215565b820191905f5260205f20905b8154815290600101906020018083116101f857829003601f168201915b5050505050815260200160018201805461022e906111b7565b80601f016020809104026020016040519081016040528092919081815260200182805461025a906111b7565b80156102a55780601f1061027c576101008083540402835291602001916102a5565b820191905f5260205f20905b81548152906001019060200180831161028857829003601f168201915b505050505081526020016002820154815260200160038201548152602001600482015f9054906101000a900460ff1660028111156102e6576102e5610e74565b5b60028111156102f8576102f7610e74565b5b815250508152602001906001019061016e565b50505050905090565b8060015f3373ffffffffffffffffffffffffffffffffffffffff1673ffffffffffffffffffffffffffffffffffffffff1681526020019081526020015f20805490508110610397576040517f08c379a000000000000000000000000000000000000000000000000000000000815260040161038e90611241565b60405180910390fd5b5f60015f3373ffffffffffffffffffffffffffffffffffffffff1673ffffffffffffffffffffffffffffffffffffffff1681526020019081526020015f2083815481106103e7576103e661125f565b5b905f5260205f20906005020190505f600281111561040857610407610e74565b5b816004015f9054906101000a900460ff16600281111561042b5761042a610e74565b5b1461046b576040517f08c379a0000000000000000000000000000000000000000000000000000000008152600401610462906112d6565b60405180910390fd5b428160030154106104b1576040517f08c379a00000000000000000000000000000000000000000000000000000000081526004016104a89061133e565b60405180910390fd5b6002816004015f6101000a81548160ff021916908360028111156104d8576104d7610e74565b5b0217905550823373ffffffffffffffffffffffffffffffffffffffff167fc5c09e6ef32e79ce08770ecea60cd5e7915b242a238f0ac57fc39c0b3ba58d1960405160405180910390a3505050565b8060015f3373ffffffffffffffffffffffffffffffffffffffff1673ffffffffffffffffffffffffffffffffffffffff1681526020019081526020015f208054905081106105a9576040517f08c379a00000000000000000000000000000000000000000000000000000000081526004016105a090611241565b60405180910390fd5b5f60015f3373ffffffffffffffffffffffffffffffffffffffff1673ffffffffffffffffffffffffffffffffffffffff1681526020019081526020015f208054905090506001816105fa9190611389565b831461073d5760015f3373ffffffffffffffffffffffffffffffffffffffff1673ffffffffffffffffffffffffffffffffffffffff1681526020019081526020015f2060018261064a9190611389565b8154811061065b5761065a61125f565b5b905f5260205f20906005020160015f3373ffffffffffffffffffffffffffffffffffffffff1673ffffffffffffffffffffffffffffffffffffffff1681526020019081526020015f2084815481106106b6576106b561125f565b5b905f5260205f2090600502015f8201815f0190816106d4919061159e565b50600182018160010190816106e9919061159e565b506002820154816002015560038201548160030155600482015f9054906101000a900460ff16816004015f6101000a81548160ff0219169083600281111561073457610733610e74565b5b02179055509050505b60015f3373ffffffffffffffffffffffffffffffffffffffff1673ffffffffffffffffffffffffffffffffffffffff1681526020019081526020015f2080548061078a57610789611683565b5b600190038181905f5260205f2090600502015f5f82015f6107ab9190610d6b565b600182015f6107ba9190610d6b565b600282015f9055600382015f9055600482015f6101000a81549060ff021916905550509055823373ffffffffffffffffffffffffffffffffffffffff167fd1bc87501afcaa22b7f6481dac99ed45fbe02321873ca9b55c1f41b9d78b8fb360405160405180910390a3505050565b5f858590501161086d576040517f08c379a0000000000000000000000000000000000000000000000000000000008152600401610864906116fa565b60405180910390fd5b4281116108af576040517f08c379a00000000000000000000000000000000000000000000000000000000081526004016108a690611762565b60405180910390fd5b60015f3373ffffffffffffffffffffffffffffffffffffffff1673ffffffffffffffffffffffffffffffffffffffff1681526020019081526020015f206040518060a0016040528087878080601f0160208091040260200160405190810160405280939291908181526020018383808284375f81840152601f19601f82011690508083019250505050505050815260200185858080601f0160208091040260200160405190810160405280939291908181526020018383808284375f81840152601f19601f8201169050808301925050505050505081526020014281526020018381526020015f60028111156109a8576109a7610e74565b5b815250908060018154018082558091505060019003905f5260205f2090600502015f909190919091505f820151815f0190816109e49190611780565b5060208201518160010190816109fa9190611780565b5060408201518160020155606082015181600301556080820151816004015f6101000a81548160ff02191690836002811115610a3957610a38610e74565b5b021790555050505f6001805f3373ffffffffffffffffffffffffffffffffffffffff1673ffffffffffffffffffffffffffffffffffffffff1681526020019081526020015f2080549050610a8d9190611389565b9050803373ffffffffffffffffffffffffffffffffffffffff167ff2ba834cb120f28cac9129d80d6990b8d99d9a0a71487cec7d88bd8a2ba45cb960405160405180910390a3505050505050565b5f60015f3373ffffffffffffffffffffffffffffffffffffffff1673ffffffffffffffffffffffffffffffffffffffff1681526020019081526020015f2080549050905090565b8060015f3373ffffffffffffffffffffffffffffffffffffffff1673ffffffffffffffffffffffffffffffffffffffff1681526020019081526020015f20805490508110610ba5576040517f08c379a0000000000000000000000000000000000000000000000000000000008152600401610b9c90611241565b60405180910390fd5b5f60015f3373ffffffffffffffffffffffffffffffffffffffff1673ffffffffffffffffffffffffffffffffffffffff1681526020019081526020015f208381548110610bf557610bf461125f565b5b905f5260205f20906005020190505f6002811115610c1657610c15610e74565b5b816004015f9054906101000a900460ff166002811115610c3957610c38610e74565b5b14610c79576040517f08c379a0000000000000000000000000000000000000000000000000000000008152600401610c70906112d6565b60405180910390fd5b8060030154421115610cf6576002816004015f6101000a81548160ff02191690836002811115610cac57610cab610e74565b5b0217905550823373ffffffffffffffffffffffffffffffffffffffff167fc5c09e6ef32e79ce08770ecea60cd5e7915b242a238f0ac57fc39c0b3ba58d1960405160405180910390a35b6001816004015f6101000a81548160ff02191690836002811115610d1d57610d1c610e74565b5b0217905550823373ffffffffffffffffffffffffffffffffffffffff167ff684d89bb0f42287bf32838774e4b7f8a60c11804b3c6d1791fa55f30679264360405160405180910390a3505050565b508054610d77906111b7565b5f825580601f10610d885750610da5565b601f0160209004905f5260205f2090810190610da49190610da8565b5b50565b5b80821115610dbf575f815f905550600101610da9565b5090565b5f81519050919050565b5f82825260208201905092915050565b5f819050602082019050919050565b5f81519050919050565b5f82825260208201905092915050565b8281835e5f83830152505050565b5f601f19601f8301169050919050565b5f610e2e82610dec565b610e388185610df6565b9350610e48818560208601610e06565b610e5181610e14565b840191505092915050565b5f819050919050565b610e6e81610e5c565b82525050565b7f4e487b71000000000000000000000000000000000000000000000000000000005f52602160045260245ffd5b60038110610eb257610eb1610e74565b5b50565b5f819050610ec282610ea1565b919050565b5f610ed182610eb5565b9050919050565b610ee181610ec7565b82525050565b5f60a083015f8301518482035f860152610f018282610e24565b91505060208301518482036020860152610f1b8282610e24565b9150506040830151610f306040860182610e65565b506060830151610f436060860182610e65565b506080830151610f566080860182610ed8565b508091505092915050565b5f610f6c8383610ee7565b905092915050565b5f602082019050919050565b5f610f8a82610dc3565b610f948185610dcd565b935083602082028501610fa685610ddd565b805f5b85811015610fe15784840389528151610fc28582610f61565b9450610fcd83610f74565b925060208a01995050600181019050610fa9565b50829750879550505050505092915050565b5f6020820190508181035f83015261100b8184610f80565b905092915050565b5f5ffd5b5f5ffd5b61102481610e5c565b811461102e575f5ffd5b50565b5f8135905061103f8161101b565b92915050565b5f6020828403121561105a57611059611013565b5b5f61106784828501611031565b91505092915050565b5f5ffd5b5f5ffd5b5f5ffd5b5f5f83601f84011261109157611090611070565b5b8235905067ffffffffffffffff8111156110ae576110ad611074565b5b6020830191508360018202830111156110ca576110c9611078565b5b9250929050565b5f5f5f5f5f606086880312156110ea576110e9611013565b5b5f86013567ffffffffffffffff81111561110757611106611017565b5b6111138882890161107c565b9550955050602086013567ffffffffffffffff81111561113657611135611017565b5b6111428882890161107c565b9350935050604061115588828901611031565b9150509295509295909350565b61116b81610e5c565b82525050565b5f6020820190506111845f830184611162565b92915050565b7f4e487b71000000000000000000000000000000000000000000000000000000005f52602260045260245ffd5b5f60028204905060018216806111ce57607f821691505b6020821081036111e1576111e061118a565b5b50919050565b5f82825260208201905092915050565b7f496e76616c696465207461736b204944000000000000000000000000000000005f82015250565b5f61122b6010836111e7565b9150611236826111f7565b602082019050919050565b5f6020820190508181035f8301526112588161121f565b9050919050565b7f4e487b71000000000000000000000000000000000000000000000000000000005f52603260045260245ffd5b7f5461736b206d7573742062652050656e64696e670000000000000000000000005f82015250565b5f6112c06014836111e7565b91506112cb8261128c565b602082019050919050565b5f6020820190508181035f8301526112ed816112b4565b9050919050565b7f5461736b206973206e6f74206f766572647565207965740000000000000000005f82015250565b5f6113286017836111e7565b9150611333826112f4565b602082019050919050565b5f6020820190508181035f8301526113558161131c565b9050919050565b7f4e487b71000000000000000000000000000000000000000000000000000000005f52601160045260245ffd5b5f61139382610e5c565b915061139e83610e5c565b92508282039050818111156113b6576113b561135c565b5b92915050565b5f815490506113ca816111b7565b9050919050565b7f4e487b71000000000000000000000000000000000000000000000000000000005f52604160045260245ffd5b5f819050815f5260205f209050919050565b5f6020601f8301049050919050565b5f82821b905092915050565b5f6008830261145a7fffffffffffffffffffffffffffffffffffffffffffffffffffffffffffffffff8261141f565b611464868361141f565b95508019841693508086168417925050509392505050565b5f819050919050565b5f61149f61149a61149584610e5c565b61147c565b610e5c565b9050919050565b5f819050919050565b6114b883611485565b6114cc6114c4826114a6565b84845461142b565b825550505050565b5f5f905090565b6114e36114d4565b6114ee8184846114af565b505050565b5b81811015611511576115065f826114db565b6001810190506114f4565b5050565b601f82111561155657611527816113fe565b61153084611410565b8101602085101561153f578190505b61155361154b85611410565b8301826114f3565b50505b505050565b5f82821c905092915050565b5f6115765f198460080261155b565b1980831691505092915050565b5f61158e8383611567565b9150826002028217905092915050565b8181036115ac575050611681565b6115b5826113bc565b67ffffffffffffffff8111156115ce576115cd6113d1565b5b6115d882546111b7565b6115e3828285611515565b5f601f831160018114611610575f84156115fe578287015490505b6116088582611583565b86555061167a565b601f19841661161e876113fe565b9650611629866113fe565b5f5b828110156116505784890154825560018201915060018501945060208101905061162b565b8683101561166d5784890154611669601f891682611567565b8355505b6001600288020188555050505b5050505050505b565b7f4e487b71000000000000000000000000000000000000000000000000000000005f52603160045260245ffd5b7f5469746c65206d7573742062652070726f7669646564000000000000000000005f82015250565b5f6116e46016836111e7565b91506116ef826116b0565b602082019050919050565b5f6020820190508181035f830152611711816116d8565b9050919050565b7f446561646c696e65206d75737420626520696e207468652066757475726500005f82015250565b5f61174c601e836111e7565b915061175782611718565b602082019050919050565b5f6020820190508181035f83015261177981611740565b9050919050565b61178982610dec565b67ffffffffffffffff8111156117a2576117a16113d1565b5b6117ac82546111b7565b6117b7828285611515565b5f60209050601f8311600181146117e8575f84156117d6578287015190505b6117e08582611583565b865550611847565b601f1984166117f6866113fe565b5f5b8281101561181d578489015182556001820191506020850194506020810190506117f8565b8683101561183a5784890151611836601f891682611567565b8355505b6001600288020188555050505b50505050505056fea2646970667358221220a961bbbfe5bfaf75556f62840facf3d9434794d42e1f7fd3fe0694fa98d0676c64736f6c634300081e0033",
					"opcodes": "PUSH1 0x80 PUSH1 0x40 MSTORE CALLVALUE DUP1 ISZERO PUSH1 0xE JUMPI PUSH0 PUSH0 REVERT JUMPDEST POP PUSH2 0x1885 DUP1 PUSH2 0x1C PUSH0 CODECOPY PUSH0 RETURN INVALID PUSH1 0x80 PUSH1 0x40 MSTORE CALLVALUE DUP1 ISZERO PUSH2 0xF JUMPI PUSH0 PUSH0 REVERT JUMPDEST POP PUSH1 0x4 CALLDATASIZE LT PUSH2 0x60 JUMPI PUSH0 CALLDATALOAD PUSH1 0xE0 SHR DUP1 PUSH4 0x4A87E38 EQ PUSH2 0x64 JUMPI DUP1 PUSH4 0x18688290 EQ PUSH2 0x82 JUMPI DUP1 PUSH4 0x560F3192 EQ PUSH2 0x9E JUMPI DUP1 PUSH4 0x7CBC9AE9 EQ PUSH2 0xBA JUMPI DUP1 PUSH4 0xC17A340E EQ PUSH2 0xD6 JUMPI DUP1 PUSH4 0xE1E29558 EQ PUSH2 0xF4 JUMPI JUMPDEST PUSH0 PUSH0 REVERT JUMPDEST PUSH2 0x6C PUSH2 0x110 JUMP JUMPDEST PUSH1 0x40 MLOAD PUSH2 0x79 SWAP2 SWAP1 PUSH2 0xFF3 JUMP JUMPDEST PUSH1 0x40 MLOAD DUP1 SWAP2 SUB SWAP1 RETURN JUMPDEST PUSH2 0x9C PUSH1 0x4 DUP1 CALLDATASIZE SUB DUP2 ADD SWAP1 PUSH2 0x97 SWAP2 SWAP1 PUSH2 0x1045 JUMP JUMPDEST PUSH2 0x314 JUMP JUMPDEST STOP JUMPDEST PUSH2 0xB8 PUSH1 0x4 DUP1 CALLDATASIZE SUB DUP2 ADD SWAP1 PUSH2 0xB3 SWAP2 SWAP1 PUSH2 0x1045 JUMP JUMPDEST PUSH2 0x526 JUMP JUMPDEST STOP JUMPDEST PUSH2 0xD4 PUSH1 0x4 DUP1 CALLDATASIZE SUB DUP2 ADD SWAP1 PUSH2 0xCF SWAP2 SWAP1 PUSH2 0x10D1 JUMP JUMPDEST PUSH2 0x828 JUMP JUMPDEST STOP JUMPDEST PUSH2 0xDE PUSH2 0xADB JUMP JUMPDEST PUSH1 0x40 MLOAD PUSH2 0xEB SWAP2 SWAP1 PUSH2 0x1171 JUMP JUMPDEST PUSH1 0x40 MLOAD DUP1 SWAP2 SUB SWAP1 RETURN JUMPDEST PUSH2 0x10E PUSH1 0x4 DUP1 CALLDATASIZE SUB DUP2 ADD SWAP1 PUSH2 0x109 SWAP2 SWAP1 PUSH2 0x1045 JUMP JUMPDEST PUSH2 0xB22 JUMP JUMPDEST STOP JUMPDEST PUSH1 0x60 PUSH1 0x1 PUSH0 CALLER PUSH20 0xFFFFFFFFFFFFFFFFFFFFFFFFFFFFFFFFFFFFFFFF AND PUSH20 0xFFFFFFFFFFFFFFFFFFFFFFFFFFFFFFFFFFFFFFFF AND DUP2 MSTORE PUSH1 0x20 ADD SWAP1 DUP2 MSTORE PUSH1 0x20 ADD PUSH0 KECCAK256 DUP1 SLOAD DUP1 PUSH1 0x20 MUL PUSH1 0x20 ADD PUSH1 0x40 MLOAD SWAP1 DUP2 ADD PUSH1 0x40 MSTORE DUP1 SWAP3 SWAP2 SWAP1 DUP2 DUP2 MSTORE PUSH1 0x20 ADD PUSH0 SWAP1 JUMPDEST DUP3 DUP3 LT ISZERO PUSH2 0x30B JUMPI DUP4 DUP3 SWAP1 PUSH0 MSTORE PUSH1 0x20 PUSH0 KECCAK256 SWAP1 PUSH1 0x5 MUL ADD PUSH1 0x40 MLOAD DUP1 PUSH1 0xA0 ADD PUSH1 0x40 MSTORE SWAP1 DUP2 PUSH0 DUP3 ADD DUP1 SLOAD PUSH2 0x19E SWAP1 PUSH2 0x11B7 JUMP JUMPDEST DUP1 PUSH1 0x1F ADD PUSH1 0x20 DUP1 SWAP2 DIV MUL PUSH1 0x20 ADD PUSH1 0x40 MLOAD SWAP1 DUP2 ADD PUSH1 0x40 MSTORE DUP1 SWAP3 SWAP2 SWAP1 DUP2 DUP2 MSTORE PUSH1 0x20 ADD DUP3 DUP1 SLOAD PUSH2 0x1CA SWAP1 PUSH2 0x11B7 JUMP JUMPDEST DUP1 ISZERO PUSH2 0x215 JUMPI DUP1 PUSH1 0x1F LT PUSH2 0x1EC JUMPI PUSH2 0x100 DUP1 DUP4 SLOAD DIV MUL DUP4 MSTORE SWAP2 PUSH1 0x20 ADD SWAP2 PUSH2 0x215 JUMP JUMPDEST DUP3 ADD SWAP2 SWAP1 PUSH0 MSTORE PUSH1 0x20 PUSH0 KECCAK256 SWAP1 JUMPDEST DUP2 SLOAD DUP2 MSTORE SWAP1 PUSH1 0x1 ADD SWAP1 PUSH1 0x20 ADD DUP1 DUP4 GT PUSH2 0x1F8 JUMPI DUP3 SWAP1 SUB PUSH1 0x1F AND DUP3 ADD SWAP2 JUMPDEST POP POP POP POP POP DUP2 MSTORE PUSH1 0x20 ADD PUSH1 0x1 DUP3 ADD DUP1 SLOAD PUSH2 0x22E SWAP1 PUSH2 0x11B7 JUMP JUMPDEST DUP1 PUSH1 0x1F ADD PUSH1 0x20 DUP1 SWAP2 DIV MUL PUSH1 0x20 ADD PUSH1 0x40 MLOAD SWAP1 DUP2 ADD PUSH1 0x40 MSTORE DUP1 SWAP3 SWAP2 SWAP1 DUP2 DUP2 MSTORE PUSH1 0x20 ADD DUP3 DUP1 SLOAD PUSH2 0x25A SWAP1 PUSH2 0x11B7 JUMP JUMPDEST DUP1 ISZERO PUSH2 0x2A5 JUMPI DUP1 PUSH1 0x1F LT PUSH2 0x27C JUMPI PUSH2 0x100 DUP1 DUP4 SLOAD DIV MUL DUP4 MSTORE SWAP2 PUSH1 0x20 ADD SWAP2 PUSH2 0x2A5 JUMP JUMPDEST DUP3 ADD SWAP2 SWAP1 PUSH0 MSTORE PUSH1 0x20 PUSH0 KECCAK256 SWAP1 JUMPDEST DUP2 SLOAD DUP2 MSTORE SWAP1 PUSH1 0x1 ADD SWAP1 PUSH1 0x20 ADD DUP1 DUP4 GT PUSH2 0x288 JUMPI DUP3 SWAP1 SUB PUSH1 0x1F AND DUP3 ADD SWAP2 JUMPDEST POP POP POP POP POP DUP2 MSTORE PUSH1 0x20 ADD PUSH1 0x2 DUP3 ADD SLOAD DUP2 MSTORE PUSH1 0x20 ADD PUSH1 0x3 DUP3 ADD SLOAD DUP2 MSTORE PUSH1 0x20 ADD PUSH1 0x4 DUP3 ADD PUSH0 SWAP1 SLOAD SWAP1 PUSH2 0x100 EXP SWAP1 DIV PUSH1 0xFF AND PUSH1 0x2 DUP2 GT ISZERO PUSH2 0x2E6 JUMPI PUSH2 0x2E5 PUSH2 0xE74 JUMP JUMPDEST JUMPDEST PUSH1 0x2 DUP2 GT ISZERO PUSH2 0x2F8 JUMPI PUSH2 0x2F7 PUSH2 0xE74 JUMP JUMPDEST JUMPDEST DUP2 MSTORE POP POP DUP2 MSTORE PUSH1 0x20 ADD SWAP1 PUSH1 0x1 ADD SWAP1 PUSH2 0x16E JUMP JUMPDEST POP POP POP POP SWAP1 POP SWAP1 JUMP JUMPDEST DUP1 PUSH1 0x1 PUSH0 CALLER PUSH20 0xFFFFFFFFFFFFFFFFFFFFFFFFFFFFFFFFFFFFFFFF AND PUSH20 0xFFFFFFFFFFFFFFFFFFFFFFFFFFFFFFFFFFFFFFFF AND DUP2 MSTORE PUSH1 0x20 ADD SWAP1 DUP2 MSTORE PUSH1 0x20 ADD PUSH0 KECCAK256 DUP1 SLOAD SWAP1 POP DUP2 LT PUSH2 0x397 JUMPI PUSH1 0x40 MLOAD PUSH32 0x8C379A000000000000000000000000000000000000000000000000000000000 DUP2 MSTORE PUSH1 0x4 ADD PUSH2 0x38E SWAP1 PUSH2 0x1241 JUMP JUMPDEST PUSH1 0x40 MLOAD DUP1 SWAP2 SUB SWAP1 REVERT JUMPDEST PUSH0 PUSH1 0x1 PUSH0 CALLER PUSH20 0xFFFFFFFFFFFFFFFFFFFFFFFFFFFFFFFFFFFFFFFF AND PUSH20 0xFFFFFFFFFFFFFFFFFFFFFFFFFFFFFFFFFFFFFFFF AND DUP2 MSTORE PUSH1 0x20 ADD SWAP1 DUP2 MSTORE PUSH1 0x20 ADD PUSH0 KECCAK256 DUP4 DUP2 SLOAD DUP2 LT PUSH2 0x3E7 JUMPI PUSH2 0x3E6 PUSH2 0x125F JUMP JUMPDEST JUMPDEST SWAP1 PUSH0 MSTORE PUSH1 0x20 PUSH0 KECCAK256 SWAP1 PUSH1 0x5 MUL ADD SWAP1 POP PUSH0 PUSH1 0x2 DUP2 GT ISZERO PUSH2 0x408 JUMPI PUSH2 0x407 PUSH2 0xE74 JUMP JUMPDEST JUMPDEST DUP2 PUSH1 0x4 ADD PUSH0 SWAP1 SLOAD SWAP1 PUSH2 0x100 EXP SWAP1 DIV PUSH1 0xFF AND PUSH1 0x2 DUP2 GT ISZERO PUSH2 0x42B JUMPI PUSH2 0x42A PUSH2 0xE74 JUMP JUMPDEST JUMPDEST EQ PUSH2 0x46B JUMPI PUSH1 0x40 MLOAD PUSH32 0x8C379A000000000000000000000000000000000000000000000000000000000 DUP2 MSTORE PUSH1 0x4 ADD PUSH2 0x462 SWAP1 PUSH2 0x12D6 JUMP JUMPDEST PUSH1 0x40 MLOAD DUP1 SWAP2 SUB SWAP1 REVERT JUMPDEST TIMESTAMP DUP2 PUSH1 0x3 ADD SLOAD LT PUSH2 0x4B1 JUMPI PUSH1 0x40 MLOAD PUSH32 0x8C379A000000000000000000000000000000000000000000000000000000000 DUP2 MSTORE PUSH1 0x4 ADD PUSH2 0x4A8 SWAP1 PUSH2 0x133E JUMP JUMPDEST PUSH1 0x40 MLOAD DUP1 SWAP2 SUB SWAP1 REVERT JUMPDEST PUSH1 0x2 DUP2 PUSH1 0x4 ADD PUSH0 PUSH2 0x100 EXP DUP2 SLOAD DUP2 PUSH1 0xFF MUL NOT AND SWAP1 DUP4 PUSH1 0x2 DUP2 GT ISZERO PUSH2 0x4D8 JUMPI PUSH2 0x4D7 PUSH2 0xE74 JUMP JUMPDEST JUMPDEST MUL OR SWAP1 SSTORE POP DUP3 CALLER PUSH20 0xFFFFFFFFFFFFFFFFFFFFFFFFFFFFFFFFFFFFFFFF AND PUSH32 0xC5C09E6EF32E79CE08770ECEA60CD5E7915B242A238F0AC57FC39C0B3BA58D19 PUSH1 0x40 MLOAD PUSH1 0x40 MLOAD DUP1 SWAP2 SUB SWAP1 LOG3 POP POP POP JUMP JUMPDEST DUP1 PUSH1 0x1 PUSH0 CALLER PUSH20 0xFFFFFFFFFFFFFFFFFFFFFFFFFFFFFFFFFFFFFFFF AND PUSH20 0xFFFFFFFFFFFFFFFFFFFFFFFFFFFFFFFFFFFFFFFF AND DUP2 MSTORE PUSH1 0x20 ADD SWAP1 DUP2 MSTORE PUSH1 0x20 ADD PUSH0 KECCAK256 DUP1 SLOAD SWAP1 POP DUP2 LT PUSH2 0x5A9 JUMPI PUSH1 0x40 MLOAD PUSH32 0x8C379A000000000000000000000000000000000000000000000000000000000 DUP2 MSTORE PUSH1 0x4 ADD PUSH2 0x5A0 SWAP1 PUSH2 0x1241 JUMP JUMPDEST PUSH1 0x40 MLOAD DUP1 SWAP2 SUB SWAP1 REVERT JUMPDEST PUSH0 PUSH1 0x1 PUSH0 CALLER PUSH20 0xFFFFFFFFFFFFFFFFFFFFFFFFFFFFFFFFFFFFFFFF AND PUSH20 0xFFFFFFFFFFFFFFFFFFFFFFFFFFFFFFFFFFFFFFFF AND DUP2 MSTORE PUSH1 0x20 ADD SWAP1 DUP2 MSTORE PUSH1 0x20 ADD PUSH0 KECCAK256 DUP1 SLOAD SWAP1 POP SWAP1 POP PUSH1 0x1 DUP2 PUSH2 0x5FA SWAP2 SWAP1 PUSH2 0x1389 JUMP JUMPDEST DUP4 EQ PUSH2 0x73D JUMPI PUSH1 0x1 PUSH0 CALLER PUSH20 0xFFFFFFFFFFFFFFFFFFFFFFFFFFFFFFFFFFFFFFFF AND PUSH20 0xFFFFFFFFFFFFFFFFFFFFFFFFFFFFFFFFFFFFFFFF AND DUP2 MSTORE PUSH1 0x20 ADD SWAP1 DUP2 MSTORE PUSH1 0x20 ADD PUSH0 KECCAK256 PUSH1 0x1 DUP3 PUSH2 0x64A SWAP2 SWAP1 PUSH2 0x1389 JUMP JUMPDEST DUP2 SLOAD DUP2 LT PUSH2 0x65B JUMPI PUSH2 0x65A PUSH2 0x125F JUMP JUMPDEST JUMPDEST SWAP1 PUSH0 MSTORE PUSH1 0x20 PUSH0 KECCAK256 SWAP1 PUSH1 0x5 MUL ADD PUSH1 0x1 PUSH0 CALLER PUSH20 0xFFFFFFFFFFFFFFFFFFFFFFFFFFFFFFFFFFFFFFFF AND PUSH20 0xFFFFFFFFFFFFFFFFFFFFFFFFFFFFFFFFFFFFFFFF AND DUP2 MSTORE PUSH1 0x20 ADD SWAP1 DUP2 MSTORE PUSH1 0x20 ADD PUSH0 KECCAK256 DUP5 DUP2 SLOAD DUP2 LT PUSH2 0x6B6 JUMPI PUSH2 0x6B5 PUSH2 0x125F JUMP JUMPDEST JUMPDEST SWAP1 PUSH0 MSTORE PUSH1 0x20 PUSH0 KECCAK256 SWAP1 PUSH1 0x5 MUL ADD PUSH0 DUP3 ADD DUP2 PUSH0 ADD SWAP1 DUP2 PUSH2 0x6D4 SWAP2 SWAP1 PUSH2 0x159E JUMP JUMPDEST POP PUSH1 0x1 DUP3 ADD DUP2 PUSH1 0x1 ADD SWAP1 DUP2 PUSH2 0x6E9 SWAP2 SWAP1 PUSH2 0x159E JUMP JUMPDEST POP PUSH1 0x2 DUP3 ADD SLOAD DUP2 PUSH1 0x2 ADD SSTORE PUSH1 0x3 DUP3 ADD SLOAD DUP2 PUSH1 0x3 ADD SSTORE PUSH1 0x4 DUP3 ADD PUSH0 SWAP1 SLOAD SWAP1 PUSH2 0x100 EXP SWAP1 DIV PUSH1 0xFF AND DUP2 PUSH1 0x4 ADD PUSH0 PUSH2 0x100 EXP DUP2 SLOAD DUP2 PUSH1 0xFF MUL NOT AND SWAP1 DUP4 PUSH1 0x2 DUP2 GT ISZERO PUSH2 0x734 JUMPI PUSH2 0x733 PUSH2 0xE74 JUMP JUMPDEST JUMPDEST MUL OR SWAP1 SSTORE POP SWAP1 POP POP JUMPDEST PUSH1 0x1 PUSH0 CALLER PUSH20 0xFFFFFFFFFFFFFFFFFFFFFFFFFFFFFFFFFFFFFFFF AND PUSH20 0xFFFFFFFFFFFFFFFFFFFFFFFFFFFFFFFFFFFFFFFF AND DUP2 MSTORE PUSH1 0x20 ADD SWAP1 DUP2 MSTORE PUSH1 0x20 ADD PUSH0 KECCAK256 DUP1 SLOAD DUP1 PUSH2 0x78A JUMPI PUSH2 0x789 PUSH2 0x1683 JUMP JUMPDEST JUMPDEST PUSH1 0x1 SWAP1 SUB DUP2 DUP2 SWAP1 PUSH0 MSTORE PUSH1 0x20 PUSH0 KECCAK256 SWAP1 PUSH1 0x5 MUL ADD PUSH0 PUSH0 DUP3 ADD PUSH0 PUSH2 0x7AB SWAP2 SWAP1 PUSH2 0xD6B JUMP JUMPDEST PUSH1 0x1 DUP3 ADD PUSH0 PUSH2 0x7BA SWAP2 SWAP1 PUSH2 0xD6B JUMP JUMPDEST PUSH1 0x2 DUP3 ADD PUSH0 SWAP1 SSTORE PUSH1 0x3 DUP3 ADD PUSH0 SWAP1 SSTORE PUSH1 0x4 DUP3 ADD PUSH0 PUSH2 0x100 EXP DUP2 SLOAD SWAP1 PUSH1 0xFF MUL NOT AND SWAP1 SSTORE POP POP SWAP1 SSTORE DUP3 CALLER PUSH20 0xFFFFFFFFFFFFFFFFFFFFFFFFFFFFFFFFFFFFFFFF AND PUSH32 0xD1BC87501AFCAA22B7F6481DAC99ED45FBE02321873CA9B55C1F41B9D78B8FB3 PUSH1 0x40 MLOAD PUSH1 0x40 MLOAD DUP1 SWAP2 SUB SWAP1 LOG3 POP POP POP JUMP JUMPDEST PUSH0 DUP6 DUP6 SWAP1 POP GT PUSH2 0x86D JUMPI PUSH1 0x40 MLOAD PUSH32 0x8C379A000000000000000000000000000000000000000000000000000000000 DUP2 MSTORE PUSH1 0x4 ADD PUSH2 0x864 SWAP1 PUSH2 0x16FA JUMP JUMPDEST PUSH1 0x40 MLOAD DUP1 SWAP2 SUB SWAP1 REVERT JUMPDEST TIMESTAMP DUP2 GT PUSH2 0x8AF JUMPI PUSH1 0x40 MLOAD PUSH32 0x8C379A000000000000000000000000000000000000000000000000000000000 DUP2 MSTORE PUSH1 0x4 ADD PUSH2 0x8A6 SWAP1 PUSH2 0x1762 JUMP JUMPDEST PUSH1 0x40 MLOAD DUP1 SWAP2 SUB SWAP1 REVERT JUMPDEST PUSH1 0x1 PUSH0 CALLER PUSH20 0xFFFFFFFFFFFFFFFFFFFFFFFFFFFFFFFFFFFFFFFF AND PUSH20 0xFFFFFFFFFFFFFFFFFFFFFFFFFFFFFFFFFFFFFFFF AND DUP2 MSTORE PUSH1 0x20 ADD SWAP1 DUP2 MSTORE PUSH1 0x20 ADD PUSH0 KECCAK256 PUSH1 0x40 MLOAD DUP1 PUSH1 0xA0 ADD PUSH1 0x40 MSTORE DUP1 DUP8 DUP8 DUP1 DUP1 PUSH1 0x1F ADD PUSH1 0x20 DUP1 SWAP2 DIV MUL PUSH1 0x20 ADD PUSH1 0x40 MLOAD SWAP1 DUP2 ADD PUSH1 0x40 MSTORE DUP1 SWAP4 SWAP3 SWAP2 SWAP1 DUP2 DUP2 MSTORE PUSH1 0x20 ADD DUP4 DUP4 DUP1 DUP3 DUP5 CALLDATACOPY PUSH0 DUP2 DUP5 ADD MSTORE PUSH1 0x1F NOT PUSH1 0x1F DUP3 ADD AND SWAP1 POP DUP1 DUP4 ADD SWAP3 POP POP POP POP POP POP POP DUP2 MSTORE PUSH1 0x20 ADD DUP6 DUP6 DUP1 DUP1 PUSH1 0x1F ADD PUSH1 0x20 DUP1 SWAP2 DIV MUL PUSH1 0x20 ADD PUSH1 0x40 MLOAD SWAP1 DUP2 ADD PUSH1 0x40 MSTORE DUP1 SWAP4 SWAP3 SWAP2 SWAP1 DUP2 DUP2 MSTORE PUSH1 0x20 ADD DUP4 DUP4 DUP1 DUP3 DUP5 CALLDATACOPY PUSH0 DUP2 DUP5 ADD MSTORE PUSH1 0x1F NOT PUSH1 0x1F DUP3 ADD AND SWAP1 POP DUP1 DUP4 ADD SWAP3 POP POP POP POP POP POP POP DUP2 MSTORE PUSH1 0x20 ADD TIMESTAMP DUP2 MSTORE PUSH1 0x20 ADD DUP4 DUP2 MSTORE PUSH1 0x20 ADD PUSH0 PUSH1 0x2 DUP2 GT ISZERO PUSH2 0x9A8 JUMPI PUSH2 0x9A7 PUSH2 0xE74 JUMP JUMPDEST JUMPDEST DUP2 MSTORE POP SWAP1 DUP1 PUSH1 0x1 DUP2 SLOAD ADD DUP1 DUP3 SSTORE DUP1 SWAP2 POP POP PUSH1 0x1 SWAP1 SUB SWAP1 PUSH0 MSTORE PUSH1 0x20 PUSH0 KECCAK256 SWAP1 PUSH1 0x5 MUL ADD PUSH0 SWAP1 SWAP2 SWAP1 SWAP2 SWAP1 SWAP2 POP PUSH0 DUP3 ADD MLOAD DUP2 PUSH0 ADD SWAP1 DUP2 PUSH2 0x9E4 SWAP2 SWAP1 PUSH2 0x1780 JUMP JUMPDEST POP PUSH1 0x20 DUP3 ADD MLOAD DUP2 PUSH1 0x1 ADD SWAP1 DUP2 PUSH2 0x9FA SWAP2 SWAP1 PUSH2 0x1780 JUMP JUMPDEST POP PUSH1 0x40 DUP3 ADD MLOAD DUP2 PUSH1 0x2 ADD SSTORE PUSH1 0x60 DUP3 ADD MLOAD DUP2 PUSH1 0x3 ADD SSTORE PUSH1 0x80 DUP3 ADD MLOAD DUP2 PUSH1 0x4 ADD PUSH0 PUSH2 0x100 EXP DUP2 SLOAD DUP2 PUSH1 0xFF MUL NOT AND SWAP1 DUP4 PUSH1 0x2 DUP2 GT ISZERO PUSH2 0xA39 JUMPI PUSH2 0xA38 PUSH2 0xE74 JUMP JUMPDEST JUMPDEST MUL OR SWAP1 SSTORE POP POP POP PUSH0 PUSH1 0x1 DUP1 PUSH0 CALLER PUSH20 0xFFFFFFFFFFFFFFFFFFFFFFFFFFFFFFFFFFFFFFFF AND PUSH20 0xFFFFFFFFFFFFFFFFFFFFFFFFFFFFFFFFFFFFFFFF AND DUP2 MSTORE PUSH1 0x20 ADD SWAP1 DUP2 MSTORE PUSH1 0x20 ADD PUSH0 KECCAK256 DUP1 SLOAD SWAP1 POP PUSH2 0xA8D SWAP2 SWAP1 PUSH2 0x1389 JUMP JUMPDEST SWAP1 POP DUP1 CALLER PUSH20 0xFFFFFFFFFFFFFFFFFFFFFFFFFFFFFFFFFFFFFFFF AND PUSH32 0xF2BA834CB120F28CAC9129D80D6990B8D99D9A0A71487CEC7D88BD8A2BA45CB9 PUSH1 0x40 MLOAD PUSH1 0x40 MLOAD DUP1 SWAP2 SUB SWAP1 LOG3 POP POP POP POP POP POP JUMP JUMPDEST PUSH0 PUSH1 0x1 PUSH0 CALLER PUSH20 0xFFFFFFFFFFFFFFFFFFFFFFFFFFFFFFFFFFFFFFFF AND PUSH20 0xFFFFFFFFFFFFFFFFFFFFFFFFFFFFFFFFFFFFFFFF AND DUP2 MSTORE PUSH1 0x20 ADD SWAP1 DUP2 MSTORE PUSH1 0x20 ADD PUSH0 KECCAK256 DUP1 SLOAD SWAP1 POP SWAP1 POP SWAP1 JUMP JUMPDEST DUP1 PUSH1 0x1 PUSH0 CALLER PUSH20 0xFFFFFFFFFFFFFFFFFFFFFFFFFFFFFFFFFFFFFFFF AND PUSH20 0xFFFFFFFFFFFFFFFFFFFFFFFFFFFFFFFFFFFFFFFF AND DUP2 MSTORE PUSH1 0x20 ADD SWAP1 DUP2 MSTORE PUSH1 0x20 ADD PUSH0 KECCAK256 DUP1 SLOAD SWAP1 POP DUP2 LT PUSH2 0xBA5 JUMPI PUSH1 0x40 MLOAD PUSH32 0x8C379A000000000000000000000000000000000000000000000000000000000 DUP2 MSTORE PUSH1 0x4 ADD PUSH2 0xB9C SWAP1 PUSH2 0x1241 JUMP JUMPDEST PUSH1 0x40 MLOAD DUP1 SWAP2 SUB SWAP1 REVERT JUMPDEST PUSH0 PUSH1 0x1 PUSH0 CALLER PUSH20 0xFFFFFFFFFFFFFFFFFFFFFFFFFFFFFFFFFFFFFFFF AND PUSH20 0xFFFFFFFFFFFFFFFFFFFFFFFFFFFFFFFFFFFFFFFF AND DUP2 MSTORE PUSH1 0x20 ADD SWAP1 DUP2 MSTORE PUSH1 0x20 ADD PUSH0 KECCAK256 DUP4 DUP2 SLOAD DUP2 LT PUSH2 0xBF5 JUMPI PUSH2 0xBF4 PUSH2 0x125F JUMP JUMPDEST JUMPDEST SWAP1 PUSH0 MSTORE PUSH1 0x20 PUSH0 KECCAK256 SWAP1 PUSH1 0x5 MUL ADD SWAP1 POP PUSH0 PUSH1 0x2 DUP2 GT ISZERO PUSH2 0xC16 JUMPI PUSH2 0xC15 PUSH2 0xE74 JUMP JUMPDEST JUMPDEST DUP2 PUSH1 0x4 ADD PUSH0 SWAP1 SLOAD SWAP1 PUSH2 0x100 EXP SWAP1 DIV PUSH1 0xFF AND PUSH1 0x2 DUP2 GT ISZERO PUSH2 0xC39 JUMPI PUSH2 0xC38 PUSH2 0xE74 JUMP JUMPDEST JUMPDEST EQ PUSH2 0xC79 JUMPI PUSH1 0x40 MLOAD PUSH32 0x8C379A000000000000000000000000000000000000000000000000000000000 DUP2 MSTORE PUSH1 0x4 ADD PUSH2 0xC70 SWAP1 PUSH2 0x12D6 JUMP JUMPDEST PUSH1 0x40 MLOAD DUP1 SWAP2 SUB SWAP1 REVERT JUMPDEST DUP1 PUSH1 0x3 ADD SLOAD TIMESTAMP GT ISZERO PUSH2 0xCF6 JUMPI PUSH1 0x2 DUP2 PUSH1 0x4 ADD PUSH0 PUSH2 0x100 EXP DUP2 SLOAD DUP2 PUSH1 0xFF MUL NOT AND SWAP1 DUP4 PUSH1 0x2 DUP2 GT ISZERO PUSH2 0xCAC JUMPI PUSH2 0xCAB PUSH2 0xE74 JUMP JUMPDEST JUMPDEST MUL OR SWAP1 SSTORE POP DUP3 CALLER PUSH20 0xFFFFFFFFFFFFFFFFFFFFFFFFFFFFFFFFFFFFFFFF AND PUSH32 0xC5C09E6EF32E79CE08770ECEA60CD5E7915B242A238F0AC57FC39C0B3BA58D19 PUSH1 0x40 MLOAD PUSH1 0x40 MLOAD DUP1 SWAP2 SUB SWAP1 LOG3 JUMPDEST PUSH1 0x1 DUP2 PUSH1 0x4 ADD PUSH0 PUSH2 0x100 EXP DUP2 SLOAD DUP2 PUSH1 0xFF MUL NOT AND SWAP1 DUP4 PUSH1 0x2 DUP2 GT ISZERO PUSH2 0xD1D JUMPI PUSH2 0xD1C PUSH2 0xE74 JUMP JUMPDEST JUMPDEST MUL OR SWAP1 SSTORE POP DUP3 CALLER PUSH20 0xFFFFFFFFFFFFFFFFFFFFFFFFFFFFFFFFFFFFFFFF AND PUSH32 0xF684D89BB0F42287BF32838774E4B7F8A60C11804B3C6D1791FA55F306792643 PUSH1 0x40 MLOAD PUSH1 0x40 MLOAD DUP1 SWAP2 SUB SWAP1 LOG3 POP POP POP JUMP JUMPDEST POP DUP1 SLOAD PUSH2 0xD77 SWAP1 PUSH2 0x11B7 JUMP JUMPDEST PUSH0 DUP3 SSTORE DUP1 PUSH1 0x1F LT PUSH2 0xD88 JUMPI POP PUSH2 0xDA5 JUMP JUMPDEST PUSH1 0x1F ADD PUSH1 0x20 SWAP1 DIV SWAP1 PUSH0 MSTORE PUSH1 0x20 PUSH0 KECCAK256 SWAP1 DUP2 ADD SWAP1 PUSH2 0xDA4 SWAP2 SWAP1 PUSH2 0xDA8 JUMP JUMPDEST JUMPDEST POP JUMP JUMPDEST JUMPDEST DUP1 DUP3 GT ISZERO PUSH2 0xDBF JUMPI PUSH0 DUP2 PUSH0 SWAP1 SSTORE POP PUSH1 0x1 ADD PUSH2 0xDA9 JUMP JUMPDEST POP SWAP1 JUMP JUMPDEST PUSH0 DUP2 MLOAD SWAP1 POP SWAP2 SWAP1 POP JUMP JUMPDEST PUSH0 DUP3 DUP3 MSTORE PUSH1 0x20 DUP3 ADD SWAP1 POP SWAP3 SWAP2 POP POP JUMP JUMPDEST PUSH0 DUP2 SWAP1 POP PUSH1 0x20 DUP3 ADD SWAP1 POP SWAP2 SWAP1 POP JUMP JUMPDEST PUSH0 DUP2 MLOAD SWAP1 POP SWAP2 SWAP1 POP JUMP JUMPDEST PUSH0 DUP3 DUP3 MSTORE PUSH1 0x20 DUP3 ADD SWAP1 POP SWAP3 SWAP2 POP POP JUMP JUMPDEST DUP3 DUP2 DUP4 MCOPY PUSH0 DUP4 DUP4 ADD MSTORE POP POP POP JUMP JUMPDEST PUSH0 PUSH1 0x1F NOT PUSH1 0x1F DUP4 ADD AND SWAP1 POP SWAP2 SWAP1 POP JUMP JUMPDEST PUSH0 PUSH2 0xE2E DUP3 PUSH2 0xDEC JUMP JUMPDEST PUSH2 0xE38 DUP2 DUP6 PUSH2 0xDF6 JUMP JUMPDEST SWAP4 POP PUSH2 0xE48 DUP2 DUP6 PUSH1 0x20 DUP7 ADD PUSH2 0xE06 JUMP JUMPDEST PUSH2 0xE51 DUP2 PUSH2 0xE14 JUMP JUMPDEST DUP5 ADD SWAP2 POP POP SWAP3 SWAP2 POP POP JUMP JUMPDEST PUSH0 DUP2 SWAP1 POP SWAP2 SWAP1 POP JUMP JUMPDEST PUSH2 0xE6E DUP2 PUSH2 0xE5C JUMP JUMPDEST DUP3 MSTORE POP POP JUMP JUMPDEST PUSH32 0x4E487B7100000000000000000000000000000000000000000000000000000000 PUSH0 MSTORE PUSH1 0x21 PUSH1 0x4 MSTORE PUSH1 0x24 PUSH0 REVERT JUMPDEST PUSH1 0x3 DUP2 LT PUSH2 0xEB2 JUMPI PUSH2 0xEB1 PUSH2 0xE74 JUMP JUMPDEST JUMPDEST POP JUMP JUMPDEST PUSH0 DUP2 SWAP1 POP PUSH2 0xEC2 DUP3 PUSH2 0xEA1 JUMP JUMPDEST SWAP2 SWAP1 POP JUMP JUMPDEST PUSH0 PUSH2 0xED1 DUP3 PUSH2 0xEB5 JUMP JUMPDEST SWAP1 POP SWAP2 SWAP1 POP JUMP JUMPDEST PUSH2 0xEE1 DUP2 PUSH2 0xEC7 JUMP JUMPDEST DUP3 MSTORE POP POP JUMP JUMPDEST PUSH0 PUSH1 0xA0 DUP4 ADD PUSH0 DUP4 ADD MLOAD DUP5 DUP3 SUB PUSH0 DUP7 ADD MSTORE PUSH2 0xF01 DUP3 DUP3 PUSH2 0xE24 JUMP JUMPDEST SWAP2 POP POP PUSH1 0x20 DUP4 ADD MLOAD DUP5 DUP3 SUB PUSH1 0x20 DUP7 ADD MSTORE PUSH2 0xF1B DUP3 DUP3 PUSH2 0xE24 JUMP JUMPDEST SWAP2 POP POP PUSH1 0x40 DUP4 ADD MLOAD PUSH2 0xF30 PUSH1 0x40 DUP7 ADD DUP3 PUSH2 0xE65 JUMP JUMPDEST POP PUSH1 0x60 DUP4 ADD MLOAD PUSH2 0xF43 PUSH1 0x60 DUP7 ADD DUP3 PUSH2 0xE65 JUMP JUMPDEST POP PUSH1 0x80 DUP4 ADD MLOAD PUSH2 0xF56 PUSH1 0x80 DUP7 ADD DUP3 PUSH2 0xED8 JUMP JUMPDEST POP DUP1 SWAP2 POP POP SWAP3 SWAP2 POP POP JUMP JUMPDEST PUSH0 PUSH2 0xF6C DUP4 DUP4 PUSH2 0xEE7 JUMP JUMPDEST SWAP1 POP SWAP3 SWAP2 POP POP JUMP JUMPDEST PUSH0 PUSH1 0x20 DUP3 ADD SWAP1 POP SWAP2 SWAP1 POP JUMP JUMPDEST PUSH0 PUSH2 0xF8A DUP3 PUSH2 0xDC3 JUMP JUMPDEST PUSH2 0xF94 DUP2 DUP6 PUSH2 0xDCD JUMP JUMPDEST SWAP4 POP DUP4 PUSH1 0x20 DUP3 MUL DUP6 ADD PUSH2 0xFA6 DUP6 PUSH2 0xDDD JUMP JUMPDEST DUP1 PUSH0 JUMPDEST DUP6 DUP2 LT ISZERO PUSH2 0xFE1 JUMPI DUP5 DUP5 SUB DUP10 MSTORE DUP2 MLOAD PUSH2 0xFC2 DUP6 DUP3 PUSH2 0xF61 JUMP JUMPDEST SWAP5 POP PUSH2 0xFCD DUP4 PUSH2 0xF74 JUMP JUMPDEST SWAP3 POP PUSH1 0x20 DUP11 ADD SWAP10 POP POP PUSH1 0x1 DUP2 ADD SWAP1 POP PUSH2 0xFA9 JUMP JUMPDEST POP DUP3 SWAP8 POP DUP8 SWAP6 POP POP POP POP POP POP SWAP3 SWAP2 POP POP JUMP JUMPDEST PUSH0 PUSH1 0x20 DUP3 ADD SWAP1 POP DUP2 DUP2 SUB PUSH0 DUP4 ADD MSTORE PUSH2 0x100B DUP2 DUP5 PUSH2 0xF80 JUMP JUMPDEST SWAP1 POP SWAP3 SWAP2 POP POP JUMP JUMPDEST PUSH0 PUSH0 REVERT JUMPDEST PUSH0 PUSH0 REVERT JUMPDEST PUSH2 0x1024 DUP2 PUSH2 0xE5C JUMP JUMPDEST DUP2 EQ PUSH2 0x102E JUMPI PUSH0 PUSH0 REVERT JUMPDEST POP JUMP JUMPDEST PUSH0 DUP2 CALLDATALOAD SWAP1 POP PUSH2 0x103F DUP2 PUSH2 0x101B JUMP JUMPDEST SWAP3 SWAP2 POP POP JUMP JUMPDEST PUSH0 PUSH1 0x20 DUP3 DUP5 SUB SLT ISZERO PUSH2 0x105A JUMPI PUSH2 0x1059 PUSH2 0x1013 JUMP JUMPDEST JUMPDEST PUSH0 PUSH2 0x1067 DUP5 DUP3 DUP6 ADD PUSH2 0x1031 JUMP JUMPDEST SWAP2 POP POP SWAP3 SWAP2 POP POP JUMP JUMPDEST PUSH0 PUSH0 REVERT JUMPDEST PUSH0 PUSH0 REVERT JUMPDEST PUSH0 PUSH0 REVERT JUMPDEST PUSH0 PUSH0 DUP4 PUSH1 0x1F DUP5 ADD SLT PUSH2 0x1091 JUMPI PUSH2 0x1090 PUSH2 0x1070 JUMP JUMPDEST JUMPDEST DUP3 CALLDATALOAD SWAP1 POP PUSH8 0xFFFFFFFFFFFFFFFF DUP2 GT ISZERO PUSH2 0x10AE JUMPI PUSH2 0x10AD PUSH2 0x1074 JUMP JUMPDEST JUMPDEST PUSH1 0x20 DUP4 ADD SWAP2 POP DUP4 PUSH1 0x1 DUP3 MUL DUP4 ADD GT ISZERO PUSH2 0x10CA JUMPI PUSH2 0x10C9 PUSH2 0x1078 JUMP JUMPDEST JUMPDEST SWAP3 POP SWAP3 SWAP1 POP JUMP JUMPDEST PUSH0 PUSH0 PUSH0 PUSH0 PUSH0 PUSH1 0x60 DUP7 DUP9 SUB SLT ISZERO PUSH2 0x10EA JUMPI PUSH2 0x10E9 PUSH2 0x1013 JUMP JUMPDEST JUMPDEST PUSH0 DUP7 ADD CALLDATALOAD PUSH8 0xFFFFFFFFFFFFFFFF DUP2 GT ISZERO PUSH2 0x1107 JUMPI PUSH2 0x1106 PUSH2 0x1017 JUMP JUMPDEST JUMPDEST PUSH2 0x1113 DUP9 DUP3 DUP10 ADD PUSH2 0x107C JUMP JUMPDEST SWAP6 POP SWAP6 POP POP PUSH1 0x20 DUP7 ADD CALLDATALOAD PUSH8 0xFFFFFFFFFFFFFFFF DUP2 GT ISZERO PUSH2 0x1136 JUMPI PUSH2 0x1135 PUSH2 0x1017 JUMP JUMPDEST JUMPDEST PUSH2 0x1142 DUP9 DUP3 DUP10 ADD PUSH2 0x107C JUMP JUMPDEST SWAP4 POP SWAP4 POP POP PUSH1 0x40 PUSH2 0x1155 DUP9 DUP3 DUP10 ADD PUSH2 0x1031 JUMP JUMPDEST SWAP2 POP POP SWAP3 SWAP6 POP SWAP3 SWAP6 SWAP1 SWAP4 POP JUMP JUMPDEST PUSH2 0x116B DUP2 PUSH2 0xE5C JUMP JUMPDEST DUP3 MSTORE POP POP JUMP JUMPDEST PUSH0 PUSH1 0x20 DUP3 ADD SWAP1 POP PUSH2 0x1184 PUSH0 DUP4 ADD DUP5 PUSH2 0x1162 JUMP JUMPDEST SWAP3 SWAP2 POP POP JUMP JUMPDEST PUSH32 0x4E487B7100000000000000000000000000000000000000000000000000000000 PUSH0 MSTORE PUSH1 0x22 PUSH1 0x4 MSTORE PUSH1 0x24 PUSH0 REVERT JUMPDEST PUSH0 PUSH1 0x2 DUP3 DIV SWAP1 POP PUSH1 0x1 DUP3 AND DUP1 PUSH2 0x11CE JUMPI PUSH1 0x7F DUP3 AND SWAP2 POP JUMPDEST PUSH1 0x20 DUP3 LT DUP2 SUB PUSH2 0x11E1 JUMPI PUSH2 0x11E0 PUSH2 0x118A JUMP JUMPDEST JUMPDEST POP SWAP2 SWAP1 POP JUMP JUMPDEST PUSH0 DUP3 DUP3 MSTORE PUSH1 0x20 DUP3 ADD SWAP1 POP SWAP3 SWAP2 POP POP JUMP JUMPDEST PUSH32 0x496E76616C696465207461736B20494400000000000000000000000000000000 PUSH0 DUP3 ADD MSTORE POP JUMP JUMPDEST PUSH0 PUSH2 0x122B PUSH1 0x10 DUP4 PUSH2 0x11E7 JUMP JUMPDEST SWAP2 POP PUSH2 0x1236 DUP3 PUSH2 0x11F7 JUMP JUMPDEST PUSH1 0x20 DUP3 ADD SWAP1 POP SWAP2 SWAP1 POP JUMP JUMPDEST PUSH0 PUSH1 0x20 DUP3 ADD SWAP1 POP DUP2 DUP2 SUB PUSH0 DUP4 ADD MSTORE PUSH2 0x1258 DUP2 PUSH2 0x121F JUMP JUMPDEST SWAP1 POP SWAP2 SWAP1 POP JUMP JUMPDEST PUSH32 0x4E487B7100000000000000000000000000000000000000000000000000000000 PUSH0 MSTORE PUSH1 0x32 PUSH1 0x4 MSTORE PUSH1 0x24 PUSH0 REVERT JUMPDEST PUSH32 0x5461736B206D7573742062652050656E64696E67000000000000000000000000 PUSH0 DUP3 ADD MSTORE POP JUMP JUMPDEST PUSH0 PUSH2 0x12C0 PUSH1 0x14 DUP4 PUSH2 0x11E7 JUMP JUMPDEST SWAP2 POP PUSH2 0x12CB DUP3 PUSH2 0x128C JUMP JUMPDEST PUSH1 0x20 DUP3 ADD SWAP1 POP SWAP2 SWAP1 POP JUMP JUMPDEST PUSH0 PUSH1 0x20 DUP3 ADD SWAP1 POP DUP2 DUP2 SUB PUSH0 DUP4 ADD MSTORE PUSH2 0x12ED DUP2 PUSH2 0x12B4 JUMP JUMPDEST SWAP1 POP SWAP2 SWAP1 POP JUMP JUMPDEST PUSH32 0x5461736B206973206E6F74206F76657264756520796574000000000000000000 PUSH0 DUP3 ADD MSTORE POP JUMP JUMPDEST PUSH0 PUSH2 0x1328 PUSH1 0x17 DUP4 PUSH2 0x11E7 JUMP JUMPDEST SWAP2 POP PUSH2 0x1333 DUP3 PUSH2 0x12F4 JUMP JUMPDEST PUSH1 0x20 DUP3 ADD SWAP1 POP SWAP2 SWAP1 POP JUMP JUMPDEST PUSH0 PUSH1 0x20 DUP3 ADD SWAP1 POP DUP2 DUP2 SUB PUSH0 DUP4 ADD MSTORE PUSH2 0x1355 DUP2 PUSH2 0x131C JUMP JUMPDEST SWAP1 POP SWAP2 SWAP1 POP JUMP JUMPDEST PUSH32 0x4E487B7100000000000000000000000000000000000000000000000000000000 PUSH0 MSTORE PUSH1 0x11 PUSH1 0x4 MSTORE PUSH1 0x24 PUSH0 REVERT JUMPDEST PUSH0 PUSH2 0x1393 DUP3 PUSH2 0xE5C JUMP JUMPDEST SWAP2 POP PUSH2 0x139E DUP4 PUSH2 0xE5C JUMP JUMPDEST SWAP3 POP DUP3 DUP3 SUB SWAP1 POP DUP2 DUP2 GT ISZERO PUSH2 0x13B6 JUMPI PUSH2 0x13B5 PUSH2 0x135C JUMP JUMPDEST JUMPDEST SWAP3 SWAP2 POP POP JUMP JUMPDEST PUSH0 DUP2 SLOAD SWAP1 POP PUSH2 0x13CA DUP2 PUSH2 0x11B7 JUMP JUMPDEST SWAP1 POP SWAP2 SWAP1 POP JUMP JUMPDEST PUSH32 0x4E487B7100000000000000000000000000000000000000000000000000000000 PUSH0 MSTORE PUSH1 0x41 PUSH1 0x4 MSTORE PUSH1 0x24 PUSH0 REVERT JUMPDEST PUSH0 DUP2 SWAP1 POP DUP2 PUSH0 MSTORE PUSH1 0x20 PUSH0 KECCAK256 SWAP1 POP SWAP2 SWAP1 POP JUMP JUMPDEST PUSH0 PUSH1 0x20 PUSH1 0x1F DUP4 ADD DIV SWAP1 POP SWAP2 SWAP1 POP JUMP JUMPDEST PUSH0 DUP3 DUP3 SHL SWAP1 POP SWAP3 SWAP2 POP POP JUMP JUMPDEST PUSH0 PUSH1 0x8 DUP4 MUL PUSH2 0x145A PUSH32 0xFFFFFFFFFFFFFFFFFFFFFFFFFFFFFFFFFFFFFFFFFFFFFFFFFFFFFFFFFFFFFFFF DUP3 PUSH2 0x141F JUMP JUMPDEST PUSH2 0x1464 DUP7 DUP4 PUSH2 0x141F JUMP JUMPDEST SWAP6 POP DUP1 NOT DUP5 AND SWAP4 POP DUP1 DUP7 AND DUP5 OR SWAP3 POP POP POP SWAP4 SWAP3 POP POP POP JUMP JUMPDEST PUSH0 DUP2 SWAP1 POP SWAP2 SWAP1 POP JUMP JUMPDEST PUSH0 PUSH2 0x149F PUSH2 0x149A PUSH2 0x1495 DUP5 PUSH2 0xE5C JUMP JUMPDEST PUSH2 0x147C JUMP JUMPDEST PUSH2 0xE5C JUMP JUMPDEST SWAP1 POP SWAP2 SWAP1 POP JUMP JUMPDEST PUSH0 DUP2 SWAP1 POP SWAP2 SWAP1 POP JUMP JUMPDEST PUSH2 0x14B8 DUP4 PUSH2 0x1485 JUMP JUMPDEST PUSH2 0x14CC PUSH2 0x14C4 DUP3 PUSH2 0x14A6 JUMP JUMPDEST DUP5 DUP5 SLOAD PUSH2 0x142B JUMP JUMPDEST DUP3 SSTORE POP POP POP POP JUMP JUMPDEST PUSH0 PUSH0 SWAP1 POP SWAP1 JUMP JUMPDEST PUSH2 0x14E3 PUSH2 0x14D4 JUMP JUMPDEST PUSH2 0x14EE DUP2 DUP5 DUP5 PUSH2 0x14AF JUMP JUMPDEST POP POP POP JUMP JUMPDEST JUMPDEST DUP2 DUP2 LT ISZERO PUSH2 0x1511 JUMPI PUSH2 0x1506 PUSH0 DUP3 PUSH2 0x14DB JUMP JUMPDEST PUSH1 0x1 DUP2 ADD SWAP1 POP PUSH2 0x14F4 JUMP JUMPDEST POP POP JUMP JUMPDEST PUSH1 0x1F DUP3 GT ISZERO PUSH2 0x1556 JUMPI PUSH2 0x1527 DUP2 PUSH2 0x13FE JUMP JUMPDEST PUSH2 0x1530 DUP5 PUSH2 0x1410 JUMP JUMPDEST DUP2 ADD PUSH1 0x20 DUP6 LT ISZERO PUSH2 0x153F JUMPI DUP2 SWAP1 POP JUMPDEST PUSH2 0x1553 PUSH2 0x154B DUP6 PUSH2 0x1410 JUMP JUMPDEST DUP4 ADD DUP3 PUSH2 0x14F3 JUMP JUMPDEST POP POP JUMPDEST POP POP POP JUMP JUMPDEST PUSH0 DUP3 DUP3 SHR SWAP1 POP SWAP3 SWAP2 POP POP JUMP JUMPDEST PUSH0 PUSH2 0x1576 PUSH0 NOT DUP5 PUSH1 0x8 MUL PUSH2 0x155B JUMP JUMPDEST NOT DUP1 DUP4 AND SWAP2 POP POP SWAP3 SWAP2 POP POP JUMP JUMPDEST PUSH0 PUSH2 0x158E DUP4 DUP4 PUSH2 0x1567 JUMP JUMPDEST SWAP2 POP DUP3 PUSH1 0x2 MUL DUP3 OR SWAP1 POP SWAP3 SWAP2 POP POP JUMP JUMPDEST DUP2 DUP2 SUB PUSH2 0x15AC JUMPI POP POP PUSH2 0x1681 JUMP JUMPDEST PUSH2 0x15B5 DUP3 PUSH2 0x13BC JUMP JUMPDEST PUSH8 0xFFFFFFFFFFFFFFFF DUP2 GT ISZERO PUSH2 0x15CE JUMPI PUSH2 0x15CD PUSH2 0x13D1 JUMP JUMPDEST JUMPDEST PUSH2 0x15D8 DUP3 SLOAD PUSH2 0x11B7 JUMP JUMPDEST PUSH2 0x15E3 DUP3 DUP3 DUP6 PUSH2 0x1515 JUMP JUMPDEST PUSH0 PUSH1 0x1F DUP4 GT PUSH1 0x1 DUP2 EQ PUSH2 0x1610 JUMPI PUSH0 DUP5 ISZERO PUSH2 0x15FE JUMPI DUP3 DUP8 ADD SLOAD SWAP1 POP JUMPDEST PUSH2 0x1608 DUP6 DUP3 PUSH2 0x1583 JUMP JUMPDEST DUP7 SSTORE POP PUSH2 0x167A JUMP JUMPDEST PUSH1 0x1F NOT DUP5 AND PUSH2 0x161E DUP8 PUSH2 0x13FE JUMP JUMPDEST SWAP7 POP PUSH2 0x1629 DUP7 PUSH2 0x13FE JUMP JUMPDEST PUSH0 JUMPDEST DUP3 DUP2 LT ISZERO PUSH2 0x1650 JUMPI DUP5 DUP10 ADD SLOAD DUP3 SSTORE PUSH1 0x1 DUP3 ADD SWAP2 POP PUSH1 0x1 DUP6 ADD SWAP5 POP PUSH1 0x20 DUP2 ADD SWAP1 POP PUSH2 0x162B JUMP JUMPDEST DUP7 DUP4 LT ISZERO PUSH2 0x166D JUMPI DUP5 DUP10 ADD SLOAD PUSH2 0x1669 PUSH1 0x1F DUP10 AND DUP3 PUSH2 0x1567 JUMP JUMPDEST DUP4 SSTORE POP JUMPDEST PUSH1 0x1 PUSH1 0x2 DUP9 MUL ADD DUP9 SSTORE POP POP POP JUMPDEST POP POP POP POP POP POP JUMPDEST JUMP JUMPDEST PUSH32 0x4E487B7100000000000000000000000000000000000000000000000000000000 PUSH0 MSTORE PUSH1 0x31 PUSH1 0x4 MSTORE PUSH1 0x24 PUSH0 REVERT JUMPDEST PUSH32 0x5469746C65206D7573742062652070726F766964656400000000000000000000 PUSH0 DUP3 ADD MSTORE POP JUMP JUMPDEST PUSH0 PUSH2 0x16E4 PUSH1 0x16 DUP4 PUSH2 0x11E7 JUMP JUMPDEST SWAP2 POP PUSH2 0x16EF DUP3 PUSH2 0x16B0 JUMP JUMPDEST PUSH1 0x20 DUP3 ADD SWAP1 POP SWAP2 SWAP1 POP JUMP JUMPDEST PUSH0 PUSH1 0x20 DUP3 ADD SWAP1 POP DUP2 DUP2 SUB PUSH0 DUP4 ADD MSTORE PUSH2 0x1711 DUP2 PUSH2 0x16D8 JUMP JUMPDEST SWAP1 POP SWAP2 SWAP1 POP JUMP JUMPDEST PUSH32 0x446561646C696E65206D75737420626520696E20746865206675747572650000 PUSH0 DUP3 ADD MSTORE POP JUMP JUMPDEST PUSH0 PUSH2 0x174C PUSH1 0x1E DUP4 PUSH2 0x11E7 JUMP JUMPDEST SWAP2 POP PUSH2 0x1757 DUP3 PUSH2 0x1718 JUMP JUMPDEST PUSH1 0x20 DUP3 ADD SWAP1 POP SWAP2 SWAP1 POP JUMP JUMPDEST PUSH0 PUSH1 0x20 DUP3 ADD SWAP1 POP DUP2 DUP2 SUB PUSH0 DUP4 ADD MSTORE PUSH2 0x1779 DUP2 PUSH2 0x1740 JUMP JUMPDEST SWAP1 POP SWAP2 SWAP1 POP JUMP JUMPDEST PUSH2 0x1789 DUP3 PUSH2 0xDEC JUMP JUMPDEST PUSH8 0xFFFFFFFFFFFFFFFF DUP2 GT ISZERO PUSH2 0x17A2 JUMPI PUSH2 0x17A1 PUSH2 0x13D1 JUMP JUMPDEST JUMPDEST PUSH2 0x17AC DUP3 SLOAD PUSH2 0x11B7 JUMP JUMPDEST PUSH2 0x17B7 DUP3 DUP3 DUP6 PUSH2 0x1515 JUMP JUMPDEST PUSH0 PUSH1 0x20 SWAP1 POP PUSH1 0x1F DUP4 GT PUSH1 0x1 DUP2 EQ PUSH2 0x17E8 JUMPI PUSH0 DUP5 ISZERO PUSH2 0x17D6 JUMPI DUP3 DUP8 ADD MLOAD SWAP1 POP JUMPDEST PUSH2 0x17E0 DUP6 DUP3 PUSH2 0x1583 JUMP JUMPDEST DUP7 SSTORE POP PUSH2 0x1847 JUMP JUMPDEST PUSH1 0x1F NOT DUP5 AND PUSH2 0x17F6 DUP7 PUSH2 0x13FE JUMP JUMPDEST PUSH0 JUMPDEST DUP3 DUP2 LT ISZERO PUSH2 0x181D JUMPI DUP5 DUP10 ADD MLOAD DUP3 SSTORE PUSH1 0x1 DUP3 ADD SWAP2 POP PUSH1 0x20 DUP6 ADD SWAP5 POP PUSH1 0x20 DUP2 ADD SWAP1 POP PUSH2 0x17F8 JUMP JUMPDEST DUP7 DUP4 LT ISZERO PUSH2 0x183A JUMPI DUP5 DUP10 ADD MLOAD PUSH2 0x1836 PUSH1 0x1F DUP10 AND DUP3 PUSH2 0x1567 JUMP JUMPDEST DUP4 SSTORE POP JUMPDEST PUSH1 0x1 PUSH1 0x2 DUP9 MUL ADD DUP9 SSTORE POP POP POP JUMPDEST POP POP POP POP POP POP JUMP INVALID LOG2 PUSH5 0x6970667358 0x22 SLT KECCAK256 0xA9 PUSH2 0xBBBF JUMPF 0xBFAF PUSH22 0x556F62840FACF3D9434794D42E1F7FD3FE0694FA98D0 PUSH8 0x6C64736F6C634300 ADDMOD 0x1E STOP CALLER "
				},
				"gasEstimates": {
					"creation": {
						"codeDepositCost": "1255400",
						"executionCost": "1306",
						"totalCost": "1256706"
					},
					"external": {
						"addTask(string,string,uint256)": "infinite",
						"completeTask(uint256)": "61006",
						"deleteTask(uint256)": "infinite",
						"getTaskCount()": "2593",
						"getTasks()": "infinite",
						"setOverdueTask(uint256)": "35085"
					}
				},
				"methodIdentifiers": {
					"addTask(string,string,uint256)": "7cbc9ae9",
					"completeTask(uint256)": "e1e29558",
					"deleteTask(uint256)": "560f3192",
					"getTaskCount()": "c17a340e",
					"getTasks()": "04a87e38",
					"setOverdueTask(uint256)": "18688290"
				}
			},
			"storageLayout": {
				"storage": [
					{
						"astId": 3,
						"contract": "contracts/3_Ballot.sol:ToDoList",
						"label": "assigner",
						"offset": 0,
						"slot": "0",
						"type": "t_address"
					},
					{
						"astId": 25,
						"contract": "contracts/3_Ballot.sol:ToDoList",
						"label": "tasks",
						"offset": 0,
						"slot": "1",
						"type": "t_mapping(t_address,t_array(t_struct(Task)19_storage)dyn_storage)"
					}
				],
				"types": {
					"t_address": {
						"encoding": "inplace",
						"label": "address",
						"numberOfBytes": "20"
					},
					"t_array(t_struct(Task)19_storage)dyn_storage": {
						"base": "t_struct(Task)19_storage",
						"encoding": "dynamic_array",
						"label": "struct ToDoList.Task[]",
						"numberOfBytes": "32"
					},
					"t_enum(STATUS)7": {
						"encoding": "inplace",
						"label": "enum ToDoList.STATUS",
						"numberOfBytes": "1"
					},
					"t_mapping(t_address,t_array(t_struct(Task)19_storage)dyn_storage)": {
						"encoding": "mapping",
						"key": "t_address",
						"label": "mapping(address => struct ToDoList.Task[])",
						"numberOfBytes": "32",
						"value": "t_array(t_struct(Task)19_storage)dyn_storage"
					},
					"t_string_storage": {
						"encoding": "bytes",
						"label": "string",
						"numberOfBytes": "32"
					},
					"t_struct(Task)19_storage": {
						"encoding": "inplace",
						"label": "struct ToDoList.Task",
						"members": [
							{
								"astId": 9,
								"contract": "contracts/3_Ballot.sol:ToDoList",
								"label": "title",
								"offset": 0,
								"slot": "0",
								"type": "t_string_storage"
							},
							{
								"astId": 11,
								"contract": "contracts/3_Ballot.sol:ToDoList",
								"label": "task",
								"offset": 0,
								"slot": "1",
								"type": "t_string_storage"
							},
							{
								"astId": 13,
								"contract": "contracts/3_Ballot.sol:ToDoList",
								"label": "createdAt",
								"offset": 0,
								"slot": "2",
								"type": "t_uint256"
							},
							{
								"astId": 15,
								"contract": "contracts/3_Ballot.sol:ToDoList",
								"label": "deadline",
								"offset": 0,
								"slot": "3",
								"type": "t_uint256"
							},
							{
								"astId": 18,
								"contract": "contracts/3_Ballot.sol:ToDoList",
								"label": "status",
								"offset": 0,
								"slot": "4",
								"type": "t_enum(STATUS)7"
							}
						],
						"numberOfBytes": "160"
					},
					"t_uint256": {
						"encoding": "inplace",
						"label": "uint256",
						"numberOfBytes": "32"
					}
				}
			},
			"userdoc": {
				"kind": "user",
				"methods": {},
				"version": 1
			}
		}
	}
}